{
	"contracts/src/LiquidationArchive.sol": {
		"LiquidationArchive": {
			"abi": [
				{
					"inputs": [],
					"stateMutability": "nonpayable",
					"type": "constructor"
				},
				{
					"inputs": [],
					"name": "InvalidCurrency",
					"type": "error"
				},
				{
					"inputs": [],
					"name": "InvalidRecord",
					"type": "error"
				},
				{
					"inputs": [],
					"name": "RecordNotFound",
					"type": "error"
				},
				{
					"inputs": [],
					"name": "Unauthorized",
					"type": "error"
				},
				{
					"inputs": [],
					"name": "ZeroAddress",
					"type": "error"
				},
				{
					"anonymous": false,
					"inputs": [
						{
							"indexed": true,
							"internalType": "uint256",
							"name": "recordId",
							"type": "uint256"
						},
						{
							"indexed": true,
							"internalType": "address",
							"name": "borrower",
							"type": "address"
						},
						{
							"indexed": true,
							"internalType": "address",
							"name": "liquidator",
							"type": "address"
						},
						{
							"indexed": false,
							"internalType": "uint256",
							"name": "debtRepaid",
							"type": "uint256"
						},
						{
							"indexed": false,
							"internalType": "uint256",
							"name": "collateralSeized",
							"type": "uint256"
						},
						{
							"indexed": false,
							"internalType": "uint8",
							"name": "currency",
							"type": "uint8"
						},
						{
							"indexed": false,
							"internalType": "bytes32",
							"name": "bscTxHash",
							"type": "bytes32"
						}
					],
					"name": "LiquidationLogged",
					"type": "event"
				},
				{
					"anonymous": false,
					"inputs": [
						{
							"indexed": true,
							"internalType": "address",
							"name": "bot",
							"type": "address"
						}
					],
					"name": "LoggerBotUpdated",
					"type": "event"
				},
				{
					"anonymous": false,
					"inputs": [
						{
							"indexed": true,
							"internalType": "address",
							"name": "previous",
							"type": "address"
						},
						{
							"indexed": true,
							"internalType": "address",
							"name": "next_",
							"type": "address"
						}
					],
					"name": "OwnershipTransferred",
					"type": "event"
				},
				{
					"inputs": [],
					"name": "CURRENCY_INR",
					"outputs": [
						{
							"internalType": "uint8",
							"name": "",
							"type": "uint8"
						}
					],
					"stateMutability": "view",
					"type": "function"
				},
				{
					"inputs": [],
					"name": "CURRENCY_USD",
					"outputs": [
						{
							"internalType": "uint8",
							"name": "",
							"type": "uint8"
						}
					],
					"stateMutability": "view",
					"type": "function"
				},
				{
					"inputs": [],
					"name": "getGlobalStats",
					"outputs": [
						{
							"internalType": "uint256",
							"name": "totalEvents",
							"type": "uint256"
						},
						{
							"internalType": "uint256",
							"name": "totalUSD",
							"type": "uint256"
						},
						{
							"internalType": "uint256",
							"name": "totalINR",
							"type": "uint256"
						},
						{
							"internalType": "uint256",
							"name": "totalBNBSeized",
							"type": "uint256"
						}
					],
					"stateMutability": "view",
					"type": "function"
				},
				{
					"inputs": [
						{
							"internalType": "uint256",
							"name": "recordId",
							"type": "uint256"
						}
					],
					"name": "getLiquidation",
					"outputs": [
						{
							"components": [
								{
									"internalType": "address",
									"name": "borrower",
									"type": "address"
								},
								{
									"internalType": "address",
									"name": "liquidator",
									"type": "address"
								},
								{
									"internalType": "uint256",
									"name": "debtRepaid",
									"type": "uint256"
								},
								{
									"internalType": "uint256",
									"name": "collateralSeized",
									"type": "uint256"
								},
								{
									"internalType": "uint256",
									"name": "bonusSeized",
									"type": "uint256"
								},
								{
									"internalType": "uint8",
									"name": "currency",
									"type": "uint8"
								},
								{
									"internalType": "uint256",
									"name": "timestamp",
									"type": "uint256"
								},
								{
									"internalType": "uint256",
									"name": "bscBlockNumber",
									"type": "uint256"
								},
								{
									"internalType": "bytes32",
									"name": "bscTxHash",
									"type": "bytes32"
								}
							],
							"internalType": "struct LiquidationArchive.LiquidationRecord",
							"name": "",
							"type": "tuple"
						}
					],
					"stateMutability": "view",
					"type": "function"
				},
				{
					"inputs": [
						{
							"internalType": "address",
							"name": "borrower",
							"type": "address"
						}
					],
					"name": "getLiquidationsByBorrower",
					"outputs": [
						{
							"internalType": "uint256[]",
							"name": "ids",
							"type": "uint256[]"
						}
					],
					"stateMutability": "view",
					"type": "function"
				},
				{
					"inputs": [
						{
							"internalType": "uint256",
							"name": "offset",
							"type": "uint256"
						},
						{
							"internalType": "uint256",
							"name": "pageSize",
							"type": "uint256"
						}
					],
					"name": "getLiquidationsPaginated",
					"outputs": [
						{
							"components": [
								{
									"internalType": "address",
									"name": "borrower",
									"type": "address"
								},
								{
									"internalType": "address",
									"name": "liquidator",
									"type": "address"
								},
								{
									"internalType": "uint256",
									"name": "debtRepaid",
									"type": "uint256"
								},
								{
									"internalType": "uint256",
									"name": "collateralSeized",
									"type": "uint256"
								},
								{
									"internalType": "uint256",
									"name": "bonusSeized",
									"type": "uint256"
								},
								{
									"internalType": "uint8",
									"name": "currency",
									"type": "uint8"
								},
								{
									"internalType": "uint256",
									"name": "timestamp",
									"type": "uint256"
								},
								{
									"internalType": "uint256",
									"name": "bscBlockNumber",
									"type": "uint256"
								},
								{
									"internalType": "bytes32",
									"name": "bscTxHash",
									"type": "bytes32"
								}
							],
							"internalType": "struct LiquidationArchive.LiquidationRecord[]",
							"name": "page",
							"type": "tuple[]"
						}
					],
					"stateMutability": "view",
					"type": "function"
				},
				{
					"inputs": [],
					"name": "getTotalRecords",
					"outputs": [
						{
							"internalType": "uint256",
							"name": "",
							"type": "uint256"
						}
					],
					"stateMutability": "view",
					"type": "function"
				},
				{
					"inputs": [
						{
							"internalType": "address",
							"name": "",
							"type": "address"
						}
					],
					"name": "liquidationCount",
					"outputs": [
						{
							"internalType": "uint256",
							"name": "",
							"type": "uint256"
						}
					],
					"stateMutability": "view",
					"type": "function"
				},
				{
					"inputs": [
						{
							"internalType": "uint256",
							"name": "",
							"type": "uint256"
						}
					],
					"name": "liquidations",
					"outputs": [
						{
							"internalType": "address",
							"name": "borrower",
							"type": "address"
						},
						{
							"internalType": "address",
							"name": "liquidator",
							"type": "address"
						},
						{
							"internalType": "uint256",
							"name": "debtRepaid",
							"type": "uint256"
						},
						{
							"internalType": "uint256",
							"name": "collateralSeized",
							"type": "uint256"
						},
						{
							"internalType": "uint256",
							"name": "bonusSeized",
							"type": "uint256"
						},
						{
							"internalType": "uint8",
							"name": "currency",
							"type": "uint8"
						},
						{
							"internalType": "uint256",
							"name": "timestamp",
							"type": "uint256"
						},
						{
							"internalType": "uint256",
							"name": "bscBlockNumber",
							"type": "uint256"
						},
						{
							"internalType": "bytes32",
							"name": "bscTxHash",
							"type": "bytes32"
						}
					],
					"stateMutability": "view",
					"type": "function"
				},
				{
					"inputs": [
						{
							"internalType": "address",
							"name": "borrower",
							"type": "address"
						},
						{
							"internalType": "address",
							"name": "liquidator",
							"type": "address"
						},
						{
							"internalType": "uint256",
							"name": "debtRepaid",
							"type": "uint256"
						},
						{
							"internalType": "uint256",
							"name": "collateralSeized",
							"type": "uint256"
						},
						{
							"internalType": "uint256",
							"name": "bonusSeized",
							"type": "uint256"
						},
						{
							"internalType": "uint8",
							"name": "currency",
							"type": "uint8"
						},
						{
							"internalType": "uint256",
							"name": "bscBlockNumber",
							"type": "uint256"
						},
						{
							"internalType": "bytes32",
							"name": "bscTxHash",
							"type": "bytes32"
						}
					],
					"name": "logLiquidation",
					"outputs": [
						{
							"internalType": "uint256",
							"name": "recordId",
							"type": "uint256"
						}
					],
					"stateMutability": "nonpayable",
					"type": "function"
				},
				{
					"inputs": [],
					"name": "loggerBot",
					"outputs": [
						{
							"internalType": "address",
							"name": "",
							"type": "address"
						}
					],
					"stateMutability": "view",
					"type": "function"
				},
				{
					"inputs": [],
					"name": "owner",
					"outputs": [
						{
							"internalType": "address",
							"name": "",
							"type": "address"
						}
					],
					"stateMutability": "view",
					"type": "function"
				},
				{
					"inputs": [
						{
							"internalType": "address",
							"name": "bot",
							"type": "address"
						}
					],
					"name": "setLoggerBot",
					"outputs": [],
					"stateMutability": "nonpayable",
					"type": "function"
				},
				{
					"inputs": [],
					"name": "totalCollateralSeized",
					"outputs": [
						{
							"internalType": "uint256",
							"name": "",
							"type": "uint256"
						}
					],
					"stateMutability": "view",
					"type": "function"
				},
				{
					"inputs": [],
					"name": "totalDebtRepaidINR",
					"outputs": [
						{
							"internalType": "uint256",
							"name": "",
							"type": "uint256"
						}
					],
					"stateMutability": "view",
					"type": "function"
				},
				{
					"inputs": [],
					"name": "totalDebtRepaidUSD",
					"outputs": [
						{
							"internalType": "uint256",
							"name": "",
							"type": "uint256"
						}
					],
					"stateMutability": "view",
					"type": "function"
				},
				{
					"inputs": [],
					"name": "totalLiquidationEvents",
					"outputs": [
						{
							"internalType": "uint256",
							"name": "",
							"type": "uint256"
						}
					],
					"stateMutability": "view",
					"type": "function"
				},
				{
					"inputs": [
						{
							"internalType": "address",
							"name": "newOwner",
							"type": "address"
						}
					],
					"name": "transferOwnership",
					"outputs": [],
					"stateMutability": "nonpayable",
					"type": "function"
				}
			],
			"devdoc": {
				"kind": "dev",
				"methods": {
					"getGlobalStats()": {
						"returns": {
							"totalBNBSeized": "  Cumulative BNB seized (wei).",
							"totalEvents": "     Total liquidations ever logged.",
							"totalINR": "        Cumulative pmINR repaid (18-dec).",
							"totalUSD": "        Cumulative pmUSD repaid (18-dec)."
						}
					},
					"logLiquidation(address,address,uint256,uint256,uint256,uint8,uint256,bytes32)": {
						"params": {
							"bonusSeized": "Bonus BNB portion (wei).",
							"borrower": "Address liquidated on BSC.",
							"bscBlockNumber": "BSC block number of the liquidation tx.",
							"bscTxHash": "BSC transaction hash (cross-chain proof).",
							"collateralSeized": "Total BNB seized including bonus (wei).",
							"currency": "0 = USD, 1 = INR.",
							"debtRepaid": "pmUSD or pmINR repaid (18-decimal).",
							"liquidator": "Address that called liquidate() on BSC."
						},
						"returns": {
							"recordId": "        Index of the new record in the array."
						}
					}
				},
				"title": "LiquidationArchive",
				"version": 1
			},
			"evm": {
				"assembly": "    /* \"contracts/src/LiquidationArchive.sol\":543:9349  contract LiquidationArchive {... */\n  mstore(0x40, 0x80)\n    /* \"contracts/src/LiquidationArchive.sol\":3302:3351  constructor() {... */\n  callvalue\n  dup1\n  iszero\n  tag_1\n  jumpi\n  revert(0x00, 0x00)\ntag_1:\n  pop\n    /* \"contracts/src/LiquidationArchive.sol\":3334:3344  msg.sender */\n  caller\n    /* \"contracts/src/LiquidationArchive.sol\":3326:3331  owner */\n  0x06\n  0x00\n    /* \"contracts/src/LiquidationArchive.sol\":3326:3344  owner = msg.sender */\n  0x0100\n  exp\n  dup2\n  sload\n  dup2\n  0xffffffffffffffffffffffffffffffffffffffff\n  mul\n  not\n  and\n  swap1\n  dup4\n  0xffffffffffffffffffffffffffffffffffffffff\n  and\n  mul\n  or\n  swap1\n  sstore\n  pop\n    /* \"contracts/src/LiquidationArchive.sol\":543:9349  contract LiquidationArchive {... */\n  dataSize(sub_0)\n  dup1\n  dataOffset(sub_0)\n  0x00\n  codecopy\n  0x00\n  return\nstop\n\nsub_0: assembly {\n        /* \"contracts/src/LiquidationArchive.sol\":543:9349  contract LiquidationArchive {... */\n      mstore(0x40, 0x80)\n      callvalue\n      dup1\n      iszero\n      tag_1\n      jumpi\n      revert(0x00, 0x00)\n    tag_1:\n      pop\n      jumpi(tag_2, lt(calldatasize, 0x04))\n      shr(0xe0, calldataload(0x00))\n      dup1\n      0x956cb698\n      gt\n      tag_21\n      jumpi\n      dup1\n      0xc6a2ae8f\n      gt\n      tag_22\n      jumpi\n      dup1\n      0xc6a2ae8f\n      eq\n      tag_16\n      jumpi\n      dup1\n      0xd497747b\n      eq\n      tag_17\n      jumpi\n      dup1\n      0xda35e1d1\n      eq\n      tag_18\n      jumpi\n      dup1\n      0xf2fde38b\n      eq\n      tag_19\n      jumpi\n      dup1\n      0xff6321d9\n      eq\n      tag_20\n      jumpi\n      jump(tag_2)\n    tag_22:\n      dup1\n      0x956cb698\n      eq\n      tag_12\n      jumpi\n      dup1\n      0xa66c84f4\n      eq\n      tag_13\n      jumpi\n      dup1\n      0xba5a6a06\n      eq\n      tag_14\n      jumpi\n      dup1\n      0xc28c4c44\n      eq\n      tag_15\n      jumpi\n      jump(tag_2)\n    tag_21:\n      dup1\n      0x7c94b1ba\n      gt\n      tag_23\n      jumpi\n      dup1\n      0x7c94b1ba\n      eq\n      tag_7\n      jumpi\n      dup1\n      0x86b8da04\n      eq\n      tag_8\n      jumpi\n      dup1\n      0x8831f724\n      eq\n      tag_9\n      jumpi\n      dup1\n      0x8bf2265b\n      eq\n      tag_10\n      jumpi\n      dup1\n      0x8da5cb5b\n      eq\n      tag_11\n      jumpi\n      jump(tag_2)\n    tag_23:\n      dup1\n      0x0a993b33\n      eq\n      tag_3\n      jumpi\n      dup1\n      0x0aeacb5e\n      eq\n      tag_4\n      jumpi\n      dup1\n      0x1143ef22\n      eq\n      tag_5\n      jumpi\n      dup1\n      0x6b4169c3\n      eq\n      tag_6\n      jumpi\n    tag_2:\n      revert(0x00, 0x00)\n        /* \"contracts/src/LiquidationArchive.sol\":7694:8202  function getLiquidationsPaginated(uint256 offset, uint256 pageSize)... */\n    tag_3:\n      tag_24\n      0x04\n      dup1\n      calldatasize\n      sub\n      dup2\n      add\n      swap1\n      tag_25\n      swap2\n      swap1\n      tag_26\n      jump\t// in\n    tag_25:\n      tag_27\n      jump\t// in\n    tag_24:\n      mload(0x40)\n      tag_28\n      swap2\n      swap1\n      tag_29\n      jump\t// in\n    tag_28:\n      mload(0x40)\n      dup1\n      swap2\n      sub\n      swap1\n      return\n        /* \"contracts/src/LiquidationArchive.sol\":7503:7605  function getTotalRecords() external view returns (uint256) {... */\n    tag_4:\n      tag_30\n      tag_31\n      jump\t// in\n    tag_30:\n      mload(0x40)\n      tag_32\n      swap2\n      swap1\n      tag_33\n      jump\t// in\n    tag_32:\n      mload(0x40)\n      dup1\n      swap2\n      sub\n      swap1\n      return\n        /* \"contracts/src/LiquidationArchive.sol\":8272:8669  function getLiquidationsByBorrower(address borrower)... */\n    tag_5:\n      tag_34\n      0x04\n      dup1\n      calldatasize\n      sub\n      dup2\n      add\n      swap1\n      tag_35\n      swap2\n      swap1\n      tag_36\n      jump\t// in\n    tag_35:\n      tag_37\n      jump\t// in\n    tag_34:\n      mload(0x40)\n      tag_38\n      swap2\n      swap1\n      tag_39\n      jump\t// in\n    tag_38:\n      mload(0x40)\n      dup1\n      swap2\n      sub\n      swap1\n      return\n        /* \"contracts/src/LiquidationArchive.sol\":6803:7213  function getGlobalStats()... */\n    tag_6:\n      tag_40\n      tag_41\n      jump\t// in\n    tag_40:\n      mload(0x40)\n      tag_42\n      swap5\n      swap4\n      swap3\n      swap2\n      swap1\n      tag_43\n      jump\t// in\n    tag_42:\n      mload(0x40)\n      dup1\n      swap2\n      sub\n      swap1\n      return\n        /* \"contracts/src/LiquidationArchive.sol\":1791:1824  uint256 public totalDebtRepaidINR */\n    tag_7:\n      tag_44\n      tag_45\n      jump\t// in\n    tag_44:\n      mload(0x40)\n      tag_46\n      swap2\n      swap1\n      tag_33\n      jump\t// in\n    tag_46:\n      mload(0x40)\n      dup1\n      swap2\n      sub\n      swap1\n      return\n        /* \"contracts/src/LiquidationArchive.sol\":1992:2043  mapping(address => uint256) public liquidationCount */\n    tag_8:\n      tag_47\n      0x04\n      dup1\n      calldatasize\n      sub\n      dup2\n      add\n      swap1\n      tag_48\n      swap2\n      swap1\n      tag_36\n      jump\t// in\n    tag_48:\n      tag_49\n      jump\t// in\n    tag_47:\n      mload(0x40)\n      tag_50\n      swap2\n      swap1\n      tag_33\n      jump\t// in\n    tag_50:\n      mload(0x40)\n      dup1\n      swap2\n      sub\n      swap1\n      return\n        /* \"contracts/src/LiquidationArchive.sol\":1948:1985  uint256 public totalLiquidationEvents */\n    tag_9:\n      tag_51\n      tag_52\n      jump\t// in\n    tag_51:\n      mload(0x40)\n      tag_53\n      swap2\n      swap1\n      tag_33\n      jump\t// in\n    tag_53:\n      mload(0x40)\n      dup1\n      swap2\n      sub\n      swap1\n      return\n        /* \"contracts/src/LiquidationArchive.sol\":8959:9134  function setLoggerBot(address bot) external onlyOwner {... */\n    tag_10:\n      tag_54\n      0x04\n      dup1\n      calldatasize\n      sub\n      dup2\n      add\n      swap1\n      tag_55\n      swap2\n      swap1\n      tag_36\n      jump\t// in\n    tag_55:\n      tag_56\n      jump\t// in\n    tag_54:\n      stop\n        /* \"contracts/src/LiquidationArchive.sol\":2050:2070  address public owner */\n    tag_11:\n      tag_57\n      tag_58\n      jump\t// in\n    tag_57:\n      mload(0x40)\n      tag_59\n      swap2\n      swap1\n      tag_60\n      jump\t// in\n    tag_59:\n      mload(0x40)\n      dup1\n      swap2\n      sub\n      swap1\n      return\n        /* \"contracts/src/LiquidationArchive.sol\":2076:2100  address public loggerBot */\n    tag_12:\n      tag_61\n      tag_62\n      jump\t// in\n    tag_61:\n      mload(0x40)\n      tag_63\n      swap2\n      swap1\n      tag_60\n      jump\t// in\n    tag_63:\n      mload(0x40)\n      dup1\n      swap2\n      sub\n      swap1\n      return\n        /* \"contracts/src/LiquidationArchive.sol\":1664:1703  LiquidationRecord[] public liquidations */\n    tag_13:\n      tag_64\n      0x04\n      dup1\n      calldatasize\n      sub\n      dup2\n      add\n      swap1\n      tag_65\n      swap2\n      swap1\n      tag_66\n      jump\t// in\n    tag_65:\n      tag_67\n      jump\t// in\n    tag_64:\n      mload(0x40)\n      tag_68\n      swap10\n      swap9\n      swap8\n      swap7\n      swap6\n      swap5\n      swap4\n      swap3\n      swap2\n      swap1\n      tag_69\n      jump\t// in\n    tag_68:\n      mload(0x40)\n      dup1\n      swap2\n      sub\n      swap1\n      return\n        /* \"contracts/src/LiquidationArchive.sol\":1710:1743  uint256 public totalDebtRepaidUSD */\n    tag_14:\n      tag_70\n      tag_71\n      jump\t// in\n    tag_70:\n      mload(0x40)\n      tag_72\n      swap2\n      swap1\n      tag_33\n      jump\t// in\n    tag_72:\n      mload(0x40)\n      dup1\n      swap2\n      sub\n      swap1\n      return\n        /* \"contracts/src/LiquidationArchive.sol\":1872:1908  uint256 public totalCollateralSeized */\n    tag_15:\n      tag_73\n      tag_74\n      jump\t// in\n    tag_73:\n      mload(0x40)\n      tag_75\n      swap2\n      swap1\n      tag_33\n      jump\t// in\n    tag_75:\n      mload(0x40)\n      dup1\n      swap2\n      sub\n      swap1\n      return\n        /* \"contracts/src/LiquidationArchive.sol\":7262:7497  function getLiquidation(uint256 recordId)... */\n    tag_16:\n      tag_76\n      0x04\n      dup1\n      calldatasize\n      sub\n      dup2\n      add\n      swap1\n      tag_77\n      swap2\n      swap1\n      tag_66\n      jump\t// in\n    tag_77:\n      tag_78\n      jump\t// in\n    tag_76:\n      mload(0x40)\n      tag_79\n      swap2\n      swap1\n      tag_80\n      jump\t// in\n    tag_79:\n      mload(0x40)\n      dup1\n      swap2\n      sub\n      swap1\n      return\n        /* \"contracts/src/LiquidationArchive.sol\":4751:6242  function logLiquidation(... */\n    tag_17:\n      tag_81\n      0x04\n      dup1\n      calldatasize\n      sub\n      dup2\n      add\n      swap1\n      tag_82\n      swap2\n      swap1\n      tag_83\n      jump\t// in\n    tag_82:\n      tag_84\n      jump\t// in\n    tag_81:\n      mload(0x40)\n      tag_85\n      swap2\n      swap1\n      tag_33\n      jump\t// in\n    tag_85:\n      mload(0x40)\n      dup1\n      swap2\n      sub\n      swap1\n      return\n        /* \"contracts/src/LiquidationArchive.sol\":915:953  uint8 public constant CURRENCY_INR = 1 */\n    tag_18:\n      tag_86\n      tag_87\n      jump\t// in\n    tag_86:\n      mload(0x40)\n      tag_88\n      swap2\n      swap1\n      tag_89\n      jump\t// in\n    tag_88:\n      mload(0x40)\n      dup1\n      swap2\n      sub\n      swap1\n      return\n        /* \"contracts/src/LiquidationArchive.sol\":9140:9347  function transferOwnership(address newOwner) external onlyOwner {... */\n    tag_19:\n      tag_90\n      0x04\n      dup1\n      calldatasize\n      sub\n      dup2\n      add\n      swap1\n      tag_91\n      swap2\n      swap1\n      tag_36\n      jump\t// in\n    tag_91:\n      tag_92\n      jump\t// in\n    tag_90:\n      stop\n        /* \"contracts/src/LiquidationArchive.sol\":871:909  uint8 public constant CURRENCY_USD = 0 */\n    tag_20:\n      tag_93\n      tag_94\n      jump\t// in\n    tag_93:\n      mload(0x40)\n      tag_95\n      swap2\n      swap1\n      tag_89\n      jump\t// in\n    tag_95:\n      mload(0x40)\n      dup1\n      swap2\n      sub\n      swap1\n      return\n        /* \"contracts/src/LiquidationArchive.sol\":7694:8202  function getLiquidationsPaginated(uint256 offset, uint256 pageSize)... */\n    tag_27:\n        /* \"contracts/src/LiquidationArchive.sol\":7809:7840  LiquidationRecord[] memory page */\n      0x60\n        /* \"contracts/src/LiquidationArchive.sol\":7856:7869  uint256 total */\n      0x00\n        /* \"contracts/src/LiquidationArchive.sol\":7872:7884  liquidations */\n      0x00\n        /* \"contracts/src/LiquidationArchive.sol\":7872:7891  liquidations.length */\n      dup1\n      sload\n      swap1\n      pop\n        /* \"contracts/src/LiquidationArchive.sol\":7856:7891  uint256 total = liquidations.length */\n      swap1\n      pop\n        /* \"contracts/src/LiquidationArchive.sol\":7915:7920  total */\n      dup1\n        /* \"contracts/src/LiquidationArchive.sol\":7905:7911  offset */\n      dup5\n        /* \"contracts/src/LiquidationArchive.sol\":7905:7920  offset >= total */\n      lt\n        /* \"contracts/src/LiquidationArchive.sol\":7901:7955  if (offset >= total) return new LiquidationRecord[](0) */\n      tag_97\n      jumpi\n        /* \"contracts/src/LiquidationArchive.sol\":7953:7954  0 */\n      0x00\n        /* \"contracts/src/LiquidationArchive.sol\":7929:7955  new LiquidationRecord[](0) */\n      0xffffffffffffffff\n      dup2\n      gt\n      iszero\n      tag_98\n      jumpi\n      tag_99\n      tag_100\n      jump\t// in\n    tag_99:\n    tag_98:\n      mload(0x40)\n      swap1\n      dup1\n      dup3\n      mstore\n      dup1\n      0x20\n      mul\n      0x20\n      add\n      dup3\n      add\n      0x40\n      mstore\n      dup1\n      iszero\n      tag_101\n      jumpi\n      dup2\n      0x20\n      add\n    tag_102:\n      tag_103\n      tag_104\n      jump\t// in\n    tag_103:\n      dup2\n      mstore\n      0x20\n      add\n      swap1\n      0x01\n      swap1\n      sub\n      swap1\n      dup2\n      tag_102\n      jumpi\n      swap1\n      pop\n    tag_101:\n      pop\n        /* \"contracts/src/LiquidationArchive.sol\":7922:7955  return new LiquidationRecord[](0) */\n      swap2\n      pop\n      pop\n      jump(tag_96)\n        /* \"contracts/src/LiquidationArchive.sol\":7901:7955  if (offset >= total) return new LiquidationRecord[](0) */\n    tag_97:\n        /* \"contracts/src/LiquidationArchive.sol\":7965:7976  uint256 end */\n      0x00\n        /* \"contracts/src/LiquidationArchive.sol\":7988:7996  pageSize */\n      dup4\n        /* \"contracts/src/LiquidationArchive.sol\":7979:7985  offset */\n      dup6\n        /* \"contracts/src/LiquidationArchive.sol\":7979:7996  offset + pageSize */\n      tag_105\n      swap2\n      swap1\n      tag_106\n      jump\t// in\n    tag_105:\n        /* \"contracts/src/LiquidationArchive.sol\":7965:7996  uint256 end = offset + pageSize */\n      swap1\n      pop\n        /* \"contracts/src/LiquidationArchive.sol\":8016:8021  total */\n      dup2\n        /* \"contracts/src/LiquidationArchive.sol\":8010:8013  end */\n      dup2\n        /* \"contracts/src/LiquidationArchive.sol\":8010:8021  end > total */\n      gt\n        /* \"contracts/src/LiquidationArchive.sol\":8006:8034  if (end > total) end = total */\n      iszero\n      tag_107\n      jumpi\n        /* \"contracts/src/LiquidationArchive.sol\":8029:8034  total */\n      dup2\n        /* \"contracts/src/LiquidationArchive.sol\":8023:8034  end = total */\n      swap1\n      pop\n        /* \"contracts/src/LiquidationArchive.sol\":8006:8034  if (end > total) end = total */\n    tag_107:\n        /* \"contracts/src/LiquidationArchive.sol\":8081:8087  offset */\n      dup5\n        /* \"contracts/src/LiquidationArchive.sol\":8075:8078  end */\n      dup2\n        /* \"contracts/src/LiquidationArchive.sol\":8075:8087  end - offset */\n      tag_108\n      swap2\n      swap1\n      tag_109\n      jump\t// in\n    tag_108:\n        /* \"contracts/src/LiquidationArchive.sol\":8051:8088  new LiquidationRecord[](end - offset) */\n      0xffffffffffffffff\n      dup2\n      gt\n      iszero\n      tag_110\n      jumpi\n      tag_111\n      tag_100\n      jump\t// in\n    tag_111:\n    tag_110:\n      mload(0x40)\n      swap1\n      dup1\n      dup3\n      mstore\n      dup1\n      0x20\n      mul\n      0x20\n      add\n      dup3\n      add\n      0x40\n      mstore\n      dup1\n      iszero\n      tag_112\n      jumpi\n      dup2\n      0x20\n      add\n    tag_113:\n      tag_114\n      tag_104\n      jump\t// in\n    tag_114:\n      dup2\n      mstore\n      0x20\n      add\n      swap1\n      0x01\n      swap1\n      sub\n      swap1\n      dup2\n      tag_113\n      jumpi\n      swap1\n      pop\n    tag_112:\n      pop\n        /* \"contracts/src/LiquidationArchive.sol\":8044:8088  page = new LiquidationRecord[](end - offset) */\n      swap3\n      pop\n        /* \"contracts/src/LiquidationArchive.sol\":8103:8112  uint256 i */\n      0x00\n        /* \"contracts/src/LiquidationArchive.sol\":8115:8121  offset */\n      dup6\n        /* \"contracts/src/LiquidationArchive.sol\":8103:8121  uint256 i = offset */\n      swap1\n      pop\n        /* \"contracts/src/LiquidationArchive.sol\":8098:8196  for (uint256 i = offset; i < end; i++) {... */\n    tag_115:\n        /* \"contracts/src/LiquidationArchive.sol\":8127:8130  end */\n      dup2\n        /* \"contracts/src/LiquidationArchive.sol\":8123:8124  i */\n      dup2\n        /* \"contracts/src/LiquidationArchive.sol\":8123:8130  i < end */\n      lt\n        /* \"contracts/src/LiquidationArchive.sol\":8098:8196  for (uint256 i = offset; i < end; i++) {... */\n      iszero\n      tag_116\n      jumpi\n        /* \"contracts/src/LiquidationArchive.sol\":8170:8182  liquidations */\n      0x00\n        /* \"contracts/src/LiquidationArchive.sol\":8183:8184  i */\n      dup2\n        /* \"contracts/src/LiquidationArchive.sol\":8170:8185  liquidations[i] */\n      dup2\n      sload\n      dup2\n      lt\n      tag_118\n      jumpi\n      tag_119\n      tag_120\n      jump\t// in\n    tag_119:\n    tag_118:\n      swap1\n      0x00\n      mstore\n      keccak256(0x00, 0x20)\n      swap1\n      0x09\n      mul\n      add\n        /* \"contracts/src/LiquidationArchive.sol\":8151:8185  page[i - offset] = liquidations[i] */\n      mload(0x40)\n      dup1\n      0x0120\n      add\n      0x40\n      mstore\n      swap1\n      dup2\n      0x00\n      dup3\n      add\n      0x00\n      swap1\n      sload\n      swap1\n      0x0100\n      exp\n      swap1\n      div\n      0xffffffffffffffffffffffffffffffffffffffff\n      and\n      0xffffffffffffffffffffffffffffffffffffffff\n      and\n      0xffffffffffffffffffffffffffffffffffffffff\n      and\n      dup2\n      mstore\n      0x20\n      add\n      0x01\n      dup3\n      add\n      0x00\n      swap1\n      sload\n      swap1\n      0x0100\n      exp\n      swap1\n      div\n      0xffffffffffffffffffffffffffffffffffffffff\n      and\n      0xffffffffffffffffffffffffffffffffffffffff\n      and\n      0xffffffffffffffffffffffffffffffffffffffff\n      and\n      dup2\n      mstore\n      0x20\n      add\n      0x02\n      dup3\n      add\n      sload\n      dup2\n      mstore\n      0x20\n      add\n      0x03\n      dup3\n      add\n      sload\n      dup2\n      mstore\n      0x20\n      add\n      0x04\n      dup3\n      add\n      sload\n      dup2\n      mstore\n      0x20\n      add\n      0x05\n      dup3\n      add\n      0x00\n      swap1\n      sload\n      swap1\n      0x0100\n      exp\n      swap1\n      div\n      0xff\n      and\n      0xff\n      and\n      0xff\n      and\n      dup2\n      mstore\n      0x20\n      add\n      0x06\n      dup3\n      add\n      sload\n      dup2\n      mstore\n      0x20\n      add\n      0x07\n      dup3\n      add\n      sload\n      dup2\n      mstore\n      0x20\n      add\n      0x08\n      dup3\n      add\n      sload\n      dup2\n      mstore\n      pop\n      pop\n        /* \"contracts/src/LiquidationArchive.sol\":8151:8155  page */\n      dup5\n        /* \"contracts/src/LiquidationArchive.sol\":8160:8166  offset */\n      dup8\n        /* \"contracts/src/LiquidationArchive.sol\":8156:8157  i */\n      dup4\n        /* \"contracts/src/LiquidationArchive.sol\":8156:8166  i - offset */\n      tag_122\n      swap2\n      swap1\n      tag_109\n      jump\t// in\n    tag_122:\n        /* \"contracts/src/LiquidationArchive.sol\":8151:8167  page[i - offset] */\n      dup2\n      mload\n      dup2\n      lt\n      tag_123\n      jumpi\n      tag_124\n      tag_120\n      jump\t// in\n    tag_124:\n    tag_123:\n      0x20\n      mul\n      0x20\n      add\n      add\n        /* \"contracts/src/LiquidationArchive.sol\":8151:8185  page[i - offset] = liquidations[i] */\n      dup2\n      swap1\n      mstore\n      pop\n        /* \"contracts/src/LiquidationArchive.sol\":8132:8135  i++ */\n      dup1\n      dup1\n      0x01\n      add\n      swap2\n      pop\n      pop\n        /* \"contracts/src/LiquidationArchive.sol\":8098:8196  for (uint256 i = offset; i < end; i++) {... */\n      jump(tag_115)\n    tag_116:\n      pop\n        /* \"contracts/src/LiquidationArchive.sol\":7846:8202  {... */\n      pop\n      pop\n        /* \"contracts/src/LiquidationArchive.sol\":7694:8202  function getLiquidationsPaginated(uint256 offset, uint256 pageSize)... */\n    tag_96:\n      swap3\n      swap2\n      pop\n      pop\n      jump\t// out\n        /* \"contracts/src/LiquidationArchive.sol\":7503:7605  function getTotalRecords() external view returns (uint256) {... */\n    tag_31:\n        /* \"contracts/src/LiquidationArchive.sol\":7553:7560  uint256 */\n      0x00\n        /* \"contracts/src/LiquidationArchive.sol\":7579:7591  liquidations */\n      0x00\n        /* \"contracts/src/LiquidationArchive.sol\":7579:7598  liquidations.length */\n      dup1\n      sload\n      swap1\n      pop\n        /* \"contracts/src/LiquidationArchive.sol\":7572:7598  return liquidations.length */\n      swap1\n      pop\n        /* \"contracts/src/LiquidationArchive.sol\":7503:7605  function getTotalRecords() external view returns (uint256) {... */\n      swap1\n      jump\t// out\n        /* \"contracts/src/LiquidationArchive.sol\":8272:8669  function getLiquidationsByBorrower(address borrower)... */\n    tag_37:\n        /* \"contracts/src/LiquidationArchive.sol\":8372:8392  uint256[] memory ids */\n      0x60\n        /* \"contracts/src/LiquidationArchive.sol\":8408:8421  uint256 count */\n      0x00\n        /* \"contracts/src/LiquidationArchive.sol\":8424:8440  liquidationCount */\n      0x05\n        /* \"contracts/src/LiquidationArchive.sol\":8424:8450  liquidationCount[borrower] */\n      0x00\n        /* \"contracts/src/LiquidationArchive.sol\":8441:8449  borrower */\n      dup5\n        /* \"contracts/src/LiquidationArchive.sol\":8424:8450  liquidationCount[borrower] */\n      0xffffffffffffffffffffffffffffffffffffffff\n      and\n      0xffffffffffffffffffffffffffffffffffffffff\n      and\n      dup2\n      mstore\n      0x20\n      add\n      swap1\n      dup2\n      mstore\n      0x20\n      add\n      0x00\n      keccak256\n      sload\n        /* \"contracts/src/LiquidationArchive.sol\":8408:8450  uint256 count = liquidationCount[borrower] */\n      swap1\n      pop\n        /* \"contracts/src/LiquidationArchive.sol\":8480:8485  count */\n      dup1\n        /* \"contracts/src/LiquidationArchive.sol\":8466:8486  new uint256[](count) */\n      0xffffffffffffffff\n      dup2\n      gt\n      iszero\n      tag_127\n      jumpi\n      tag_128\n      tag_100\n      jump\t// in\n    tag_128:\n    tag_127:\n      mload(0x40)\n      swap1\n      dup1\n      dup3\n      mstore\n      dup1\n      0x20\n      mul\n      0x20\n      add\n      dup3\n      add\n      0x40\n      mstore\n      dup1\n      iszero\n      tag_129\n      jumpi\n      dup2\n      0x20\n      add\n      0x20\n      dup3\n      mul\n      dup1\n      calldatasize\n      dup4\n      calldatacopy\n      dup1\n      dup3\n      add\n      swap2\n      pop\n      pop\n      swap1\n      pop\n    tag_129:\n      pop\n        /* \"contracts/src/LiquidationArchive.sol\":8460:8486  ids = new uint256[](count) */\n      swap2\n      pop\n        /* \"contracts/src/LiquidationArchive.sol\":8496:8507  uint256 idx */\n      0x00\n        /* \"contracts/src/LiquidationArchive.sol\":8522:8531  uint256 i */\n      0x00\n        /* \"contracts/src/LiquidationArchive.sol\":8534:8535  0 */\n      0x00\n        /* \"contracts/src/LiquidationArchive.sol\":8522:8535  uint256 i = 0 */\n      swap1\n      pop\n        /* \"contracts/src/LiquidationArchive.sol\":8517:8663  for (uint256 i = 0; i < liquidations.length && idx < count; i++) {... */\n    tag_130:\n        /* \"contracts/src/LiquidationArchive.sol\":8541:8553  liquidations */\n      0x00\n        /* \"contracts/src/LiquidationArchive.sol\":8541:8560  liquidations.length */\n      dup1\n      sload\n      swap1\n      pop\n        /* \"contracts/src/LiquidationArchive.sol\":8537:8538  i */\n      dup2\n        /* \"contracts/src/LiquidationArchive.sol\":8537:8560  i < liquidations.length */\n      lt\n        /* \"contracts/src/LiquidationArchive.sol\":8537:8575  i < liquidations.length && idx < count */\n      dup1\n      iszero\n      tag_133\n      jumpi\n      pop\n        /* \"contracts/src/LiquidationArchive.sol\":8570:8575  count */\n      dup3\n        /* \"contracts/src/LiquidationArchive.sol\":8564:8567  idx */\n      dup3\n        /* \"contracts/src/LiquidationArchive.sol\":8564:8575  idx < count */\n      lt\n        /* \"contracts/src/LiquidationArchive.sol\":8537:8575  i < liquidations.length && idx < count */\n    tag_133:\n        /* \"contracts/src/LiquidationArchive.sol\":8517:8663  for (uint256 i = 0; i < liquidations.length && idx < count; i++) {... */\n      iszero\n      tag_131\n      jumpi\n        /* \"contracts/src/LiquidationArchive.sol\":8628:8636  borrower */\n      dup5\n        /* \"contracts/src/LiquidationArchive.sol\":8600:8636  liquidations[i].borrower == borrower */\n      0xffffffffffffffffffffffffffffffffffffffff\n      and\n        /* \"contracts/src/LiquidationArchive.sol\":8600:8612  liquidations */\n      0x00\n        /* \"contracts/src/LiquidationArchive.sol\":8613:8614  i */\n      dup3\n        /* \"contracts/src/LiquidationArchive.sol\":8600:8615  liquidations[i] */\n      dup2\n      sload\n      dup2\n      lt\n      tag_134\n      jumpi\n      tag_135\n      tag_120\n      jump\t// in\n    tag_135:\n    tag_134:\n      swap1\n      0x00\n      mstore\n      keccak256(0x00, 0x20)\n      swap1\n      0x09\n      mul\n      add\n        /* \"contracts/src/LiquidationArchive.sol\":8600:8624  liquidations[i].borrower */\n      0x00\n      add\n      0x00\n      swap1\n      sload\n      swap1\n      0x0100\n      exp\n      swap1\n      div\n      0xffffffffffffffffffffffffffffffffffffffff\n      and\n        /* \"contracts/src/LiquidationArchive.sol\":8600:8636  liquidations[i].borrower == borrower */\n      0xffffffffffffffffffffffffffffffffffffffff\n      and\n      sub\n        /* \"contracts/src/LiquidationArchive.sol\":8596:8652  if (liquidations[i].borrower == borrower) ids[idx++] = i */\n      tag_137\n      jumpi\n        /* \"contracts/src/LiquidationArchive.sol\":8651:8652  i */\n      dup1\n        /* \"contracts/src/LiquidationArchive.sol\":8638:8641  ids */\n      dup5\n        /* \"contracts/src/LiquidationArchive.sol\":8642:8647  idx++ */\n      dup4\n      dup1\n      tag_138\n      swap1\n      tag_139\n      jump\t// in\n    tag_138:\n      swap5\n      pop\n        /* \"contracts/src/LiquidationArchive.sol\":8638:8648  ids[idx++] */\n      dup2\n      mload\n      dup2\n      lt\n      tag_140\n      jumpi\n      tag_141\n      tag_120\n      jump\t// in\n    tag_141:\n    tag_140:\n      0x20\n      mul\n      0x20\n      add\n      add\n        /* \"contracts/src/LiquidationArchive.sol\":8638:8652  ids[idx++] = i */\n      dup2\n      dup2\n      mstore\n      pop\n      pop\n        /* \"contracts/src/LiquidationArchive.sol\":8596:8652  if (liquidations[i].borrower == borrower) ids[idx++] = i */\n    tag_137:\n        /* \"contracts/src/LiquidationArchive.sol\":8577:8580  i++ */\n      dup1\n      dup1\n      tag_142\n      swap1\n      tag_139\n      jump\t// in\n    tag_142:\n      swap2\n      pop\n      pop\n        /* \"contracts/src/LiquidationArchive.sol\":8517:8663  for (uint256 i = 0; i < liquidations.length && idx < count; i++) {... */\n      jump(tag_130)\n    tag_131:\n      pop\n        /* \"contracts/src/LiquidationArchive.sol\":8398:8669  {... */\n      pop\n      pop\n        /* \"contracts/src/LiquidationArchive.sol\":8272:8669  function getLiquidationsByBorrower(address borrower)... */\n      swap2\n      swap1\n      pop\n      jump\t// out\n        /* \"contracts/src/LiquidationArchive.sol\":6803:7213  function getGlobalStats()... */\n    tag_41:\n        /* \"contracts/src/LiquidationArchive.sol\":6889:6908  uint256 totalEvents */\n      0x00\n        /* \"contracts/src/LiquidationArchive.sol\":6922:6938  uint256 totalUSD */\n      0x00\n        /* \"contracts/src/LiquidationArchive.sol\":6952:6968  uint256 totalINR */\n      0x00\n        /* \"contracts/src/LiquidationArchive.sol\":6982:7004  uint256 totalBNBSeized */\n      0x00\n        /* \"contracts/src/LiquidationArchive.sol\":7046:7068  totalLiquidationEvents */\n      sload(0x04)\n        /* \"contracts/src/LiquidationArchive.sol\":7029:7068  totalEvents    = totalLiquidationEvents */\n      swap4\n      pop\n        /* \"contracts/src/LiquidationArchive.sol\":7095:7113  totalDebtRepaidUSD */\n      sload(0x01)\n        /* \"contracts/src/LiquidationArchive.sol\":7078:7113  totalUSD       = totalDebtRepaidUSD */\n      swap3\n      pop\n        /* \"contracts/src/LiquidationArchive.sol\":7140:7158  totalDebtRepaidINR */\n      sload(0x02)\n        /* \"contracts/src/LiquidationArchive.sol\":7123:7158  totalINR       = totalDebtRepaidINR */\n      swap2\n      pop\n        /* \"contracts/src/LiquidationArchive.sol\":7185:7206  totalCollateralSeized */\n      sload(0x03)\n        /* \"contracts/src/LiquidationArchive.sol\":7168:7206  totalBNBSeized = totalCollateralSeized */\n      swap1\n      pop\n        /* \"contracts/src/LiquidationArchive.sol\":6803:7213  function getGlobalStats()... */\n      swap1\n      swap2\n      swap3\n      swap4\n      jump\t// out\n        /* \"contracts/src/LiquidationArchive.sol\":1791:1824  uint256 public totalDebtRepaidINR */\n    tag_45:\n      sload(0x02)\n      dup2\n      jump\t// out\n        /* \"contracts/src/LiquidationArchive.sol\":1992:2043  mapping(address => uint256) public liquidationCount */\n    tag_49:\n      mstore(0x20, 0x05)\n      dup1\n      0x00\n      mstore\n      keccak256(0x00, 0x40)\n      0x00\n      swap2\n      pop\n      swap1\n      pop\n      sload\n      dup2\n      jump\t// out\n        /* \"contracts/src/LiquidationArchive.sol\":1948:1985  uint256 public totalLiquidationEvents */\n    tag_52:\n      sload(0x04)\n      dup2\n      jump\t// out\n        /* \"contracts/src/LiquidationArchive.sol\":8959:9134  function setLoggerBot(address bot) external onlyOwner {... */\n    tag_56:\n        /* \"contracts/src/LiquidationArchive.sol\":3745:3750  owner */\n      0x06\n      0x00\n      swap1\n      sload\n      swap1\n      0x0100\n      exp\n      swap1\n      div\n      0xffffffffffffffffffffffffffffffffffffffff\n      and\n        /* \"contracts/src/LiquidationArchive.sol\":3731:3750  msg.sender != owner */\n      0xffffffffffffffffffffffffffffffffffffffff\n      and\n        /* \"contracts/src/LiquidationArchive.sol\":3731:3741  msg.sender */\n      caller\n        /* \"contracts/src/LiquidationArchive.sol\":3731:3750  msg.sender != owner */\n      0xffffffffffffffffffffffffffffffffffffffff\n      and\n      eq\n        /* \"contracts/src/LiquidationArchive.sol\":3727:3773  if (msg.sender != owner) revert Unauthorized() */\n      tag_145\n      jumpi\n        /* \"contracts/src/LiquidationArchive.sol\":3759:3773  Unauthorized() */\n      mload(0x40)\n      0x82b4290000000000000000000000000000000000000000000000000000000000\n      dup2\n      mstore\n      0x04\n      add\n      mload(0x40)\n      dup1\n      swap2\n      sub\n      swap1\n      revert\n        /* \"contracts/src/LiquidationArchive.sol\":3727:3773  if (msg.sender != owner) revert Unauthorized() */\n    tag_145:\n        /* \"contracts/src/LiquidationArchive.sol\":9042:9043  0 */\n      0x00\n        /* \"contracts/src/LiquidationArchive.sol\":9027:9044  bot == address(0) */\n      0xffffffffffffffffffffffffffffffffffffffff\n      and\n        /* \"contracts/src/LiquidationArchive.sol\":9027:9030  bot */\n      dup2\n        /* \"contracts/src/LiquidationArchive.sol\":9027:9044  bot == address(0) */\n      0xffffffffffffffffffffffffffffffffffffffff\n      and\n      sub\n        /* \"contracts/src/LiquidationArchive.sol\":9023:9066  if (bot == address(0)) revert ZeroAddress() */\n      tag_147\n      jumpi\n        /* \"contracts/src/LiquidationArchive.sol\":9053:9066  ZeroAddress() */\n      mload(0x40)\n      0xd92e233d00000000000000000000000000000000000000000000000000000000\n      dup2\n      mstore\n      0x04\n      add\n      mload(0x40)\n      dup1\n      swap2\n      sub\n      swap1\n      revert\n        /* \"contracts/src/LiquidationArchive.sol\":9023:9066  if (bot == address(0)) revert ZeroAddress() */\n    tag_147:\n        /* \"contracts/src/LiquidationArchive.sol\":9088:9091  bot */\n      dup1\n        /* \"contracts/src/LiquidationArchive.sol\":9076:9085  loggerBot */\n      0x07\n      0x00\n        /* \"contracts/src/LiquidationArchive.sol\":9076:9091  loggerBot = bot */\n      0x0100\n      exp\n      dup2\n      sload\n      dup2\n      0xffffffffffffffffffffffffffffffffffffffff\n      mul\n      not\n      and\n      swap1\n      dup4\n      0xffffffffffffffffffffffffffffffffffffffff\n      and\n      mul\n      or\n      swap1\n      sstore\n      pop\n        /* \"contracts/src/LiquidationArchive.sol\":9123:9126  bot */\n      dup1\n        /* \"contracts/src/LiquidationArchive.sol\":9106:9127  LoggerBotUpdated(bot) */\n      0xffffffffffffffffffffffffffffffffffffffff\n      and\n      0x436150dbaf3e670b87bfcfc57d3d2bbd688416031b6a9e527fa2bac1657a1a5d\n      mload(0x40)\n      mload(0x40)\n      dup1\n      swap2\n      sub\n      swap1\n      log2\n        /* \"contracts/src/LiquidationArchive.sol\":8959:9134  function setLoggerBot(address bot) external onlyOwner {... */\n      pop\n      jump\t// out\n        /* \"contracts/src/LiquidationArchive.sol\":2050:2070  address public owner */\n    tag_58:\n      0x06\n      0x00\n      swap1\n      sload\n      swap1\n      0x0100\n      exp\n      swap1\n      div\n      0xffffffffffffffffffffffffffffffffffffffff\n      and\n      dup2\n      jump\t// out\n        /* \"contracts/src/LiquidationArchive.sol\":2076:2100  address public loggerBot */\n    tag_62:\n      0x07\n      0x00\n      swap1\n      sload\n      swap1\n      0x0100\n      exp\n      swap1\n      div\n      0xffffffffffffffffffffffffffffffffffffffff\n      and\n      dup2\n      jump\t// out\n        /* \"contracts/src/LiquidationArchive.sol\":1664:1703  LiquidationRecord[] public liquidations */\n    tag_67:\n      0x00\n      dup2\n      dup2\n      sload\n      dup2\n      lt\n      tag_148\n      jumpi\n      0x00\n      dup1\n      revert\n    tag_148:\n      swap1\n      0x00\n      mstore\n      keccak256(0x00, 0x20)\n      swap1\n      0x09\n      mul\n      add\n      0x00\n      swap2\n      pop\n      swap1\n      pop\n      dup1\n      0x00\n      add\n      0x00\n      swap1\n      sload\n      swap1\n      0x0100\n      exp\n      swap1\n      div\n      0xffffffffffffffffffffffffffffffffffffffff\n      and\n      swap1\n      dup1\n      0x01\n      add\n      0x00\n      swap1\n      sload\n      swap1\n      0x0100\n      exp\n      swap1\n      div\n      0xffffffffffffffffffffffffffffffffffffffff\n      and\n      swap1\n      dup1\n      0x02\n      add\n      sload\n      swap1\n      dup1\n      0x03\n      add\n      sload\n      swap1\n      dup1\n      0x04\n      add\n      sload\n      swap1\n      dup1\n      0x05\n      add\n      0x00\n      swap1\n      sload\n      swap1\n      0x0100\n      exp\n      swap1\n      div\n      0xff\n      and\n      swap1\n      dup1\n      0x06\n      add\n      sload\n      swap1\n      dup1\n      0x07\n      add\n      sload\n      swap1\n      dup1\n      0x08\n      add\n      sload\n      swap1\n      pop\n      dup10\n      jump\t// out\n        /* \"contracts/src/LiquidationArchive.sol\":1710:1743  uint256 public totalDebtRepaidUSD */\n    tag_71:\n      sload(0x01)\n      dup2\n      jump\t// out\n        /* \"contracts/src/LiquidationArchive.sol\":1872:1908  uint256 public totalCollateralSeized */\n    tag_74:\n      sload(0x03)\n      dup2\n      jump\t// out\n        /* \"contracts/src/LiquidationArchive.sol\":7262:7497  function getLiquidation(uint256 recordId)... */\n    tag_78:\n        /* \"contracts/src/LiquidationArchive.sol\":7351:7375  LiquidationRecord memory */\n      tag_150\n      tag_104\n      jump\t// in\n    tag_150:\n        /* \"contracts/src/LiquidationArchive.sol\":7407:7419  liquidations */\n      0x00\n        /* \"contracts/src/LiquidationArchive.sol\":7407:7426  liquidations.length */\n      dup1\n      sload\n      swap1\n      pop\n        /* \"contracts/src/LiquidationArchive.sol\":7395:7403  recordId */\n      dup3\n        /* \"contracts/src/LiquidationArchive.sol\":7395:7426  recordId >= liquidations.length */\n      lt\n        /* \"contracts/src/LiquidationArchive.sol\":7391:7451  if (recordId >= liquidations.length) revert RecordNotFound() */\n      tag_152\n      jumpi\n        /* \"contracts/src/LiquidationArchive.sol\":7435:7451  RecordNotFound() */\n      mload(0x40)\n      0x3e07f1a100000000000000000000000000000000000000000000000000000000\n      dup2\n      mstore\n      0x04\n      add\n      mload(0x40)\n      dup1\n      swap2\n      sub\n      swap1\n      revert\n        /* \"contracts/src/LiquidationArchive.sol\":7391:7451  if (recordId >= liquidations.length) revert RecordNotFound() */\n    tag_152:\n        /* \"contracts/src/LiquidationArchive.sol\":7468:7480  liquidations */\n      0x00\n        /* \"contracts/src/LiquidationArchive.sol\":7481:7489  recordId */\n      dup3\n        /* \"contracts/src/LiquidationArchive.sol\":7468:7490  liquidations[recordId] */\n      dup2\n      sload\n      dup2\n      lt\n      tag_153\n      jumpi\n      tag_154\n      tag_120\n      jump\t// in\n    tag_154:\n    tag_153:\n      swap1\n      0x00\n      mstore\n      keccak256(0x00, 0x20)\n      swap1\n      0x09\n      mul\n      add\n        /* \"contracts/src/LiquidationArchive.sol\":7461:7490  return liquidations[recordId] */\n      mload(0x40)\n      dup1\n      0x0120\n      add\n      0x40\n      mstore\n      swap1\n      dup2\n      0x00\n      dup3\n      add\n      0x00\n      swap1\n      sload\n      swap1\n      0x0100\n      exp\n      swap1\n      div\n      0xffffffffffffffffffffffffffffffffffffffff\n      and\n      0xffffffffffffffffffffffffffffffffffffffff\n      and\n      0xffffffffffffffffffffffffffffffffffffffff\n      and\n      dup2\n      mstore\n      0x20\n      add\n      0x01\n      dup3\n      add\n      0x00\n      swap1\n      sload\n      swap1\n      0x0100\n      exp\n      swap1\n      div\n      0xffffffffffffffffffffffffffffffffffffffff\n      and\n      0xffffffffffffffffffffffffffffffffffffffff\n      and\n      0xffffffffffffffffffffffffffffffffffffffff\n      and\n      dup2\n      mstore\n      0x20\n      add\n      0x02\n      dup3\n      add\n      sload\n      dup2\n      mstore\n      0x20\n      add\n      0x03\n      dup3\n      add\n      sload\n      dup2\n      mstore\n      0x20\n      add\n      0x04\n      dup3\n      add\n      sload\n      dup2\n      mstore\n      0x20\n      add\n      0x05\n      dup3\n      add\n      0x00\n      swap1\n      sload\n      swap1\n      0x0100\n      exp\n      swap1\n      div\n      0xff\n      and\n      0xff\n      and\n      0xff\n      and\n      dup2\n      mstore\n      0x20\n      add\n      0x06\n      dup3\n      add\n      sload\n      dup2\n      mstore\n      0x20\n      add\n      0x07\n      dup3\n      add\n      sload\n      dup2\n      mstore\n      0x20\n      add\n      0x08\n      dup3\n      add\n      sload\n      dup2\n      mstore\n      pop\n      pop\n      swap1\n      pop\n        /* \"contracts/src/LiquidationArchive.sol\":7262:7497  function getLiquidation(uint256 recordId)... */\n      swap2\n      swap1\n      pop\n      jump\t// out\n        /* \"contracts/src/LiquidationArchive.sol\":4751:6242  function logLiquidation(... */\n    tag_84:\n        /* \"contracts/src/LiquidationArchive.sol\":5044:5060  uint256 recordId */\n      0x00\n        /* \"contracts/src/LiquidationArchive.sol\":3617:3622  owner */\n      0x06\n      0x00\n      swap1\n      sload\n      swap1\n      0x0100\n      exp\n      swap1\n      div\n      0xffffffffffffffffffffffffffffffffffffffff\n      and\n        /* \"contracts/src/LiquidationArchive.sol\":3603:3622  msg.sender != owner */\n      0xffffffffffffffffffffffffffffffffffffffff\n      and\n        /* \"contracts/src/LiquidationArchive.sol\":3603:3613  msg.sender */\n      caller\n        /* \"contracts/src/LiquidationArchive.sol\":3603:3622  msg.sender != owner */\n      0xffffffffffffffffffffffffffffffffffffffff\n      and\n      eq\n      iszero\n        /* \"contracts/src/LiquidationArchive.sol\":3603:3649  msg.sender != owner && msg.sender != loggerBot */\n      dup1\n      iszero\n      tag_157\n      jumpi\n      pop\n        /* \"contracts/src/LiquidationArchive.sol\":3640:3649  loggerBot */\n      0x07\n      0x00\n      swap1\n      sload\n      swap1\n      0x0100\n      exp\n      swap1\n      div\n      0xffffffffffffffffffffffffffffffffffffffff\n      and\n        /* \"contracts/src/LiquidationArchive.sol\":3626:3649  msg.sender != loggerBot */\n      0xffffffffffffffffffffffffffffffffffffffff\n      and\n        /* \"contracts/src/LiquidationArchive.sol\":3626:3636  msg.sender */\n      caller\n        /* \"contracts/src/LiquidationArchive.sol\":3626:3649  msg.sender != loggerBot */\n      0xffffffffffffffffffffffffffffffffffffffff\n      and\n      eq\n      iszero\n        /* \"contracts/src/LiquidationArchive.sol\":3603:3649  msg.sender != owner && msg.sender != loggerBot */\n    tag_157:\n        /* \"contracts/src/LiquidationArchive.sol\":3599:3672  if (msg.sender != owner && msg.sender != loggerBot) revert Unauthorized() */\n      iszero\n      tag_158\n      jumpi\n        /* \"contracts/src/LiquidationArchive.sol\":3658:3672  Unauthorized() */\n      mload(0x40)\n      0x82b4290000000000000000000000000000000000000000000000000000000000\n      dup2\n      mstore\n      0x04\n      add\n      mload(0x40)\n      dup1\n      swap2\n      sub\n      swap1\n      revert\n        /* \"contracts/src/LiquidationArchive.sol\":3599:3672  if (msg.sender != owner && msg.sender != loggerBot) revert Unauthorized() */\n    tag_158:\n        /* \"contracts/src/LiquidationArchive.sol\":5098:5099  0 */\n      0x00\n        /* \"contracts/src/LiquidationArchive.sol\":5076:5100  borrower   == address(0) */\n      0xffffffffffffffffffffffffffffffffffffffff\n      and\n        /* \"contracts/src/LiquidationArchive.sol\":5076:5084  borrower */\n      dup10\n        /* \"contracts/src/LiquidationArchive.sol\":5076:5100  borrower   == address(0) */\n      0xffffffffffffffffffffffffffffffffffffffff\n      and\n      sub\n        /* \"contracts/src/LiquidationArchive.sol\":5072:5124  if (borrower   == address(0)) revert InvalidRecord() */\n      tag_160\n      jumpi\n        /* \"contracts/src/LiquidationArchive.sol\":5109:5124  InvalidRecord() */\n      mload(0x40)\n      0xf2a3e8db00000000000000000000000000000000000000000000000000000000\n      dup2\n      mstore\n      0x04\n      add\n      mload(0x40)\n      dup1\n      swap2\n      sub\n      swap1\n      revert\n        /* \"contracts/src/LiquidationArchive.sol\":5072:5124  if (borrower   == address(0)) revert InvalidRecord() */\n    tag_160:\n        /* \"contracts/src/LiquidationArchive.sol\":5160:5161  0 */\n      0x00\n        /* \"contracts/src/LiquidationArchive.sol\":5138:5162  liquidator == address(0) */\n      0xffffffffffffffffffffffffffffffffffffffff\n      and\n        /* \"contracts/src/LiquidationArchive.sol\":5138:5148  liquidator */\n      dup9\n        /* \"contracts/src/LiquidationArchive.sol\":5138:5162  liquidator == address(0) */\n      0xffffffffffffffffffffffffffffffffffffffff\n      and\n      sub\n        /* \"contracts/src/LiquidationArchive.sol\":5134:5186  if (liquidator == address(0)) revert InvalidRecord() */\n      tag_161\n      jumpi\n        /* \"contracts/src/LiquidationArchive.sol\":5171:5186  InvalidRecord() */\n      mload(0x40)\n      0xf2a3e8db00000000000000000000000000000000000000000000000000000000\n      dup2\n      mstore\n      0x04\n      add\n      mload(0x40)\n      dup1\n      swap2\n      sub\n      swap1\n      revert\n        /* \"contracts/src/LiquidationArchive.sol\":5134:5186  if (liquidator == address(0)) revert InvalidRecord() */\n    tag_161:\n        /* \"contracts/src/LiquidationArchive.sol\":5214:5215  0 */\n      0x00\n        /* \"contracts/src/LiquidationArchive.sol\":5200:5210  debtRepaid */\n      dup8\n        /* \"contracts/src/LiquidationArchive.sol\":5200:5215  debtRepaid == 0 */\n      sub\n        /* \"contracts/src/LiquidationArchive.sol\":5196:5248  if (debtRepaid == 0)          revert InvalidRecord() */\n      tag_162\n      jumpi\n        /* \"contracts/src/LiquidationArchive.sol\":5233:5248  InvalidRecord() */\n      mload(0x40)\n      0xf2a3e8db00000000000000000000000000000000000000000000000000000000\n      dup2\n      mstore\n      0x04\n      add\n      mload(0x40)\n      dup1\n      swap2\n      sub\n      swap1\n      revert\n        /* \"contracts/src/LiquidationArchive.sol\":5196:5248  if (debtRepaid == 0)          revert InvalidRecord() */\n    tag_162:\n        /* \"contracts/src/LiquidationArchive.sol\":5273:5274  1 */\n      0x01\n        /* \"contracts/src/LiquidationArchive.sol\":5262:5270  currency */\n      dup5\n        /* \"contracts/src/LiquidationArchive.sol\":5262:5274  currency > 1 */\n      0xff\n      and\n      gt\n        /* \"contracts/src/LiquidationArchive.sol\":5258:5312  if (currency > 1)             revert InvalidCurrency() */\n      iszero\n      tag_163\n      jumpi\n        /* \"contracts/src/LiquidationArchive.sol\":5295:5312  InvalidCurrency() */\n      mload(0x40)\n      0xf599342800000000000000000000000000000000000000000000000000000000\n      dup2\n      mstore\n      0x04\n      add\n      mload(0x40)\n      dup1\n      swap2\n      sub\n      swap1\n      revert\n        /* \"contracts/src/LiquidationArchive.sol\":5258:5312  if (currency > 1)             revert InvalidCurrency() */\n    tag_163:\n        /* \"contracts/src/LiquidationArchive.sol\":5334:5346  liquidations */\n      0x00\n        /* \"contracts/src/LiquidationArchive.sol\":5334:5353  liquidations.length */\n      dup1\n      sload\n      swap1\n      pop\n        /* \"contracts/src/LiquidationArchive.sol\":5323:5353  recordId = liquidations.length */\n      swap1\n      pop\n        /* \"contracts/src/LiquidationArchive.sol\":5364:5376  liquidations */\n      0x00\n        /* \"contracts/src/LiquidationArchive.sol\":5382:5800  LiquidationRecord({... */\n      mload(0x40)\n      dup1\n      0x0120\n      add\n      0x40\n      mstore\n      dup1\n        /* \"contracts/src/LiquidationArchive.sol\":5432:5440  borrower */\n      dup12\n        /* \"contracts/src/LiquidationArchive.sol\":5382:5800  LiquidationRecord({... */\n      0xffffffffffffffffffffffffffffffffffffffff\n      and\n      dup2\n      mstore\n      0x20\n      add\n        /* \"contracts/src/LiquidationArchive.sol\":5472:5482  liquidator */\n      dup11\n        /* \"contracts/src/LiquidationArchive.sol\":5382:5800  LiquidationRecord({... */\n      0xffffffffffffffffffffffffffffffffffffffff\n      and\n      dup2\n      mstore\n      0x20\n      add\n        /* \"contracts/src/LiquidationArchive.sol\":5514:5524  debtRepaid */\n      dup10\n        /* \"contracts/src/LiquidationArchive.sol\":5382:5800  LiquidationRecord({... */\n      dup2\n      mstore\n      0x20\n      add\n        /* \"contracts/src/LiquidationArchive.sol\":5556:5572  collateralSeized */\n      dup9\n        /* \"contracts/src/LiquidationArchive.sol\":5382:5800  LiquidationRecord({... */\n      dup2\n      mstore\n      0x20\n      add\n        /* \"contracts/src/LiquidationArchive.sol\":5604:5615  bonusSeized */\n      dup8\n        /* \"contracts/src/LiquidationArchive.sol\":5382:5800  LiquidationRecord({... */\n      dup2\n      mstore\n      0x20\n      add\n        /* \"contracts/src/LiquidationArchive.sol\":5647:5655  currency */\n      dup7\n        /* \"contracts/src/LiquidationArchive.sol\":5382:5800  LiquidationRecord({... */\n      0xff\n      and\n      dup2\n      mstore\n      0x20\n      add\n        /* \"contracts/src/LiquidationArchive.sol\":5687:5702  block.timestamp */\n      timestamp\n        /* \"contracts/src/LiquidationArchive.sol\":5382:5800  LiquidationRecord({... */\n      dup2\n      mstore\n      0x20\n      add\n        /* \"contracts/src/LiquidationArchive.sol\":5734:5748  bscBlockNumber */\n      dup6\n        /* \"contracts/src/LiquidationArchive.sol\":5382:5800  LiquidationRecord({... */\n      dup2\n      mstore\n      0x20\n      add\n        /* \"contracts/src/LiquidationArchive.sol\":5780:5789  bscTxHash */\n      dup5\n        /* \"contracts/src/LiquidationArchive.sol\":5382:5800  LiquidationRecord({... */\n      dup2\n      mstore\n      pop\n        /* \"contracts/src/LiquidationArchive.sol\":5364:5801  liquidations.push(LiquidationRecord({... */\n      swap1\n      dup1\n      0x01\n      dup2\n      sload\n      add\n      dup1\n      dup3\n      sstore\n      dup1\n      swap2\n      pop\n      pop\n      0x01\n      swap1\n      sub\n      swap1\n      0x00\n      mstore\n      keccak256(0x00, 0x20)\n      swap1\n      0x09\n      mul\n      add\n      0x00\n      swap1\n      swap2\n      swap1\n      swap2\n      swap1\n      swap2\n      pop\n      0x00\n      dup3\n      add\n      mload\n      dup2\n      0x00\n      add\n      exp(0x0100, 0x00)\n      dup2\n      sload\n      dup2\n      0xffffffffffffffffffffffffffffffffffffffff\n      mul\n      not\n      and\n      swap1\n      dup4\n      0xffffffffffffffffffffffffffffffffffffffff\n      and\n      mul\n      or\n      swap1\n      sstore\n      pop\n      0x20\n      dup3\n      add\n      mload\n      dup2\n      0x01\n      add\n      exp(0x0100, 0x00)\n      dup2\n      sload\n      dup2\n      0xffffffffffffffffffffffffffffffffffffffff\n      mul\n      not\n      and\n      swap1\n      dup4\n      0xffffffffffffffffffffffffffffffffffffffff\n      and\n      mul\n      or\n      swap1\n      sstore\n      pop\n      0x40\n      dup3\n      add\n      mload\n      dup2\n      0x02\n      add\n      sstore\n      0x60\n      dup3\n      add\n      mload\n      dup2\n      0x03\n      add\n      sstore\n      0x80\n      dup3\n      add\n      mload\n      dup2\n      0x04\n      add\n      sstore\n      0xa0\n      dup3\n      add\n      mload\n      dup2\n      0x05\n      add\n      exp(0x0100, 0x00)\n      dup2\n      sload\n      dup2\n      0xff\n      mul\n      not\n      and\n      swap1\n      dup4\n      0xff\n      and\n      mul\n      or\n      swap1\n      sstore\n      pop\n      0xc0\n      dup3\n      add\n      mload\n      dup2\n      0x06\n      add\n      sstore\n      0xe0\n      dup3\n      add\n      mload\n      dup2\n      0x07\n      add\n      sstore\n      0x0100\n      dup3\n      add\n      mload\n      dup2\n      0x08\n      add\n      sstore\n      pop\n      pop\n        /* \"contracts/src/LiquidationArchive.sol\":5837:5853  collateralSeized */\n      dup6\n        /* \"contracts/src/LiquidationArchive.sol\":5812:5833  totalCollateralSeized */\n      0x03\n      0x00\n        /* \"contracts/src/LiquidationArchive.sol\":5812:5853  totalCollateralSeized += collateralSeized */\n      dup3\n      dup3\n      sload\n      tag_165\n      swap2\n      swap1\n      tag_106\n      jump\t// in\n    tag_165:\n      swap3\n      pop\n      pop\n      dup2\n      swap1\n      sstore\n      pop\n        /* \"contracts/src/LiquidationArchive.sol\":5863:5885  totalLiquidationEvents */\n      0x04\n      0x00\n        /* \"contracts/src/LiquidationArchive.sol\":5863:5887  totalLiquidationEvents++ */\n      dup2\n      sload\n      dup1\n      swap3\n      swap2\n      swap1\n      tag_166\n      swap1\n      tag_139\n      jump\t// in\n    tag_166:\n      swap2\n      swap1\n      pop\n      sstore\n      pop\n        /* \"contracts/src/LiquidationArchive.sol\":5897:5913  liquidationCount */\n      0x05\n        /* \"contracts/src/LiquidationArchive.sol\":5897:5923  liquidationCount[borrower] */\n      0x00\n        /* \"contracts/src/LiquidationArchive.sol\":5914:5922  borrower */\n      dup11\n        /* \"contracts/src/LiquidationArchive.sol\":5897:5923  liquidationCount[borrower] */\n      0xffffffffffffffffffffffffffffffffffffffff\n      and\n      0xffffffffffffffffffffffffffffffffffffffff\n      and\n      dup2\n      mstore\n      0x20\n      add\n      swap1\n      dup2\n      mstore\n      0x20\n      add\n      0x00\n      keccak256\n      0x00\n        /* \"contracts/src/LiquidationArchive.sol\":5897:5925  liquidationCount[borrower]++ */\n      dup2\n      sload\n      dup1\n      swap3\n      swap2\n      swap1\n      tag_167\n      swap1\n      tag_139\n      jump\t// in\n    tag_167:\n      swap2\n      swap1\n      pop\n      sstore\n      pop\n        /* \"contracts/src/LiquidationArchive.sol\":908:909  0 */\n      0x00\n        /* \"contracts/src/LiquidationArchive.sol\":5940:5964  currency == CURRENCY_USD */\n      0xff\n      and\n        /* \"contracts/src/LiquidationArchive.sol\":5940:5948  currency */\n      dup5\n        /* \"contracts/src/LiquidationArchive.sol\":5940:5964  currency == CURRENCY_USD */\n      0xff\n      and\n      sub\n        /* \"contracts/src/LiquidationArchive.sol\":5936:6086  if (currency == CURRENCY_USD) {... */\n      tag_168\n      jumpi\n        /* \"contracts/src/LiquidationArchive.sol\":6002:6012  debtRepaid */\n      dup7\n        /* \"contracts/src/LiquidationArchive.sol\":5980:5998  totalDebtRepaidUSD */\n      0x01\n      0x00\n        /* \"contracts/src/LiquidationArchive.sol\":5980:6012  totalDebtRepaidUSD += debtRepaid */\n      dup3\n      dup3\n      sload\n      tag_169\n      swap2\n      swap1\n      tag_106\n      jump\t// in\n    tag_169:\n      swap3\n      pop\n      pop\n      dup2\n      swap1\n      sstore\n      pop\n        /* \"contracts/src/LiquidationArchive.sol\":5936:6086  if (currency == CURRENCY_USD) {... */\n      jump(tag_170)\n    tag_168:\n        /* \"contracts/src/LiquidationArchive.sol\":6065:6075  debtRepaid */\n      dup7\n        /* \"contracts/src/LiquidationArchive.sol\":6043:6061  totalDebtRepaidINR */\n      0x02\n      0x00\n        /* \"contracts/src/LiquidationArchive.sol\":6043:6075  totalDebtRepaidINR += debtRepaid */\n      dup3\n      dup3\n      sload\n      tag_171\n      swap2\n      swap1\n      tag_106\n      jump\t// in\n    tag_171:\n      swap3\n      pop\n      pop\n      dup2\n      swap1\n      sstore\n      pop\n        /* \"contracts/src/LiquidationArchive.sol\":5936:6086  if (currency == CURRENCY_USD) {... */\n    tag_170:\n        /* \"contracts/src/LiquidationArchive.sol\":6152:6162  liquidator */\n      dup8\n        /* \"contracts/src/LiquidationArchive.sol\":6101:6235  LiquidationLogged(... */\n      0xffffffffffffffffffffffffffffffffffffffff\n      and\n        /* \"contracts/src/LiquidationArchive.sol\":6142:6150  borrower */\n      dup10\n        /* \"contracts/src/LiquidationArchive.sol\":6101:6235  LiquidationLogged(... */\n      0xffffffffffffffffffffffffffffffffffffffff\n      and\n        /* \"contracts/src/LiquidationArchive.sol\":6132:6140  recordId */\n      dup3\n        /* \"contracts/src/LiquidationArchive.sol\":6101:6235  LiquidationLogged(... */\n      0x4ff3917f274a7035e685b2352d2ca9bbaf4b85746e49d1613c2a3988551d9b5b\n        /* \"contracts/src/LiquidationArchive.sol\":6176:6186  debtRepaid */\n      dup11\n        /* \"contracts/src/LiquidationArchive.sol\":6188:6204  collateralSeized */\n      dup11\n        /* \"contracts/src/LiquidationArchive.sol\":6206:6214  currency */\n      dup10\n        /* \"contracts/src/LiquidationArchive.sol\":6216:6225  bscTxHash */\n      dup9\n        /* \"contracts/src/LiquidationArchive.sol\":6101:6235  LiquidationLogged(... */\n      mload(0x40)\n      tag_172\n      swap5\n      swap4\n      swap3\n      swap2\n      swap1\n      tag_173\n      jump\t// in\n    tag_172:\n      mload(0x40)\n      dup1\n      swap2\n      sub\n      swap1\n      log4\n        /* \"contracts/src/LiquidationArchive.sol\":4751:6242  function logLiquidation(... */\n      swap9\n      swap8\n      pop\n      pop\n      pop\n      pop\n      pop\n      pop\n      pop\n      pop\n      jump\t// out\n        /* \"contracts/src/LiquidationArchive.sol\":915:953  uint8 public constant CURRENCY_INR = 1 */\n    tag_87:\n        /* \"contracts/src/LiquidationArchive.sol\":952:953  1 */\n      0x01\n        /* \"contracts/src/LiquidationArchive.sol\":915:953  uint8 public constant CURRENCY_INR = 1 */\n      dup2\n      jump\t// out\n        /* \"contracts/src/LiquidationArchive.sol\":9140:9347  function transferOwnership(address newOwner) external onlyOwner {... */\n    tag_92:\n        /* \"contracts/src/LiquidationArchive.sol\":3745:3750  owner */\n      0x06\n      0x00\n      swap1\n      sload\n      swap1\n      0x0100\n      exp\n      swap1\n      div\n      0xffffffffffffffffffffffffffffffffffffffff\n      and\n        /* \"contracts/src/LiquidationArchive.sol\":3731:3750  msg.sender != owner */\n      0xffffffffffffffffffffffffffffffffffffffff\n      and\n        /* \"contracts/src/LiquidationArchive.sol\":3731:3741  msg.sender */\n      caller\n        /* \"contracts/src/LiquidationArchive.sol\":3731:3750  msg.sender != owner */\n      0xffffffffffffffffffffffffffffffffffffffff\n      and\n      eq\n        /* \"contracts/src/LiquidationArchive.sol\":3727:3773  if (msg.sender != owner) revert Unauthorized() */\n      tag_175\n      jumpi\n        /* \"contracts/src/LiquidationArchive.sol\":3759:3773  Unauthorized() */\n      mload(0x40)\n      0x82b4290000000000000000000000000000000000000000000000000000000000\n      dup2\n      mstore\n      0x04\n      add\n      mload(0x40)\n      dup1\n      swap2\n      sub\n      swap1\n      revert\n        /* \"contracts/src/LiquidationArchive.sol\":3727:3773  if (msg.sender != owner) revert Unauthorized() */\n    tag_175:\n        /* \"contracts/src/LiquidationArchive.sol\":9238:9239  0 */\n      0x00\n        /* \"contracts/src/LiquidationArchive.sol\":9218:9240  newOwner == address(0) */\n      0xffffffffffffffffffffffffffffffffffffffff\n      and\n        /* \"contracts/src/LiquidationArchive.sol\":9218:9226  newOwner */\n      dup2\n        /* \"contracts/src/LiquidationArchive.sol\":9218:9240  newOwner == address(0) */\n      0xffffffffffffffffffffffffffffffffffffffff\n      and\n      sub\n        /* \"contracts/src/LiquidationArchive.sol\":9214:9262  if (newOwner == address(0)) revert ZeroAddress() */\n      tag_177\n      jumpi\n        /* \"contracts/src/LiquidationArchive.sol\":9249:9262  ZeroAddress() */\n      mload(0x40)\n      0xd92e233d00000000000000000000000000000000000000000000000000000000\n      dup2\n      mstore\n      0x04\n      add\n      mload(0x40)\n      dup1\n      swap2\n      sub\n      swap1\n      revert\n        /* \"contracts/src/LiquidationArchive.sol\":9214:9262  if (newOwner == address(0)) revert ZeroAddress() */\n    tag_177:\n        /* \"contracts/src/LiquidationArchive.sol\":9305:9313  newOwner */\n      dup1\n        /* \"contracts/src/LiquidationArchive.sol\":9277:9314  OwnershipTransferred(owner, newOwner) */\n      0xffffffffffffffffffffffffffffffffffffffff\n      and\n        /* \"contracts/src/LiquidationArchive.sol\":9298:9303  owner */\n      0x06\n      0x00\n      swap1\n      sload\n      swap1\n      0x0100\n      exp\n      swap1\n      div\n      0xffffffffffffffffffffffffffffffffffffffff\n      and\n        /* \"contracts/src/LiquidationArchive.sol\":9277:9314  OwnershipTransferred(owner, newOwner) */\n      0xffffffffffffffffffffffffffffffffffffffff\n      and\n      0x8be0079c531659141344cd1fd0a4f28419497f9722a3daafe3b4186f6b6457e0\n      mload(0x40)\n      mload(0x40)\n      dup1\n      swap2\n      sub\n      swap1\n      log3\n        /* \"contracts/src/LiquidationArchive.sol\":9332:9340  newOwner */\n      dup1\n        /* \"contracts/src/LiquidationArchive.sol\":9324:9329  owner */\n      0x06\n      0x00\n        /* \"contracts/src/LiquidationArchive.sol\":9324:9340  owner = newOwner */\n      0x0100\n      exp\n      dup2\n      sload\n      dup2\n      0xffffffffffffffffffffffffffffffffffffffff\n      mul\n      not\n      and\n      swap1\n      dup4\n      0xffffffffffffffffffffffffffffffffffffffff\n      and\n      mul\n      or\n      swap1\n      sstore\n      pop\n        /* \"contracts/src/LiquidationArchive.sol\":9140:9347  function transferOwnership(address newOwner) external onlyOwner {... */\n      pop\n      jump\t// out\n        /* \"contracts/src/LiquidationArchive.sol\":871:909  uint8 public constant CURRENCY_USD = 0 */\n    tag_94:\n        /* \"contracts/src/LiquidationArchive.sol\":908:909  0 */\n      0x00\n        /* \"contracts/src/LiquidationArchive.sol\":871:909  uint8 public constant CURRENCY_USD = 0 */\n      dup2\n      jump\t// out\n    tag_104:\n      mload(0x40)\n      dup1\n      0x0120\n      add\n      0x40\n      mstore\n      dup1\n      and(0xffffffffffffffffffffffffffffffffffffffff, 0x00)\n      dup2\n      mstore\n      0x20\n      add\n      and(0xffffffffffffffffffffffffffffffffffffffff, 0x00)\n      dup2\n      mstore\n      0x20\n      add\n      0x00\n      dup2\n      mstore\n      0x20\n      add\n      0x00\n      dup2\n      mstore\n      0x20\n      add\n      0x00\n      dup2\n      mstore\n      0x20\n      add\n      and(0xff, 0x00)\n      dup2\n      mstore\n      0x20\n      add\n      0x00\n      dup2\n      mstore\n      0x20\n      add\n      0x00\n      dup2\n      mstore\n      0x20\n      add\n      0x00\n      dup2\n      mstore\n      pop\n      swap1\n      jump\t// out\n        /* \"#utility.yul\":88:205   */\n    tag_179:\n        /* \"#utility.yul\":197:198   */\n      0x00\n        /* \"#utility.yul\":194:195   */\n      0x00\n        /* \"#utility.yul\":187:199   */\n      revert\n        /* \"#utility.yul\":334:411   */\n    tag_181:\n        /* \"#utility.yul\":371:378   */\n      0x00\n        /* \"#utility.yul\":400:405   */\n      dup2\n        /* \"#utility.yul\":389:405   */\n      swap1\n      pop\n        /* \"#utility.yul\":334:411   */\n      swap2\n      swap1\n      pop\n      jump\t// out\n        /* \"#utility.yul\":417:539   */\n    tag_182:\n        /* \"#utility.yul\":490:514   */\n      tag_223\n        /* \"#utility.yul\":508:513   */\n      dup2\n        /* \"#utility.yul\":490:514   */\n      tag_181\n      jump\t// in\n    tag_223:\n        /* \"#utility.yul\":483:488   */\n      dup2\n        /* \"#utility.yul\":480:515   */\n      eq\n        /* \"#utility.yul\":470:533   */\n      tag_224\n      jumpi\n        /* \"#utility.yul\":529:530   */\n      0x00\n        /* \"#utility.yul\":526:527   */\n      0x00\n        /* \"#utility.yul\":519:531   */\n      revert\n        /* \"#utility.yul\":470:533   */\n    tag_224:\n        /* \"#utility.yul\":417:539   */\n      pop\n      jump\t// out\n        /* \"#utility.yul\":545:684   */\n    tag_183:\n        /* \"#utility.yul\":591:596   */\n      0x00\n        /* \"#utility.yul\":629:635   */\n      dup2\n        /* \"#utility.yul\":616:636   */\n      calldataload\n        /* \"#utility.yul\":607:636   */\n      swap1\n      pop\n        /* \"#utility.yul\":645:678   */\n      tag_226\n        /* \"#utility.yul\":672:677   */\n      dup2\n        /* \"#utility.yul\":645:678   */\n      tag_182\n      jump\t// in\n    tag_226:\n        /* \"#utility.yul\":545:684   */\n      swap3\n      swap2\n      pop\n      pop\n      jump\t// out\n        /* \"#utility.yul\":690:1164   */\n    tag_26:\n        /* \"#utility.yul\":758:764   */\n      0x00\n        /* \"#utility.yul\":766:772   */\n      0x00\n        /* \"#utility.yul\":815:817   */\n      0x40\n        /* \"#utility.yul\":803:812   */\n      dup4\n        /* \"#utility.yul\":794:801   */\n      dup6\n        /* \"#utility.yul\":790:813   */\n      sub\n        /* \"#utility.yul\":786:818   */\n      slt\n        /* \"#utility.yul\":783:902   */\n      iszero\n      tag_228\n      jumpi\n        /* \"#utility.yul\":821:900   */\n      tag_229\n      tag_179\n      jump\t// in\n    tag_229:\n        /* \"#utility.yul\":783:902   */\n    tag_228:\n        /* \"#utility.yul\":941:942   */\n      0x00\n        /* \"#utility.yul\":966:1019   */\n      tag_230\n        /* \"#utility.yul\":1011:1018   */\n      dup6\n        /* \"#utility.yul\":1002:1008   */\n      dup3\n        /* \"#utility.yul\":991:1000   */\n      dup7\n        /* \"#utility.yul\":987:1009   */\n      add\n        /* \"#utility.yul\":966:1019   */\n      tag_183\n      jump\t// in\n    tag_230:\n        /* \"#utility.yul\":956:1019   */\n      swap3\n      pop\n        /* \"#utility.yul\":912:1029   */\n      pop\n        /* \"#utility.yul\":1068:1070   */\n      0x20\n        /* \"#utility.yul\":1094:1147   */\n      tag_231\n        /* \"#utility.yul\":1139:1146   */\n      dup6\n        /* \"#utility.yul\":1130:1136   */\n      dup3\n        /* \"#utility.yul\":1119:1128   */\n      dup7\n        /* \"#utility.yul\":1115:1137   */\n      add\n        /* \"#utility.yul\":1094:1147   */\n      tag_183\n      jump\t// in\n    tag_231:\n        /* \"#utility.yul\":1084:1147   */\n      swap2\n      pop\n        /* \"#utility.yul\":1039:1157   */\n      pop\n        /* \"#utility.yul\":690:1164   */\n      swap3\n      pop\n      swap3\n      swap1\n      pop\n      jump\t// out\n        /* \"#utility.yul\":1170:1317   */\n    tag_184:\n        /* \"#utility.yul\":1270:1276   */\n      0x00\n        /* \"#utility.yul\":1304:1309   */\n      dup2\n        /* \"#utility.yul\":1298:1310   */\n      mload\n        /* \"#utility.yul\":1288:1310   */\n      swap1\n      pop\n        /* \"#utility.yul\":1170:1317   */\n      swap2\n      swap1\n      pop\n      jump\t// out\n        /* \"#utility.yul\":1323:1540   */\n    tag_185:\n        /* \"#utility.yul\":1455:1466   */\n      0x00\n        /* \"#utility.yul\":1489:1495   */\n      dup3\n        /* \"#utility.yul\":1484:1487   */\n      dup3\n        /* \"#utility.yul\":1477:1496   */\n      mstore\n        /* \"#utility.yul\":1529:1533   */\n      0x20\n        /* \"#utility.yul\":1524:1527   */\n      dup3\n        /* \"#utility.yul\":1520:1534   */\n      add\n        /* \"#utility.yul\":1505:1534   */\n      swap1\n      pop\n        /* \"#utility.yul\":1323:1540   */\n      swap3\n      swap2\n      pop\n      pop\n      jump\t// out\n        /* \"#utility.yul\":1546:1711   */\n    tag_186:\n        /* \"#utility.yul\":1646:1650   */\n      0x00\n        /* \"#utility.yul\":1669:1672   */\n      dup2\n        /* \"#utility.yul\":1661:1672   */\n      swap1\n      pop\n        /* \"#utility.yul\":1699:1703   */\n      0x20\n        /* \"#utility.yul\":1694:1697   */\n      dup3\n        /* \"#utility.yul\":1690:1704   */\n      add\n        /* \"#utility.yul\":1682:1704   */\n      swap1\n      pop\n        /* \"#utility.yul\":1546:1711   */\n      swap2\n      swap1\n      pop\n      jump\t// out\n        /* \"#utility.yul\":1717:1843   */\n    tag_187:\n        /* \"#utility.yul\":1754:1761   */\n      0x00\n        /* \"#utility.yul\":1794:1836   */\n      0xffffffffffffffffffffffffffffffffffffffff\n        /* \"#utility.yul\":1787:1792   */\n      dup3\n        /* \"#utility.yul\":1783:1837   */\n      and\n        /* \"#utility.yul\":1772:1837   */\n      swap1\n      pop\n        /* \"#utility.yul\":1717:1843   */\n      swap2\n      swap1\n      pop\n      jump\t// out\n        /* \"#utility.yul\":1849:1945   */\n    tag_188:\n        /* \"#utility.yul\":1886:1893   */\n      0x00\n        /* \"#utility.yul\":1915:1939   */\n      tag_237\n        /* \"#utility.yul\":1933:1938   */\n      dup3\n        /* \"#utility.yul\":1915:1939   */\n      tag_187\n      jump\t// in\n    tag_237:\n        /* \"#utility.yul\":1904:1939   */\n      swap1\n      pop\n        /* \"#utility.yul\":1849:1945   */\n      swap2\n      swap1\n      pop\n      jump\t// out\n        /* \"#utility.yul\":1951:2059   */\n    tag_189:\n        /* \"#utility.yul\":2028:2052   */\n      tag_239\n        /* \"#utility.yul\":2046:2051   */\n      dup2\n        /* \"#utility.yul\":2028:2052   */\n      tag_188\n      jump\t// in\n    tag_239:\n        /* \"#utility.yul\":2023:2026   */\n      dup3\n        /* \"#utility.yul\":2016:2053   */\n      mstore\n        /* \"#utility.yul\":1951:2059   */\n      pop\n      pop\n      jump\t// out\n        /* \"#utility.yul\":2065:2173   */\n    tag_190:\n        /* \"#utility.yul\":2142:2166   */\n      tag_241\n        /* \"#utility.yul\":2160:2165   */\n      dup2\n        /* \"#utility.yul\":2142:2166   */\n      tag_181\n      jump\t// in\n    tag_241:\n        /* \"#utility.yul\":2137:2140   */\n      dup3\n        /* \"#utility.yul\":2130:2167   */\n      mstore\n        /* \"#utility.yul\":2065:2173   */\n      pop\n      pop\n      jump\t// out\n        /* \"#utility.yul\":2179:2265   */\n    tag_191:\n        /* \"#utility.yul\":2214:2221   */\n      0x00\n        /* \"#utility.yul\":2254:2258   */\n      0xff\n        /* \"#utility.yul\":2247:2252   */\n      dup3\n        /* \"#utility.yul\":2243:2259   */\n      and\n        /* \"#utility.yul\":2232:2259   */\n      swap1\n      pop\n        /* \"#utility.yul\":2179:2265   */\n      swap2\n      swap1\n      pop\n      jump\t// out\n        /* \"#utility.yul\":2271:2373   */\n    tag_192:\n        /* \"#utility.yul\":2344:2366   */\n      tag_244\n        /* \"#utility.yul\":2360:2365   */\n      dup2\n        /* \"#utility.yul\":2344:2366   */\n      tag_191\n      jump\t// in\n    tag_244:\n        /* \"#utility.yul\":2339:2342   */\n      dup3\n        /* \"#utility.yul\":2332:2367   */\n      mstore\n        /* \"#utility.yul\":2271:2373   */\n      pop\n      pop\n      jump\t// out\n        /* \"#utility.yul\":2379:2456   */\n    tag_193:\n        /* \"#utility.yul\":2416:2423   */\n      0x00\n        /* \"#utility.yul\":2445:2450   */\n      dup2\n        /* \"#utility.yul\":2434:2450   */\n      swap1\n      pop\n        /* \"#utility.yul\":2379:2456   */\n      swap2\n      swap1\n      pop\n      jump\t// out\n        /* \"#utility.yul\":2462:2570   */\n    tag_194:\n        /* \"#utility.yul\":2539:2563   */\n      tag_247\n        /* \"#utility.yul\":2557:2562   */\n      dup2\n        /* \"#utility.yul\":2539:2563   */\n      tag_193\n      jump\t// in\n    tag_247:\n        /* \"#utility.yul\":2534:2537   */\n      dup3\n        /* \"#utility.yul\":2527:2564   */\n      mstore\n        /* \"#utility.yul\":2462:2570   */\n      pop\n      pop\n      jump\t// out\n        /* \"#utility.yul\":2674:4466   */\n    tag_195:\n        /* \"#utility.yul\":2827:2833   */\n      0x0120\n        /* \"#utility.yul\":2822:2825   */\n      dup3\n        /* \"#utility.yul\":2818:2834   */\n      add\n        /* \"#utility.yul\":2920:2924   */\n      0x00\n        /* \"#utility.yul\":2913:2918   */\n      dup3\n        /* \"#utility.yul\":2909:2925   */\n      add\n        /* \"#utility.yul\":2903:2926   */\n      mload\n        /* \"#utility.yul\":2939:3002   */\n      tag_249\n        /* \"#utility.yul\":2996:3000   */\n      0x00\n        /* \"#utility.yul\":2991:2994   */\n      dup6\n        /* \"#utility.yul\":2987:3001   */\n      add\n        /* \"#utility.yul\":2973:2985   */\n      dup3\n        /* \"#utility.yul\":2939:3002   */\n      tag_189\n      jump\t// in\n    tag_249:\n        /* \"#utility.yul\":2844:3012   */\n      pop\n        /* \"#utility.yul\":3100:3104   */\n      0x20\n        /* \"#utility.yul\":3093:3098   */\n      dup3\n        /* \"#utility.yul\":3089:3105   */\n      add\n        /* \"#utility.yul\":3083:3106   */\n      mload\n        /* \"#utility.yul\":3119:3182   */\n      tag_250\n        /* \"#utility.yul\":3176:3180   */\n      0x20\n        /* \"#utility.yul\":3171:3174   */\n      dup6\n        /* \"#utility.yul\":3167:3181   */\n      add\n        /* \"#utility.yul\":3153:3165   */\n      dup3\n        /* \"#utility.yul\":3119:3182   */\n      tag_189\n      jump\t// in\n    tag_250:\n        /* \"#utility.yul\":3022:3192   */\n      pop\n        /* \"#utility.yul\":3280:3284   */\n      0x40\n        /* \"#utility.yul\":3273:3278   */\n      dup3\n        /* \"#utility.yul\":3269:3285   */\n      add\n        /* \"#utility.yul\":3263:3286   */\n      mload\n        /* \"#utility.yul\":3299:3362   */\n      tag_251\n        /* \"#utility.yul\":3356:3360   */\n      0x40\n        /* \"#utility.yul\":3351:3354   */\n      dup6\n        /* \"#utility.yul\":3347:3361   */\n      add\n        /* \"#utility.yul\":3333:3345   */\n      dup3\n        /* \"#utility.yul\":3299:3362   */\n      tag_190\n      jump\t// in\n    tag_251:\n        /* \"#utility.yul\":3202:3372   */\n      pop\n        /* \"#utility.yul\":3466:3470   */\n      0x60\n        /* \"#utility.yul\":3459:3464   */\n      dup3\n        /* \"#utility.yul\":3455:3471   */\n      add\n        /* \"#utility.yul\":3449:3472   */\n      mload\n        /* \"#utility.yul\":3485:3548   */\n      tag_252\n        /* \"#utility.yul\":3542:3546   */\n      0x60\n        /* \"#utility.yul\":3537:3540   */\n      dup6\n        /* \"#utility.yul\":3533:3547   */\n      add\n        /* \"#utility.yul\":3519:3531   */\n      dup3\n        /* \"#utility.yul\":3485:3548   */\n      tag_190\n      jump\t// in\n    tag_252:\n        /* \"#utility.yul\":3382:3558   */\n      pop\n        /* \"#utility.yul\":3647:3651   */\n      0x80\n        /* \"#utility.yul\":3640:3645   */\n      dup3\n        /* \"#utility.yul\":3636:3652   */\n      add\n        /* \"#utility.yul\":3630:3653   */\n      mload\n        /* \"#utility.yul\":3666:3729   */\n      tag_253\n        /* \"#utility.yul\":3723:3727   */\n      0x80\n        /* \"#utility.yul\":3718:3721   */\n      dup6\n        /* \"#utility.yul\":3714:3728   */\n      add\n        /* \"#utility.yul\":3700:3712   */\n      dup3\n        /* \"#utility.yul\":3666:3729   */\n      tag_190\n      jump\t// in\n    tag_253:\n        /* \"#utility.yul\":3568:3739   */\n      pop\n        /* \"#utility.yul\":3825:3829   */\n      0xa0\n        /* \"#utility.yul\":3818:3823   */\n      dup3\n        /* \"#utility.yul\":3814:3830   */\n      add\n        /* \"#utility.yul\":3808:3831   */\n      mload\n        /* \"#utility.yul\":3844:3903   */\n      tag_254\n        /* \"#utility.yul\":3897:3901   */\n      0xa0\n        /* \"#utility.yul\":3892:3895   */\n      dup6\n        /* \"#utility.yul\":3888:3902   */\n      add\n        /* \"#utility.yul\":3874:3886   */\n      dup3\n        /* \"#utility.yul\":3844:3903   */\n      tag_192\n      jump\t// in\n    tag_254:\n        /* \"#utility.yul\":3749:3913   */\n      pop\n        /* \"#utility.yul\":4000:4004   */\n      0xc0\n        /* \"#utility.yul\":3993:3998   */\n      dup3\n        /* \"#utility.yul\":3989:4005   */\n      add\n        /* \"#utility.yul\":3983:4006   */\n      mload\n        /* \"#utility.yul\":4019:4082   */\n      tag_255\n        /* \"#utility.yul\":4076:4080   */\n      0xc0\n        /* \"#utility.yul\":4071:4074   */\n      dup6\n        /* \"#utility.yul\":4067:4081   */\n      add\n        /* \"#utility.yul\":4053:4065   */\n      dup3\n        /* \"#utility.yul\":4019:4082   */\n      tag_190\n      jump\t// in\n    tag_255:\n        /* \"#utility.yul\":3923:4092   */\n      pop\n        /* \"#utility.yul\":4184:4188   */\n      0xe0\n        /* \"#utility.yul\":4177:4182   */\n      dup3\n        /* \"#utility.yul\":4173:4189   */\n      add\n        /* \"#utility.yul\":4167:4190   */\n      mload\n        /* \"#utility.yul\":4203:4266   */\n      tag_256\n        /* \"#utility.yul\":4260:4264   */\n      0xe0\n        /* \"#utility.yul\":4255:4258   */\n      dup6\n        /* \"#utility.yul\":4251:4265   */\n      add\n        /* \"#utility.yul\":4237:4249   */\n      dup3\n        /* \"#utility.yul\":4203:4266   */\n      tag_190\n      jump\t// in\n    tag_256:\n        /* \"#utility.yul\":4102:4276   */\n      pop\n        /* \"#utility.yul\":4363:4369   */\n      0x0100\n        /* \"#utility.yul\":4356:4361   */\n      dup3\n        /* \"#utility.yul\":4352:4370   */\n      add\n        /* \"#utility.yul\":4346:4371   */\n      mload\n        /* \"#utility.yul\":4384:4449   */\n      tag_257\n        /* \"#utility.yul\":4441:4447   */\n      0x0100\n        /* \"#utility.yul\":4436:4439   */\n      dup6\n        /* \"#utility.yul\":4432:4448   */\n      add\n        /* \"#utility.yul\":4418:4430   */\n      dup3\n        /* \"#utility.yul\":4384:4449   */\n      tag_194\n      jump\t// in\n    tag_257:\n        /* \"#utility.yul\":4286:4459   */\n      pop\n        /* \"#utility.yul\":2796:4466   */\n      pop\n        /* \"#utility.yul\":2674:4466   */\n      pop\n      pop\n      jump\t// out\n        /* \"#utility.yul\":4472:4785   */\n    tag_196:\n        /* \"#utility.yul\":4607:4617   */\n      0x00\n        /* \"#utility.yul\":4628:4740   */\n      tag_259\n        /* \"#utility.yul\":4736:4739   */\n      dup4\n        /* \"#utility.yul\":4728:4734   */\n      dup4\n        /* \"#utility.yul\":4628:4740   */\n      tag_195\n      jump\t// in\n    tag_259:\n        /* \"#utility.yul\":4772:4778   */\n      0x0120\n        /* \"#utility.yul\":4767:4770   */\n      dup4\n        /* \"#utility.yul\":4763:4779   */\n      add\n        /* \"#utility.yul\":4749:4779   */\n      swap1\n      pop\n        /* \"#utility.yul\":4472:4785   */\n      swap3\n      swap2\n      pop\n      pop\n      jump\t// out\n        /* \"#utility.yul\":4791:4937   */\n    tag_197:\n        /* \"#utility.yul\":4894:4898   */\n      0x00\n        /* \"#utility.yul\":4926:4930   */\n      0x20\n        /* \"#utility.yul\":4921:4924   */\n      dup3\n        /* \"#utility.yul\":4917:4931   */\n      add\n        /* \"#utility.yul\":4909:4931   */\n      swap1\n      pop\n        /* \"#utility.yul\":4791:4937   */\n      swap2\n      swap1\n      pop\n      jump\t// out\n        /* \"#utility.yul\":5045:6041   */\n    tag_198:\n        /* \"#utility.yul\":5230:5233   */\n      0x00\n        /* \"#utility.yul\":5259:5346   */\n      tag_262\n        /* \"#utility.yul\":5340:5345   */\n      dup3\n        /* \"#utility.yul\":5259:5346   */\n      tag_184\n      jump\t// in\n    tag_262:\n        /* \"#utility.yul\":5362:5481   */\n      tag_263\n        /* \"#utility.yul\":5474:5480   */\n      dup2\n        /* \"#utility.yul\":5469:5472   */\n      dup6\n        /* \"#utility.yul\":5362:5481   */\n      tag_185\n      jump\t// in\n    tag_263:\n        /* \"#utility.yul\":5355:5481   */\n      swap4\n      pop\n        /* \"#utility.yul\":5505:5594   */\n      tag_264\n        /* \"#utility.yul\":5588:5593   */\n      dup4\n        /* \"#utility.yul\":5505:5594   */\n      tag_186\n      jump\t// in\n    tag_264:\n        /* \"#utility.yul\":5617:5624   */\n      dup1\n        /* \"#utility.yul\":5648:5649   */\n      0x00\n        /* \"#utility.yul\":5633:6016   */\n    tag_265:\n        /* \"#utility.yul\":5658:5664   */\n      dup4\n        /* \"#utility.yul\":5655:5656   */\n      dup2\n        /* \"#utility.yul\":5652:5665   */\n      lt\n        /* \"#utility.yul\":5633:6016   */\n      iszero\n      tag_267\n      jumpi\n        /* \"#utility.yul\":5734:5740   */\n      dup2\n        /* \"#utility.yul\":5728:5741   */\n      mload\n        /* \"#utility.yul\":5761:5890   */\n      tag_268\n        /* \"#utility.yul\":5886:5889   */\n      dup9\n        /* \"#utility.yul\":5871:5884   */\n      dup3\n        /* \"#utility.yul\":5761:5890   */\n      tag_196\n      jump\t// in\n    tag_268:\n        /* \"#utility.yul\":5754:5890   */\n      swap8\n      pop\n        /* \"#utility.yul\":5913:6006   */\n      tag_269\n        /* \"#utility.yul\":5999:6005   */\n      dup4\n        /* \"#utility.yul\":5913:6006   */\n      tag_197\n      jump\t// in\n    tag_269:\n        /* \"#utility.yul\":5903:6006   */\n      swap3\n      pop\n        /* \"#utility.yul\":5693:6016   */\n      pop\n        /* \"#utility.yul\":5680:5681   */\n      0x01\n        /* \"#utility.yul\":5677:5678   */\n      dup2\n        /* \"#utility.yul\":5673:5682   */\n      add\n        /* \"#utility.yul\":5668:5682   */\n      swap1\n      pop\n        /* \"#utility.yul\":5633:6016   */\n      jump(tag_265)\n    tag_267:\n        /* \"#utility.yul\":5637:5651   */\n      pop\n        /* \"#utility.yul\":6032:6035   */\n      dup6\n        /* \"#utility.yul\":6025:6035   */\n      swap4\n      pop\n        /* \"#utility.yul\":5235:6041   */\n      pop\n      pop\n      pop\n        /* \"#utility.yul\":5045:6041   */\n      swap3\n      swap2\n      pop\n      pop\n      jump\t// out\n        /* \"#utility.yul\":6047:6552   */\n    tag_29:\n        /* \"#utility.yul\":6256:6260   */\n      0x00\n        /* \"#utility.yul\":6294:6296   */\n      0x20\n        /* \"#utility.yul\":6283:6292   */\n      dup3\n        /* \"#utility.yul\":6279:6297   */\n      add\n        /* \"#utility.yul\":6271:6297   */\n      swap1\n      pop\n        /* \"#utility.yul\":6343:6352   */\n      dup2\n        /* \"#utility.yul\":6337:6341   */\n      dup2\n        /* \"#utility.yul\":6333:6353   */\n      sub\n        /* \"#utility.yul\":6329:6330   */\n      0x00\n        /* \"#utility.yul\":6318:6327   */\n      dup4\n        /* \"#utility.yul\":6314:6331   */\n      add\n        /* \"#utility.yul\":6307:6354   */\n      mstore\n        /* \"#utility.yul\":6371:6545   */\n      tag_271\n        /* \"#utility.yul\":6540:6544   */\n      dup2\n        /* \"#utility.yul\":6531:6537   */\n      dup5\n        /* \"#utility.yul\":6371:6545   */\n      tag_198\n      jump\t// in\n    tag_271:\n        /* \"#utility.yul\":6363:6545   */\n      swap1\n      pop\n        /* \"#utility.yul\":6047:6552   */\n      swap3\n      swap2\n      pop\n      pop\n      jump\t// out\n        /* \"#utility.yul\":6558:6676   */\n    tag_199:\n        /* \"#utility.yul\":6645:6669   */\n      tag_273\n        /* \"#utility.yul\":6663:6668   */\n      dup2\n        /* \"#utility.yul\":6645:6669   */\n      tag_181\n      jump\t// in\n    tag_273:\n        /* \"#utility.yul\":6640:6643   */\n      dup3\n        /* \"#utility.yul\":6633:6670   */\n      mstore\n        /* \"#utility.yul\":6558:6676   */\n      pop\n      pop\n      jump\t// out\n        /* \"#utility.yul\":6682:6904   */\n    tag_33:\n        /* \"#utility.yul\":6775:6779   */\n      0x00\n        /* \"#utility.yul\":6813:6815   */\n      0x20\n        /* \"#utility.yul\":6802:6811   */\n      dup3\n        /* \"#utility.yul\":6798:6816   */\n      add\n        /* \"#utility.yul\":6790:6816   */\n      swap1\n      pop\n        /* \"#utility.yul\":6826:6897   */\n      tag_275\n        /* \"#utility.yul\":6894:6895   */\n      0x00\n        /* \"#utility.yul\":6883:6892   */\n      dup4\n        /* \"#utility.yul\":6879:6896   */\n      add\n        /* \"#utility.yul\":6870:6876   */\n      dup5\n        /* \"#utility.yul\":6826:6897   */\n      tag_199\n      jump\t// in\n    tag_275:\n        /* \"#utility.yul\":6682:6904   */\n      swap3\n      swap2\n      pop\n      pop\n      jump\t// out\n        /* \"#utility.yul\":6910:7032   */\n    tag_200:\n        /* \"#utility.yul\":6983:7007   */\n      tag_277\n        /* \"#utility.yul\":7001:7006   */\n      dup2\n        /* \"#utility.yul\":6983:7007   */\n      tag_188\n      jump\t// in\n    tag_277:\n        /* \"#utility.yul\":6976:6981   */\n      dup2\n        /* \"#utility.yul\":6973:7008   */\n      eq\n        /* \"#utility.yul\":6963:7026   */\n      tag_278\n      jumpi\n        /* \"#utility.yul\":7022:7023   */\n      0x00\n        /* \"#utility.yul\":7019:7020   */\n      0x00\n        /* \"#utility.yul\":7012:7024   */\n      revert\n        /* \"#utility.yul\":6963:7026   */\n    tag_278:\n        /* \"#utility.yul\":6910:7032   */\n      pop\n      jump\t// out\n        /* \"#utility.yul\":7038:7177   */\n    tag_201:\n        /* \"#utility.yul\":7084:7089   */\n      0x00\n        /* \"#utility.yul\":7122:7128   */\n      dup2\n        /* \"#utility.yul\":7109:7129   */\n      calldataload\n        /* \"#utility.yul\":7100:7129   */\n      swap1\n      pop\n        /* \"#utility.yul\":7138:7171   */\n      tag_280\n        /* \"#utility.yul\":7165:7170   */\n      dup2\n        /* \"#utility.yul\":7138:7171   */\n      tag_200\n      jump\t// in\n    tag_280:\n        /* \"#utility.yul\":7038:7177   */\n      swap3\n      swap2\n      pop\n      pop\n      jump\t// out\n        /* \"#utility.yul\":7183:7512   */\n    tag_36:\n        /* \"#utility.yul\":7242:7248   */\n      0x00\n        /* \"#utility.yul\":7291:7293   */\n      0x20\n        /* \"#utility.yul\":7279:7288   */\n      dup3\n        /* \"#utility.yul\":7270:7277   */\n      dup5\n        /* \"#utility.yul\":7266:7289   */\n      sub\n        /* \"#utility.yul\":7262:7294   */\n      slt\n        /* \"#utility.yul\":7259:7378   */\n      iszero\n      tag_282\n      jumpi\n        /* \"#utility.yul\":7297:7376   */\n      tag_283\n      tag_179\n      jump\t// in\n    tag_283:\n        /* \"#utility.yul\":7259:7378   */\n    tag_282:\n        /* \"#utility.yul\":7417:7418   */\n      0x00\n        /* \"#utility.yul\":7442:7495   */\n      tag_284\n        /* \"#utility.yul\":7487:7494   */\n      dup5\n        /* \"#utility.yul\":7478:7484   */\n      dup3\n        /* \"#utility.yul\":7467:7476   */\n      dup6\n        /* \"#utility.yul\":7463:7485   */\n      add\n        /* \"#utility.yul\":7442:7495   */\n      tag_201\n      jump\t// in\n    tag_284:\n        /* \"#utility.yul\":7432:7495   */\n      swap2\n      pop\n        /* \"#utility.yul\":7388:7505   */\n      pop\n        /* \"#utility.yul\":7183:7512   */\n      swap3\n      swap2\n      pop\n      pop\n      jump\t// out\n        /* \"#utility.yul\":7518:7632   */\n    tag_202:\n        /* \"#utility.yul\":7585:7591   */\n      0x00\n        /* \"#utility.yul\":7619:7624   */\n      dup2\n        /* \"#utility.yul\":7613:7625   */\n      mload\n        /* \"#utility.yul\":7603:7625   */\n      swap1\n      pop\n        /* \"#utility.yul\":7518:7632   */\n      swap2\n      swap1\n      pop\n      jump\t// out\n        /* \"#utility.yul\":7638:7822   */\n    tag_203:\n        /* \"#utility.yul\":7737:7748   */\n      0x00\n        /* \"#utility.yul\":7771:7777   */\n      dup3\n        /* \"#utility.yul\":7766:7769   */\n      dup3\n        /* \"#utility.yul\":7759:7778   */\n      mstore\n        /* \"#utility.yul\":7811:7815   */\n      0x20\n        /* \"#utility.yul\":7806:7809   */\n      dup3\n        /* \"#utility.yul\":7802:7816   */\n      add\n        /* \"#utility.yul\":7787:7816   */\n      swap1\n      pop\n        /* \"#utility.yul\":7638:7822   */\n      swap3\n      swap2\n      pop\n      pop\n      jump\t// out\n        /* \"#utility.yul\":7828:7960   */\n    tag_204:\n        /* \"#utility.yul\":7895:7899   */\n      0x00\n        /* \"#utility.yul\":7918:7921   */\n      dup2\n        /* \"#utility.yul\":7910:7921   */\n      swap1\n      pop\n        /* \"#utility.yul\":7948:7952   */\n      0x20\n        /* \"#utility.yul\":7943:7946   */\n      dup3\n        /* \"#utility.yul\":7939:7953   */\n      add\n        /* \"#utility.yul\":7931:7953   */\n      swap1\n      pop\n        /* \"#utility.yul\":7828:7960   */\n      swap2\n      swap1\n      pop\n      jump\t// out\n        /* \"#utility.yul\":7966:8145   */\n    tag_205:\n        /* \"#utility.yul\":8035:8045   */\n      0x00\n        /* \"#utility.yul\":8056:8102   */\n      tag_289\n        /* \"#utility.yul\":8098:8101   */\n      dup4\n        /* \"#utility.yul\":8090:8096   */\n      dup4\n        /* \"#utility.yul\":8056:8102   */\n      tag_190\n      jump\t// in\n    tag_289:\n        /* \"#utility.yul\":8134:8138   */\n      0x20\n        /* \"#utility.yul\":8129:8132   */\n      dup4\n        /* \"#utility.yul\":8125:8139   */\n      add\n        /* \"#utility.yul\":8111:8139   */\n      swap1\n      pop\n        /* \"#utility.yul\":7966:8145   */\n      swap3\n      swap2\n      pop\n      pop\n      jump\t// out\n        /* \"#utility.yul\":8151:8264   */\n    tag_206:\n        /* \"#utility.yul\":8221:8225   */\n      0x00\n        /* \"#utility.yul\":8253:8257   */\n      0x20\n        /* \"#utility.yul\":8248:8251   */\n      dup3\n        /* \"#utility.yul\":8244:8258   */\n      add\n        /* \"#utility.yul\":8236:8258   */\n      swap1\n      pop\n        /* \"#utility.yul\":8151:8264   */\n      swap2\n      swap1\n      pop\n      jump\t// out\n        /* \"#utility.yul\":8300:9032   */\n    tag_207:\n        /* \"#utility.yul\":8419:8422   */\n      0x00\n        /* \"#utility.yul\":8448:8502   */\n      tag_292\n        /* \"#utility.yul\":8496:8501   */\n      dup3\n        /* \"#utility.yul\":8448:8502   */\n      tag_202\n      jump\t// in\n    tag_292:\n        /* \"#utility.yul\":8518:8604   */\n      tag_293\n        /* \"#utility.yul\":8597:8603   */\n      dup2\n        /* \"#utility.yul\":8592:8595   */\n      dup6\n        /* \"#utility.yul\":8518:8604   */\n      tag_203\n      jump\t// in\n    tag_293:\n        /* \"#utility.yul\":8511:8604   */\n      swap4\n      pop\n        /* \"#utility.yul\":8628:8684   */\n      tag_294\n        /* \"#utility.yul\":8678:8683   */\n      dup4\n        /* \"#utility.yul\":8628:8684   */\n      tag_204\n      jump\t// in\n    tag_294:\n        /* \"#utility.yul\":8707:8714   */\n      dup1\n        /* \"#utility.yul\":8738:8739   */\n      0x00\n        /* \"#utility.yul\":8723:9007   */\n    tag_295:\n        /* \"#utility.yul\":8748:8754   */\n      dup4\n        /* \"#utility.yul\":8745:8746   */\n      dup2\n        /* \"#utility.yul\":8742:8755   */\n      lt\n        /* \"#utility.yul\":8723:9007   */\n      iszero\n      tag_297\n      jumpi\n        /* \"#utility.yul\":8824:8830   */\n      dup2\n        /* \"#utility.yul\":8818:8831   */\n      mload\n        /* \"#utility.yul\":8851:8914   */\n      tag_298\n        /* \"#utility.yul\":8910:8913   */\n      dup9\n        /* \"#utility.yul\":8895:8908   */\n      dup3\n        /* \"#utility.yul\":8851:8914   */\n      tag_205\n      jump\t// in\n    tag_298:\n        /* \"#utility.yul\":8844:8914   */\n      swap8\n      pop\n        /* \"#utility.yul\":8937:8997   */\n      tag_299\n        /* \"#utility.yul\":8990:8996   */\n      dup4\n        /* \"#utility.yul\":8937:8997   */\n      tag_206\n      jump\t// in\n    tag_299:\n        /* \"#utility.yul\":8927:8997   */\n      swap3\n      pop\n        /* \"#utility.yul\":8783:9007   */\n      pop\n        /* \"#utility.yul\":8770:8771   */\n      0x01\n        /* \"#utility.yul\":8767:8768   */\n      dup2\n        /* \"#utility.yul\":8763:8772   */\n      add\n        /* \"#utility.yul\":8758:8772   */\n      swap1\n      pop\n        /* \"#utility.yul\":8723:9007   */\n      jump(tag_295)\n    tag_297:\n        /* \"#utility.yul\":8727:8741   */\n      pop\n        /* \"#utility.yul\":9023:9026   */\n      dup6\n        /* \"#utility.yul\":9016:9026   */\n      swap4\n      pop\n        /* \"#utility.yul\":8424:9032   */\n      pop\n      pop\n      pop\n        /* \"#utility.yul\":8300:9032   */\n      swap3\n      swap2\n      pop\n      pop\n      jump\t// out\n        /* \"#utility.yul\":9038:9411   */\n    tag_39:\n        /* \"#utility.yul\":9181:9185   */\n      0x00\n        /* \"#utility.yul\":9219:9221   */\n      0x20\n        /* \"#utility.yul\":9208:9217   */\n      dup3\n        /* \"#utility.yul\":9204:9222   */\n      add\n        /* \"#utility.yul\":9196:9222   */\n      swap1\n      pop\n        /* \"#utility.yul\":9268:9277   */\n      dup2\n        /* \"#utility.yul\":9262:9266   */\n      dup2\n        /* \"#utility.yul\":9258:9278   */\n      sub\n        /* \"#utility.yul\":9254:9255   */\n      0x00\n        /* \"#utility.yul\":9243:9252   */\n      dup4\n        /* \"#utility.yul\":9239:9256   */\n      add\n        /* \"#utility.yul\":9232:9279   */\n      mstore\n        /* \"#utility.yul\":9296:9404   */\n      tag_301\n        /* \"#utility.yul\":9399:9403   */\n      dup2\n        /* \"#utility.yul\":9390:9396   */\n      dup5\n        /* \"#utility.yul\":9296:9404   */\n      tag_207\n      jump\t// in\n    tag_301:\n        /* \"#utility.yul\":9288:9404   */\n      swap1\n      pop\n        /* \"#utility.yul\":9038:9411   */\n      swap3\n      swap2\n      pop\n      pop\n      jump\t// out\n        /* \"#utility.yul\":9417:9970   */\n    tag_43:\n        /* \"#utility.yul\":9594:9598   */\n      0x00\n        /* \"#utility.yul\":9632:9635   */\n      0x80\n        /* \"#utility.yul\":9621:9630   */\n      dup3\n        /* \"#utility.yul\":9617:9636   */\n      add\n        /* \"#utility.yul\":9609:9636   */\n      swap1\n      pop\n        /* \"#utility.yul\":9646:9717   */\n      tag_303\n        /* \"#utility.yul\":9714:9715   */\n      0x00\n        /* \"#utility.yul\":9703:9712   */\n      dup4\n        /* \"#utility.yul\":9699:9716   */\n      add\n        /* \"#utility.yul\":9690:9696   */\n      dup8\n        /* \"#utility.yul\":9646:9717   */\n      tag_199\n      jump\t// in\n    tag_303:\n        /* \"#utility.yul\":9727:9799   */\n      tag_304\n        /* \"#utility.yul\":9795:9797   */\n      0x20\n        /* \"#utility.yul\":9784:9793   */\n      dup4\n        /* \"#utility.yul\":9780:9798   */\n      add\n        /* \"#utility.yul\":9771:9777   */\n      dup7\n        /* \"#utility.yul\":9727:9799   */\n      tag_199\n      jump\t// in\n    tag_304:\n        /* \"#utility.yul\":9809:9881   */\n      tag_305\n        /* \"#utility.yul\":9877:9879   */\n      0x40\n        /* \"#utility.yul\":9866:9875   */\n      dup4\n        /* \"#utility.yul\":9862:9880   */\n      add\n        /* \"#utility.yul\":9853:9859   */\n      dup6\n        /* \"#utility.yul\":9809:9881   */\n      tag_199\n      jump\t// in\n    tag_305:\n        /* \"#utility.yul\":9891:9963   */\n      tag_306\n        /* \"#utility.yul\":9959:9961   */\n      0x60\n        /* \"#utility.yul\":9948:9957   */\n      dup4\n        /* \"#utility.yul\":9944:9962   */\n      add\n        /* \"#utility.yul\":9935:9941   */\n      dup5\n        /* \"#utility.yul\":9891:9963   */\n      tag_199\n      jump\t// in\n    tag_306:\n        /* \"#utility.yul\":9417:9970   */\n      swap6\n      swap5\n      pop\n      pop\n      pop\n      pop\n      pop\n      jump\t// out\n        /* \"#utility.yul\":9976:10094   */\n    tag_208:\n        /* \"#utility.yul\":10063:10087   */\n      tag_308\n        /* \"#utility.yul\":10081:10086   */\n      dup2\n        /* \"#utility.yul\":10063:10087   */\n      tag_188\n      jump\t// in\n    tag_308:\n        /* \"#utility.yul\":10058:10061   */\n      dup3\n        /* \"#utility.yul\":10051:10088   */\n      mstore\n        /* \"#utility.yul\":9976:10094   */\n      pop\n      pop\n      jump\t// out\n        /* \"#utility.yul\":10100:10322   */\n    tag_60:\n        /* \"#utility.yul\":10193:10197   */\n      0x00\n        /* \"#utility.yul\":10231:10233   */\n      0x20\n        /* \"#utility.yul\":10220:10229   */\n      dup3\n        /* \"#utility.yul\":10216:10234   */\n      add\n        /* \"#utility.yul\":10208:10234   */\n      swap1\n      pop\n        /* \"#utility.yul\":10244:10315   */\n      tag_310\n        /* \"#utility.yul\":10312:10313   */\n      0x00\n        /* \"#utility.yul\":10301:10310   */\n      dup4\n        /* \"#utility.yul\":10297:10314   */\n      add\n        /* \"#utility.yul\":10288:10294   */\n      dup5\n        /* \"#utility.yul\":10244:10315   */\n      tag_208\n      jump\t// in\n    tag_310:\n        /* \"#utility.yul\":10100:10322   */\n      swap3\n      swap2\n      pop\n      pop\n      jump\t// out\n        /* \"#utility.yul\":10328:10657   */\n    tag_66:\n        /* \"#utility.yul\":10387:10393   */\n      0x00\n        /* \"#utility.yul\":10436:10438   */\n      0x20\n        /* \"#utility.yul\":10424:10433   */\n      dup3\n        /* \"#utility.yul\":10415:10422   */\n      dup5\n        /* \"#utility.yul\":10411:10434   */\n      sub\n        /* \"#utility.yul\":10407:10439   */\n      slt\n        /* \"#utility.yul\":10404:10523   */\n      iszero\n      tag_312\n      jumpi\n        /* \"#utility.yul\":10442:10521   */\n      tag_313\n      tag_179\n      jump\t// in\n    tag_313:\n        /* \"#utility.yul\":10404:10523   */\n    tag_312:\n        /* \"#utility.yul\":10562:10563   */\n      0x00\n        /* \"#utility.yul\":10587:10640   */\n      tag_314\n        /* \"#utility.yul\":10632:10639   */\n      dup5\n        /* \"#utility.yul\":10623:10629   */\n      dup3\n        /* \"#utility.yul\":10612:10621   */\n      dup6\n        /* \"#utility.yul\":10608:10630   */\n      add\n        /* \"#utility.yul\":10587:10640   */\n      tag_183\n      jump\t// in\n    tag_314:\n        /* \"#utility.yul\":10577:10640   */\n      swap2\n      pop\n        /* \"#utility.yul\":10533:10650   */\n      pop\n        /* \"#utility.yul\":10328:10657   */\n      swap3\n      swap2\n      pop\n      pop\n      jump\t// out\n        /* \"#utility.yul\":10663:10775   */\n    tag_209:\n        /* \"#utility.yul\":10746:10768   */\n      tag_316\n        /* \"#utility.yul\":10762:10767   */\n      dup2\n        /* \"#utility.yul\":10746:10768   */\n      tag_191\n      jump\t// in\n    tag_316:\n        /* \"#utility.yul\":10741:10744   */\n      dup3\n        /* \"#utility.yul\":10734:10769   */\n      mstore\n        /* \"#utility.yul\":10663:10775   */\n      pop\n      pop\n      jump\t// out\n        /* \"#utility.yul\":10781:10899   */\n    tag_210:\n        /* \"#utility.yul\":10868:10892   */\n      tag_318\n        /* \"#utility.yul\":10886:10891   */\n      dup2\n        /* \"#utility.yul\":10868:10892   */\n      tag_193\n      jump\t// in\n    tag_318:\n        /* \"#utility.yul\":10863:10866   */\n      dup3\n        /* \"#utility.yul\":10856:10893   */\n      mstore\n        /* \"#utility.yul\":10781:10899   */\n      pop\n      pop\n      jump\t// out\n        /* \"#utility.yul\":10905:12005   */\n    tag_69:\n        /* \"#utility.yul\":11218:11222   */\n      0x00\n        /* \"#utility.yul\":11256:11259   */\n      0x0120\n        /* \"#utility.yul\":11245:11254   */\n      dup3\n        /* \"#utility.yul\":11241:11260   */\n      add\n        /* \"#utility.yul\":11233:11260   */\n      swap1\n      pop\n        /* \"#utility.yul\":11270:11341   */\n      tag_320\n        /* \"#utility.yul\":11338:11339   */\n      0x00\n        /* \"#utility.yul\":11327:11336   */\n      dup4\n        /* \"#utility.yul\":11323:11340   */\n      add\n        /* \"#utility.yul\":11314:11320   */\n      dup13\n        /* \"#utility.yul\":11270:11341   */\n      tag_208\n      jump\t// in\n    tag_320:\n        /* \"#utility.yul\":11351:11423   */\n      tag_321\n        /* \"#utility.yul\":11419:11421   */\n      0x20\n        /* \"#utility.yul\":11408:11417   */\n      dup4\n        /* \"#utility.yul\":11404:11422   */\n      add\n        /* \"#utility.yul\":11395:11401   */\n      dup12\n        /* \"#utility.yul\":11351:11423   */\n      tag_208\n      jump\t// in\n    tag_321:\n        /* \"#utility.yul\":11433:11505   */\n      tag_322\n        /* \"#utility.yul\":11501:11503   */\n      0x40\n        /* \"#utility.yul\":11490:11499   */\n      dup4\n        /* \"#utility.yul\":11486:11504   */\n      add\n        /* \"#utility.yul\":11477:11483   */\n      dup11\n        /* \"#utility.yul\":11433:11505   */\n      tag_199\n      jump\t// in\n    tag_322:\n        /* \"#utility.yul\":11515:11587   */\n      tag_323\n        /* \"#utility.yul\":11583:11585   */\n      0x60\n        /* \"#utility.yul\":11572:11581   */\n      dup4\n        /* \"#utility.yul\":11568:11586   */\n      add\n        /* \"#utility.yul\":11559:11565   */\n      dup10\n        /* \"#utility.yul\":11515:11587   */\n      tag_199\n      jump\t// in\n    tag_323:\n        /* \"#utility.yul\":11597:11670   */\n      tag_324\n        /* \"#utility.yul\":11665:11668   */\n      0x80\n        /* \"#utility.yul\":11654:11663   */\n      dup4\n        /* \"#utility.yul\":11650:11669   */\n      add\n        /* \"#utility.yul\":11641:11647   */\n      dup9\n        /* \"#utility.yul\":11597:11670   */\n      tag_199\n      jump\t// in\n    tag_324:\n        /* \"#utility.yul\":11680:11749   */\n      tag_325\n        /* \"#utility.yul\":11744:11747   */\n      0xa0\n        /* \"#utility.yul\":11733:11742   */\n      dup4\n        /* \"#utility.yul\":11729:11748   */\n      add\n        /* \"#utility.yul\":11720:11726   */\n      dup8\n        /* \"#utility.yul\":11680:11749   */\n      tag_209\n      jump\t// in\n    tag_325:\n        /* \"#utility.yul\":11759:11832   */\n      tag_326\n        /* \"#utility.yul\":11827:11830   */\n      0xc0\n        /* \"#utility.yul\":11816:11825   */\n      dup4\n        /* \"#utility.yul\":11812:11831   */\n      add\n        /* \"#utility.yul\":11803:11809   */\n      dup7\n        /* \"#utility.yul\":11759:11832   */\n      tag_199\n      jump\t// in\n    tag_326:\n        /* \"#utility.yul\":11842:11915   */\n      tag_327\n        /* \"#utility.yul\":11910:11913   */\n      0xe0\n        /* \"#utility.yul\":11899:11908   */\n      dup4\n        /* \"#utility.yul\":11895:11914   */\n      add\n        /* \"#utility.yul\":11886:11892   */\n      dup6\n        /* \"#utility.yul\":11842:11915   */\n      tag_199\n      jump\t// in\n    tag_327:\n        /* \"#utility.yul\":11925:11998   */\n      tag_328\n        /* \"#utility.yul\":11993:11996   */\n      0x0100\n        /* \"#utility.yul\":11982:11991   */\n      dup4\n        /* \"#utility.yul\":11978:11997   */\n      add\n        /* \"#utility.yul\":11969:11975   */\n      dup5\n        /* \"#utility.yul\":11925:11998   */\n      tag_210\n      jump\t// in\n    tag_328:\n        /* \"#utility.yul\":10905:12005   */\n      swap11\n      swap10\n      pop\n      pop\n      pop\n      pop\n      pop\n      pop\n      pop\n      pop\n      pop\n      pop\n      jump\t// out\n        /* \"#utility.yul\":12109:13911   */\n    tag_211:\n        /* \"#utility.yul\":12272:12278   */\n      0x0120\n        /* \"#utility.yul\":12267:12270   */\n      dup3\n        /* \"#utility.yul\":12263:12279   */\n      add\n        /* \"#utility.yul\":12365:12369   */\n      0x00\n        /* \"#utility.yul\":12358:12363   */\n      dup3\n        /* \"#utility.yul\":12354:12370   */\n      add\n        /* \"#utility.yul\":12348:12371   */\n      mload\n        /* \"#utility.yul\":12384:12447   */\n      tag_330\n        /* \"#utility.yul\":12441:12445   */\n      0x00\n        /* \"#utility.yul\":12436:12439   */\n      dup6\n        /* \"#utility.yul\":12432:12446   */\n      add\n        /* \"#utility.yul\":12418:12430   */\n      dup3\n        /* \"#utility.yul\":12384:12447   */\n      tag_189\n      jump\t// in\n    tag_330:\n        /* \"#utility.yul\":12289:12457   */\n      pop\n        /* \"#utility.yul\":12545:12549   */\n      0x20\n        /* \"#utility.yul\":12538:12543   */\n      dup3\n        /* \"#utility.yul\":12534:12550   */\n      add\n        /* \"#utility.yul\":12528:12551   */\n      mload\n        /* \"#utility.yul\":12564:12627   */\n      tag_331\n        /* \"#utility.yul\":12621:12625   */\n      0x20\n        /* \"#utility.yul\":12616:12619   */\n      dup6\n        /* \"#utility.yul\":12612:12626   */\n      add\n        /* \"#utility.yul\":12598:12610   */\n      dup3\n        /* \"#utility.yul\":12564:12627   */\n      tag_189\n      jump\t// in\n    tag_331:\n        /* \"#utility.yul\":12467:12637   */\n      pop\n        /* \"#utility.yul\":12725:12729   */\n      0x40\n        /* \"#utility.yul\":12718:12723   */\n      dup3\n        /* \"#utility.yul\":12714:12730   */\n      add\n        /* \"#utility.yul\":12708:12731   */\n      mload\n        /* \"#utility.yul\":12744:12807   */\n      tag_332\n        /* \"#utility.yul\":12801:12805   */\n      0x40\n        /* \"#utility.yul\":12796:12799   */\n      dup6\n        /* \"#utility.yul\":12792:12806   */\n      add\n        /* \"#utility.yul\":12778:12790   */\n      dup3\n        /* \"#utility.yul\":12744:12807   */\n      tag_190\n      jump\t// in\n    tag_332:\n        /* \"#utility.yul\":12647:12817   */\n      pop\n        /* \"#utility.yul\":12911:12915   */\n      0x60\n        /* \"#utility.yul\":12904:12909   */\n      dup3\n        /* \"#utility.yul\":12900:12916   */\n      add\n        /* \"#utility.yul\":12894:12917   */\n      mload\n        /* \"#utility.yul\":12930:12993   */\n      tag_333\n        /* \"#utility.yul\":12987:12991   */\n      0x60\n        /* \"#utility.yul\":12982:12985   */\n      dup6\n        /* \"#utility.yul\":12978:12992   */\n      add\n        /* \"#utility.yul\":12964:12976   */\n      dup3\n        /* \"#utility.yul\":12930:12993   */\n      tag_190\n      jump\t// in\n    tag_333:\n        /* \"#utility.yul\":12827:13003   */\n      pop\n        /* \"#utility.yul\":13092:13096   */\n      0x80\n        /* \"#utility.yul\":13085:13090   */\n      dup3\n        /* \"#utility.yul\":13081:13097   */\n      add\n        /* \"#utility.yul\":13075:13098   */\n      mload\n        /* \"#utility.yul\":13111:13174   */\n      tag_334\n        /* \"#utility.yul\":13168:13172   */\n      0x80\n        /* \"#utility.yul\":13163:13166   */\n      dup6\n        /* \"#utility.yul\":13159:13173   */\n      add\n        /* \"#utility.yul\":13145:13157   */\n      dup3\n        /* \"#utility.yul\":13111:13174   */\n      tag_190\n      jump\t// in\n    tag_334:\n        /* \"#utility.yul\":13013:13184   */\n      pop\n        /* \"#utility.yul\":13270:13274   */\n      0xa0\n        /* \"#utility.yul\":13263:13268   */\n      dup3\n        /* \"#utility.yul\":13259:13275   */\n      add\n        /* \"#utility.yul\":13253:13276   */\n      mload\n        /* \"#utility.yul\":13289:13348   */\n      tag_335\n        /* \"#utility.yul\":13342:13346   */\n      0xa0\n        /* \"#utility.yul\":13337:13340   */\n      dup6\n        /* \"#utility.yul\":13333:13347   */\n      add\n        /* \"#utility.yul\":13319:13331   */\n      dup3\n        /* \"#utility.yul\":13289:13348   */\n      tag_192\n      jump\t// in\n    tag_335:\n        /* \"#utility.yul\":13194:13358   */\n      pop\n        /* \"#utility.yul\":13445:13449   */\n      0xc0\n        /* \"#utility.yul\":13438:13443   */\n      dup3\n        /* \"#utility.yul\":13434:13450   */\n      add\n        /* \"#utility.yul\":13428:13451   */\n      mload\n        /* \"#utility.yul\":13464:13527   */\n      tag_336\n        /* \"#utility.yul\":13521:13525   */\n      0xc0\n        /* \"#utility.yul\":13516:13519   */\n      dup6\n        /* \"#utility.yul\":13512:13526   */\n      add\n        /* \"#utility.yul\":13498:13510   */\n      dup3\n        /* \"#utility.yul\":13464:13527   */\n      tag_190\n      jump\t// in\n    tag_336:\n        /* \"#utility.yul\":13368:13537   */\n      pop\n        /* \"#utility.yul\":13629:13633   */\n      0xe0\n        /* \"#utility.yul\":13622:13627   */\n      dup3\n        /* \"#utility.yul\":13618:13634   */\n      add\n        /* \"#utility.yul\":13612:13635   */\n      mload\n        /* \"#utility.yul\":13648:13711   */\n      tag_337\n        /* \"#utility.yul\":13705:13709   */\n      0xe0\n        /* \"#utility.yul\":13700:13703   */\n      dup6\n        /* \"#utility.yul\":13696:13710   */\n      add\n        /* \"#utility.yul\":13682:13694   */\n      dup3\n        /* \"#utility.yul\":13648:13711   */\n      tag_190\n      jump\t// in\n    tag_337:\n        /* \"#utility.yul\":13547:13721   */\n      pop\n        /* \"#utility.yul\":13808:13814   */\n      0x0100\n        /* \"#utility.yul\":13801:13806   */\n      dup3\n        /* \"#utility.yul\":13797:13815   */\n      add\n        /* \"#utility.yul\":13791:13816   */\n      mload\n        /* \"#utility.yul\":13829:13894   */\n      tag_338\n        /* \"#utility.yul\":13886:13892   */\n      0x0100\n        /* \"#utility.yul\":13881:13884   */\n      dup6\n        /* \"#utility.yul\":13877:13893   */\n      add\n        /* \"#utility.yul\":13863:13875   */\n      dup3\n        /* \"#utility.yul\":13829:13894   */\n      tag_194\n      jump\t// in\n    tag_338:\n        /* \"#utility.yul\":13731:13904   */\n      pop\n        /* \"#utility.yul\":12241:13911   */\n      pop\n        /* \"#utility.yul\":12109:13911   */\n      pop\n      pop\n      jump\t// out\n        /* \"#utility.yul\":13917:14272   */\n    tag_80:\n        /* \"#utility.yul\":14076:14080   */\n      0x00\n        /* \"#utility.yul\":14114:14117   */\n      0x0120\n        /* \"#utility.yul\":14103:14112   */\n      dup3\n        /* \"#utility.yul\":14099:14118   */\n      add\n        /* \"#utility.yul\":14091:14118   */\n      swap1\n      pop\n        /* \"#utility.yul\":14128:14265   */\n      tag_340\n        /* \"#utility.yul\":14262:14263   */\n      0x00\n        /* \"#utility.yul\":14251:14260   */\n      dup4\n        /* \"#utility.yul\":14247:14264   */\n      add\n        /* \"#utility.yul\":14238:14244   */\n      dup5\n        /* \"#utility.yul\":14128:14265   */\n      tag_211\n      jump\t// in\n    tag_340:\n        /* \"#utility.yul\":13917:14272   */\n      swap3\n      swap2\n      pop\n      pop\n      jump\t// out\n        /* \"#utility.yul\":14278:14396   */\n    tag_212:\n        /* \"#utility.yul\":14349:14371   */\n      tag_342\n        /* \"#utility.yul\":14365:14370   */\n      dup2\n        /* \"#utility.yul\":14349:14371   */\n      tag_191\n      jump\t// in\n    tag_342:\n        /* \"#utility.yul\":14342:14347   */\n      dup2\n        /* \"#utility.yul\":14339:14372   */\n      eq\n        /* \"#utility.yul\":14329:14390   */\n      tag_343\n      jumpi\n        /* \"#utility.yul\":14386:14387   */\n      0x00\n        /* \"#utility.yul\":14383:14384   */\n      0x00\n        /* \"#utility.yul\":14376:14388   */\n      revert\n        /* \"#utility.yul\":14329:14390   */\n    tag_343:\n        /* \"#utility.yul\":14278:14396   */\n      pop\n      jump\t// out\n        /* \"#utility.yul\":14402:14537   */\n    tag_213:\n        /* \"#utility.yul\":14446:14451   */\n      0x00\n        /* \"#utility.yul\":14484:14490   */\n      dup2\n        /* \"#utility.yul\":14471:14491   */\n      calldataload\n        /* \"#utility.yul\":14462:14491   */\n      swap1\n      pop\n        /* \"#utility.yul\":14500:14531   */\n      tag_345\n        /* \"#utility.yul\":14525:14530   */\n      dup2\n        /* \"#utility.yul\":14500:14531   */\n      tag_212\n      jump\t// in\n    tag_345:\n        /* \"#utility.yul\":14402:14537   */\n      swap3\n      swap2\n      pop\n      pop\n      jump\t// out\n        /* \"#utility.yul\":14543:14665   */\n    tag_214:\n        /* \"#utility.yul\":14616:14640   */\n      tag_347\n        /* \"#utility.yul\":14634:14639   */\n      dup2\n        /* \"#utility.yul\":14616:14640   */\n      tag_193\n      jump\t// in\n    tag_347:\n        /* \"#utility.yul\":14609:14614   */\n      dup2\n        /* \"#utility.yul\":14606:14641   */\n      eq\n        /* \"#utility.yul\":14596:14659   */\n      tag_348\n      jumpi\n        /* \"#utility.yul\":14655:14656   */\n      0x00\n        /* \"#utility.yul\":14652:14653   */\n      0x00\n        /* \"#utility.yul\":14645:14657   */\n      revert\n        /* \"#utility.yul\":14596:14659   */\n    tag_348:\n        /* \"#utility.yul\":14543:14665   */\n      pop\n      jump\t// out\n        /* \"#utility.yul\":14671:14810   */\n    tag_215:\n        /* \"#utility.yul\":14717:14722   */\n      0x00\n        /* \"#utility.yul\":14755:14761   */\n      dup2\n        /* \"#utility.yul\":14742:14762   */\n      calldataload\n        /* \"#utility.yul\":14733:14762   */\n      swap1\n      pop\n        /* \"#utility.yul\":14771:14804   */\n      tag_350\n        /* \"#utility.yul\":14798:14803   */\n      dup2\n        /* \"#utility.yul\":14771:14804   */\n      tag_214\n      jump\t// in\n    tag_350:\n        /* \"#utility.yul\":14671:14810   */\n      swap3\n      swap2\n      pop\n      pop\n      jump\t// out\n        /* \"#utility.yul\":14816:16161   */\n    tag_83:\n        /* \"#utility.yul\":14936:14942   */\n      0x00\n        /* \"#utility.yul\":14944:14950   */\n      0x00\n        /* \"#utility.yul\":14952:14958   */\n      0x00\n        /* \"#utility.yul\":14960:14966   */\n      0x00\n        /* \"#utility.yul\":14968:14974   */\n      0x00\n        /* \"#utility.yul\":14976:14982   */\n      0x00\n        /* \"#utility.yul\":14984:14990   */\n      0x00\n        /* \"#utility.yul\":14992:14998   */\n      0x00\n        /* \"#utility.yul\":15041:15044   */\n      0x0100\n        /* \"#utility.yul\":15029:15038   */\n      dup10\n        /* \"#utility.yul\":15020:15027   */\n      dup12\n        /* \"#utility.yul\":15016:15039   */\n      sub\n        /* \"#utility.yul\":15012:15045   */\n      slt\n        /* \"#utility.yul\":15009:15129   */\n      iszero\n      tag_352\n      jumpi\n        /* \"#utility.yul\":15048:15127   */\n      tag_353\n      tag_179\n      jump\t// in\n    tag_353:\n        /* \"#utility.yul\":15009:15129   */\n    tag_352:\n        /* \"#utility.yul\":15168:15169   */\n      0x00\n        /* \"#utility.yul\":15193:15246   */\n      tag_354\n        /* \"#utility.yul\":15238:15245   */\n      dup12\n        /* \"#utility.yul\":15229:15235   */\n      dup3\n        /* \"#utility.yul\":15218:15227   */\n      dup13\n        /* \"#utility.yul\":15214:15236   */\n      add\n        /* \"#utility.yul\":15193:15246   */\n      tag_201\n      jump\t// in\n    tag_354:\n        /* \"#utility.yul\":15183:15246   */\n      swap9\n      pop\n        /* \"#utility.yul\":15139:15256   */\n      pop\n        /* \"#utility.yul\":15295:15297   */\n      0x20\n        /* \"#utility.yul\":15321:15374   */\n      tag_355\n        /* \"#utility.yul\":15366:15373   */\n      dup12\n        /* \"#utility.yul\":15357:15363   */\n      dup3\n        /* \"#utility.yul\":15346:15355   */\n      dup13\n        /* \"#utility.yul\":15342:15364   */\n      add\n        /* \"#utility.yul\":15321:15374   */\n      tag_201\n      jump\t// in\n    tag_355:\n        /* \"#utility.yul\":15311:15374   */\n      swap8\n      pop\n        /* \"#utility.yul\":15266:15384   */\n      pop\n        /* \"#utility.yul\":15423:15425   */\n      0x40\n        /* \"#utility.yul\":15449:15502   */\n      tag_356\n        /* \"#utility.yul\":15494:15501   */\n      dup12\n        /* \"#utility.yul\":15485:15491   */\n      dup3\n        /* \"#utility.yul\":15474:15483   */\n      dup13\n        /* \"#utility.yul\":15470:15492   */\n      add\n        /* \"#utility.yul\":15449:15502   */\n      tag_183\n      jump\t// in\n    tag_356:\n        /* \"#utility.yul\":15439:15502   */\n      swap7\n      pop\n        /* \"#utility.yul\":15394:15512   */\n      pop\n        /* \"#utility.yul\":15551:15553   */\n      0x60\n        /* \"#utility.yul\":15577:15630   */\n      tag_357\n        /* \"#utility.yul\":15622:15629   */\n      dup12\n        /* \"#utility.yul\":15613:15619   */\n      dup3\n        /* \"#utility.yul\":15602:15611   */\n      dup13\n        /* \"#utility.yul\":15598:15620   */\n      add\n        /* \"#utility.yul\":15577:15630   */\n      tag_183\n      jump\t// in\n    tag_357:\n        /* \"#utility.yul\":15567:15630   */\n      swap6\n      pop\n        /* \"#utility.yul\":15522:15640   */\n      pop\n        /* \"#utility.yul\":15679:15682   */\n      0x80\n        /* \"#utility.yul\":15706:15759   */\n      tag_358\n        /* \"#utility.yul\":15751:15758   */\n      dup12\n        /* \"#utility.yul\":15742:15748   */\n      dup3\n        /* \"#utility.yul\":15731:15740   */\n      dup13\n        /* \"#utility.yul\":15727:15749   */\n      add\n        /* \"#utility.yul\":15706:15759   */\n      tag_183\n      jump\t// in\n    tag_358:\n        /* \"#utility.yul\":15696:15759   */\n      swap5\n      pop\n        /* \"#utility.yul\":15650:15769   */\n      pop\n        /* \"#utility.yul\":15808:15811   */\n      0xa0\n        /* \"#utility.yul\":15835:15886   */\n      tag_359\n        /* \"#utility.yul\":15878:15885   */\n      dup12\n        /* \"#utility.yul\":15869:15875   */\n      dup3\n        /* \"#utility.yul\":15858:15867   */\n      dup13\n        /* \"#utility.yul\":15854:15876   */\n      add\n        /* \"#utility.yul\":15835:15886   */\n      tag_213\n      jump\t// in\n    tag_359:\n        /* \"#utility.yul\":15825:15886   */\n      swap4\n      pop\n        /* \"#utility.yul\":15779:15896   */\n      pop\n        /* \"#utility.yul\":15935:15938   */\n      0xc0\n        /* \"#utility.yul\":15962:16015   */\n      tag_360\n        /* \"#utility.yul\":16007:16014   */\n      dup12\n        /* \"#utility.yul\":15998:16004   */\n      dup3\n        /* \"#utility.yul\":15987:15996   */\n      dup13\n        /* \"#utility.yul\":15983:16005   */\n      add\n        /* \"#utility.yul\":15962:16015   */\n      tag_183\n      jump\t// in\n    tag_360:\n        /* \"#utility.yul\":15952:16015   */\n      swap3\n      pop\n        /* \"#utility.yul\":15906:16025   */\n      pop\n        /* \"#utility.yul\":16064:16067   */\n      0xe0\n        /* \"#utility.yul\":16091:16144   */\n      tag_361\n        /* \"#utility.yul\":16136:16143   */\n      dup12\n        /* \"#utility.yul\":16127:16133   */\n      dup3\n        /* \"#utility.yul\":16116:16125   */\n      dup13\n        /* \"#utility.yul\":16112:16134   */\n      add\n        /* \"#utility.yul\":16091:16144   */\n      tag_215\n      jump\t// in\n    tag_361:\n        /* \"#utility.yul\":16081:16144   */\n      swap2\n      pop\n        /* \"#utility.yul\":16035:16154   */\n      pop\n        /* \"#utility.yul\":14816:16161   */\n      swap3\n      swap6\n      swap9\n      pop\n      swap3\n      swap6\n      swap9\n      swap1\n      swap4\n      swap7\n      pop\n      jump\t// out\n        /* \"#utility.yul\":16167:16381   */\n    tag_89:\n        /* \"#utility.yul\":16256:16260   */\n      0x00\n        /* \"#utility.yul\":16294:16296   */\n      0x20\n        /* \"#utility.yul\":16283:16292   */\n      dup3\n        /* \"#utility.yul\":16279:16297   */\n      add\n        /* \"#utility.yul\":16271:16297   */\n      swap1\n      pop\n        /* \"#utility.yul\":16307:16374   */\n      tag_363\n        /* \"#utility.yul\":16371:16372   */\n      0x00\n        /* \"#utility.yul\":16360:16369   */\n      dup4\n        /* \"#utility.yul\":16356:16373   */\n      add\n        /* \"#utility.yul\":16347:16353   */\n      dup5\n        /* \"#utility.yul\":16307:16374   */\n      tag_209\n      jump\t// in\n    tag_363:\n        /* \"#utility.yul\":16167:16381   */\n      swap3\n      swap2\n      pop\n      pop\n      jump\t// out\n        /* \"#utility.yul\":16387:16567   */\n    tag_100:\n        /* \"#utility.yul\":16435:16512   */\n      0x4e487b7100000000000000000000000000000000000000000000000000000000\n        /* \"#utility.yul\":16432:16433   */\n      0x00\n        /* \"#utility.yul\":16425:16513   */\n      mstore\n        /* \"#utility.yul\":16532:16536   */\n      0x41\n        /* \"#utility.yul\":16529:16530   */\n      0x04\n        /* \"#utility.yul\":16522:16537   */\n      mstore\n        /* \"#utility.yul\":16556:16560   */\n      0x24\n        /* \"#utility.yul\":16553:16554   */\n      0x00\n        /* \"#utility.yul\":16546:16561   */\n      revert\n        /* \"#utility.yul\":16573:16753   */\n    tag_216:\n        /* \"#utility.yul\":16621:16698   */\n      0x4e487b7100000000000000000000000000000000000000000000000000000000\n        /* \"#utility.yul\":16618:16619   */\n      0x00\n        /* \"#utility.yul\":16611:16699   */\n      mstore\n        /* \"#utility.yul\":16718:16722   */\n      0x11\n        /* \"#utility.yul\":16715:16716   */\n      0x04\n        /* \"#utility.yul\":16708:16723   */\n      mstore\n        /* \"#utility.yul\":16742:16746   */\n      0x24\n        /* \"#utility.yul\":16739:16740   */\n      0x00\n        /* \"#utility.yul\":16732:16747   */\n      revert\n        /* \"#utility.yul\":16759:16950   */\n    tag_106:\n        /* \"#utility.yul\":16799:16802   */\n      0x00\n        /* \"#utility.yul\":16818:16838   */\n      tag_367\n        /* \"#utility.yul\":16836:16837   */\n      dup3\n        /* \"#utility.yul\":16818:16838   */\n      tag_181\n      jump\t// in\n    tag_367:\n        /* \"#utility.yul\":16813:16838   */\n      swap2\n      pop\n        /* \"#utility.yul\":16852:16872   */\n      tag_368\n        /* \"#utility.yul\":16870:16871   */\n      dup4\n        /* \"#utility.yul\":16852:16872   */\n      tag_181\n      jump\t// in\n    tag_368:\n        /* \"#utility.yul\":16847:16872   */\n      swap3\n      pop\n        /* \"#utility.yul\":16895:16896   */\n      dup3\n        /* \"#utility.yul\":16892:16893   */\n      dup3\n        /* \"#utility.yul\":16888:16897   */\n      add\n        /* \"#utility.yul\":16881:16897   */\n      swap1\n      pop\n        /* \"#utility.yul\":16916:16919   */\n      dup1\n        /* \"#utility.yul\":16913:16914   */\n      dup3\n        /* \"#utility.yul\":16910:16920   */\n      gt\n        /* \"#utility.yul\":16907:16943   */\n      iszero\n      tag_369\n      jumpi\n        /* \"#utility.yul\":16923:16941   */\n      tag_370\n      tag_216\n      jump\t// in\n    tag_370:\n        /* \"#utility.yul\":16907:16943   */\n    tag_369:\n        /* \"#utility.yul\":16759:16950   */\n      swap3\n      swap2\n      pop\n      pop\n      jump\t// out\n        /* \"#utility.yul\":16956:17150   */\n    tag_109:\n        /* \"#utility.yul\":16996:17000   */\n      0x00\n        /* \"#utility.yul\":17016:17036   */\n      tag_372\n        /* \"#utility.yul\":17034:17035   */\n      dup3\n        /* \"#utility.yul\":17016:17036   */\n      tag_181\n      jump\t// in\n    tag_372:\n        /* \"#utility.yul\":17011:17036   */\n      swap2\n      pop\n        /* \"#utility.yul\":17050:17070   */\n      tag_373\n        /* \"#utility.yul\":17068:17069   */\n      dup4\n        /* \"#utility.yul\":17050:17070   */\n      tag_181\n      jump\t// in\n    tag_373:\n        /* \"#utility.yul\":17045:17070   */\n      swap3\n      pop\n        /* \"#utility.yul\":17094:17095   */\n      dup3\n        /* \"#utility.yul\":17091:17092   */\n      dup3\n        /* \"#utility.yul\":17087:17096   */\n      sub\n        /* \"#utility.yul\":17079:17096   */\n      swap1\n      pop\n        /* \"#utility.yul\":17118:17119   */\n      dup2\n        /* \"#utility.yul\":17112:17116   */\n      dup2\n        /* \"#utility.yul\":17109:17120   */\n      gt\n        /* \"#utility.yul\":17106:17143   */\n      iszero\n      tag_374\n      jumpi\n        /* \"#utility.yul\":17123:17141   */\n      tag_375\n      tag_216\n      jump\t// in\n    tag_375:\n        /* \"#utility.yul\":17106:17143   */\n    tag_374:\n        /* \"#utility.yul\":16956:17150   */\n      swap3\n      swap2\n      pop\n      pop\n      jump\t// out\n        /* \"#utility.yul\":17156:17336   */\n    tag_120:\n        /* \"#utility.yul\":17204:17281   */\n      0x4e487b7100000000000000000000000000000000000000000000000000000000\n        /* \"#utility.yul\":17201:17202   */\n      0x00\n        /* \"#utility.yul\":17194:17282   */\n      mstore\n        /* \"#utility.yul\":17301:17305   */\n      0x32\n        /* \"#utility.yul\":17298:17299   */\n      0x04\n        /* \"#utility.yul\":17291:17306   */\n      mstore\n        /* \"#utility.yul\":17325:17329   */\n      0x24\n        /* \"#utility.yul\":17322:17323   */\n      0x00\n        /* \"#utility.yul\":17315:17330   */\n      revert\n        /* \"#utility.yul\":17342:17575   */\n    tag_139:\n        /* \"#utility.yul\":17381:17384   */\n      0x00\n        /* \"#utility.yul\":17404:17428   */\n      tag_378\n        /* \"#utility.yul\":17422:17427   */\n      dup3\n        /* \"#utility.yul\":17404:17428   */\n      tag_181\n      jump\t// in\n    tag_378:\n        /* \"#utility.yul\":17395:17428   */\n      swap2\n      pop\n        /* \"#utility.yul\":17450:17516   */\n      0xffffffffffffffffffffffffffffffffffffffffffffffffffffffffffffffff\n        /* \"#utility.yul\":17443:17448   */\n      dup3\n        /* \"#utility.yul\":17440:17517   */\n      sub\n        /* \"#utility.yul\":17437:17540   */\n      tag_379\n      jumpi\n        /* \"#utility.yul\":17520:17538   */\n      tag_380\n      tag_216\n      jump\t// in\n    tag_380:\n        /* \"#utility.yul\":17437:17540   */\n    tag_379:\n        /* \"#utility.yul\":17567:17568   */\n      0x01\n        /* \"#utility.yul\":17560:17565   */\n      dup3\n        /* \"#utility.yul\":17556:17569   */\n      add\n        /* \"#utility.yul\":17549:17569   */\n      swap1\n      pop\n        /* \"#utility.yul\":17342:17575   */\n      swap2\n      swap1\n      pop\n      jump\t// out\n        /* \"#utility.yul\":17581:18126   */\n    tag_173:\n        /* \"#utility.yul\":17754:17758   */\n      0x00\n        /* \"#utility.yul\":17792:17795   */\n      0x80\n        /* \"#utility.yul\":17781:17790   */\n      dup3\n        /* \"#utility.yul\":17777:17796   */\n      add\n        /* \"#utility.yul\":17769:17796   */\n      swap1\n      pop\n        /* \"#utility.yul\":17806:17877   */\n      tag_382\n        /* \"#utility.yul\":17874:17875   */\n      0x00\n        /* \"#utility.yul\":17863:17872   */\n      dup4\n        /* \"#utility.yul\":17859:17876   */\n      add\n        /* \"#utility.yul\":17850:17856   */\n      dup8\n        /* \"#utility.yul\":17806:17877   */\n      tag_199\n      jump\t// in\n    tag_382:\n        /* \"#utility.yul\":17887:17959   */\n      tag_383\n        /* \"#utility.yul\":17955:17957   */\n      0x20\n        /* \"#utility.yul\":17944:17953   */\n      dup4\n        /* \"#utility.yul\":17940:17958   */\n      add\n        /* \"#utility.yul\":17931:17937   */\n      dup7\n        /* \"#utility.yul\":17887:17959   */\n      tag_199\n      jump\t// in\n    tag_383:\n        /* \"#utility.yul\":17969:18037   */\n      tag_384\n        /* \"#utility.yul\":18033:18035   */\n      0x40\n        /* \"#utility.yul\":18022:18031   */\n      dup4\n        /* \"#utility.yul\":18018:18036   */\n      add\n        /* \"#utility.yul\":18009:18015   */\n      dup6\n        /* \"#utility.yul\":17969:18037   */\n      tag_209\n      jump\t// in\n    tag_384:\n        /* \"#utility.yul\":18047:18119   */\n      tag_385\n        /* \"#utility.yul\":18115:18117   */\n      0x60\n        /* \"#utility.yul\":18104:18113   */\n      dup4\n        /* \"#utility.yul\":18100:18118   */\n      add\n        /* \"#utility.yul\":18091:18097   */\n      dup5\n        /* \"#utility.yul\":18047:18119   */\n      tag_210\n      jump\t// in\n    tag_385:\n        /* \"#utility.yul\":17581:18126   */\n      swap6\n      swap5\n      pop\n      pop\n      pop\n      pop\n      pop\n      jump\t// out\n\n    auxdata: 0xa2646970667358221220d2140ab05a91c1964e8df8aa3dcad6eb40fbba436d83037cd5557f3b6b869e3764736f6c634300081f0033\n}\n",
				"bytecode": {
					"linkReferences": {},
					"object": "6080604052348015600e575f5ffd5b503360065f6101000a81548173ffffffffffffffffffffffffffffffffffffffff021916908373ffffffffffffffffffffffffffffffffffffffff160217905550611b358061005c5f395ff3fe608060405234801561000f575f5ffd5b5060043610610114575f3560e01c8063956cb698116100a0578063c6a2ae8f1161006f578063c6a2ae8f146102ef578063d497747b1461031f578063da35e1d11461034f578063f2fde38b1461036d578063ff6321d91461038957610114565b8063956cb6981461025d578063a66c84f41461027b578063ba5a6a06146102b3578063c28c4c44146102d157610114565b80637c94b1ba116100e75780637c94b1ba146101b757806386b8da04146101d55780638831f724146102055780638bf2265b146102235780638da5cb5b1461023f57610114565b80630a993b33146101185780630aeacb5e146101485780631143ef22146101665780636b4169c314610196575b5f5ffd5b610132600480360381019061012d91906112da565b6103a7565b60405161013f91906114f7565b60405180910390f35b610150610609565b60405161015d9190611526565b60405180910390f35b610180600480360381019061017b9190611569565b610614565b60405161018d919061163c565b60405180910390f35b61019e61077a565b6040516101ae949392919061165c565b60405180910390f35b6101bf610798565b6040516101cc9190611526565b60405180910390f35b6101ef60048036038101906101ea9190611569565b61079e565b6040516101fc9190611526565b60405180910390f35b61020d6107b3565b60405161021a9190611526565b60405180910390f35b61023d60048036038101906102389190611569565b6107b9565b005b61024761092a565b60405161025491906116ae565b60405180910390f35b61026561094f565b60405161027291906116ae565b60405180910390f35b610295600480360381019061029091906116c7565b610974565b6040516102aa99989796959493929190611710565b60405180910390f35b6102bb610a16565b6040516102c89190611526565b60405180910390f35b6102d9610a1c565b6040516102e69190611526565b60405180910390f35b610309600480360381019061030491906116c7565b610a22565b6040516103169190611850565b60405180910390f35b610339600480360381019061033491906118be565b610b9a565b6040516103469190611526565b60405180910390f35b61035761107f565b604051610364919061196f565b60405180910390f35b61038760048036038101906103829190611569565b611084565b005b61039161122d565b60405161039e919061196f565b60405180910390f35b60605f5f805490509050808410610414575f67ffffffffffffffff8111156103d2576103d1611988565b5b60405190808252806020026020018201604052801561040b57816020015b6103f8611231565b8152602001906001900390816103f05790505b50915050610603565b5f838561042191906119e2565b90508181111561042f578190505b848161043b9190611a15565b67ffffffffffffffff81111561045457610453611988565b5b60405190808252806020026020018201604052801561048d57816020015b61047a611231565b8152602001906001900390816104725790505b5092505f8590505b818110156105ff575f81815481106104b0576104af611a48565b5b905f5260205f209060090201604051806101200160405290815f82015f9054906101000a900473ffffffffffffffffffffffffffffffffffffffff1673ffffffffffffffffffffffffffffffffffffffff1673ffffffffffffffffffffffffffffffffffffffff168152602001600182015f9054906101000a900473ffffffffffffffffffffffffffffffffffffffff1673ffffffffffffffffffffffffffffffffffffffff1673ffffffffffffffffffffffffffffffffffffffff168152602001600282015481526020016003820154815260200160048201548152602001600582015f9054906101000a900460ff1660ff1660ff16815260200160068201548152602001600782015481526020016008820154815250508487836105d69190611a15565b815181106105e7576105e6611a48565b5b60200260200101819052508080600101915050610495565b5050505b92915050565b5f5f80549050905090565b60605f60055f8473ffffffffffffffffffffffffffffffffffffffff1673ffffffffffffffffffffffffffffffffffffffff1681526020019081526020015f205490508067ffffffffffffffff81111561067157610670611988565b5b60405190808252806020026020018201604052801561069f5781602001602082028036833780820191505090505b5091505f5f5f90505b5f80549050811080156106ba57508282105b15610772578473ffffffffffffffffffffffffffffffffffffffff165f82815481106106e9576106e8611a48565b5b905f5260205f2090600902015f015f9054906101000a900473ffffffffffffffffffffffffffffffffffffffff1673ffffffffffffffffffffffffffffffffffffffff160361075f578084838061073f90611a75565b94508151811061075257610751611a48565b5b6020026020010181815250505b808061076a90611a75565b9150506106a8565b505050919050565b5f5f5f5f600454935060015492506002549150600354905090919293565b60025481565b6005602052805f5260405f205f915090505481565b60045481565b60065f9054906101000a900473ffffffffffffffffffffffffffffffffffffffff1673ffffffffffffffffffffffffffffffffffffffff163373ffffffffffffffffffffffffffffffffffffffff161461083f576040517f82b4290000000000000000000000000000000000000000000000000000000000815260040160405180910390fd5b5f73ffffffffffffffffffffffffffffffffffffffff168173ffffffffffffffffffffffffffffffffffffffff16036108a4576040517fd92e233d00000000000000000000000000000000000000000000000000000000815260040160405180910390fd5b8060075f6101000a81548173ffffffffffffffffffffffffffffffffffffffff021916908373ffffffffffffffffffffffffffffffffffffffff1602179055508073ffffffffffffffffffffffffffffffffffffffff167f436150dbaf3e670b87bfcfc57d3d2bbd688416031b6a9e527fa2bac1657a1a5d60405160405180910390a250565b60065f9054906101000a900473ffffffffffffffffffffffffffffffffffffffff1681565b60075f9054906101000a900473ffffffffffffffffffffffffffffffffffffffff1681565b5f8181548110610982575f80fd5b905f5260205f2090600902015f91509050805f015f9054906101000a900473ffffffffffffffffffffffffffffffffffffffff1690806001015f9054906101000a900473ffffffffffffffffffffffffffffffffffffffff1690806002015490806003015490806004015490806005015f9054906101000a900460ff16908060060154908060070154908060080154905089565b60015481565b60035481565b610a2a611231565b5f805490508210610a67576040517f3e07f1a100000000000000000000000000000000000000000000000000000000815260040160405180910390fd5b5f8281548110610a7a57610a79611a48565b5b905f5260205f209060090201604051806101200160405290815f82015f9054906101000a900473ffffffffffffffffffffffffffffffffffffffff1673ffffffffffffffffffffffffffffffffffffffff1673ffffffffffffffffffffffffffffffffffffffff168152602001600182015f9054906101000a900473ffffffffffffffffffffffffffffffffffffffff1673ffffffffffffffffffffffffffffffffffffffff1673ffffffffffffffffffffffffffffffffffffffff168152602001600282015481526020016003820154815260200160048201548152602001600582015f9054906101000a900460ff1660ff1660ff16815260200160068201548152602001600782015481526020016008820154815250509050919050565b5f60065f9054906101000a900473ffffffffffffffffffffffffffffffffffffffff1673ffffffffffffffffffffffffffffffffffffffff163373ffffffffffffffffffffffffffffffffffffffff1614158015610c45575060075f9054906101000a900473ffffffffffffffffffffffffffffffffffffffff1673ffffffffffffffffffffffffffffffffffffffff163373ffffffffffffffffffffffffffffffffffffffff1614155b15610c7c576040517f82b4290000000000000000000000000000000000000000000000000000000000815260040160405180910390fd5b5f73ffffffffffffffffffffffffffffffffffffffff168973ffffffffffffffffffffffffffffffffffffffff1603610ce1576040517ff2a3e8db00000000000000000000000000000000000000000000000000000000815260040160405180910390fd5b5f73ffffffffffffffffffffffffffffffffffffffff168873ffffffffffffffffffffffffffffffffffffffff1603610d46576040517ff2a3e8db00000000000000000000000000000000000000000000000000000000815260040160405180910390fd5b5f8703610d7f576040517ff2a3e8db00000000000000000000000000000000000000000000000000000000815260040160405180910390fd5b60018460ff161115610dbd576040517ff599342800000000000000000000000000000000000000000000000000000000815260040160405180910390fd5b5f8054905090505f6040518061012001604052808b73ffffffffffffffffffffffffffffffffffffffff1681526020018a73ffffffffffffffffffffffffffffffffffffffff1681526020018981526020018881526020018781526020018660ff16815260200142815260200185815260200184815250908060018154018082558091505060019003905f5260205f2090600902015f909190919091505f820151815f015f6101000a81548173ffffffffffffffffffffffffffffffffffffffff021916908373ffffffffffffffffffffffffffffffffffffffff1602179055506020820151816001015f6101000a81548173ffffffffffffffffffffffffffffffffffffffff021916908373ffffffffffffffffffffffffffffffffffffffff16021790555060408201518160020155606082015181600301556080820151816004015560a0820151816005015f6101000a81548160ff021916908360ff16021790555060c0820151816006015560e08201518160070155610100820151816008015550508560035f828254610f5491906119e2565b9250508190555060045f815480929190610f6d90611a75565b919050555060055f8a73ffffffffffffffffffffffffffffffffffffffff1673ffffffffffffffffffffffffffffffffffffffff1681526020019081526020015f205f815480929190610fbf90611a75565b91905055505f60ff168460ff1603610fee578660015f828254610fe291906119e2565b92505081905550611007565b8660025f828254610fff91906119e2565b925050819055505b8773ffffffffffffffffffffffffffffffffffffffff168973ffffffffffffffffffffffffffffffffffffffff16827f4ff3917f274a7035e685b2352d2ca9bbaf4b85746e49d1613c2a3988551d9b5b8a8a898860405161106b9493929190611abc565b60405180910390a498975050505050505050565b600181565b60065f9054906101000a900473ffffffffffffffffffffffffffffffffffffffff1673ffffffffffffffffffffffffffffffffffffffff163373ffffffffffffffffffffffffffffffffffffffff161461110a576040517f82b4290000000000000000000000000000000000000000000000000000000000815260040160405180910390fd5b5f73ffffffffffffffffffffffffffffffffffffffff168173ffffffffffffffffffffffffffffffffffffffff160361116f576040517fd92e233d00000000000000000000000000000000000000000000000000000000815260040160405180910390fd5b8073ffffffffffffffffffffffffffffffffffffffff1660065f9054906101000a900473ffffffffffffffffffffffffffffffffffffffff1673ffffffffffffffffffffffffffffffffffffffff167f8be0079c531659141344cd1fd0a4f28419497f9722a3daafe3b4186f6b6457e060405160405180910390a38060065f6101000a81548173ffffffffffffffffffffffffffffffffffffffff021916908373ffffffffffffffffffffffffffffffffffffffff16021790555050565b5f81565b6040518061012001604052805f73ffffffffffffffffffffffffffffffffffffffff1681526020015f73ffffffffffffffffffffffffffffffffffffffff1681526020015f81526020015f81526020015f81526020015f60ff1681526020015f81526020015f81526020015f81525090565b5f5ffd5b5f819050919050565b6112b9816112a7565b81146112c3575f5ffd5b50565b5f813590506112d4816112b0565b92915050565b5f5f604083850312156112f0576112ef6112a3565b5b5f6112fd858286016112c6565b925050602061130e858286016112c6565b9150509250929050565b5f81519050919050565b5f82825260208201905092915050565b5f819050602082019050919050565b5f73ffffffffffffffffffffffffffffffffffffffff82169050919050565b5f61136a82611341565b9050919050565b61137a81611360565b82525050565b611389816112a7565b82525050565b5f60ff82169050919050565b6113a48161138f565b82525050565b5f819050919050565b6113bc816113aa565b82525050565b61012082015f8201516113d75f850182611371565b5060208201516113ea6020850182611371565b5060408201516113fd6040850182611380565b5060608201516114106060850182611380565b5060808201516114236080850182611380565b5060a082015161143660a085018261139b565b5060c082015161144960c0850182611380565b5060e082015161145c60e0850182611380565b506101008201516114716101008501826113b3565b50505050565b5f61148283836113c2565b6101208301905092915050565b5f602082019050919050565b5f6114a582611318565b6114af8185611322565b93506114ba83611332565b805f5b838110156114ea5781516114d18882611477565b97506114dc8361148f565b9250506001810190506114bd565b5085935050505092915050565b5f6020820190508181035f83015261150f818461149b565b905092915050565b611520816112a7565b82525050565b5f6020820190506115395f830184611517565b92915050565b61154881611360565b8114611552575f5ffd5b50565b5f813590506115638161153f565b92915050565b5f6020828403121561157e5761157d6112a3565b5b5f61158b84828501611555565b91505092915050565b5f81519050919050565b5f82825260208201905092915050565b5f819050602082019050919050565b5f6115c88383611380565b60208301905092915050565b5f602082019050919050565b5f6115ea82611594565b6115f4818561159e565b93506115ff836115ae565b805f5b8381101561162f57815161161688826115bd565b9750611621836115d4565b925050600181019050611602565b5085935050505092915050565b5f6020820190508181035f83015261165481846115e0565b905092915050565b5f60808201905061166f5f830187611517565b61167c6020830186611517565b6116896040830185611517565b6116966060830184611517565b95945050505050565b6116a881611360565b82525050565b5f6020820190506116c15f83018461169f565b92915050565b5f602082840312156116dc576116db6112a3565b5b5f6116e9848285016112c6565b91505092915050565b6116fb8161138f565b82525050565b61170a816113aa565b82525050565b5f610120820190506117245f83018c61169f565b611731602083018b61169f565b61173e604083018a611517565b61174b6060830189611517565b6117586080830188611517565b61176560a08301876116f2565b61177260c0830186611517565b61177f60e0830185611517565b61178d610100830184611701565b9a9950505050505050505050565b61012082015f8201516117b05f850182611371565b5060208201516117c36020850182611371565b5060408201516117d66040850182611380565b5060608201516117e96060850182611380565b5060808201516117fc6080850182611380565b5060a082015161180f60a085018261139b565b5060c082015161182260c0850182611380565b5060e082015161183560e0850182611380565b5061010082015161184a6101008501826113b3565b50505050565b5f610120820190506118645f83018461179b565b92915050565b6118738161138f565b811461187d575f5ffd5b50565b5f8135905061188e8161186a565b92915050565b61189d816113aa565b81146118a7575f5ffd5b50565b5f813590506118b881611894565b92915050565b5f5f5f5f5f5f5f5f610100898b0312156118db576118da6112a3565b5b5f6118e88b828c01611555565b98505060206118f98b828c01611555565b975050604061190a8b828c016112c6565b965050606061191b8b828c016112c6565b955050608061192c8b828c016112c6565b94505060a061193d8b828c01611880565b93505060c061194e8b828c016112c6565b92505060e061195f8b828c016118aa565b9150509295985092959890939650565b5f6020820190506119825f8301846116f2565b92915050565b7f4e487b71000000000000000000000000000000000000000000000000000000005f52604160045260245ffd5b7f4e487b71000000000000000000000000000000000000000000000000000000005f52601160045260245ffd5b5f6119ec826112a7565b91506119f7836112a7565b9250828201905080821115611a0f57611a0e6119b5565b5b92915050565b5f611a1f826112a7565b9150611a2a836112a7565b9250828203905081811115611a4257611a416119b5565b5b92915050565b7f4e487b71000000000000000000000000000000000000000000000000000000005f52603260045260245ffd5b5f611a7f826112a7565b91507fffffffffffffffffffffffffffffffffffffffffffffffffffffffffffffffff8203611ab157611ab06119b5565b5b600182019050919050565b5f608082019050611acf5f830187611517565b611adc6020830186611517565b611ae960408301856116f2565b611af66060830184611701565b9594505050505056fea2646970667358221220d2140ab05a91c1964e8df8aa3dcad6eb40fbba436d83037cd5557f3b6b869e3764736f6c634300081f0033",
					"opcodes": "PUSH1 0x80 PUSH1 0x40 MSTORE CALLVALUE DUP1 ISZERO PUSH1 0xE JUMPI PUSH0 PUSH0 REVERT JUMPDEST POP CALLER PUSH1 0x6 PUSH0 PUSH2 0x100 EXP DUP2 SLOAD DUP2 PUSH20 0xFFFFFFFFFFFFFFFFFFFFFFFFFFFFFFFFFFFFFFFF MUL NOT AND SWAP1 DUP4 PUSH20 0xFFFFFFFFFFFFFFFFFFFFFFFFFFFFFFFFFFFFFFFF AND MUL OR SWAP1 SSTORE POP PUSH2 0x1B35 DUP1 PUSH2 0x5C PUSH0 CODECOPY PUSH0 RETURN INVALID PUSH1 0x80 PUSH1 0x40 MSTORE CALLVALUE DUP1 ISZERO PUSH2 0xF JUMPI PUSH0 PUSH0 REVERT JUMPDEST POP PUSH1 0x4 CALLDATASIZE LT PUSH2 0x114 JUMPI PUSH0 CALLDATALOAD PUSH1 0xE0 SHR DUP1 PUSH4 0x956CB698 GT PUSH2 0xA0 JUMPI DUP1 PUSH4 0xC6A2AE8F GT PUSH2 0x6F JUMPI DUP1 PUSH4 0xC6A2AE8F EQ PUSH2 0x2EF JUMPI DUP1 PUSH4 0xD497747B EQ PUSH2 0x31F JUMPI DUP1 PUSH4 0xDA35E1D1 EQ PUSH2 0x34F JUMPI DUP1 PUSH4 0xF2FDE38B EQ PUSH2 0x36D JUMPI DUP1 PUSH4 0xFF6321D9 EQ PUSH2 0x389 JUMPI PUSH2 0x114 JUMP JUMPDEST DUP1 PUSH4 0x956CB698 EQ PUSH2 0x25D JUMPI DUP1 PUSH4 0xA66C84F4 EQ PUSH2 0x27B JUMPI DUP1 PUSH4 0xBA5A6A06 EQ PUSH2 0x2B3 JUMPI DUP1 PUSH4 0xC28C4C44 EQ PUSH2 0x2D1 JUMPI PUSH2 0x114 JUMP JUMPDEST DUP1 PUSH4 0x7C94B1BA GT PUSH2 0xE7 JUMPI DUP1 PUSH4 0x7C94B1BA EQ PUSH2 0x1B7 JUMPI DUP1 PUSH4 0x86B8DA04 EQ PUSH2 0x1D5 JUMPI DUP1 PUSH4 0x8831F724 EQ PUSH2 0x205 JUMPI DUP1 PUSH4 0x8BF2265B EQ PUSH2 0x223 JUMPI DUP1 PUSH4 0x8DA5CB5B EQ PUSH2 0x23F JUMPI PUSH2 0x114 JUMP JUMPDEST DUP1 PUSH4 0xA993B33 EQ PUSH2 0x118 JUMPI DUP1 PUSH4 0xAEACB5E EQ PUSH2 0x148 JUMPI DUP1 PUSH4 0x1143EF22 EQ PUSH2 0x166 JUMPI DUP1 PUSH4 0x6B4169C3 EQ PUSH2 0x196 JUMPI JUMPDEST PUSH0 PUSH0 REVERT JUMPDEST PUSH2 0x132 PUSH1 0x4 DUP1 CALLDATASIZE SUB DUP2 ADD SWAP1 PUSH2 0x12D SWAP2 SWAP1 PUSH2 0x12DA JUMP JUMPDEST PUSH2 0x3A7 JUMP JUMPDEST PUSH1 0x40 MLOAD PUSH2 0x13F SWAP2 SWAP1 PUSH2 0x14F7 JUMP JUMPDEST PUSH1 0x40 MLOAD DUP1 SWAP2 SUB SWAP1 RETURN JUMPDEST PUSH2 0x150 PUSH2 0x609 JUMP JUMPDEST PUSH1 0x40 MLOAD PUSH2 0x15D SWAP2 SWAP1 PUSH2 0x1526 JUMP JUMPDEST PUSH1 0x40 MLOAD DUP1 SWAP2 SUB SWAP1 RETURN JUMPDEST PUSH2 0x180 PUSH1 0x4 DUP1 CALLDATASIZE SUB DUP2 ADD SWAP1 PUSH2 0x17B SWAP2 SWAP1 PUSH2 0x1569 JUMP JUMPDEST PUSH2 0x614 JUMP JUMPDEST PUSH1 0x40 MLOAD PUSH2 0x18D SWAP2 SWAP1 PUSH2 0x163C JUMP JUMPDEST PUSH1 0x40 MLOAD DUP1 SWAP2 SUB SWAP1 RETURN JUMPDEST PUSH2 0x19E PUSH2 0x77A JUMP JUMPDEST PUSH1 0x40 MLOAD PUSH2 0x1AE SWAP5 SWAP4 SWAP3 SWAP2 SWAP1 PUSH2 0x165C JUMP JUMPDEST PUSH1 0x40 MLOAD DUP1 SWAP2 SUB SWAP1 RETURN JUMPDEST PUSH2 0x1BF PUSH2 0x798 JUMP JUMPDEST PUSH1 0x40 MLOAD PUSH2 0x1CC SWAP2 SWAP1 PUSH2 0x1526 JUMP JUMPDEST PUSH1 0x40 MLOAD DUP1 SWAP2 SUB SWAP1 RETURN JUMPDEST PUSH2 0x1EF PUSH1 0x4 DUP1 CALLDATASIZE SUB DUP2 ADD SWAP1 PUSH2 0x1EA SWAP2 SWAP1 PUSH2 0x1569 JUMP JUMPDEST PUSH2 0x79E JUMP JUMPDEST PUSH1 0x40 MLOAD PUSH2 0x1FC SWAP2 SWAP1 PUSH2 0x1526 JUMP JUMPDEST PUSH1 0x40 MLOAD DUP1 SWAP2 SUB SWAP1 RETURN JUMPDEST PUSH2 0x20D PUSH2 0x7B3 JUMP JUMPDEST PUSH1 0x40 MLOAD PUSH2 0x21A SWAP2 SWAP1 PUSH2 0x1526 JUMP JUMPDEST PUSH1 0x40 MLOAD DUP1 SWAP2 SUB SWAP1 RETURN JUMPDEST PUSH2 0x23D PUSH1 0x4 DUP1 CALLDATASIZE SUB DUP2 ADD SWAP1 PUSH2 0x238 SWAP2 SWAP1 PUSH2 0x1569 JUMP JUMPDEST PUSH2 0x7B9 JUMP JUMPDEST STOP JUMPDEST PUSH2 0x247 PUSH2 0x92A JUMP JUMPDEST PUSH1 0x40 MLOAD PUSH2 0x254 SWAP2 SWAP1 PUSH2 0x16AE JUMP JUMPDEST PUSH1 0x40 MLOAD DUP1 SWAP2 SUB SWAP1 RETURN JUMPDEST PUSH2 0x265 PUSH2 0x94F JUMP JUMPDEST PUSH1 0x40 MLOAD PUSH2 0x272 SWAP2 SWAP1 PUSH2 0x16AE JUMP JUMPDEST PUSH1 0x40 MLOAD DUP1 SWAP2 SUB SWAP1 RETURN JUMPDEST PUSH2 0x295 PUSH1 0x4 DUP1 CALLDATASIZE SUB DUP2 ADD SWAP1 PUSH2 0x290 SWAP2 SWAP1 PUSH2 0x16C7 JUMP JUMPDEST PUSH2 0x974 JUMP JUMPDEST PUSH1 0x40 MLOAD PUSH2 0x2AA SWAP10 SWAP9 SWAP8 SWAP7 SWAP6 SWAP5 SWAP4 SWAP3 SWAP2 SWAP1 PUSH2 0x1710 JUMP JUMPDEST PUSH1 0x40 MLOAD DUP1 SWAP2 SUB SWAP1 RETURN JUMPDEST PUSH2 0x2BB PUSH2 0xA16 JUMP JUMPDEST PUSH1 0x40 MLOAD PUSH2 0x2C8 SWAP2 SWAP1 PUSH2 0x1526 JUMP JUMPDEST PUSH1 0x40 MLOAD DUP1 SWAP2 SUB SWAP1 RETURN JUMPDEST PUSH2 0x2D9 PUSH2 0xA1C JUMP JUMPDEST PUSH1 0x40 MLOAD PUSH2 0x2E6 SWAP2 SWAP1 PUSH2 0x1526 JUMP JUMPDEST PUSH1 0x40 MLOAD DUP1 SWAP2 SUB SWAP1 RETURN JUMPDEST PUSH2 0x309 PUSH1 0x4 DUP1 CALLDATASIZE SUB DUP2 ADD SWAP1 PUSH2 0x304 SWAP2 SWAP1 PUSH2 0x16C7 JUMP JUMPDEST PUSH2 0xA22 JUMP JUMPDEST PUSH1 0x40 MLOAD PUSH2 0x316 SWAP2 SWAP1 PUSH2 0x1850 JUMP JUMPDEST PUSH1 0x40 MLOAD DUP1 SWAP2 SUB SWAP1 RETURN JUMPDEST PUSH2 0x339 PUSH1 0x4 DUP1 CALLDATASIZE SUB DUP2 ADD SWAP1 PUSH2 0x334 SWAP2 SWAP1 PUSH2 0x18BE JUMP JUMPDEST PUSH2 0xB9A JUMP JUMPDEST PUSH1 0x40 MLOAD PUSH2 0x346 SWAP2 SWAP1 PUSH2 0x1526 JUMP JUMPDEST PUSH1 0x40 MLOAD DUP1 SWAP2 SUB SWAP1 RETURN JUMPDEST PUSH2 0x357 PUSH2 0x107F JUMP JUMPDEST PUSH1 0x40 MLOAD PUSH2 0x364 SWAP2 SWAP1 PUSH2 0x196F JUMP JUMPDEST PUSH1 0x40 MLOAD DUP1 SWAP2 SUB SWAP1 RETURN JUMPDEST PUSH2 0x387 PUSH1 0x4 DUP1 CALLDATASIZE SUB DUP2 ADD SWAP1 PUSH2 0x382 SWAP2 SWAP1 PUSH2 0x1569 JUMP JUMPDEST PUSH2 0x1084 JUMP JUMPDEST STOP JUMPDEST PUSH2 0x391 PUSH2 0x122D JUMP JUMPDEST PUSH1 0x40 MLOAD PUSH2 0x39E SWAP2 SWAP1 PUSH2 0x196F JUMP JUMPDEST PUSH1 0x40 MLOAD DUP1 SWAP2 SUB SWAP1 RETURN JUMPDEST PUSH1 0x60 PUSH0 PUSH0 DUP1 SLOAD SWAP1 POP SWAP1 POP DUP1 DUP5 LT PUSH2 0x414 JUMPI PUSH0 PUSH8 0xFFFFFFFFFFFFFFFF DUP2 GT ISZERO PUSH2 0x3D2 JUMPI PUSH2 0x3D1 PUSH2 0x1988 JUMP JUMPDEST JUMPDEST PUSH1 0x40 MLOAD SWAP1 DUP1 DUP3 MSTORE DUP1 PUSH1 0x20 MUL PUSH1 0x20 ADD DUP3 ADD PUSH1 0x40 MSTORE DUP1 ISZERO PUSH2 0x40B JUMPI DUP2 PUSH1 0x20 ADD JUMPDEST PUSH2 0x3F8 PUSH2 0x1231 JUMP JUMPDEST DUP2 MSTORE PUSH1 0x20 ADD SWAP1 PUSH1 0x1 SWAP1 SUB SWAP1 DUP2 PUSH2 0x3F0 JUMPI SWAP1 POP JUMPDEST POP SWAP2 POP POP PUSH2 0x603 JUMP JUMPDEST PUSH0 DUP4 DUP6 PUSH2 0x421 SWAP2 SWAP1 PUSH2 0x19E2 JUMP JUMPDEST SWAP1 POP DUP2 DUP2 GT ISZERO PUSH2 0x42F JUMPI DUP2 SWAP1 POP JUMPDEST DUP5 DUP2 PUSH2 0x43B SWAP2 SWAP1 PUSH2 0x1A15 JUMP JUMPDEST PUSH8 0xFFFFFFFFFFFFFFFF DUP2 GT ISZERO PUSH2 0x454 JUMPI PUSH2 0x453 PUSH2 0x1988 JUMP JUMPDEST JUMPDEST PUSH1 0x40 MLOAD SWAP1 DUP1 DUP3 MSTORE DUP1 PUSH1 0x20 MUL PUSH1 0x20 ADD DUP3 ADD PUSH1 0x40 MSTORE DUP1 ISZERO PUSH2 0x48D JUMPI DUP2 PUSH1 0x20 ADD JUMPDEST PUSH2 0x47A PUSH2 0x1231 JUMP JUMPDEST DUP2 MSTORE PUSH1 0x20 ADD SWAP1 PUSH1 0x1 SWAP1 SUB SWAP1 DUP2 PUSH2 0x472 JUMPI SWAP1 POP JUMPDEST POP SWAP3 POP PUSH0 DUP6 SWAP1 POP JUMPDEST DUP2 DUP2 LT ISZERO PUSH2 0x5FF JUMPI PUSH0 DUP2 DUP2 SLOAD DUP2 LT PUSH2 0x4B0 JUMPI PUSH2 0x4AF PUSH2 0x1A48 JUMP JUMPDEST JUMPDEST SWAP1 PUSH0 MSTORE PUSH1 0x20 PUSH0 KECCAK256 SWAP1 PUSH1 0x9 MUL ADD PUSH1 0x40 MLOAD DUP1 PUSH2 0x120 ADD PUSH1 0x40 MSTORE SWAP1 DUP2 PUSH0 DUP3 ADD PUSH0 SWAP1 SLOAD SWAP1 PUSH2 0x100 EXP SWAP1 DIV PUSH20 0xFFFFFFFFFFFFFFFFFFFFFFFFFFFFFFFFFFFFFFFF AND PUSH20 0xFFFFFFFFFFFFFFFFFFFFFFFFFFFFFFFFFFFFFFFF AND PUSH20 0xFFFFFFFFFFFFFFFFFFFFFFFFFFFFFFFFFFFFFFFF AND DUP2 MSTORE PUSH1 0x20 ADD PUSH1 0x1 DUP3 ADD PUSH0 SWAP1 SLOAD SWAP1 PUSH2 0x100 EXP SWAP1 DIV PUSH20 0xFFFFFFFFFFFFFFFFFFFFFFFFFFFFFFFFFFFFFFFF AND PUSH20 0xFFFFFFFFFFFFFFFFFFFFFFFFFFFFFFFFFFFFFFFF AND PUSH20 0xFFFFFFFFFFFFFFFFFFFFFFFFFFFFFFFFFFFFFFFF AND DUP2 MSTORE PUSH1 0x20 ADD PUSH1 0x2 DUP3 ADD SLOAD DUP2 MSTORE PUSH1 0x20 ADD PUSH1 0x3 DUP3 ADD SLOAD DUP2 MSTORE PUSH1 0x20 ADD PUSH1 0x4 DUP3 ADD SLOAD DUP2 MSTORE PUSH1 0x20 ADD PUSH1 0x5 DUP3 ADD PUSH0 SWAP1 SLOAD SWAP1 PUSH2 0x100 EXP SWAP1 DIV PUSH1 0xFF AND PUSH1 0xFF AND PUSH1 0xFF AND DUP2 MSTORE PUSH1 0x20 ADD PUSH1 0x6 DUP3 ADD SLOAD DUP2 MSTORE PUSH1 0x20 ADD PUSH1 0x7 DUP3 ADD SLOAD DUP2 MSTORE PUSH1 0x20 ADD PUSH1 0x8 DUP3 ADD SLOAD DUP2 MSTORE POP POP DUP5 DUP8 DUP4 PUSH2 0x5D6 SWAP2 SWAP1 PUSH2 0x1A15 JUMP JUMPDEST DUP2 MLOAD DUP2 LT PUSH2 0x5E7 JUMPI PUSH2 0x5E6 PUSH2 0x1A48 JUMP JUMPDEST JUMPDEST PUSH1 0x20 MUL PUSH1 0x20 ADD ADD DUP2 SWAP1 MSTORE POP DUP1 DUP1 PUSH1 0x1 ADD SWAP2 POP POP PUSH2 0x495 JUMP JUMPDEST POP POP POP JUMPDEST SWAP3 SWAP2 POP POP JUMP JUMPDEST PUSH0 PUSH0 DUP1 SLOAD SWAP1 POP SWAP1 POP SWAP1 JUMP JUMPDEST PUSH1 0x60 PUSH0 PUSH1 0x5 PUSH0 DUP5 PUSH20 0xFFFFFFFFFFFFFFFFFFFFFFFFFFFFFFFFFFFFFFFF AND PUSH20 0xFFFFFFFFFFFFFFFFFFFFFFFFFFFFFFFFFFFFFFFF AND DUP2 MSTORE PUSH1 0x20 ADD SWAP1 DUP2 MSTORE PUSH1 0x20 ADD PUSH0 KECCAK256 SLOAD SWAP1 POP DUP1 PUSH8 0xFFFFFFFFFFFFFFFF DUP2 GT ISZERO PUSH2 0x671 JUMPI PUSH2 0x670 PUSH2 0x1988 JUMP JUMPDEST JUMPDEST PUSH1 0x40 MLOAD SWAP1 DUP1 DUP3 MSTORE DUP1 PUSH1 0x20 MUL PUSH1 0x20 ADD DUP3 ADD PUSH1 0x40 MSTORE DUP1 ISZERO PUSH2 0x69F JUMPI DUP2 PUSH1 0x20 ADD PUSH1 0x20 DUP3 MUL DUP1 CALLDATASIZE DUP4 CALLDATACOPY DUP1 DUP3 ADD SWAP2 POP POP SWAP1 POP JUMPDEST POP SWAP2 POP PUSH0 PUSH0 PUSH0 SWAP1 POP JUMPDEST PUSH0 DUP1 SLOAD SWAP1 POP DUP2 LT DUP1 ISZERO PUSH2 0x6BA JUMPI POP DUP3 DUP3 LT JUMPDEST ISZERO PUSH2 0x772 JUMPI DUP5 PUSH20 0xFFFFFFFFFFFFFFFFFFFFFFFFFFFFFFFFFFFFFFFF AND PUSH0 DUP3 DUP2 SLOAD DUP2 LT PUSH2 0x6E9 JUMPI PUSH2 0x6E8 PUSH2 0x1A48 JUMP JUMPDEST JUMPDEST SWAP1 PUSH0 MSTORE PUSH1 0x20 PUSH0 KECCAK256 SWAP1 PUSH1 0x9 MUL ADD PUSH0 ADD PUSH0 SWAP1 SLOAD SWAP1 PUSH2 0x100 EXP SWAP1 DIV PUSH20 0xFFFFFFFFFFFFFFFFFFFFFFFFFFFFFFFFFFFFFFFF AND PUSH20 0xFFFFFFFFFFFFFFFFFFFFFFFFFFFFFFFFFFFFFFFF AND SUB PUSH2 0x75F JUMPI DUP1 DUP5 DUP4 DUP1 PUSH2 0x73F SWAP1 PUSH2 0x1A75 JUMP JUMPDEST SWAP5 POP DUP2 MLOAD DUP2 LT PUSH2 0x752 JUMPI PUSH2 0x751 PUSH2 0x1A48 JUMP JUMPDEST JUMPDEST PUSH1 0x20 MUL PUSH1 0x20 ADD ADD DUP2 DUP2 MSTORE POP POP JUMPDEST DUP1 DUP1 PUSH2 0x76A SWAP1 PUSH2 0x1A75 JUMP JUMPDEST SWAP2 POP POP PUSH2 0x6A8 JUMP JUMPDEST POP POP POP SWAP2 SWAP1 POP JUMP JUMPDEST PUSH0 PUSH0 PUSH0 PUSH0 PUSH1 0x4 SLOAD SWAP4 POP PUSH1 0x1 SLOAD SWAP3 POP PUSH1 0x2 SLOAD SWAP2 POP PUSH1 0x3 SLOAD SWAP1 POP SWAP1 SWAP2 SWAP3 SWAP4 JUMP JUMPDEST PUSH1 0x2 SLOAD DUP2 JUMP JUMPDEST PUSH1 0x5 PUSH1 0x20 MSTORE DUP1 PUSH0 MSTORE PUSH1 0x40 PUSH0 KECCAK256 PUSH0 SWAP2 POP SWAP1 POP SLOAD DUP2 JUMP JUMPDEST PUSH1 0x4 SLOAD DUP2 JUMP JUMPDEST PUSH1 0x6 PUSH0 SWAP1 SLOAD SWAP1 PUSH2 0x100 EXP SWAP1 DIV PUSH20 0xFFFFFFFFFFFFFFFFFFFFFFFFFFFFFFFFFFFFFFFF AND PUSH20 0xFFFFFFFFFFFFFFFFFFFFFFFFFFFFFFFFFFFFFFFF AND CALLER PUSH20 0xFFFFFFFFFFFFFFFFFFFFFFFFFFFFFFFFFFFFFFFF AND EQ PUSH2 0x83F JUMPI PUSH1 0x40 MLOAD PUSH32 0x82B4290000000000000000000000000000000000000000000000000000000000 DUP2 MSTORE PUSH1 0x4 ADD PUSH1 0x40 MLOAD DUP1 SWAP2 SUB SWAP1 REVERT JUMPDEST PUSH0 PUSH20 0xFFFFFFFFFFFFFFFFFFFFFFFFFFFFFFFFFFFFFFFF AND DUP2 PUSH20 0xFFFFFFFFFFFFFFFFFFFFFFFFFFFFFFFFFFFFFFFF AND SUB PUSH2 0x8A4 JUMPI PUSH1 0x40 MLOAD PUSH32 0xD92E233D00000000000000000000000000000000000000000000000000000000 DUP2 MSTORE PUSH1 0x4 ADD PUSH1 0x40 MLOAD DUP1 SWAP2 SUB SWAP1 REVERT JUMPDEST DUP1 PUSH1 0x7 PUSH0 PUSH2 0x100 EXP DUP2 SLOAD DUP2 PUSH20 0xFFFFFFFFFFFFFFFFFFFFFFFFFFFFFFFFFFFFFFFF MUL NOT AND SWAP1 DUP4 PUSH20 0xFFFFFFFFFFFFFFFFFFFFFFFFFFFFFFFFFFFFFFFF AND MUL OR SWAP1 SSTORE POP DUP1 PUSH20 0xFFFFFFFFFFFFFFFFFFFFFFFFFFFFFFFFFFFFFFFF AND PUSH32 0x436150DBAF3E670B87BFCFC57D3D2BBD688416031B6A9E527FA2BAC1657A1A5D PUSH1 0x40 MLOAD PUSH1 0x40 MLOAD DUP1 SWAP2 SUB SWAP1 LOG2 POP JUMP JUMPDEST PUSH1 0x6 PUSH0 SWAP1 SLOAD SWAP1 PUSH2 0x100 EXP SWAP1 DIV PUSH20 0xFFFFFFFFFFFFFFFFFFFFFFFFFFFFFFFFFFFFFFFF AND DUP2 JUMP JUMPDEST PUSH1 0x7 PUSH0 SWAP1 SLOAD SWAP1 PUSH2 0x100 EXP SWAP1 DIV PUSH20 0xFFFFFFFFFFFFFFFFFFFFFFFFFFFFFFFFFFFFFFFF AND DUP2 JUMP JUMPDEST PUSH0 DUP2 DUP2 SLOAD DUP2 LT PUSH2 0x982 JUMPI PUSH0 DUP1 REVERT JUMPDEST SWAP1 PUSH0 MSTORE PUSH1 0x20 PUSH0 KECCAK256 SWAP1 PUSH1 0x9 MUL ADD PUSH0 SWAP2 POP SWAP1 POP DUP1 PUSH0 ADD PUSH0 SWAP1 SLOAD SWAP1 PUSH2 0x100 EXP SWAP1 DIV PUSH20 0xFFFFFFFFFFFFFFFFFFFFFFFFFFFFFFFFFFFFFFFF AND SWAP1 DUP1 PUSH1 0x1 ADD PUSH0 SWAP1 SLOAD SWAP1 PUSH2 0x100 EXP SWAP1 DIV PUSH20 0xFFFFFFFFFFFFFFFFFFFFFFFFFFFFFFFFFFFFFFFF AND SWAP1 DUP1 PUSH1 0x2 ADD SLOAD SWAP1 DUP1 PUSH1 0x3 ADD SLOAD SWAP1 DUP1 PUSH1 0x4 ADD SLOAD SWAP1 DUP1 PUSH1 0x5 ADD PUSH0 SWAP1 SLOAD SWAP1 PUSH2 0x100 EXP SWAP1 DIV PUSH1 0xFF AND SWAP1 DUP1 PUSH1 0x6 ADD SLOAD SWAP1 DUP1 PUSH1 0x7 ADD SLOAD SWAP1 DUP1 PUSH1 0x8 ADD SLOAD SWAP1 POP DUP10 JUMP JUMPDEST PUSH1 0x1 SLOAD DUP2 JUMP JUMPDEST PUSH1 0x3 SLOAD DUP2 JUMP JUMPDEST PUSH2 0xA2A PUSH2 0x1231 JUMP JUMPDEST PUSH0 DUP1 SLOAD SWAP1 POP DUP3 LT PUSH2 0xA67 JUMPI PUSH1 0x40 MLOAD PUSH32 0x3E07F1A100000000000000000000000000000000000000000000000000000000 DUP2 MSTORE PUSH1 0x4 ADD PUSH1 0x40 MLOAD DUP1 SWAP2 SUB SWAP1 REVERT JUMPDEST PUSH0 DUP3 DUP2 SLOAD DUP2 LT PUSH2 0xA7A JUMPI PUSH2 0xA79 PUSH2 0x1A48 JUMP JUMPDEST JUMPDEST SWAP1 PUSH0 MSTORE PUSH1 0x20 PUSH0 KECCAK256 SWAP1 PUSH1 0x9 MUL ADD PUSH1 0x40 MLOAD DUP1 PUSH2 0x120 ADD PUSH1 0x40 MSTORE SWAP1 DUP2 PUSH0 DUP3 ADD PUSH0 SWAP1 SLOAD SWAP1 PUSH2 0x100 EXP SWAP1 DIV PUSH20 0xFFFFFFFFFFFFFFFFFFFFFFFFFFFFFFFFFFFFFFFF AND PUSH20 0xFFFFFFFFFFFFFFFFFFFFFFFFFFFFFFFFFFFFFFFF AND PUSH20 0xFFFFFFFFFFFFFFFFFFFFFFFFFFFFFFFFFFFFFFFF AND DUP2 MSTORE PUSH1 0x20 ADD PUSH1 0x1 DUP3 ADD PUSH0 SWAP1 SLOAD SWAP1 PUSH2 0x100 EXP SWAP1 DIV PUSH20 0xFFFFFFFFFFFFFFFFFFFFFFFFFFFFFFFFFFFFFFFF AND PUSH20 0xFFFFFFFFFFFFFFFFFFFFFFFFFFFFFFFFFFFFFFFF AND PUSH20 0xFFFFFFFFFFFFFFFFFFFFFFFFFFFFFFFFFFFFFFFF AND DUP2 MSTORE PUSH1 0x20 ADD PUSH1 0x2 DUP3 ADD SLOAD DUP2 MSTORE PUSH1 0x20 ADD PUSH1 0x3 DUP3 ADD SLOAD DUP2 MSTORE PUSH1 0x20 ADD PUSH1 0x4 DUP3 ADD SLOAD DUP2 MSTORE PUSH1 0x20 ADD PUSH1 0x5 DUP3 ADD PUSH0 SWAP1 SLOAD SWAP1 PUSH2 0x100 EXP SWAP1 DIV PUSH1 0xFF AND PUSH1 0xFF AND PUSH1 0xFF AND DUP2 MSTORE PUSH1 0x20 ADD PUSH1 0x6 DUP3 ADD SLOAD DUP2 MSTORE PUSH1 0x20 ADD PUSH1 0x7 DUP3 ADD SLOAD DUP2 MSTORE PUSH1 0x20 ADD PUSH1 0x8 DUP3 ADD SLOAD DUP2 MSTORE POP POP SWAP1 POP SWAP2 SWAP1 POP JUMP JUMPDEST PUSH0 PUSH1 0x6 PUSH0 SWAP1 SLOAD SWAP1 PUSH2 0x100 EXP SWAP1 DIV PUSH20 0xFFFFFFFFFFFFFFFFFFFFFFFFFFFFFFFFFFFFFFFF AND PUSH20 0xFFFFFFFFFFFFFFFFFFFFFFFFFFFFFFFFFFFFFFFF AND CALLER PUSH20 0xFFFFFFFFFFFFFFFFFFFFFFFFFFFFFFFFFFFFFFFF AND EQ ISZERO DUP1 ISZERO PUSH2 0xC45 JUMPI POP PUSH1 0x7 PUSH0 SWAP1 SLOAD SWAP1 PUSH2 0x100 EXP SWAP1 DIV PUSH20 0xFFFFFFFFFFFFFFFFFFFFFFFFFFFFFFFFFFFFFFFF AND PUSH20 0xFFFFFFFFFFFFFFFFFFFFFFFFFFFFFFFFFFFFFFFF AND CALLER PUSH20 0xFFFFFFFFFFFFFFFFFFFFFFFFFFFFFFFFFFFFFFFF AND EQ ISZERO JUMPDEST ISZERO PUSH2 0xC7C JUMPI PUSH1 0x40 MLOAD PUSH32 0x82B4290000000000000000000000000000000000000000000000000000000000 DUP2 MSTORE PUSH1 0x4 ADD PUSH1 0x40 MLOAD DUP1 SWAP2 SUB SWAP1 REVERT JUMPDEST PUSH0 PUSH20 0xFFFFFFFFFFFFFFFFFFFFFFFFFFFFFFFFFFFFFFFF AND DUP10 PUSH20 0xFFFFFFFFFFFFFFFFFFFFFFFFFFFFFFFFFFFFFFFF AND SUB PUSH2 0xCE1 JUMPI PUSH1 0x40 MLOAD PUSH32 0xF2A3E8DB00000000000000000000000000000000000000000000000000000000 DUP2 MSTORE PUSH1 0x4 ADD PUSH1 0x40 MLOAD DUP1 SWAP2 SUB SWAP1 REVERT JUMPDEST PUSH0 PUSH20 0xFFFFFFFFFFFFFFFFFFFFFFFFFFFFFFFFFFFFFFFF AND DUP9 PUSH20 0xFFFFFFFFFFFFFFFFFFFFFFFFFFFFFFFFFFFFFFFF AND SUB PUSH2 0xD46 JUMPI PUSH1 0x40 MLOAD PUSH32 0xF2A3E8DB00000000000000000000000000000000000000000000000000000000 DUP2 MSTORE PUSH1 0x4 ADD PUSH1 0x40 MLOAD DUP1 SWAP2 SUB SWAP1 REVERT JUMPDEST PUSH0 DUP8 SUB PUSH2 0xD7F JUMPI PUSH1 0x40 MLOAD PUSH32 0xF2A3E8DB00000000000000000000000000000000000000000000000000000000 DUP2 MSTORE PUSH1 0x4 ADD PUSH1 0x40 MLOAD DUP1 SWAP2 SUB SWAP1 REVERT JUMPDEST PUSH1 0x1 DUP5 PUSH1 0xFF AND GT ISZERO PUSH2 0xDBD JUMPI PUSH1 0x40 MLOAD PUSH32 0xF599342800000000000000000000000000000000000000000000000000000000 DUP2 MSTORE PUSH1 0x4 ADD PUSH1 0x40 MLOAD DUP1 SWAP2 SUB SWAP1 REVERT JUMPDEST PUSH0 DUP1 SLOAD SWAP1 POP SWAP1 POP PUSH0 PUSH1 0x40 MLOAD DUP1 PUSH2 0x120 ADD PUSH1 0x40 MSTORE DUP1 DUP12 PUSH20 0xFFFFFFFFFFFFFFFFFFFFFFFFFFFFFFFFFFFFFFFF AND DUP2 MSTORE PUSH1 0x20 ADD DUP11 PUSH20 0xFFFFFFFFFFFFFFFFFFFFFFFFFFFFFFFFFFFFFFFF AND DUP2 MSTORE PUSH1 0x20 ADD DUP10 DUP2 MSTORE PUSH1 0x20 ADD DUP9 DUP2 MSTORE PUSH1 0x20 ADD DUP8 DUP2 MSTORE PUSH1 0x20 ADD DUP7 PUSH1 0xFF AND DUP2 MSTORE PUSH1 0x20 ADD TIMESTAMP DUP2 MSTORE PUSH1 0x20 ADD DUP6 DUP2 MSTORE PUSH1 0x20 ADD DUP5 DUP2 MSTORE POP SWAP1 DUP1 PUSH1 0x1 DUP2 SLOAD ADD DUP1 DUP3 SSTORE DUP1 SWAP2 POP POP PUSH1 0x1 SWAP1 SUB SWAP1 PUSH0 MSTORE PUSH1 0x20 PUSH0 KECCAK256 SWAP1 PUSH1 0x9 MUL ADD PUSH0 SWAP1 SWAP2 SWAP1 SWAP2 SWAP1 SWAP2 POP PUSH0 DUP3 ADD MLOAD DUP2 PUSH0 ADD PUSH0 PUSH2 0x100 EXP DUP2 SLOAD DUP2 PUSH20 0xFFFFFFFFFFFFFFFFFFFFFFFFFFFFFFFFFFFFFFFF MUL NOT AND SWAP1 DUP4 PUSH20 0xFFFFFFFFFFFFFFFFFFFFFFFFFFFFFFFFFFFFFFFF AND MUL OR SWAP1 SSTORE POP PUSH1 0x20 DUP3 ADD MLOAD DUP2 PUSH1 0x1 ADD PUSH0 PUSH2 0x100 EXP DUP2 SLOAD DUP2 PUSH20 0xFFFFFFFFFFFFFFFFFFFFFFFFFFFFFFFFFFFFFFFF MUL NOT AND SWAP1 DUP4 PUSH20 0xFFFFFFFFFFFFFFFFFFFFFFFFFFFFFFFFFFFFFFFF AND MUL OR SWAP1 SSTORE POP PUSH1 0x40 DUP3 ADD MLOAD DUP2 PUSH1 0x2 ADD SSTORE PUSH1 0x60 DUP3 ADD MLOAD DUP2 PUSH1 0x3 ADD SSTORE PUSH1 0x80 DUP3 ADD MLOAD DUP2 PUSH1 0x4 ADD SSTORE PUSH1 0xA0 DUP3 ADD MLOAD DUP2 PUSH1 0x5 ADD PUSH0 PUSH2 0x100 EXP DUP2 SLOAD DUP2 PUSH1 0xFF MUL NOT AND SWAP1 DUP4 PUSH1 0xFF AND MUL OR SWAP1 SSTORE POP PUSH1 0xC0 DUP3 ADD MLOAD DUP2 PUSH1 0x6 ADD SSTORE PUSH1 0xE0 DUP3 ADD MLOAD DUP2 PUSH1 0x7 ADD SSTORE PUSH2 0x100 DUP3 ADD MLOAD DUP2 PUSH1 0x8 ADD SSTORE POP POP DUP6 PUSH1 0x3 PUSH0 DUP3 DUP3 SLOAD PUSH2 0xF54 SWAP2 SWAP1 PUSH2 0x19E2 JUMP JUMPDEST SWAP3 POP POP DUP2 SWAP1 SSTORE POP PUSH1 0x4 PUSH0 DUP2 SLOAD DUP1 SWAP3 SWAP2 SWAP1 PUSH2 0xF6D SWAP1 PUSH2 0x1A75 JUMP JUMPDEST SWAP2 SWAP1 POP SSTORE POP PUSH1 0x5 PUSH0 DUP11 PUSH20 0xFFFFFFFFFFFFFFFFFFFFFFFFFFFFFFFFFFFFFFFF AND PUSH20 0xFFFFFFFFFFFFFFFFFFFFFFFFFFFFFFFFFFFFFFFF AND DUP2 MSTORE PUSH1 0x20 ADD SWAP1 DUP2 MSTORE PUSH1 0x20 ADD PUSH0 KECCAK256 PUSH0 DUP2 SLOAD DUP1 SWAP3 SWAP2 SWAP1 PUSH2 0xFBF SWAP1 PUSH2 0x1A75 JUMP JUMPDEST SWAP2 SWAP1 POP SSTORE POP PUSH0 PUSH1 0xFF AND DUP5 PUSH1 0xFF AND SUB PUSH2 0xFEE JUMPI DUP7 PUSH1 0x1 PUSH0 DUP3 DUP3 SLOAD PUSH2 0xFE2 SWAP2 SWAP1 PUSH2 0x19E2 JUMP JUMPDEST SWAP3 POP POP DUP2 SWAP1 SSTORE POP PUSH2 0x1007 JUMP JUMPDEST DUP7 PUSH1 0x2 PUSH0 DUP3 DUP3 SLOAD PUSH2 0xFFF SWAP2 SWAP1 PUSH2 0x19E2 JUMP JUMPDEST SWAP3 POP POP DUP2 SWAP1 SSTORE POP JUMPDEST DUP8 PUSH20 0xFFFFFFFFFFFFFFFFFFFFFFFFFFFFFFFFFFFFFFFF AND DUP10 PUSH20 0xFFFFFFFFFFFFFFFFFFFFFFFFFFFFFFFFFFFFFFFF AND DUP3 PUSH32 0x4FF3917F274A7035E685B2352D2CA9BBAF4B85746E49D1613C2A3988551D9B5B DUP11 DUP11 DUP10 DUP9 PUSH1 0x40 MLOAD PUSH2 0x106B SWAP5 SWAP4 SWAP3 SWAP2 SWAP1 PUSH2 0x1ABC JUMP JUMPDEST PUSH1 0x40 MLOAD DUP1 SWAP2 SUB SWAP1 LOG4 SWAP9 SWAP8 POP POP POP POP POP POP POP POP JUMP JUMPDEST PUSH1 0x1 DUP2 JUMP JUMPDEST PUSH1 0x6 PUSH0 SWAP1 SLOAD SWAP1 PUSH2 0x100 EXP SWAP1 DIV PUSH20 0xFFFFFFFFFFFFFFFFFFFFFFFFFFFFFFFFFFFFFFFF AND PUSH20 0xFFFFFFFFFFFFFFFFFFFFFFFFFFFFFFFFFFFFFFFF AND CALLER PUSH20 0xFFFFFFFFFFFFFFFFFFFFFFFFFFFFFFFFFFFFFFFF AND EQ PUSH2 0x110A JUMPI PUSH1 0x40 MLOAD PUSH32 0x82B4290000000000000000000000000000000000000000000000000000000000 DUP2 MSTORE PUSH1 0x4 ADD PUSH1 0x40 MLOAD DUP1 SWAP2 SUB SWAP1 REVERT JUMPDEST PUSH0 PUSH20 0xFFFFFFFFFFFFFFFFFFFFFFFFFFFFFFFFFFFFFFFF AND DUP2 PUSH20 0xFFFFFFFFFFFFFFFFFFFFFFFFFFFFFFFFFFFFFFFF AND SUB PUSH2 0x116F JUMPI PUSH1 0x40 MLOAD PUSH32 0xD92E233D00000000000000000000000000000000000000000000000000000000 DUP2 MSTORE PUSH1 0x4 ADD PUSH1 0x40 MLOAD DUP1 SWAP2 SUB SWAP1 REVERT JUMPDEST DUP1 PUSH20 0xFFFFFFFFFFFFFFFFFFFFFFFFFFFFFFFFFFFFFFFF AND PUSH1 0x6 PUSH0 SWAP1 SLOAD SWAP1 PUSH2 0x100 EXP SWAP1 DIV PUSH20 0xFFFFFFFFFFFFFFFFFFFFFFFFFFFFFFFFFFFFFFFF AND PUSH20 0xFFFFFFFFFFFFFFFFFFFFFFFFFFFFFFFFFFFFFFFF AND PUSH32 0x8BE0079C531659141344CD1FD0A4F28419497F9722A3DAAFE3B4186F6B6457E0 PUSH1 0x40 MLOAD PUSH1 0x40 MLOAD DUP1 SWAP2 SUB SWAP1 LOG3 DUP1 PUSH1 0x6 PUSH0 PUSH2 0x100 EXP DUP2 SLOAD DUP2 PUSH20 0xFFFFFFFFFFFFFFFFFFFFFFFFFFFFFFFFFFFFFFFF MUL NOT AND SWAP1 DUP4 PUSH20 0xFFFFFFFFFFFFFFFFFFFFFFFFFFFFFFFFFFFFFFFF AND MUL OR SWAP1 SSTORE POP POP JUMP JUMPDEST PUSH0 DUP2 JUMP JUMPDEST PUSH1 0x40 MLOAD DUP1 PUSH2 0x120 ADD PUSH1 0x40 MSTORE DUP1 PUSH0 PUSH20 0xFFFFFFFFFFFFFFFFFFFFFFFFFFFFFFFFFFFFFFFF AND DUP2 MSTORE PUSH1 0x20 ADD PUSH0 PUSH20 0xFFFFFFFFFFFFFFFFFFFFFFFFFFFFFFFFFFFFFFFF AND DUP2 MSTORE PUSH1 0x20 ADD PUSH0 DUP2 MSTORE PUSH1 0x20 ADD PUSH0 DUP2 MSTORE PUSH1 0x20 ADD PUSH0 DUP2 MSTORE PUSH1 0x20 ADD PUSH0 PUSH1 0xFF AND DUP2 MSTORE PUSH1 0x20 ADD PUSH0 DUP2 MSTORE PUSH1 0x20 ADD PUSH0 DUP2 MSTORE PUSH1 0x20 ADD PUSH0 DUP2 MSTORE POP SWAP1 JUMP JUMPDEST PUSH0 PUSH0 REVERT JUMPDEST PUSH0 DUP2 SWAP1 POP SWAP2 SWAP1 POP JUMP JUMPDEST PUSH2 0x12B9 DUP2 PUSH2 0x12A7 JUMP JUMPDEST DUP2 EQ PUSH2 0x12C3 JUMPI PUSH0 PUSH0 REVERT JUMPDEST POP JUMP JUMPDEST PUSH0 DUP2 CALLDATALOAD SWAP1 POP PUSH2 0x12D4 DUP2 PUSH2 0x12B0 JUMP JUMPDEST SWAP3 SWAP2 POP POP JUMP JUMPDEST PUSH0 PUSH0 PUSH1 0x40 DUP4 DUP6 SUB SLT ISZERO PUSH2 0x12F0 JUMPI PUSH2 0x12EF PUSH2 0x12A3 JUMP JUMPDEST JUMPDEST PUSH0 PUSH2 0x12FD DUP6 DUP3 DUP7 ADD PUSH2 0x12C6 JUMP JUMPDEST SWAP3 POP POP PUSH1 0x20 PUSH2 0x130E DUP6 DUP3 DUP7 ADD PUSH2 0x12C6 JUMP JUMPDEST SWAP2 POP POP SWAP3 POP SWAP3 SWAP1 POP JUMP JUMPDEST PUSH0 DUP2 MLOAD SWAP1 POP SWAP2 SWAP1 POP JUMP JUMPDEST PUSH0 DUP3 DUP3 MSTORE PUSH1 0x20 DUP3 ADD SWAP1 POP SWAP3 SWAP2 POP POP JUMP JUMPDEST PUSH0 DUP2 SWAP1 POP PUSH1 0x20 DUP3 ADD SWAP1 POP SWAP2 SWAP1 POP JUMP JUMPDEST PUSH0 PUSH20 0xFFFFFFFFFFFFFFFFFFFFFFFFFFFFFFFFFFFFFFFF DUP3 AND SWAP1 POP SWAP2 SWAP1 POP JUMP JUMPDEST PUSH0 PUSH2 0x136A DUP3 PUSH2 0x1341 JUMP JUMPDEST SWAP1 POP SWAP2 SWAP1 POP JUMP JUMPDEST PUSH2 0x137A DUP2 PUSH2 0x1360 JUMP JUMPDEST DUP3 MSTORE POP POP JUMP JUMPDEST PUSH2 0x1389 DUP2 PUSH2 0x12A7 JUMP JUMPDEST DUP3 MSTORE POP POP JUMP JUMPDEST PUSH0 PUSH1 0xFF DUP3 AND SWAP1 POP SWAP2 SWAP1 POP JUMP JUMPDEST PUSH2 0x13A4 DUP2 PUSH2 0x138F JUMP JUMPDEST DUP3 MSTORE POP POP JUMP JUMPDEST PUSH0 DUP2 SWAP1 POP SWAP2 SWAP1 POP JUMP JUMPDEST PUSH2 0x13BC DUP2 PUSH2 0x13AA JUMP JUMPDEST DUP3 MSTORE POP POP JUMP JUMPDEST PUSH2 0x120 DUP3 ADD PUSH0 DUP3 ADD MLOAD PUSH2 0x13D7 PUSH0 DUP6 ADD DUP3 PUSH2 0x1371 JUMP JUMPDEST POP PUSH1 0x20 DUP3 ADD MLOAD PUSH2 0x13EA PUSH1 0x20 DUP6 ADD DUP3 PUSH2 0x1371 JUMP JUMPDEST POP PUSH1 0x40 DUP3 ADD MLOAD PUSH2 0x13FD PUSH1 0x40 DUP6 ADD DUP3 PUSH2 0x1380 JUMP JUMPDEST POP PUSH1 0x60 DUP3 ADD MLOAD PUSH2 0x1410 PUSH1 0x60 DUP6 ADD DUP3 PUSH2 0x1380 JUMP JUMPDEST POP PUSH1 0x80 DUP3 ADD MLOAD PUSH2 0x1423 PUSH1 0x80 DUP6 ADD DUP3 PUSH2 0x1380 JUMP JUMPDEST POP PUSH1 0xA0 DUP3 ADD MLOAD PUSH2 0x1436 PUSH1 0xA0 DUP6 ADD DUP3 PUSH2 0x139B JUMP JUMPDEST POP PUSH1 0xC0 DUP3 ADD MLOAD PUSH2 0x1449 PUSH1 0xC0 DUP6 ADD DUP3 PUSH2 0x1380 JUMP JUMPDEST POP PUSH1 0xE0 DUP3 ADD MLOAD PUSH2 0x145C PUSH1 0xE0 DUP6 ADD DUP3 PUSH2 0x1380 JUMP JUMPDEST POP PUSH2 0x100 DUP3 ADD MLOAD PUSH2 0x1471 PUSH2 0x100 DUP6 ADD DUP3 PUSH2 0x13B3 JUMP JUMPDEST POP POP POP POP JUMP JUMPDEST PUSH0 PUSH2 0x1482 DUP4 DUP4 PUSH2 0x13C2 JUMP JUMPDEST PUSH2 0x120 DUP4 ADD SWAP1 POP SWAP3 SWAP2 POP POP JUMP JUMPDEST PUSH0 PUSH1 0x20 DUP3 ADD SWAP1 POP SWAP2 SWAP1 POP JUMP JUMPDEST PUSH0 PUSH2 0x14A5 DUP3 PUSH2 0x1318 JUMP JUMPDEST PUSH2 0x14AF DUP2 DUP6 PUSH2 0x1322 JUMP JUMPDEST SWAP4 POP PUSH2 0x14BA DUP4 PUSH2 0x1332 JUMP JUMPDEST DUP1 PUSH0 JUMPDEST DUP4 DUP2 LT ISZERO PUSH2 0x14EA JUMPI DUP2 MLOAD PUSH2 0x14D1 DUP9 DUP3 PUSH2 0x1477 JUMP JUMPDEST SWAP8 POP PUSH2 0x14DC DUP4 PUSH2 0x148F JUMP JUMPDEST SWAP3 POP POP PUSH1 0x1 DUP2 ADD SWAP1 POP PUSH2 0x14BD JUMP JUMPDEST POP DUP6 SWAP4 POP POP POP POP SWAP3 SWAP2 POP POP JUMP JUMPDEST PUSH0 PUSH1 0x20 DUP3 ADD SWAP1 POP DUP2 DUP2 SUB PUSH0 DUP4 ADD MSTORE PUSH2 0x150F DUP2 DUP5 PUSH2 0x149B JUMP JUMPDEST SWAP1 POP SWAP3 SWAP2 POP POP JUMP JUMPDEST PUSH2 0x1520 DUP2 PUSH2 0x12A7 JUMP JUMPDEST DUP3 MSTORE POP POP JUMP JUMPDEST PUSH0 PUSH1 0x20 DUP3 ADD SWAP1 POP PUSH2 0x1539 PUSH0 DUP4 ADD DUP5 PUSH2 0x1517 JUMP JUMPDEST SWAP3 SWAP2 POP POP JUMP JUMPDEST PUSH2 0x1548 DUP2 PUSH2 0x1360 JUMP JUMPDEST DUP2 EQ PUSH2 0x1552 JUMPI PUSH0 PUSH0 REVERT JUMPDEST POP JUMP JUMPDEST PUSH0 DUP2 CALLDATALOAD SWAP1 POP PUSH2 0x1563 DUP2 PUSH2 0x153F JUMP JUMPDEST SWAP3 SWAP2 POP POP JUMP JUMPDEST PUSH0 PUSH1 0x20 DUP3 DUP5 SUB SLT ISZERO PUSH2 0x157E JUMPI PUSH2 0x157D PUSH2 0x12A3 JUMP JUMPDEST JUMPDEST PUSH0 PUSH2 0x158B DUP5 DUP3 DUP6 ADD PUSH2 0x1555 JUMP JUMPDEST SWAP2 POP POP SWAP3 SWAP2 POP POP JUMP JUMPDEST PUSH0 DUP2 MLOAD SWAP1 POP SWAP2 SWAP1 POP JUMP JUMPDEST PUSH0 DUP3 DUP3 MSTORE PUSH1 0x20 DUP3 ADD SWAP1 POP SWAP3 SWAP2 POP POP JUMP JUMPDEST PUSH0 DUP2 SWAP1 POP PUSH1 0x20 DUP3 ADD SWAP1 POP SWAP2 SWAP1 POP JUMP JUMPDEST PUSH0 PUSH2 0x15C8 DUP4 DUP4 PUSH2 0x1380 JUMP JUMPDEST PUSH1 0x20 DUP4 ADD SWAP1 POP SWAP3 SWAP2 POP POP JUMP JUMPDEST PUSH0 PUSH1 0x20 DUP3 ADD SWAP1 POP SWAP2 SWAP1 POP JUMP JUMPDEST PUSH0 PUSH2 0x15EA DUP3 PUSH2 0x1594 JUMP JUMPDEST PUSH2 0x15F4 DUP2 DUP6 PUSH2 0x159E JUMP JUMPDEST SWAP4 POP PUSH2 0x15FF DUP4 PUSH2 0x15AE JUMP JUMPDEST DUP1 PUSH0 JUMPDEST DUP4 DUP2 LT ISZERO PUSH2 0x162F JUMPI DUP2 MLOAD PUSH2 0x1616 DUP9 DUP3 PUSH2 0x15BD JUMP JUMPDEST SWAP8 POP PUSH2 0x1621 DUP4 PUSH2 0x15D4 JUMP JUMPDEST SWAP3 POP POP PUSH1 0x1 DUP2 ADD SWAP1 POP PUSH2 0x1602 JUMP JUMPDEST POP DUP6 SWAP4 POP POP POP POP SWAP3 SWAP2 POP POP JUMP JUMPDEST PUSH0 PUSH1 0x20 DUP3 ADD SWAP1 POP DUP2 DUP2 SUB PUSH0 DUP4 ADD MSTORE PUSH2 0x1654 DUP2 DUP5 PUSH2 0x15E0 JUMP JUMPDEST SWAP1 POP SWAP3 SWAP2 POP POP JUMP JUMPDEST PUSH0 PUSH1 0x80 DUP3 ADD SWAP1 POP PUSH2 0x166F PUSH0 DUP4 ADD DUP8 PUSH2 0x1517 JUMP JUMPDEST PUSH2 0x167C PUSH1 0x20 DUP4 ADD DUP7 PUSH2 0x1517 JUMP JUMPDEST PUSH2 0x1689 PUSH1 0x40 DUP4 ADD DUP6 PUSH2 0x1517 JUMP JUMPDEST PUSH2 0x1696 PUSH1 0x60 DUP4 ADD DUP5 PUSH2 0x1517 JUMP JUMPDEST SWAP6 SWAP5 POP POP POP POP POP JUMP JUMPDEST PUSH2 0x16A8 DUP2 PUSH2 0x1360 JUMP JUMPDEST DUP3 MSTORE POP POP JUMP JUMPDEST PUSH0 PUSH1 0x20 DUP3 ADD SWAP1 POP PUSH2 0x16C1 PUSH0 DUP4 ADD DUP5 PUSH2 0x169F JUMP JUMPDEST SWAP3 SWAP2 POP POP JUMP JUMPDEST PUSH0 PUSH1 0x20 DUP3 DUP5 SUB SLT ISZERO PUSH2 0x16DC JUMPI PUSH2 0x16DB PUSH2 0x12A3 JUMP JUMPDEST JUMPDEST PUSH0 PUSH2 0x16E9 DUP5 DUP3 DUP6 ADD PUSH2 0x12C6 JUMP JUMPDEST SWAP2 POP POP SWAP3 SWAP2 POP POP JUMP JUMPDEST PUSH2 0x16FB DUP2 PUSH2 0x138F JUMP JUMPDEST DUP3 MSTORE POP POP JUMP JUMPDEST PUSH2 0x170A DUP2 PUSH2 0x13AA JUMP JUMPDEST DUP3 MSTORE POP POP JUMP JUMPDEST PUSH0 PUSH2 0x120 DUP3 ADD SWAP1 POP PUSH2 0x1724 PUSH0 DUP4 ADD DUP13 PUSH2 0x169F JUMP JUMPDEST PUSH2 0x1731 PUSH1 0x20 DUP4 ADD DUP12 PUSH2 0x169F JUMP JUMPDEST PUSH2 0x173E PUSH1 0x40 DUP4 ADD DUP11 PUSH2 0x1517 JUMP JUMPDEST PUSH2 0x174B PUSH1 0x60 DUP4 ADD DUP10 PUSH2 0x1517 JUMP JUMPDEST PUSH2 0x1758 PUSH1 0x80 DUP4 ADD DUP9 PUSH2 0x1517 JUMP JUMPDEST PUSH2 0x1765 PUSH1 0xA0 DUP4 ADD DUP8 PUSH2 0x16F2 JUMP JUMPDEST PUSH2 0x1772 PUSH1 0xC0 DUP4 ADD DUP7 PUSH2 0x1517 JUMP JUMPDEST PUSH2 0x177F PUSH1 0xE0 DUP4 ADD DUP6 PUSH2 0x1517 JUMP JUMPDEST PUSH2 0x178D PUSH2 0x100 DUP4 ADD DUP5 PUSH2 0x1701 JUMP JUMPDEST SWAP11 SWAP10 POP POP POP POP POP POP POP POP POP POP JUMP JUMPDEST PUSH2 0x120 DUP3 ADD PUSH0 DUP3 ADD MLOAD PUSH2 0x17B0 PUSH0 DUP6 ADD DUP3 PUSH2 0x1371 JUMP JUMPDEST POP PUSH1 0x20 DUP3 ADD MLOAD PUSH2 0x17C3 PUSH1 0x20 DUP6 ADD DUP3 PUSH2 0x1371 JUMP JUMPDEST POP PUSH1 0x40 DUP3 ADD MLOAD PUSH2 0x17D6 PUSH1 0x40 DUP6 ADD DUP3 PUSH2 0x1380 JUMP JUMPDEST POP PUSH1 0x60 DUP3 ADD MLOAD PUSH2 0x17E9 PUSH1 0x60 DUP6 ADD DUP3 PUSH2 0x1380 JUMP JUMPDEST POP PUSH1 0x80 DUP3 ADD MLOAD PUSH2 0x17FC PUSH1 0x80 DUP6 ADD DUP3 PUSH2 0x1380 JUMP JUMPDEST POP PUSH1 0xA0 DUP3 ADD MLOAD PUSH2 0x180F PUSH1 0xA0 DUP6 ADD DUP3 PUSH2 0x139B JUMP JUMPDEST POP PUSH1 0xC0 DUP3 ADD MLOAD PUSH2 0x1822 PUSH1 0xC0 DUP6 ADD DUP3 PUSH2 0x1380 JUMP JUMPDEST POP PUSH1 0xE0 DUP3 ADD MLOAD PUSH2 0x1835 PUSH1 0xE0 DUP6 ADD DUP3 PUSH2 0x1380 JUMP JUMPDEST POP PUSH2 0x100 DUP3 ADD MLOAD PUSH2 0x184A PUSH2 0x100 DUP6 ADD DUP3 PUSH2 0x13B3 JUMP JUMPDEST POP POP POP POP JUMP JUMPDEST PUSH0 PUSH2 0x120 DUP3 ADD SWAP1 POP PUSH2 0x1864 PUSH0 DUP4 ADD DUP5 PUSH2 0x179B JUMP JUMPDEST SWAP3 SWAP2 POP POP JUMP JUMPDEST PUSH2 0x1873 DUP2 PUSH2 0x138F JUMP JUMPDEST DUP2 EQ PUSH2 0x187D JUMPI PUSH0 PUSH0 REVERT JUMPDEST POP JUMP JUMPDEST PUSH0 DUP2 CALLDATALOAD SWAP1 POP PUSH2 0x188E DUP2 PUSH2 0x186A JUMP JUMPDEST SWAP3 SWAP2 POP POP JUMP JUMPDEST PUSH2 0x189D DUP2 PUSH2 0x13AA JUMP JUMPDEST DUP2 EQ PUSH2 0x18A7 JUMPI PUSH0 PUSH0 REVERT JUMPDEST POP JUMP JUMPDEST PUSH0 DUP2 CALLDATALOAD SWAP1 POP PUSH2 0x18B8 DUP2 PUSH2 0x1894 JUMP JUMPDEST SWAP3 SWAP2 POP POP JUMP JUMPDEST PUSH0 PUSH0 PUSH0 PUSH0 PUSH0 PUSH0 PUSH0 PUSH0 PUSH2 0x100 DUP10 DUP12 SUB SLT ISZERO PUSH2 0x18DB JUMPI PUSH2 0x18DA PUSH2 0x12A3 JUMP JUMPDEST JUMPDEST PUSH0 PUSH2 0x18E8 DUP12 DUP3 DUP13 ADD PUSH2 0x1555 JUMP JUMPDEST SWAP9 POP POP PUSH1 0x20 PUSH2 0x18F9 DUP12 DUP3 DUP13 ADD PUSH2 0x1555 JUMP JUMPDEST SWAP8 POP POP PUSH1 0x40 PUSH2 0x190A DUP12 DUP3 DUP13 ADD PUSH2 0x12C6 JUMP JUMPDEST SWAP7 POP POP PUSH1 0x60 PUSH2 0x191B DUP12 DUP3 DUP13 ADD PUSH2 0x12C6 JUMP JUMPDEST SWAP6 POP POP PUSH1 0x80 PUSH2 0x192C DUP12 DUP3 DUP13 ADD PUSH2 0x12C6 JUMP JUMPDEST SWAP5 POP POP PUSH1 0xA0 PUSH2 0x193D DUP12 DUP3 DUP13 ADD PUSH2 0x1880 JUMP JUMPDEST SWAP4 POP POP PUSH1 0xC0 PUSH2 0x194E DUP12 DUP3 DUP13 ADD PUSH2 0x12C6 JUMP JUMPDEST SWAP3 POP POP PUSH1 0xE0 PUSH2 0x195F DUP12 DUP3 DUP13 ADD PUSH2 0x18AA JUMP JUMPDEST SWAP2 POP POP SWAP3 SWAP6 SWAP9 POP SWAP3 SWAP6 SWAP9 SWAP1 SWAP4 SWAP7 POP JUMP JUMPDEST PUSH0 PUSH1 0x20 DUP3 ADD SWAP1 POP PUSH2 0x1982 PUSH0 DUP4 ADD DUP5 PUSH2 0x16F2 JUMP JUMPDEST SWAP3 SWAP2 POP POP JUMP JUMPDEST PUSH32 0x4E487B7100000000000000000000000000000000000000000000000000000000 PUSH0 MSTORE PUSH1 0x41 PUSH1 0x4 MSTORE PUSH1 0x24 PUSH0 REVERT JUMPDEST PUSH32 0x4E487B7100000000000000000000000000000000000000000000000000000000 PUSH0 MSTORE PUSH1 0x11 PUSH1 0x4 MSTORE PUSH1 0x24 PUSH0 REVERT JUMPDEST PUSH0 PUSH2 0x19EC DUP3 PUSH2 0x12A7 JUMP JUMPDEST SWAP2 POP PUSH2 0x19F7 DUP4 PUSH2 0x12A7 JUMP JUMPDEST SWAP3 POP DUP3 DUP3 ADD SWAP1 POP DUP1 DUP3 GT ISZERO PUSH2 0x1A0F JUMPI PUSH2 0x1A0E PUSH2 0x19B5 JUMP JUMPDEST JUMPDEST SWAP3 SWAP2 POP POP JUMP JUMPDEST PUSH0 PUSH2 0x1A1F DUP3 PUSH2 0x12A7 JUMP JUMPDEST SWAP2 POP PUSH2 0x1A2A DUP4 PUSH2 0x12A7 JUMP JUMPDEST SWAP3 POP DUP3 DUP3 SUB SWAP1 POP DUP2 DUP2 GT ISZERO PUSH2 0x1A42 JUMPI PUSH2 0x1A41 PUSH2 0x19B5 JUMP JUMPDEST JUMPDEST SWAP3 SWAP2 POP POP JUMP JUMPDEST PUSH32 0x4E487B7100000000000000000000000000000000000000000000000000000000 PUSH0 MSTORE PUSH1 0x32 PUSH1 0x4 MSTORE PUSH1 0x24 PUSH0 REVERT JUMPDEST PUSH0 PUSH2 0x1A7F DUP3 PUSH2 0x12A7 JUMP JUMPDEST SWAP2 POP PUSH32 0xFFFFFFFFFFFFFFFFFFFFFFFFFFFFFFFFFFFFFFFFFFFFFFFFFFFFFFFFFFFFFFFF DUP3 SUB PUSH2 0x1AB1 JUMPI PUSH2 0x1AB0 PUSH2 0x19B5 JUMP JUMPDEST JUMPDEST PUSH1 0x1 DUP3 ADD SWAP1 POP SWAP2 SWAP1 POP JUMP JUMPDEST PUSH0 PUSH1 0x80 DUP3 ADD SWAP1 POP PUSH2 0x1ACF PUSH0 DUP4 ADD DUP8 PUSH2 0x1517 JUMP JUMPDEST PUSH2 0x1ADC PUSH1 0x20 DUP4 ADD DUP7 PUSH2 0x1517 JUMP JUMPDEST PUSH2 0x1AE9 PUSH1 0x40 DUP4 ADD DUP6 PUSH2 0x16F2 JUMP JUMPDEST PUSH2 0x1AF6 PUSH1 0x60 DUP4 ADD DUP5 PUSH2 0x1701 JUMP JUMPDEST SWAP6 SWAP5 POP POP POP POP POP JUMP INVALID LOG2 PUSH5 0x6970667358 0x22 SLT KECCAK256 0xD2 EQ EXP 0xB0 GAS SWAP2 0xC1 SWAP7 0x4E DUP14 EXTCALL 0xAA RETURNDATASIZE 0xCA 0xD6 0xEB BLOCKHASH EXTSTATICCALL 0xBA NUMBER PUSH14 0x83037CD5557F3B6B869E3764736F PUSH13 0x634300081F0033000000000000 "
				},
				"gasEstimates": {
					"creation": {
						"codeDepositCost": "1393000",
						"executionCost": "25714",
						"totalCost": "1418714"
					},
					"external": {
						"CURRENCY_INR()": "397",
						"CURRENCY_USD()": "440",
						"getGlobalStats()": "infinite",
						"getLiquidation(uint256)": "infinite",
						"getLiquidationsByBorrower(address)": "infinite",
						"getLiquidationsPaginated(uint256,uint256)": "infinite",
						"getTotalRecords()": "2485",
						"liquidationCount(address)": "2847",
						"liquidations(uint256)": "infinite",
						"logLiquidation(address,address,uint256,uint256,uint256,uint8,uint256,bytes32)": "infinite",
						"loggerBot()": "2531",
						"owner()": "2619",
						"setLoggerBot(address)": "28168",
						"totalCollateralSeized()": "2514",
						"totalDebtRepaidINR()": "2448",
						"totalDebtRepaidUSD()": "2492",
						"totalLiquidationEvents()": "2492",
						"transferOwnership(address)": "30686"
					}
				},
				"methodIdentifiers": {
					"CURRENCY_INR()": "da35e1d1",
					"CURRENCY_USD()": "ff6321d9",
					"getGlobalStats()": "6b4169c3",
					"getLiquidation(uint256)": "c6a2ae8f",
					"getLiquidationsByBorrower(address)": "1143ef22",
					"getLiquidationsPaginated(uint256,uint256)": "0a993b33",
					"getTotalRecords()": "0aeacb5e",
					"liquidationCount(address)": "86b8da04",
					"liquidations(uint256)": "a66c84f4",
					"logLiquidation(address,address,uint256,uint256,uint256,uint8,uint256,bytes32)": "d497747b",
					"loggerBot()": "956cb698",
					"owner()": "8da5cb5b",
					"setLoggerBot(address)": "8bf2265b",
					"totalCollateralSeized()": "c28c4c44",
					"totalDebtRepaidINR()": "7c94b1ba",
					"totalDebtRepaidUSD()": "ba5a6a06",
					"totalLiquidationEvents()": "8831f724",
					"transferOwnership(address)": "f2fde38b"
				}
			},
			"storageLayout": {
				"storage": [
					{
						"astId": 32,
						"contract": "contracts/src/LiquidationArchive.sol:LiquidationArchive",
						"label": "liquidations",
						"offset": 0,
						"slot": "0",
						"type": "t_array(t_struct(LiquidationRecord)28_storage)dyn_storage"
					},
					{
						"astId": 34,
						"contract": "contracts/src/LiquidationArchive.sol:LiquidationArchive",
						"label": "totalDebtRepaidUSD",
						"offset": 0,
						"slot": "1",
						"type": "t_uint256"
					},
					{
						"astId": 36,
						"contract": "contracts/src/LiquidationArchive.sol:LiquidationArchive",
						"label": "totalDebtRepaidINR",
						"offset": 0,
						"slot": "2",
						"type": "t_uint256"
					},
					{
						"astId": 38,
						"contract": "contracts/src/LiquidationArchive.sol:LiquidationArchive",
						"label": "totalCollateralSeized",
						"offset": 0,
						"slot": "3",
						"type": "t_uint256"
					},
					{
						"astId": 40,
						"contract": "contracts/src/LiquidationArchive.sol:LiquidationArchive",
						"label": "totalLiquidationEvents",
						"offset": 0,
						"slot": "4",
						"type": "t_uint256"
					},
					{
						"astId": 44,
						"contract": "contracts/src/LiquidationArchive.sol:LiquidationArchive",
						"label": "liquidationCount",
						"offset": 0,
						"slot": "5",
						"type": "t_mapping(t_address,t_uint256)"
					},
					{
						"astId": 46,
						"contract": "contracts/src/LiquidationArchive.sol:LiquidationArchive",
						"label": "owner",
						"offset": 0,
						"slot": "6",
						"type": "t_address"
					},
					{
						"astId": 48,
						"contract": "contracts/src/LiquidationArchive.sol:LiquidationArchive",
						"label": "loggerBot",
						"offset": 0,
						"slot": "7",
						"type": "t_address"
					}
				],
				"types": {
					"t_address": {
						"encoding": "inplace",
						"label": "address",
						"numberOfBytes": "20"
					},
					"t_array(t_struct(LiquidationRecord)28_storage)dyn_storage": {
						"base": "t_struct(LiquidationRecord)28_storage",
						"encoding": "dynamic_array",
						"label": "struct LiquidationArchive.LiquidationRecord[]",
						"numberOfBytes": "32"
					},
					"t_bytes32": {
						"encoding": "inplace",
						"label": "bytes32",
						"numberOfBytes": "32"
					},
					"t_mapping(t_address,t_uint256)": {
						"encoding": "mapping",
						"key": "t_address",
						"label": "mapping(address => uint256)",
						"numberOfBytes": "32",
						"value": "t_uint256"
					},
					"t_struct(LiquidationRecord)28_storage": {
						"encoding": "inplace",
						"label": "struct LiquidationArchive.LiquidationRecord",
						"members": [
							{
								"astId": 11,
								"contract": "contracts/src/LiquidationArchive.sol:LiquidationArchive",
								"label": "borrower",
								"offset": 0,
								"slot": "0",
								"type": "t_address"
							},
							{
								"astId": 13,
								"contract": "contracts/src/LiquidationArchive.sol:LiquidationArchive",
								"label": "liquidator",
								"offset": 0,
								"slot": "1",
								"type": "t_address"
							},
							{
								"astId": 15,
								"contract": "contracts/src/LiquidationArchive.sol:LiquidationArchive",
								"label": "debtRepaid",
								"offset": 0,
								"slot": "2",
								"type": "t_uint256"
							},
							{
								"astId": 17,
								"contract": "contracts/src/LiquidationArchive.sol:LiquidationArchive",
								"label": "collateralSeized",
								"offset": 0,
								"slot": "3",
								"type": "t_uint256"
							},
							{
								"astId": 19,
								"contract": "contracts/src/LiquidationArchive.sol:LiquidationArchive",
								"label": "bonusSeized",
								"offset": 0,
								"slot": "4",
								"type": "t_uint256"
							},
							{
								"astId": 21,
								"contract": "contracts/src/LiquidationArchive.sol:LiquidationArchive",
								"label": "currency",
								"offset": 0,
								"slot": "5",
								"type": "t_uint8"
							},
							{
								"astId": 23,
								"contract": "contracts/src/LiquidationArchive.sol:LiquidationArchive",
								"label": "timestamp",
								"offset": 0,
								"slot": "6",
								"type": "t_uint256"
							},
							{
								"astId": 25,
								"contract": "contracts/src/LiquidationArchive.sol:LiquidationArchive",
								"label": "bscBlockNumber",
								"offset": 0,
								"slot": "7",
								"type": "t_uint256"
							},
							{
								"astId": 27,
								"contract": "contracts/src/LiquidationArchive.sol:LiquidationArchive",
								"label": "bscTxHash",
								"offset": 0,
								"slot": "8",
								"type": "t_bytes32"
							}
						],
						"numberOfBytes": "288"
					},
					"t_uint256": {
						"encoding": "inplace",
						"label": "uint256",
						"numberOfBytes": "32"
					},
					"t_uint8": {
						"encoding": "inplace",
						"label": "uint8",
						"numberOfBytes": "1"
					}
				}
			},
			"userdoc": {
				"kind": "user",
				"methods": {
					"CURRENCY_USD()": {
						"notice": "Mirrors PriceConsumer.Currency without importing the contract."
					},
					"getGlobalStats()": {
						"notice": "Protocol-wide stats — feeds the dashboard UI."
					},
					"getLiquidation(uint256)": {
						"notice": "Get a single record by ID."
					},
					"getLiquidationsByBorrower(address)": {
						"notice": "All record IDs where `borrower` was the target."
					},
					"getLiquidationsPaginated(uint256,uint256)": {
						"notice": "Paginated history for the UI (lazy-load the table)."
					},
					"logLiquidation(address,address,uint256,uint256,uint256,uint8,uint256,bytes32)": {
						"notice": "Record a completed BSC liquidation.         Called by the FastAPI bot after the BSC tx is confirmed."
					},
					"setLoggerBot(address)": {
						"notice": "Authorise the FastAPI bot wallet to log liquidations."
					}
				},
				"notice": "Permanent, low-cost liquidation ledger deployed on opBNB Testnet.         After every successful BSC liquidation, the FastAPI bot sends a         logLiquidation() transaction here.  opBNB fees are near-zero, so         every event is permanently and cheaply archived.         Each record now includes the debt currency (USD=0 / INR=1) so the         dashboard can display amounts with the correct symbol and format.",
				"version": 1
			}
		}
	}
}