{
	"contracts/src/PriceConsumer.sol": {
		"PriceConsumer": {
			"abi": [
				{
					"inputs": [
						{
							"internalType": "uint256",
							"name": "initialUSDPrice",
							"type": "uint256"
						},
						{
							"internalType": "uint256",
							"name": "initialINRPrice",
							"type": "uint256"
						}
					],
					"stateMutability": "nonpayable",
					"type": "constructor"
				},
				{
					"inputs": [],
					"name": "InvalidPrice",
					"type": "error"
				},
				{
					"inputs": [
						{
							"internalType": "uint256",
							"name": "lastUpdated",
							"type": "uint256"
						},
						{
							"internalType": "uint256",
							"name": "maxAge",
							"type": "uint256"
						}
					],
					"name": "StalePrice",
					"type": "error"
				},
				{
					"inputs": [],
					"name": "Unauthorized",
					"type": "error"
				},
				{
					"anonymous": false,
					"inputs": [
						{
							"indexed": true,
							"internalType": "address",
							"name": "previousOwner",
							"type": "address"
						},
						{
							"indexed": true,
							"internalType": "address",
							"name": "newOwner",
							"type": "address"
						}
					],
					"name": "OwnershipTransferred",
					"type": "event"
				},
				{
					"anonymous": false,
					"inputs": [
						{
							"indexed": true,
							"internalType": "enum PriceConsumer.Currency",
							"name": "currency",
							"type": "uint8"
						},
						{
							"indexed": false,
							"internalType": "uint256",
							"name": "oldPrice",
							"type": "uint256"
						},
						{
							"indexed": false,
							"internalType": "uint256",
							"name": "newPrice",
							"type": "uint256"
						},
						{
							"indexed": false,
							"internalType": "uint256",
							"name": "timestamp",
							"type": "uint256"
						}
					],
					"name": "PriceUpdated",
					"type": "event"
				},
				{
					"inputs": [],
					"name": "DECIMALS",
					"outputs": [
						{
							"internalType": "uint8",
							"name": "",
							"type": "uint8"
						}
					],
					"stateMutability": "view",
					"type": "function"
				},
				{
					"inputs": [],
					"name": "decimals",
					"outputs": [
						{
							"internalType": "uint8",
							"name": "",
							"type": "uint8"
						}
					],
					"stateMutability": "pure",
					"type": "function"
				},
				{
					"inputs": [],
					"name": "getBothPrices",
					"outputs": [
						{
							"internalType": "uint256",
							"name": "usdPrice",
							"type": "uint256"
						},
						{
							"internalType": "uint256",
							"name": "inrPrice",
							"type": "uint256"
						}
					],
					"stateMutability": "view",
					"type": "function"
				},
				{
					"inputs": [
						{
							"internalType": "enum PriceConsumer.Currency",
							"name": "currency",
							"type": "uint8"
						}
					],
					"name": "getLatestPrice",
					"outputs": [
						{
							"internalType": "uint256",
							"name": "",
							"type": "uint256"
						}
					],
					"stateMutability": "view",
					"type": "function"
				},
				{
					"inputs": [
						{
							"internalType": "enum PriceConsumer.Currency",
							"name": "currency",
							"type": "uint8"
						},
						{
							"internalType": "uint256",
							"name": "maxAge",
							"type": "uint256"
						}
					],
					"name": "getLatestPrice",
					"outputs": [
						{
							"internalType": "uint256",
							"name": "",
							"type": "uint256"
						}
					],
					"stateMutability": "view",
					"type": "function"
				},
				{
					"inputs": [
						{
							"internalType": "uint8",
							"name": "",
							"type": "uint8"
						}
					],
					"name": "lastUpdatedAt",
					"outputs": [
						{
							"internalType": "uint256",
							"name": "",
							"type": "uint256"
						}
					],
					"stateMutability": "view",
					"type": "function"
				},
				{
					"inputs": [],
					"name": "owner",
					"outputs": [
						{
							"internalType": "address",
							"name": "",
							"type": "address"
						}
					],
					"stateMutability": "view",
					"type": "function"
				},
				{
					"inputs": [
						{
							"internalType": "address",
							"name": "newOwner",
							"type": "address"
						}
					],
					"name": "transferOwnership",
					"outputs": [],
					"stateMutability": "nonpayable",
					"type": "function"
				},
				{
					"inputs": [
						{
							"internalType": "uint256",
							"name": "newUSDPrice",
							"type": "uint256"
						},
						{
							"internalType": "uint256",
							"name": "newINRPrice",
							"type": "uint256"
						}
					],
					"name": "updateBothPrices",
					"outputs": [],
					"stateMutability": "nonpayable",
					"type": "function"
				},
				{
					"inputs": [
						{
							"internalType": "enum PriceConsumer.Currency",
							"name": "currency",
							"type": "uint8"
						},
						{
							"internalType": "uint256",
							"name": "newPrice",
							"type": "uint256"
						}
					],
					"name": "updatePrice",
					"outputs": [],
					"stateMutability": "nonpayable",
					"type": "function"
				}
			],
			"devdoc": {
				"kind": "dev",
				"methods": {
					"constructor": {
						"params": {
							"initialINRPrice": "e.g. 2_500_000_000_000  for Rs25000  (8 decimals)",
							"initialUSDPrice": "e.g. 30_000_000_000  for $300.00  (8 decimals)"
						}
					},
					"getBothPrices()": {
						"returns": {
							"inrPrice": " BNB/INR with 8 decimals.",
							"usdPrice": " BNB/USD with 8 decimals."
						}
					},
					"getLatestPrice(uint8,uint256)": {
						"params": {
							"currency": "Currency.USD or Currency.INR.",
							"maxAge": "Max seconds since last update; 0 = skip check."
						}
					}
				},
				"title": "PriceConsumer",
				"version": 1
			},
			"evm": {
				"assembly": "    /* \"contracts/src/PriceConsumer.sol\":635:6886  contract PriceConsumer {... */\n  mstore(0x40, 0x80)\n    /* \"contracts/src/PriceConsumer.sol\":2852:3422  constructor(uint256 initialUSDPrice, uint256 initialINRPrice) {... */\n  callvalue\n  dup1\n  iszero\n  tag_1\n  jumpi\n  revert(0x00, 0x00)\ntag_1:\n  pop\n  mload(0x40)\n  sub(codesize, bytecodeSize)\n  dup1\n  bytecodeSize\n  dup4\n  codecopy\n  dup2\n  dup2\n  add\n  0x40\n  mstore\n  dup2\n  add\n  swap1\n  tag_2\n  swap2\n  swap1\n  tag_3\n  jump\t// in\ntag_2:\n    /* \"contracts/src/PriceConsumer.sol\":2947:2948  0 */\n  0x00\n    /* \"contracts/src/PriceConsumer.sol\":2928:2943  initialUSDPrice */\n  dup3\n    /* \"contracts/src/PriceConsumer.sol\":2928:2948  initialUSDPrice == 0 */\n  eq\n    /* \"contracts/src/PriceConsumer.sol\":2928:2972  initialUSDPrice == 0 || initialINRPrice == 0 */\n  dup1\n  tag_6\n  jumpi\n  pop\n    /* \"contracts/src/PriceConsumer.sol\":2971:2972  0 */\n  0x00\n    /* \"contracts/src/PriceConsumer.sol\":2952:2967  initialINRPrice */\n  dup2\n    /* \"contracts/src/PriceConsumer.sol\":2952:2972  initialINRPrice == 0 */\n  eq\n    /* \"contracts/src/PriceConsumer.sol\":2928:2972  initialUSDPrice == 0 || initialINRPrice == 0 */\ntag_6:\n    /* \"contracts/src/PriceConsumer.sol\":2924:2995  if (initialUSDPrice == 0 || initialINRPrice == 0) revert InvalidPrice() */\n  iszero\n  tag_7\n  jumpi\n    /* \"contracts/src/PriceConsumer.sol\":2981:2995  InvalidPrice() */\n  mload(0x40)\n  0xbfc92100000000000000000000000000000000000000000000000000000000\n  dup2\n  mstore\n  0x04\n  add\n  mload(0x40)\n  dup1\n  swap2\n  sub\n  swap1\n  revert\n    /* \"contracts/src/PriceConsumer.sol\":2924:2995  if (initialUSDPrice == 0 || initialINRPrice == 0) revert InvalidPrice() */\ntag_7:\n    /* \"contracts/src/PriceConsumer.sol\":3013:3023  msg.sender */\n  caller\n    /* \"contracts/src/PriceConsumer.sol\":3005:3010  owner */\n  0x02\n  0x00\n    /* \"contracts/src/PriceConsumer.sol\":3005:3023  owner = msg.sender */\n  0x0100\n  exp\n  dup2\n  sload\n  dup2\n  0xffffffffffffffffffffffffffffffffffffffff\n  mul\n  not\n  and\n  swap1\n  dup4\n  0xffffffffffffffffffffffffffffffffffffffff\n  and\n  mul\n  or\n  swap1\n  sstore\n  pop\n    /* \"contracts/src/PriceConsumer.sol\":3064:3079  initialUSDPrice */\n  dup2\n    /* \"contracts/src/PriceConsumer.sol\":3033:3040  _prices */\n  0x00\n    /* \"contracts/src/PriceConsumer.sol\":3033:3061  _prices[uint8(Currency.USD)] */\n  0x00\n    /* \"contracts/src/PriceConsumer.sol\":3047:3059  Currency.USD */\n  0x00\n    /* \"contracts/src/PriceConsumer.sol\":3041:3060  uint8(Currency.USD) */\n  0x01\n  dup2\n  gt\n  iszero\n  tag_8\n  jumpi\n  tag_9\n  tag_10\n  jump\t// in\ntag_9:\ntag_8:\n    /* \"contracts/src/PriceConsumer.sol\":3033:3061  _prices[uint8(Currency.USD)] */\n  0xff\n  and\n  0xff\n  and\n  dup2\n  mstore\n  0x20\n  add\n  swap1\n  dup2\n  mstore\n  0x20\n  add\n  0x00\n  keccak256\n    /* \"contracts/src/PriceConsumer.sol\":3033:3079  _prices[uint8(Currency.USD)] = initialUSDPrice */\n  dup2\n  swap1\n  sstore\n  pop\n    /* \"contracts/src/PriceConsumer.sol\":3120:3135  initialINRPrice */\n  dup1\n    /* \"contracts/src/PriceConsumer.sol\":3089:3096  _prices */\n  0x00\n    /* \"contracts/src/PriceConsumer.sol\":3089:3117  _prices[uint8(Currency.INR)] */\n  0x00\n    /* \"contracts/src/PriceConsumer.sol\":3103:3115  Currency.INR */\n  0x01\n    /* \"contracts/src/PriceConsumer.sol\":3097:3116  uint8(Currency.INR) */\n  dup1\n  dup2\n  gt\n  iszero\n  tag_11\n  jumpi\n  tag_12\n  tag_10\n  jump\t// in\ntag_12:\ntag_11:\n    /* \"contracts/src/PriceConsumer.sol\":3089:3117  _prices[uint8(Currency.INR)] */\n  0xff\n  and\n  0xff\n  and\n  dup2\n  mstore\n  0x20\n  add\n  swap1\n  dup2\n  mstore\n  0x20\n  add\n  0x00\n  keccak256\n    /* \"contracts/src/PriceConsumer.sol\":3089:3135  _prices[uint8(Currency.INR)] = initialINRPrice */\n  dup2\n  swap1\n  sstore\n  pop\n    /* \"contracts/src/PriceConsumer.sol\":3182:3197  block.timestamp */\n  timestamp\n    /* \"contracts/src/PriceConsumer.sol\":3145:3158  lastUpdatedAt */\n  0x01\n    /* \"contracts/src/PriceConsumer.sol\":3145:3179  lastUpdatedAt[uint8(Currency.USD)] */\n  0x00\n    /* \"contracts/src/PriceConsumer.sol\":3165:3177  Currency.USD */\n  0x00\n    /* \"contracts/src/PriceConsumer.sol\":3159:3178  uint8(Currency.USD) */\n  0x01\n  dup2\n  gt\n  iszero\n  tag_13\n  jumpi\n  tag_14\n  tag_10\n  jump\t// in\ntag_14:\ntag_13:\n    /* \"contracts/src/PriceConsumer.sol\":3145:3179  lastUpdatedAt[uint8(Currency.USD)] */\n  0xff\n  and\n  0xff\n  and\n  dup2\n  mstore\n  0x20\n  add\n  swap1\n  dup2\n  mstore\n  0x20\n  add\n  0x00\n  keccak256\n    /* \"contracts/src/PriceConsumer.sol\":3145:3197  lastUpdatedAt[uint8(Currency.USD)] = block.timestamp */\n  dup2\n  swap1\n  sstore\n  pop\n    /* \"contracts/src/PriceConsumer.sol\":3244:3259  block.timestamp */\n  timestamp\n    /* \"contracts/src/PriceConsumer.sol\":3207:3220  lastUpdatedAt */\n  0x01\n    /* \"contracts/src/PriceConsumer.sol\":3207:3241  lastUpdatedAt[uint8(Currency.INR)] */\n  0x00\n    /* \"contracts/src/PriceConsumer.sol\":3227:3239  Currency.INR */\n  0x01\n    /* \"contracts/src/PriceConsumer.sol\":3221:3240  uint8(Currency.INR) */\n  dup1\n  dup2\n  gt\n  iszero\n  tag_15\n  jumpi\n  tag_16\n  tag_10\n  jump\t// in\ntag_16:\ntag_15:\n    /* \"contracts/src/PriceConsumer.sol\":3207:3241  lastUpdatedAt[uint8(Currency.INR)] */\n  0xff\n  and\n  0xff\n  and\n  dup2\n  mstore\n  0x20\n  add\n  swap1\n  dup2\n  mstore\n  0x20\n  add\n  0x00\n  keccak256\n    /* \"contracts/src/PriceConsumer.sol\":3207:3259  lastUpdatedAt[uint8(Currency.INR)] = block.timestamp */\n  dup2\n  swap1\n  sstore\n  pop\n    /* \"contracts/src/PriceConsumer.sol\":3287:3299  Currency.USD */\n  0x00\n    /* \"contracts/src/PriceConsumer.sol\":3274:3337  PriceUpdated(Currency.USD, 0, initialUSDPrice, block.timestamp) */\n  0x01\n  dup2\n  gt\n  iszero\n  tag_17\n  jumpi\n  tag_18\n  tag_10\n  jump\t// in\ntag_18:\ntag_17:\n  0x705ab289d78e384114da84e104229e63ef52843c7e62d569e275d63cc3e338ec\n    /* \"contracts/src/PriceConsumer.sol\":3301:3302  0 */\n  0x00\n    /* \"contracts/src/PriceConsumer.sol\":3304:3319  initialUSDPrice */\n  dup5\n    /* \"contracts/src/PriceConsumer.sol\":3321:3336  block.timestamp */\n  timestamp\n    /* \"contracts/src/PriceConsumer.sol\":3274:3337  PriceUpdated(Currency.USD, 0, initialUSDPrice, block.timestamp) */\n  mload(0x40)\n  tag_19\n  swap4\n  swap3\n  swap2\n  swap1\n  tag_20\n  jump\t// in\ntag_19:\n  mload(0x40)\n  dup1\n  swap2\n  sub\n  swap1\n  log2\n    /* \"contracts/src/PriceConsumer.sol\":3365:3377  Currency.INR */\n  0x01\n    /* \"contracts/src/PriceConsumer.sol\":3352:3415  PriceUpdated(Currency.INR, 0, initialINRPrice, block.timestamp) */\n  dup1\n  dup2\n  gt\n  iszero\n  tag_21\n  jumpi\n  tag_22\n  tag_10\n  jump\t// in\ntag_22:\ntag_21:\n  0x705ab289d78e384114da84e104229e63ef52843c7e62d569e275d63cc3e338ec\n    /* \"contracts/src/PriceConsumer.sol\":3379:3380  0 */\n  0x00\n    /* \"contracts/src/PriceConsumer.sol\":3382:3397  initialINRPrice */\n  dup4\n    /* \"contracts/src/PriceConsumer.sol\":3399:3414  block.timestamp */\n  timestamp\n    /* \"contracts/src/PriceConsumer.sol\":3352:3415  PriceUpdated(Currency.INR, 0, initialINRPrice, block.timestamp) */\n  mload(0x40)\n  tag_23\n  swap4\n  swap3\n  swap2\n  swap1\n  tag_20\n  jump\t// in\ntag_23:\n  mload(0x40)\n  dup1\n  swap2\n  sub\n  swap1\n  log2\n    /* \"contracts/src/PriceConsumer.sol\":2852:3422  constructor(uint256 initialUSDPrice, uint256 initialINRPrice) {... */\n  pop\n  pop\n    /* \"contracts/src/PriceConsumer.sol\":635:6886  contract PriceConsumer {... */\n  jump(tag_24)\n    /* \"#utility.yul\":88:205   */\ntag_26:\n    /* \"#utility.yul\":197:198   */\n  0x00\n    /* \"#utility.yul\":194:195   */\n  0x00\n    /* \"#utility.yul\":187:199   */\n  revert\n    /* \"#utility.yul\":334:411   */\ntag_28:\n    /* \"#utility.yul\":371:378   */\n  0x00\n    /* \"#utility.yul\":400:405   */\n  dup2\n    /* \"#utility.yul\":389:405   */\n  swap1\n  pop\n    /* \"#utility.yul\":334:411   */\n  swap2\n  swap1\n  pop\n  jump\t// out\n    /* \"#utility.yul\":417:539   */\ntag_29:\n    /* \"#utility.yul\":490:514   */\n  tag_42\n    /* \"#utility.yul\":508:513   */\n  dup2\n    /* \"#utility.yul\":490:514   */\n  tag_28\n  jump\t// in\ntag_42:\n    /* \"#utility.yul\":483:488   */\n  dup2\n    /* \"#utility.yul\":480:515   */\n  eq\n    /* \"#utility.yul\":470:533   */\n  tag_43\n  jumpi\n    /* \"#utility.yul\":529:530   */\n  0x00\n    /* \"#utility.yul\":526:527   */\n  0x00\n    /* \"#utility.yul\":519:531   */\n  revert\n    /* \"#utility.yul\":470:533   */\ntag_43:\n    /* \"#utility.yul\":417:539   */\n  pop\n  jump\t// out\n    /* \"#utility.yul\":545:688   */\ntag_30:\n    /* \"#utility.yul\":602:607   */\n  0x00\n    /* \"#utility.yul\":633:639   */\n  dup2\n    /* \"#utility.yul\":627:640   */\n  mload\n    /* \"#utility.yul\":618:640   */\n  swap1\n  pop\n    /* \"#utility.yul\":649:682   */\n  tag_45\n    /* \"#utility.yul\":676:681   */\n  dup2\n    /* \"#utility.yul\":649:682   */\n  tag_29\n  jump\t// in\ntag_45:\n    /* \"#utility.yul\":545:688   */\n  swap3\n  swap2\n  pop\n  pop\n  jump\t// out\n    /* \"#utility.yul\":694:1201   */\ntag_3:\n    /* \"#utility.yul\":773:779   */\n  0x00\n    /* \"#utility.yul\":781:787   */\n  0x00\n    /* \"#utility.yul\":830:832   */\n  0x40\n    /* \"#utility.yul\":818:827   */\n  dup4\n    /* \"#utility.yul\":809:816   */\n  dup6\n    /* \"#utility.yul\":805:828   */\n  sub\n    /* \"#utility.yul\":801:833   */\n  slt\n    /* \"#utility.yul\":798:917   */\n  iszero\n  tag_47\n  jumpi\n    /* \"#utility.yul\":836:915   */\n  tag_48\n  tag_26\n  jump\t// in\ntag_48:\n    /* \"#utility.yul\":798:917   */\ntag_47:\n    /* \"#utility.yul\":956:957   */\n  0x00\n    /* \"#utility.yul\":981:1045   */\n  tag_49\n    /* \"#utility.yul\":1037:1044   */\n  dup6\n    /* \"#utility.yul\":1028:1034   */\n  dup3\n    /* \"#utility.yul\":1017:1026   */\n  dup7\n    /* \"#utility.yul\":1013:1035   */\n  add\n    /* \"#utility.yul\":981:1045   */\n  tag_30\n  jump\t// in\ntag_49:\n    /* \"#utility.yul\":971:1045   */\n  swap3\n  pop\n    /* \"#utility.yul\":927:1055   */\n  pop\n    /* \"#utility.yul\":1094:1096   */\n  0x20\n    /* \"#utility.yul\":1120:1184   */\n  tag_50\n    /* \"#utility.yul\":1176:1183   */\n  dup6\n    /* \"#utility.yul\":1167:1173   */\n  dup3\n    /* \"#utility.yul\":1156:1165   */\n  dup7\n    /* \"#utility.yul\":1152:1174   */\n  add\n    /* \"#utility.yul\":1120:1184   */\n  tag_30\n  jump\t// in\ntag_50:\n    /* \"#utility.yul\":1110:1184   */\n  swap2\n  pop\n    /* \"#utility.yul\":1065:1194   */\n  pop\n    /* \"#utility.yul\":694:1201   */\n  swap3\n  pop\n  swap3\n  swap1\n  pop\n  jump\t// out\n    /* \"#utility.yul\":1207:1387   */\ntag_10:\n    /* \"#utility.yul\":1255:1332   */\n  0x4e487b7100000000000000000000000000000000000000000000000000000000\n    /* \"#utility.yul\":1252:1253   */\n  0x00\n    /* \"#utility.yul\":1245:1333   */\n  mstore\n    /* \"#utility.yul\":1352:1356   */\n  0x21\n    /* \"#utility.yul\":1349:1350   */\n  0x04\n    /* \"#utility.yul\":1342:1357   */\n  mstore\n    /* \"#utility.yul\":1376:1380   */\n  0x24\n    /* \"#utility.yul\":1373:1374   */\n  0x00\n    /* \"#utility.yul\":1366:1381   */\n  revert\n    /* \"#utility.yul\":1393:1478   */\ntag_31:\n    /* \"#utility.yul\":1438:1445   */\n  0x00\n    /* \"#utility.yul\":1467:1472   */\n  dup2\n    /* \"#utility.yul\":1456:1472   */\n  swap1\n  pop\n    /* \"#utility.yul\":1393:1478   */\n  swap2\n  swap1\n  pop\n  jump\t// out\n    /* \"#utility.yul\":1484:1544   */\ntag_32:\n    /* \"#utility.yul\":1512:1515   */\n  0x00\n    /* \"#utility.yul\":1533:1538   */\n  dup2\n    /* \"#utility.yul\":1526:1538   */\n  swap1\n  pop\n    /* \"#utility.yul\":1484:1544   */\n  swap2\n  swap1\n  pop\n  jump\t// out\n    /* \"#utility.yul\":1550:1708   */\ntag_33:\n    /* \"#utility.yul\":1608:1617   */\n  0x00\n    /* \"#utility.yul\":1641:1702   */\n  tag_55\n    /* \"#utility.yul\":1659:1701   */\n  tag_56\n    /* \"#utility.yul\":1668:1700   */\n  tag_57\n    /* \"#utility.yul\":1694:1699   */\n  dup5\n    /* \"#utility.yul\":1668:1700   */\n  tag_31\n  jump\t// in\ntag_57:\n    /* \"#utility.yul\":1659:1701   */\n  tag_32\n  jump\t// in\ntag_56:\n    /* \"#utility.yul\":1641:1702   */\n  tag_28\n  jump\t// in\ntag_55:\n    /* \"#utility.yul\":1628:1702   */\n  swap1\n  pop\n    /* \"#utility.yul\":1550:1708   */\n  swap2\n  swap1\n  pop\n  jump\t// out\n    /* \"#utility.yul\":1714:1861   */\ntag_34:\n    /* \"#utility.yul\":1809:1854   */\n  tag_59\n    /* \"#utility.yul\":1848:1853   */\n  dup2\n    /* \"#utility.yul\":1809:1854   */\n  tag_33\n  jump\t// in\ntag_59:\n    /* \"#utility.yul\":1804:1807   */\n  dup3\n    /* \"#utility.yul\":1797:1855   */\n  mstore\n    /* \"#utility.yul\":1714:1861   */\n  pop\n  pop\n  jump\t// out\n    /* \"#utility.yul\":1867:1985   */\ntag_35:\n    /* \"#utility.yul\":1954:1978   */\n  tag_61\n    /* \"#utility.yul\":1972:1977   */\n  dup2\n    /* \"#utility.yul\":1954:1978   */\n  tag_28\n  jump\t// in\ntag_61:\n    /* \"#utility.yul\":1949:1952   */\n  dup3\n    /* \"#utility.yul\":1942:1979   */\n  mstore\n    /* \"#utility.yul\":1867:1985   */\n  pop\n  pop\n  jump\t// out\n    /* \"#utility.yul\":1991:2449   */\ntag_20:\n    /* \"#utility.yul\":2148:2152   */\n  0x00\n    /* \"#utility.yul\":2186:2188   */\n  0x60\n    /* \"#utility.yul\":2175:2184   */\n  dup3\n    /* \"#utility.yul\":2171:2189   */\n  add\n    /* \"#utility.yul\":2163:2189   */\n  swap1\n  pop\n    /* \"#utility.yul\":2199:2278   */\n  tag_63\n    /* \"#utility.yul\":2275:2276   */\n  0x00\n    /* \"#utility.yul\":2264:2273   */\n  dup4\n    /* \"#utility.yul\":2260:2277   */\n  add\n    /* \"#utility.yul\":2251:2257   */\n  dup7\n    /* \"#utility.yul\":2199:2278   */\n  tag_34\n  jump\t// in\ntag_63:\n    /* \"#utility.yul\":2288:2360   */\n  tag_64\n    /* \"#utility.yul\":2356:2358   */\n  0x20\n    /* \"#utility.yul\":2345:2354   */\n  dup4\n    /* \"#utility.yul\":2341:2359   */\n  add\n    /* \"#utility.yul\":2332:2338   */\n  dup6\n    /* \"#utility.yul\":2288:2360   */\n  tag_35\n  jump\t// in\ntag_64:\n    /* \"#utility.yul\":2370:2442   */\n  tag_65\n    /* \"#utility.yul\":2438:2440   */\n  0x40\n    /* \"#utility.yul\":2427:2436   */\n  dup4\n    /* \"#utility.yul\":2423:2441   */\n  add\n    /* \"#utility.yul\":2414:2420   */\n  dup5\n    /* \"#utility.yul\":2370:2442   */\n  tag_35\n  jump\t// in\ntag_65:\n    /* \"#utility.yul\":1991:2449   */\n  swap5\n  swap4\n  pop\n  pop\n  pop\n  pop\n  jump\t// out\n    /* \"contracts/src/PriceConsumer.sol\":635:6886  contract PriceConsumer {... */\ntag_24:\n  dataSize(sub_0)\n  dup1\n  dataOffset(sub_0)\n  0x00\n  codecopy\n  0x00\n  return\nstop\n\nsub_0: assembly {\n        /* \"contracts/src/PriceConsumer.sol\":635:6886  contract PriceConsumer {... */\n      mstore(0x40, 0x80)\n      callvalue\n      dup1\n      iszero\n      tag_1\n      jumpi\n      revert(0x00, 0x00)\n    tag_1:\n      pop\n      jumpi(tag_2, lt(calldatasize, 0x04))\n      shr(0xe0, calldataload(0x00))\n      dup1\n      0x8da5cb5b\n      gt\n      tag_13\n      jumpi\n      dup1\n      0x8da5cb5b\n      eq\n      tag_8\n      jumpi\n      dup1\n      0xa62b3d3e\n      eq\n      tag_9\n      jumpi\n      dup1\n      0xb601068b\n      eq\n      tag_10\n      jumpi\n      dup1\n      0xe4c4e9be\n      eq\n      tag_11\n      jumpi\n      dup1\n      0xf2fde38b\n      eq\n      tag_12\n      jumpi\n      jump(tag_2)\n    tag_13:\n      dup1\n      0x7fa4f0\n      eq\n      tag_3\n      jumpi\n      dup1\n      0x0c20a01f\n      eq\n      tag_4\n      jumpi\n      dup1\n      0x2e0f2625\n      eq\n      tag_5\n      jumpi\n      dup1\n      0x313ce567\n      eq\n      tag_6\n      jumpi\n      dup1\n      0x42e18514\n      eq\n      tag_7\n      jumpi\n    tag_2:\n      revert(0x00, 0x00)\n        /* \"contracts/src/PriceConsumer.sol\":5340:5703  function updatePrice(Currency currency, uint256 newPrice) external onlyOwner {... */\n    tag_3:\n      tag_14\n      0x04\n      dup1\n      calldatasize\n      sub\n      dup2\n      add\n      swap1\n      tag_15\n      swap2\n      swap1\n      tag_16\n      jump\t// in\n    tag_15:\n      tag_17\n      jump\t// in\n    tag_14:\n      stop\n        /* \"contracts/src/PriceConsumer.sol\":4569:4692  function getLatestPrice(Currency currency) external view returns (uint256) {... */\n    tag_4:\n      tag_18\n      0x04\n      dup1\n      calldatasize\n      sub\n      dup2\n      add\n      swap1\n      tag_19\n      swap2\n      swap1\n      tag_20\n      jump\t// in\n    tag_19:\n      tag_21\n      jump\t// in\n    tag_18:\n      mload(0x40)\n      tag_22\n      swap2\n      swap1\n      tag_23\n      jump\t// in\n    tag_22:\n      mload(0x40)\n      dup1\n      swap2\n      sub\n      swap1\n      return\n        /* \"contracts/src/PriceConsumer.sol\":1178:1212  uint8 public constant DECIMALS = 8 */\n    tag_5:\n      tag_24\n      tag_25\n      jump\t// in\n    tag_24:\n      mload(0x40)\n      tag_26\n      swap2\n      swap1\n      tag_27\n      jump\t// in\n    tag_26:\n      mload(0x40)\n      dup1\n      swap2\n      sub\n      swap1\n      return\n        /* \"contracts/src/PriceConsumer.sol\":6802:6884  function decimals() external pure returns (uint8) {... */\n    tag_6:\n      tag_28\n      tag_29\n      jump\t// in\n    tag_28:\n      mload(0x40)\n      tag_30\n      swap2\n      swap1\n      tag_27\n      jump\t// in\n    tag_30:\n      mload(0x40)\n      dup1\n      swap2\n      sub\n      swap1\n      return\n        /* \"contracts/src/PriceConsumer.sol\":4178:4502  function getLatestPrice(Currency currency, uint256 maxAge)... */\n    tag_7:\n      tag_31\n      0x04\n      dup1\n      calldatasize\n      sub\n      dup2\n      add\n      swap1\n      tag_32\n      swap2\n      swap1\n      tag_16\n      jump\t// in\n    tag_32:\n      tag_33\n      jump\t// in\n    tag_31:\n      mload(0x40)\n      tag_34\n      swap2\n      swap1\n      tag_23\n      jump\t// in\n    tag_34:\n      mload(0x40)\n      dup1\n      swap2\n      sub\n      swap1\n      return\n        /* \"contracts/src/PriceConsumer.sol\":1678:1698  address public owner */\n    tag_8:\n      tag_35\n      tag_36\n      jump\t// in\n    tag_35:\n      mload(0x40)\n      tag_37\n      swap2\n      swap1\n      tag_38\n      jump\t// in\n    tag_37:\n      mload(0x40)\n      dup1\n      swap2\n      sub\n      swap1\n      return\n        /* \"contracts/src/PriceConsumer.sol\":5885:6582  function updateBothPrices(... */\n    tag_9:\n      tag_39\n      0x04\n      dup1\n      calldatasize\n      sub\n      dup2\n      add\n      swap1\n      tag_40\n      swap2\n      swap1\n      tag_41\n      jump\t// in\n    tag_40:\n      tag_42\n      jump\t// in\n    tag_39:\n      stop\n        /* \"contracts/src/PriceConsumer.sol\":4899:5116  function getBothPrices()... */\n    tag_10:\n      tag_43\n      tag_44\n      jump\t// in\n    tag_43:\n      mload(0x40)\n      tag_45\n      swap3\n      swap2\n      swap1\n      tag_46\n      jump\t// in\n    tag_45:\n      mload(0x40)\n      dup1\n      swap2\n      sub\n      swap1\n      return\n        /* \"contracts/src/PriceConsumer.sol\":1625:1671  mapping(uint8 => uint256) public lastUpdatedAt */\n    tag_11:\n      tag_47\n      0x04\n      dup1\n      calldatasize\n      sub\n      dup2\n      add\n      swap1\n      tag_48\n      swap2\n      swap1\n      tag_49\n      jump\t// in\n    tag_48:\n      tag_50\n      jump\t// in\n    tag_47:\n      mload(0x40)\n      tag_51\n      swap2\n      swap1\n      tag_23\n      jump\t// in\n    tag_51:\n      mload(0x40)\n      dup1\n      swap2\n      sub\n      swap1\n      return\n        /* \"contracts/src/PriceConsumer.sol\":6588:6796  function transferOwnership(address newOwner) external onlyOwner {... */\n    tag_12:\n      tag_52\n      0x04\n      dup1\n      calldatasize\n      sub\n      dup2\n      add\n      swap1\n      tag_53\n      swap2\n      swap1\n      tag_54\n      jump\t// in\n    tag_53:\n      tag_55\n      jump\t// in\n    tag_52:\n      stop\n        /* \"contracts/src/PriceConsumer.sol\":5340:5703  function updatePrice(Currency currency, uint256 newPrice) external onlyOwner {... */\n    tag_17:\n        /* \"contracts/src/PriceConsumer.sol\":3683:3688  owner */\n      0x02\n      0x00\n      swap1\n      sload\n      swap1\n      0x0100\n      exp\n      swap1\n      div\n      0xffffffffffffffffffffffffffffffffffffffff\n      and\n        /* \"contracts/src/PriceConsumer.sol\":3669:3688  msg.sender != owner */\n      0xffffffffffffffffffffffffffffffffffffffff\n      and\n        /* \"contracts/src/PriceConsumer.sol\":3669:3679  msg.sender */\n      caller\n        /* \"contracts/src/PriceConsumer.sol\":3669:3688  msg.sender != owner */\n      0xffffffffffffffffffffffffffffffffffffffff\n      and\n      eq\n        /* \"contracts/src/PriceConsumer.sol\":3665:3711  if (msg.sender != owner) revert Unauthorized() */\n      tag_57\n      jumpi\n        /* \"contracts/src/PriceConsumer.sol\":3697:3711  Unauthorized() */\n      mload(0x40)\n      0x82b4290000000000000000000000000000000000000000000000000000000000\n      dup2\n      mstore\n      0x04\n      add\n      mload(0x40)\n      dup1\n      swap2\n      sub\n      swap1\n      revert\n        /* \"contracts/src/PriceConsumer.sol\":3665:3711  if (msg.sender != owner) revert Unauthorized() */\n    tag_57:\n        /* \"contracts/src/PriceConsumer.sol\":5443:5444  0 */\n      0x00\n        /* \"contracts/src/PriceConsumer.sol\":5431:5439  newPrice */\n      dup2\n        /* \"contracts/src/PriceConsumer.sol\":5431:5444  newPrice == 0 */\n      sub\n        /* \"contracts/src/PriceConsumer.sol\":5427:5467  if (newPrice == 0) revert InvalidPrice() */\n      tag_59\n      jumpi\n        /* \"contracts/src/PriceConsumer.sol\":5453:5467  InvalidPrice() */\n      mload(0x40)\n      0xbfc92100000000000000000000000000000000000000000000000000000000\n      dup2\n      mstore\n      0x04\n      add\n      mload(0x40)\n      dup1\n      swap2\n      sub\n      swap1\n      revert\n        /* \"contracts/src/PriceConsumer.sol\":5427:5467  if (newPrice == 0) revert InvalidPrice() */\n    tag_59:\n        /* \"contracts/src/PriceConsumer.sol\":5477:5488  uint8   key */\n      0x00\n        /* \"contracts/src/PriceConsumer.sol\":5497:5505  currency */\n      dup3\n        /* \"contracts/src/PriceConsumer.sol\":5491:5506  uint8(currency) */\n      0x01\n      dup2\n      gt\n      iszero\n      tag_60\n      jumpi\n      tag_61\n      tag_62\n      jump\t// in\n    tag_61:\n    tag_60:\n        /* \"contracts/src/PriceConsumer.sol\":5477:5506  uint8   key = uint8(currency) */\n      swap1\n      pop\n        /* \"contracts/src/PriceConsumer.sol\":5516:5527  uint256 old */\n      0x00\n        /* \"contracts/src/PriceConsumer.sol\":5530:5537  _prices */\n      0x00\n        /* \"contracts/src/PriceConsumer.sol\":5530:5542  _prices[key] */\n      0x00\n        /* \"contracts/src/PriceConsumer.sol\":5538:5541  key */\n      dup4\n        /* \"contracts/src/PriceConsumer.sol\":5530:5542  _prices[key] */\n      0xff\n      and\n      0xff\n      and\n      dup2\n      mstore\n      0x20\n      add\n      swap1\n      dup2\n      mstore\n      0x20\n      add\n      0x00\n      keccak256\n      sload\n        /* \"contracts/src/PriceConsumer.sol\":5516:5542  uint256 old = _prices[key] */\n      swap1\n      pop\n        /* \"contracts/src/PriceConsumer.sol\":5573:5581  newPrice */\n      dup3\n        /* \"contracts/src/PriceConsumer.sol\":5552:5559  _prices */\n      0x00\n        /* \"contracts/src/PriceConsumer.sol\":5552:5564  _prices[key] */\n      0x00\n        /* \"contracts/src/PriceConsumer.sol\":5560:5563  key */\n      dup5\n        /* \"contracts/src/PriceConsumer.sol\":5552:5564  _prices[key] */\n      0xff\n      and\n      0xff\n      and\n      dup2\n      mstore\n      0x20\n      add\n      swap1\n      dup2\n      mstore\n      0x20\n      add\n      0x00\n      keccak256\n        /* \"contracts/src/PriceConsumer.sol\":5552:5581  _prices[key]       = newPrice */\n      dup2\n      swap1\n      sstore\n      pop\n        /* \"contracts/src/PriceConsumer.sol\":5612:5627  block.timestamp */\n      timestamp\n        /* \"contracts/src/PriceConsumer.sol\":5591:5604  lastUpdatedAt */\n      0x01\n        /* \"contracts/src/PriceConsumer.sol\":5591:5609  lastUpdatedAt[key] */\n      0x00\n        /* \"contracts/src/PriceConsumer.sol\":5605:5608  key */\n      dup5\n        /* \"contracts/src/PriceConsumer.sol\":5591:5609  lastUpdatedAt[key] */\n      0xff\n      and\n      0xff\n      and\n      dup2\n      mstore\n      0x20\n      add\n      swap1\n      dup2\n      mstore\n      0x20\n      add\n      0x00\n      keccak256\n        /* \"contracts/src/PriceConsumer.sol\":5591:5627  lastUpdatedAt[key] = block.timestamp */\n      dup2\n      swap1\n      sstore\n      pop\n        /* \"contracts/src/PriceConsumer.sol\":5655:5663  currency */\n      dup4\n        /* \"contracts/src/PriceConsumer.sol\":5642:5696  PriceUpdated(currency, old, newPrice, block.timestamp) */\n      0x01\n      dup2\n      gt\n      iszero\n      tag_63\n      jumpi\n      tag_64\n      tag_62\n      jump\t// in\n    tag_64:\n    tag_63:\n      0x705ab289d78e384114da84e104229e63ef52843c7e62d569e275d63cc3e338ec\n        /* \"contracts/src/PriceConsumer.sol\":5665:5668  old */\n      dup3\n        /* \"contracts/src/PriceConsumer.sol\":5670:5678  newPrice */\n      dup6\n        /* \"contracts/src/PriceConsumer.sol\":5680:5695  block.timestamp */\n      timestamp\n        /* \"contracts/src/PriceConsumer.sol\":5642:5696  PriceUpdated(currency, old, newPrice, block.timestamp) */\n      mload(0x40)\n      tag_65\n      swap4\n      swap3\n      swap2\n      swap1\n      tag_66\n      jump\t// in\n    tag_65:\n      mload(0x40)\n      dup1\n      swap2\n      sub\n      swap1\n      log2\n        /* \"contracts/src/PriceConsumer.sol\":5417:5703  {... */\n      pop\n      pop\n        /* \"contracts/src/PriceConsumer.sol\":5340:5703  function updatePrice(Currency currency, uint256 newPrice) external onlyOwner {... */\n      pop\n      pop\n      jump\t// out\n        /* \"contracts/src/PriceConsumer.sol\":4569:4692  function getLatestPrice(Currency currency) external view returns (uint256) {... */\n    tag_21:\n        /* \"contracts/src/PriceConsumer.sol\":4635:4642  uint256 */\n      0x00\n        /* \"contracts/src/PriceConsumer.sol\":4661:4668  _prices */\n      0x00\n        /* \"contracts/src/PriceConsumer.sol\":4661:4685  _prices[uint8(currency)] */\n      0x00\n        /* \"contracts/src/PriceConsumer.sol\":4675:4683  currency */\n      dup4\n        /* \"contracts/src/PriceConsumer.sol\":4669:4684  uint8(currency) */\n      0x01\n      dup2\n      gt\n      iszero\n      tag_68\n      jumpi\n      tag_69\n      tag_62\n      jump\t// in\n    tag_69:\n    tag_68:\n        /* \"contracts/src/PriceConsumer.sol\":4661:4685  _prices[uint8(currency)] */\n      0xff\n      and\n      0xff\n      and\n      dup2\n      mstore\n      0x20\n      add\n      swap1\n      dup2\n      mstore\n      0x20\n      add\n      0x00\n      keccak256\n      sload\n        /* \"contracts/src/PriceConsumer.sol\":4654:4685  return _prices[uint8(currency)] */\n      swap1\n      pop\n        /* \"contracts/src/PriceConsumer.sol\":4569:4692  function getLatestPrice(Currency currency) external view returns (uint256) {... */\n      swap2\n      swap1\n      pop\n      jump\t// out\n        /* \"contracts/src/PriceConsumer.sol\":1178:1212  uint8 public constant DECIMALS = 8 */\n    tag_25:\n        /* \"contracts/src/PriceConsumer.sol\":1211:1212  8 */\n      0x08\n        /* \"contracts/src/PriceConsumer.sol\":1178:1212  uint8 public constant DECIMALS = 8 */\n      dup2\n      jump\t// out\n        /* \"contracts/src/PriceConsumer.sol\":6802:6884  function decimals() external pure returns (uint8) {... */\n    tag_29:\n        /* \"contracts/src/PriceConsumer.sol\":6845:6850  uint8 */\n      0x00\n        /* \"contracts/src/PriceConsumer.sol\":1211:1212  8 */\n      0x08\n        /* \"contracts/src/PriceConsumer.sol\":6862:6877  return DECIMALS */\n      swap1\n      pop\n        /* \"contracts/src/PriceConsumer.sol\":6802:6884  function decimals() external pure returns (uint8) {... */\n      swap1\n      jump\t// out\n        /* \"contracts/src/PriceConsumer.sol\":4178:4502  function getLatestPrice(Currency currency, uint256 maxAge)... */\n    tag_33:\n        /* \"contracts/src/PriceConsumer.sol\":4284:4291  uint256 */\n      0x00\n        /* \"contracts/src/PriceConsumer.sol\":4307:4316  uint8 key */\n      0x00\n        /* \"contracts/src/PriceConsumer.sol\":4325:4333  currency */\n      dup4\n        /* \"contracts/src/PriceConsumer.sol\":4319:4334  uint8(currency) */\n      0x01\n      dup2\n      gt\n      iszero\n      tag_72\n      jumpi\n      tag_73\n      tag_62\n      jump\t// in\n    tag_73:\n    tag_72:\n        /* \"contracts/src/PriceConsumer.sol\":4307:4334  uint8 key = uint8(currency) */\n      swap1\n      pop\n        /* \"contracts/src/PriceConsumer.sol\":4357:4358  0 */\n      0x00\n        /* \"contracts/src/PriceConsumer.sol\":4348:4354  maxAge */\n      dup4\n        /* \"contracts/src/PriceConsumer.sol\":4348:4358  maxAge > 0 */\n      gt\n        /* \"contracts/src/PriceConsumer.sol\":4348:4407  maxAge > 0 && block.timestamp - lastUpdatedAt[key] > maxAge */\n      dup1\n      iszero\n      tag_74\n      jumpi\n      pop\n        /* \"contracts/src/PriceConsumer.sol\":4401:4407  maxAge */\n      dup3\n        /* \"contracts/src/PriceConsumer.sol\":4380:4393  lastUpdatedAt */\n      0x01\n        /* \"contracts/src/PriceConsumer.sol\":4380:4398  lastUpdatedAt[key] */\n      0x00\n        /* \"contracts/src/PriceConsumer.sol\":4394:4397  key */\n      dup4\n        /* \"contracts/src/PriceConsumer.sol\":4380:4398  lastUpdatedAt[key] */\n      0xff\n      and\n      0xff\n      and\n      dup2\n      mstore\n      0x20\n      add\n      swap1\n      dup2\n      mstore\n      0x20\n      add\n      0x00\n      keccak256\n      sload\n        /* \"contracts/src/PriceConsumer.sol\":4362:4377  block.timestamp */\n      timestamp\n        /* \"contracts/src/PriceConsumer.sol\":4362:4398  block.timestamp - lastUpdatedAt[key] */\n      tag_75\n      swap2\n      swap1\n      tag_76\n      jump\t// in\n    tag_75:\n        /* \"contracts/src/PriceConsumer.sol\":4362:4407  block.timestamp - lastUpdatedAt[key] > maxAge */\n      gt\n        /* \"contracts/src/PriceConsumer.sol\":4348:4407  maxAge > 0 && block.timestamp - lastUpdatedAt[key] > maxAge */\n    tag_74:\n        /* \"contracts/src/PriceConsumer.sol\":4344:4466  if (maxAge > 0 && block.timestamp - lastUpdatedAt[key] > maxAge)... */\n      iszero\n      tag_77\n      jumpi\n        /* \"contracts/src/PriceConsumer.sol\":4439:4452  lastUpdatedAt */\n      0x01\n        /* \"contracts/src/PriceConsumer.sol\":4439:4457  lastUpdatedAt[key] */\n      0x00\n        /* \"contracts/src/PriceConsumer.sol\":4453:4456  key */\n      dup3\n        /* \"contracts/src/PriceConsumer.sol\":4439:4457  lastUpdatedAt[key] */\n      0xff\n      and\n      0xff\n      and\n      dup2\n      mstore\n      0x20\n      add\n      swap1\n      dup2\n      mstore\n      0x20\n      add\n      0x00\n      keccak256\n      sload\n        /* \"contracts/src/PriceConsumer.sol\":4459:4465  maxAge */\n      dup4\n        /* \"contracts/src/PriceConsumer.sol\":4428:4466  StalePrice(lastUpdatedAt[key], maxAge) */\n      mload(0x40)\n      0x2730eb4800000000000000000000000000000000000000000000000000000000\n      dup2\n      mstore\n      0x04\n      add\n      tag_78\n      swap3\n      swap2\n      swap1\n      tag_46\n      jump\t// in\n    tag_78:\n      mload(0x40)\n      dup1\n      swap2\n      sub\n      swap1\n      revert\n        /* \"contracts/src/PriceConsumer.sol\":4344:4466  if (maxAge > 0 && block.timestamp - lastUpdatedAt[key] > maxAge)... */\n    tag_77:\n        /* \"contracts/src/PriceConsumer.sol\":4483:4490  _prices */\n      0x00\n        /* \"contracts/src/PriceConsumer.sol\":4483:4495  _prices[key] */\n      0x00\n        /* \"contracts/src/PriceConsumer.sol\":4491:4494  key */\n      dup3\n        /* \"contracts/src/PriceConsumer.sol\":4483:4495  _prices[key] */\n      0xff\n      and\n      0xff\n      and\n      dup2\n      mstore\n      0x20\n      add\n      swap1\n      dup2\n      mstore\n      0x20\n      add\n      0x00\n      keccak256\n      sload\n        /* \"contracts/src/PriceConsumer.sol\":4476:4495  return _prices[key] */\n      swap2\n      pop\n      pop\n        /* \"contracts/src/PriceConsumer.sol\":4178:4502  function getLatestPrice(Currency currency, uint256 maxAge)... */\n      swap3\n      swap2\n      pop\n      pop\n      jump\t// out\n        /* \"contracts/src/PriceConsumer.sol\":1678:1698  address public owner */\n    tag_36:\n      0x02\n      0x00\n      swap1\n      sload\n      swap1\n      0x0100\n      exp\n      swap1\n      div\n      0xffffffffffffffffffffffffffffffffffffffff\n      and\n      dup2\n      jump\t// out\n        /* \"contracts/src/PriceConsumer.sol\":5885:6582  function updateBothPrices(... */\n    tag_42:\n        /* \"contracts/src/PriceConsumer.sol\":3683:3688  owner */\n      0x02\n      0x00\n      swap1\n      sload\n      swap1\n      0x0100\n      exp\n      swap1\n      div\n      0xffffffffffffffffffffffffffffffffffffffff\n      and\n        /* \"contracts/src/PriceConsumer.sol\":3669:3688  msg.sender != owner */\n      0xffffffffffffffffffffffffffffffffffffffff\n      and\n        /* \"contracts/src/PriceConsumer.sol\":3669:3679  msg.sender */\n      caller\n        /* \"contracts/src/PriceConsumer.sol\":3669:3688  msg.sender != owner */\n      0xffffffffffffffffffffffffffffffffffffffff\n      and\n      eq\n        /* \"contracts/src/PriceConsumer.sol\":3665:3711  if (msg.sender != owner) revert Unauthorized() */\n      tag_80\n      jumpi\n        /* \"contracts/src/PriceConsumer.sol\":3697:3711  Unauthorized() */\n      mload(0x40)\n      0x82b4290000000000000000000000000000000000000000000000000000000000\n      dup2\n      mstore\n      0x04\n      add\n      mload(0x40)\n      dup1\n      swap2\n      sub\n      swap1\n      revert\n        /* \"contracts/src/PriceConsumer.sol\":3665:3711  if (msg.sender != owner) revert Unauthorized() */\n    tag_80:\n        /* \"contracts/src/PriceConsumer.sol\":6023:6024  0 */\n      0x00\n        /* \"contracts/src/PriceConsumer.sol\":6008:6019  newUSDPrice */\n      dup3\n        /* \"contracts/src/PriceConsumer.sol\":6008:6024  newUSDPrice == 0 */\n      eq\n        /* \"contracts/src/PriceConsumer.sol\":6008:6044  newUSDPrice == 0 || newINRPrice == 0 */\n      dup1\n      tag_82\n      jumpi\n      pop\n        /* \"contracts/src/PriceConsumer.sol\":6043:6044  0 */\n      0x00\n        /* \"contracts/src/PriceConsumer.sol\":6028:6039  newINRPrice */\n      dup2\n        /* \"contracts/src/PriceConsumer.sol\":6028:6044  newINRPrice == 0 */\n      eq\n        /* \"contracts/src/PriceConsumer.sol\":6008:6044  newUSDPrice == 0 || newINRPrice == 0 */\n    tag_82:\n        /* \"contracts/src/PriceConsumer.sol\":6004:6067  if (newUSDPrice == 0 || newINRPrice == 0) revert InvalidPrice() */\n      iszero\n      tag_83\n      jumpi\n        /* \"contracts/src/PriceConsumer.sol\":6053:6067  InvalidPrice() */\n      mload(0x40)\n      0xbfc92100000000000000000000000000000000000000000000000000000000\n      dup2\n      mstore\n      0x04\n      add\n      mload(0x40)\n      dup1\n      swap2\n      sub\n      swap1\n      revert\n        /* \"contracts/src/PriceConsumer.sol\":6004:6067  if (newUSDPrice == 0 || newINRPrice == 0) revert InvalidPrice() */\n    tag_83:\n        /* \"contracts/src/PriceConsumer.sol\":6077:6091  uint256 oldUSD */\n      0x00\n        /* \"contracts/src/PriceConsumer.sol\":6094:6101  _prices */\n      0x00\n        /* \"contracts/src/PriceConsumer.sol\":6094:6122  _prices[uint8(Currency.USD)] */\n      0x00\n        /* \"contracts/src/PriceConsumer.sol\":6108:6120  Currency.USD */\n      0x00\n        /* \"contracts/src/PriceConsumer.sol\":6102:6121  uint8(Currency.USD) */\n      0x01\n      dup2\n      gt\n      iszero\n      tag_84\n      jumpi\n      tag_85\n      tag_62\n      jump\t// in\n    tag_85:\n    tag_84:\n        /* \"contracts/src/PriceConsumer.sol\":6094:6122  _prices[uint8(Currency.USD)] */\n      0xff\n      and\n      0xff\n      and\n      dup2\n      mstore\n      0x20\n      add\n      swap1\n      dup2\n      mstore\n      0x20\n      add\n      0x00\n      keccak256\n      sload\n        /* \"contracts/src/PriceConsumer.sol\":6077:6122  uint256 oldUSD = _prices[uint8(Currency.USD)] */\n      swap1\n      pop\n        /* \"contracts/src/PriceConsumer.sol\":6132:6146  uint256 oldINR */\n      0x00\n        /* \"contracts/src/PriceConsumer.sol\":6149:6156  _prices */\n      0x00\n        /* \"contracts/src/PriceConsumer.sol\":6149:6177  _prices[uint8(Currency.INR)] */\n      0x00\n        /* \"contracts/src/PriceConsumer.sol\":6163:6175  Currency.INR */\n      0x01\n        /* \"contracts/src/PriceConsumer.sol\":6157:6176  uint8(Currency.INR) */\n      dup1\n      dup2\n      gt\n      iszero\n      tag_86\n      jumpi\n      tag_87\n      tag_62\n      jump\t// in\n    tag_87:\n    tag_86:\n        /* \"contracts/src/PriceConsumer.sol\":6149:6177  _prices[uint8(Currency.INR)] */\n      0xff\n      and\n      0xff\n      and\n      dup2\n      mstore\n      0x20\n      add\n      swap1\n      dup2\n      mstore\n      0x20\n      add\n      0x00\n      keccak256\n      sload\n        /* \"contracts/src/PriceConsumer.sol\":6132:6177  uint256 oldINR = _prices[uint8(Currency.INR)] */\n      swap1\n      pop\n        /* \"contracts/src/PriceConsumer.sol\":6224:6235  newUSDPrice */\n      dup4\n        /* \"contracts/src/PriceConsumer.sol\":6187:6194  _prices */\n      0x00\n        /* \"contracts/src/PriceConsumer.sol\":6187:6215  _prices[uint8(Currency.USD)] */\n      0x00\n        /* \"contracts/src/PriceConsumer.sol\":6201:6213  Currency.USD */\n      0x00\n        /* \"contracts/src/PriceConsumer.sol\":6195:6214  uint8(Currency.USD) */\n      0x01\n      dup2\n      gt\n      iszero\n      tag_88\n      jumpi\n      tag_89\n      tag_62\n      jump\t// in\n    tag_89:\n    tag_88:\n        /* \"contracts/src/PriceConsumer.sol\":6187:6215  _prices[uint8(Currency.USD)] */\n      0xff\n      and\n      0xff\n      and\n      dup2\n      mstore\n      0x20\n      add\n      swap1\n      dup2\n      mstore\n      0x20\n      add\n      0x00\n      keccak256\n        /* \"contracts/src/PriceConsumer.sol\":6187:6235  _prices[uint8(Currency.USD)]       = newUSDPrice */\n      dup2\n      swap1\n      sstore\n      pop\n        /* \"contracts/src/PriceConsumer.sol\":6282:6293  newINRPrice */\n      dup3\n        /* \"contracts/src/PriceConsumer.sol\":6245:6252  _prices */\n      0x00\n        /* \"contracts/src/PriceConsumer.sol\":6245:6273  _prices[uint8(Currency.INR)] */\n      0x00\n        /* \"contracts/src/PriceConsumer.sol\":6259:6271  Currency.INR */\n      0x01\n        /* \"contracts/src/PriceConsumer.sol\":6253:6272  uint8(Currency.INR) */\n      dup1\n      dup2\n      gt\n      iszero\n      tag_90\n      jumpi\n      tag_91\n      tag_62\n      jump\t// in\n    tag_91:\n    tag_90:\n        /* \"contracts/src/PriceConsumer.sol\":6245:6273  _prices[uint8(Currency.INR)] */\n      0xff\n      and\n      0xff\n      and\n      dup2\n      mstore\n      0x20\n      add\n      swap1\n      dup2\n      mstore\n      0x20\n      add\n      0x00\n      keccak256\n        /* \"contracts/src/PriceConsumer.sol\":6245:6293  _prices[uint8(Currency.INR)]       = newINRPrice */\n      dup2\n      swap1\n      sstore\n      pop\n        /* \"contracts/src/PriceConsumer.sol\":6340:6355  block.timestamp */\n      timestamp\n        /* \"contracts/src/PriceConsumer.sol\":6303:6316  lastUpdatedAt */\n      0x01\n        /* \"contracts/src/PriceConsumer.sol\":6303:6337  lastUpdatedAt[uint8(Currency.USD)] */\n      0x00\n        /* \"contracts/src/PriceConsumer.sol\":6323:6335  Currency.USD */\n      0x00\n        /* \"contracts/src/PriceConsumer.sol\":6317:6336  uint8(Currency.USD) */\n      0x01\n      dup2\n      gt\n      iszero\n      tag_92\n      jumpi\n      tag_93\n      tag_62\n      jump\t// in\n    tag_93:\n    tag_92:\n        /* \"contracts/src/PriceConsumer.sol\":6303:6337  lastUpdatedAt[uint8(Currency.USD)] */\n      0xff\n      and\n      0xff\n      and\n      dup2\n      mstore\n      0x20\n      add\n      swap1\n      dup2\n      mstore\n      0x20\n      add\n      0x00\n      keccak256\n        /* \"contracts/src/PriceConsumer.sol\":6303:6355  lastUpdatedAt[uint8(Currency.USD)] = block.timestamp */\n      dup2\n      swap1\n      sstore\n      pop\n        /* \"contracts/src/PriceConsumer.sol\":6402:6417  block.timestamp */\n      timestamp\n        /* \"contracts/src/PriceConsumer.sol\":6365:6378  lastUpdatedAt */\n      0x01\n        /* \"contracts/src/PriceConsumer.sol\":6365:6399  lastUpdatedAt[uint8(Currency.INR)] */\n      0x00\n        /* \"contracts/src/PriceConsumer.sol\":6385:6397  Currency.INR */\n      0x01\n        /* \"contracts/src/PriceConsumer.sol\":6379:6398  uint8(Currency.INR) */\n      dup1\n      dup2\n      gt\n      iszero\n      tag_94\n      jumpi\n      tag_95\n      tag_62\n      jump\t// in\n    tag_95:\n    tag_94:\n        /* \"contracts/src/PriceConsumer.sol\":6365:6399  lastUpdatedAt[uint8(Currency.INR)] */\n      0xff\n      and\n      0xff\n      and\n      dup2\n      mstore\n      0x20\n      add\n      swap1\n      dup2\n      mstore\n      0x20\n      add\n      0x00\n      keccak256\n        /* \"contracts/src/PriceConsumer.sol\":6365:6417  lastUpdatedAt[uint8(Currency.INR)] = block.timestamp */\n      dup2\n      swap1\n      sstore\n      pop\n        /* \"contracts/src/PriceConsumer.sol\":6445:6457  Currency.USD */\n      0x00\n        /* \"contracts/src/PriceConsumer.sol\":6432:6496  PriceUpdated(Currency.USD, oldUSD, newUSDPrice, block.timestamp) */\n      0x01\n      dup2\n      gt\n      iszero\n      tag_96\n      jumpi\n      tag_97\n      tag_62\n      jump\t// in\n    tag_97:\n    tag_96:\n      0x705ab289d78e384114da84e104229e63ef52843c7e62d569e275d63cc3e338ec\n        /* \"contracts/src/PriceConsumer.sol\":6459:6465  oldUSD */\n      dup4\n        /* \"contracts/src/PriceConsumer.sol\":6467:6478  newUSDPrice */\n      dup7\n        /* \"contracts/src/PriceConsumer.sol\":6480:6495  block.timestamp */\n      timestamp\n        /* \"contracts/src/PriceConsumer.sol\":6432:6496  PriceUpdated(Currency.USD, oldUSD, newUSDPrice, block.timestamp) */\n      mload(0x40)\n      tag_98\n      swap4\n      swap3\n      swap2\n      swap1\n      tag_66\n      jump\t// in\n    tag_98:\n      mload(0x40)\n      dup1\n      swap2\n      sub\n      swap1\n      log2\n        /* \"contracts/src/PriceConsumer.sol\":6524:6536  Currency.INR */\n      0x01\n        /* \"contracts/src/PriceConsumer.sol\":6511:6575  PriceUpdated(Currency.INR, oldINR, newINRPrice, block.timestamp) */\n      dup1\n      dup2\n      gt\n      iszero\n      tag_99\n      jumpi\n      tag_100\n      tag_62\n      jump\t// in\n    tag_100:\n    tag_99:\n      0x705ab289d78e384114da84e104229e63ef52843c7e62d569e275d63cc3e338ec\n        /* \"contracts/src/PriceConsumer.sol\":6538:6544  oldINR */\n      dup3\n        /* \"contracts/src/PriceConsumer.sol\":6546:6557  newINRPrice */\n      dup6\n        /* \"contracts/src/PriceConsumer.sol\":6559:6574  block.timestamp */\n      timestamp\n        /* \"contracts/src/PriceConsumer.sol\":6511:6575  PriceUpdated(Currency.INR, oldINR, newINRPrice, block.timestamp) */\n      mload(0x40)\n      tag_101\n      swap4\n      swap3\n      swap2\n      swap1\n      tag_66\n      jump\t// in\n    tag_101:\n      mload(0x40)\n      dup1\n      swap2\n      sub\n      swap1\n      log2\n        /* \"contracts/src/PriceConsumer.sol\":5994:6582  {... */\n      pop\n      pop\n        /* \"contracts/src/PriceConsumer.sol\":5885:6582  function updateBothPrices(... */\n      pop\n      pop\n      jump\t// out\n        /* \"contracts/src/PriceConsumer.sol\":4899:5116  function getBothPrices()... */\n    tag_44:\n        /* \"contracts/src/PriceConsumer.sol\":4971:4987  uint256 usdPrice */\n      0x00\n        /* \"contracts/src/PriceConsumer.sol\":4989:5005  uint256 inrPrice */\n      0x00\n        /* \"contracts/src/PriceConsumer.sol\":5032:5039  _prices */\n      0x00\n        /* \"contracts/src/PriceConsumer.sol\":5032:5060  _prices[uint8(Currency.USD)] */\n      0x00\n        /* \"contracts/src/PriceConsumer.sol\":5046:5058  Currency.USD */\n      0x00\n        /* \"contracts/src/PriceConsumer.sol\":5040:5059  uint8(Currency.USD) */\n      0x01\n      dup2\n      gt\n      iszero\n      tag_103\n      jumpi\n      tag_104\n      tag_62\n      jump\t// in\n    tag_104:\n    tag_103:\n        /* \"contracts/src/PriceConsumer.sol\":5032:5060  _prices[uint8(Currency.USD)] */\n      0xff\n      and\n      0xff\n      and\n      dup2\n      mstore\n      0x20\n      add\n      swap1\n      dup2\n      mstore\n      0x20\n      add\n      0x00\n      keccak256\n      sload\n        /* \"contracts/src/PriceConsumer.sol\":5021:5060  usdPrice = _prices[uint8(Currency.USD)] */\n      swap2\n      pop\n        /* \"contracts/src/PriceConsumer.sol\":5081:5088  _prices */\n      0x00\n        /* \"contracts/src/PriceConsumer.sol\":5081:5109  _prices[uint8(Currency.INR)] */\n      0x00\n        /* \"contracts/src/PriceConsumer.sol\":5095:5107  Currency.INR */\n      0x01\n        /* \"contracts/src/PriceConsumer.sol\":5089:5108  uint8(Currency.INR) */\n      dup1\n      dup2\n      gt\n      iszero\n      tag_105\n      jumpi\n      tag_106\n      tag_62\n      jump\t// in\n    tag_106:\n    tag_105:\n        /* \"contracts/src/PriceConsumer.sol\":5081:5109  _prices[uint8(Currency.INR)] */\n      0xff\n      and\n      0xff\n      and\n      dup2\n      mstore\n      0x20\n      add\n      swap1\n      dup2\n      mstore\n      0x20\n      add\n      0x00\n      keccak256\n      sload\n        /* \"contracts/src/PriceConsumer.sol\":5070:5109  inrPrice = _prices[uint8(Currency.INR)] */\n      swap1\n      pop\n        /* \"contracts/src/PriceConsumer.sol\":4899:5116  function getBothPrices()... */\n      swap1\n      swap2\n      jump\t// out\n        /* \"contracts/src/PriceConsumer.sol\":1625:1671  mapping(uint8 => uint256) public lastUpdatedAt */\n    tag_50:\n      mstore(0x20, 0x01)\n      dup1\n      0x00\n      mstore\n      keccak256(0x00, 0x40)\n      0x00\n      swap2\n      pop\n      swap1\n      pop\n      sload\n      dup2\n      jump\t// out\n        /* \"contracts/src/PriceConsumer.sol\":6588:6796  function transferOwnership(address newOwner) external onlyOwner {... */\n    tag_55:\n        /* \"contracts/src/PriceConsumer.sol\":3683:3688  owner */\n      0x02\n      0x00\n      swap1\n      sload\n      swap1\n      0x0100\n      exp\n      swap1\n      div\n      0xffffffffffffffffffffffffffffffffffffffff\n      and\n        /* \"contracts/src/PriceConsumer.sol\":3669:3688  msg.sender != owner */\n      0xffffffffffffffffffffffffffffffffffffffff\n      and\n        /* \"contracts/src/PriceConsumer.sol\":3669:3679  msg.sender */\n      caller\n        /* \"contracts/src/PriceConsumer.sol\":3669:3688  msg.sender != owner */\n      0xffffffffffffffffffffffffffffffffffffffff\n      and\n      eq\n        /* \"contracts/src/PriceConsumer.sol\":3665:3711  if (msg.sender != owner) revert Unauthorized() */\n      tag_108\n      jumpi\n        /* \"contracts/src/PriceConsumer.sol\":3697:3711  Unauthorized() */\n      mload(0x40)\n      0x82b4290000000000000000000000000000000000000000000000000000000000\n      dup2\n      mstore\n      0x04\n      add\n      mload(0x40)\n      dup1\n      swap2\n      sub\n      swap1\n      revert\n        /* \"contracts/src/PriceConsumer.sol\":3665:3711  if (msg.sender != owner) revert Unauthorized() */\n    tag_108:\n        /* \"contracts/src/PriceConsumer.sol\":6686:6687  0 */\n      0x00\n        /* \"contracts/src/PriceConsumer.sol\":6666:6688  newOwner == address(0) */\n      0xffffffffffffffffffffffffffffffffffffffff\n      and\n        /* \"contracts/src/PriceConsumer.sol\":6666:6674  newOwner */\n      dup2\n        /* \"contracts/src/PriceConsumer.sol\":6666:6688  newOwner == address(0) */\n      0xffffffffffffffffffffffffffffffffffffffff\n      and\n      sub\n        /* \"contracts/src/PriceConsumer.sol\":6662:6711  if (newOwner == address(0)) revert InvalidPrice() */\n      tag_110\n      jumpi\n        /* \"contracts/src/PriceConsumer.sol\":6697:6711  InvalidPrice() */\n      mload(0x40)\n      0xbfc92100000000000000000000000000000000000000000000000000000000\n      dup2\n      mstore\n      0x04\n      add\n      mload(0x40)\n      dup1\n      swap2\n      sub\n      swap1\n      revert\n        /* \"contracts/src/PriceConsumer.sol\":6662:6711  if (newOwner == address(0)) revert InvalidPrice() */\n    tag_110:\n        /* \"contracts/src/PriceConsumer.sol\":6754:6762  newOwner */\n      dup1\n        /* \"contracts/src/PriceConsumer.sol\":6726:6763  OwnershipTransferred(owner, newOwner) */\n      0xffffffffffffffffffffffffffffffffffffffff\n      and\n        /* \"contracts/src/PriceConsumer.sol\":6747:6752  owner */\n      0x02\n      0x00\n      swap1\n      sload\n      swap1\n      0x0100\n      exp\n      swap1\n      div\n      0xffffffffffffffffffffffffffffffffffffffff\n      and\n        /* \"contracts/src/PriceConsumer.sol\":6726:6763  OwnershipTransferred(owner, newOwner) */\n      0xffffffffffffffffffffffffffffffffffffffff\n      and\n      0x8be0079c531659141344cd1fd0a4f28419497f9722a3daafe3b4186f6b6457e0\n      mload(0x40)\n      mload(0x40)\n      dup1\n      swap2\n      sub\n      swap1\n      log3\n        /* \"contracts/src/PriceConsumer.sol\":6781:6789  newOwner */\n      dup1\n        /* \"contracts/src/PriceConsumer.sol\":6773:6778  owner */\n      0x02\n      0x00\n        /* \"contracts/src/PriceConsumer.sol\":6773:6789  owner = newOwner */\n      0x0100\n      exp\n      dup2\n      sload\n      dup2\n      0xffffffffffffffffffffffffffffffffffffffff\n      mul\n      not\n      and\n      swap1\n      dup4\n      0xffffffffffffffffffffffffffffffffffffffff\n      and\n      mul\n      or\n      swap1\n      sstore\n      pop\n        /* \"contracts/src/PriceConsumer.sol\":6588:6796  function transferOwnership(address newOwner) external onlyOwner {... */\n      pop\n      jump\t// out\n        /* \"#utility.yul\":88:205   */\n    tag_112:\n        /* \"#utility.yul\":197:198   */\n      0x00\n        /* \"#utility.yul\":194:195   */\n      0x00\n        /* \"#utility.yul\":187:199   */\n      revert\n        /* \"#utility.yul\":334:443   */\n    tag_114:\n        /* \"#utility.yul\":417:418   */\n      0x02\n        /* \"#utility.yul\":410:415   */\n      dup2\n        /* \"#utility.yul\":407:419   */\n      lt\n        /* \"#utility.yul\":397:437   */\n      tag_135\n      jumpi\n        /* \"#utility.yul\":433:434   */\n      0x00\n        /* \"#utility.yul\":430:431   */\n      0x00\n        /* \"#utility.yul\":423:435   */\n      revert\n        /* \"#utility.yul\":397:437   */\n    tag_135:\n        /* \"#utility.yul\":334:443   */\n      pop\n      jump\t// out\n        /* \"#utility.yul\":449:608   */\n    tag_115:\n        /* \"#utility.yul\":505:510   */\n      0x00\n        /* \"#utility.yul\":543:549   */\n      dup2\n        /* \"#utility.yul\":530:550   */\n      calldataload\n        /* \"#utility.yul\":521:550   */\n      swap1\n      pop\n        /* \"#utility.yul\":559:602   */\n      tag_137\n        /* \"#utility.yul\":596:601   */\n      dup2\n        /* \"#utility.yul\":559:602   */\n      tag_114\n      jump\t// in\n    tag_137:\n        /* \"#utility.yul\":449:608   */\n      swap3\n      swap2\n      pop\n      pop\n      jump\t// out\n        /* \"#utility.yul\":614:691   */\n    tag_116:\n        /* \"#utility.yul\":651:658   */\n      0x00\n        /* \"#utility.yul\":680:685   */\n      dup2\n        /* \"#utility.yul\":669:685   */\n      swap1\n      pop\n        /* \"#utility.yul\":614:691   */\n      swap2\n      swap1\n      pop\n      jump\t// out\n        /* \"#utility.yul\":697:819   */\n    tag_117:\n        /* \"#utility.yul\":770:794   */\n      tag_140\n        /* \"#utility.yul\":788:793   */\n      dup2\n        /* \"#utility.yul\":770:794   */\n      tag_116\n      jump\t// in\n    tag_140:\n        /* \"#utility.yul\":763:768   */\n      dup2\n        /* \"#utility.yul\":760:795   */\n      eq\n        /* \"#utility.yul\":750:813   */\n      tag_141\n      jumpi\n        /* \"#utility.yul\":809:810   */\n      0x00\n        /* \"#utility.yul\":806:807   */\n      0x00\n        /* \"#utility.yul\":799:811   */\n      revert\n        /* \"#utility.yul\":750:813   */\n    tag_141:\n        /* \"#utility.yul\":697:819   */\n      pop\n      jump\t// out\n        /* \"#utility.yul\":825:964   */\n    tag_118:\n        /* \"#utility.yul\":871:876   */\n      0x00\n        /* \"#utility.yul\":909:915   */\n      dup2\n        /* \"#utility.yul\":896:916   */\n      calldataload\n        /* \"#utility.yul\":887:916   */\n      swap1\n      pop\n        /* \"#utility.yul\":925:958   */\n      tag_143\n        /* \"#utility.yul\":952:957   */\n      dup2\n        /* \"#utility.yul\":925:958   */\n      tag_117\n      jump\t// in\n    tag_143:\n        /* \"#utility.yul\":825:964   */\n      swap3\n      swap2\n      pop\n      pop\n      jump\t// out\n        /* \"#utility.yul\":970:1464   */\n    tag_16:\n        /* \"#utility.yul\":1048:1054   */\n      0x00\n        /* \"#utility.yul\":1056:1062   */\n      0x00\n        /* \"#utility.yul\":1105:1107   */\n      0x40\n        /* \"#utility.yul\":1093:1102   */\n      dup4\n        /* \"#utility.yul\":1084:1091   */\n      dup6\n        /* \"#utility.yul\":1080:1103   */\n      sub\n        /* \"#utility.yul\":1076:1108   */\n      slt\n        /* \"#utility.yul\":1073:1192   */\n      iszero\n      tag_145\n      jumpi\n        /* \"#utility.yul\":1111:1190   */\n      tag_146\n      tag_112\n      jump\t// in\n    tag_146:\n        /* \"#utility.yul\":1073:1192   */\n    tag_145:\n        /* \"#utility.yul\":1231:1232   */\n      0x00\n        /* \"#utility.yul\":1256:1319   */\n      tag_147\n        /* \"#utility.yul\":1311:1318   */\n      dup6\n        /* \"#utility.yul\":1302:1308   */\n      dup3\n        /* \"#utility.yul\":1291:1300   */\n      dup7\n        /* \"#utility.yul\":1287:1309   */\n      add\n        /* \"#utility.yul\":1256:1319   */\n      tag_115\n      jump\t// in\n    tag_147:\n        /* \"#utility.yul\":1246:1319   */\n      swap3\n      pop\n        /* \"#utility.yul\":1202:1329   */\n      pop\n        /* \"#utility.yul\":1368:1370   */\n      0x20\n        /* \"#utility.yul\":1394:1447   */\n      tag_148\n        /* \"#utility.yul\":1439:1446   */\n      dup6\n        /* \"#utility.yul\":1430:1436   */\n      dup3\n        /* \"#utility.yul\":1419:1428   */\n      dup7\n        /* \"#utility.yul\":1415:1437   */\n      add\n        /* \"#utility.yul\":1394:1447   */\n      tag_118\n      jump\t// in\n    tag_148:\n        /* \"#utility.yul\":1384:1447   */\n      swap2\n      pop\n        /* \"#utility.yul\":1339:1457   */\n      pop\n        /* \"#utility.yul\":970:1464   */\n      swap3\n      pop\n      swap3\n      swap1\n      pop\n      jump\t// out\n        /* \"#utility.yul\":1470:1819   */\n    tag_20:\n        /* \"#utility.yul\":1539:1545   */\n      0x00\n        /* \"#utility.yul\":1588:1590   */\n      0x20\n        /* \"#utility.yul\":1576:1585   */\n      dup3\n        /* \"#utility.yul\":1567:1574   */\n      dup5\n        /* \"#utility.yul\":1563:1586   */\n      sub\n        /* \"#utility.yul\":1559:1591   */\n      slt\n        /* \"#utility.yul\":1556:1675   */\n      iszero\n      tag_150\n      jumpi\n        /* \"#utility.yul\":1594:1673   */\n      tag_151\n      tag_112\n      jump\t// in\n    tag_151:\n        /* \"#utility.yul\":1556:1675   */\n    tag_150:\n        /* \"#utility.yul\":1714:1715   */\n      0x00\n        /* \"#utility.yul\":1739:1802   */\n      tag_152\n        /* \"#utility.yul\":1794:1801   */\n      dup5\n        /* \"#utility.yul\":1785:1791   */\n      dup3\n        /* \"#utility.yul\":1774:1783   */\n      dup6\n        /* \"#utility.yul\":1770:1792   */\n      add\n        /* \"#utility.yul\":1739:1802   */\n      tag_115\n      jump\t// in\n    tag_152:\n        /* \"#utility.yul\":1729:1802   */\n      swap2\n      pop\n        /* \"#utility.yul\":1685:1812   */\n      pop\n        /* \"#utility.yul\":1470:1819   */\n      swap3\n      swap2\n      pop\n      pop\n      jump\t// out\n        /* \"#utility.yul\":1825:1943   */\n    tag_119:\n        /* \"#utility.yul\":1912:1936   */\n      tag_154\n        /* \"#utility.yul\":1930:1935   */\n      dup2\n        /* \"#utility.yul\":1912:1936   */\n      tag_116\n      jump\t// in\n    tag_154:\n        /* \"#utility.yul\":1907:1910   */\n      dup3\n        /* \"#utility.yul\":1900:1937   */\n      mstore\n        /* \"#utility.yul\":1825:1943   */\n      pop\n      pop\n      jump\t// out\n        /* \"#utility.yul\":1949:2171   */\n    tag_23:\n        /* \"#utility.yul\":2042:2046   */\n      0x00\n        /* \"#utility.yul\":2080:2082   */\n      0x20\n        /* \"#utility.yul\":2069:2078   */\n      dup3\n        /* \"#utility.yul\":2065:2083   */\n      add\n        /* \"#utility.yul\":2057:2083   */\n      swap1\n      pop\n        /* \"#utility.yul\":2093:2164   */\n      tag_156\n        /* \"#utility.yul\":2161:2162   */\n      0x00\n        /* \"#utility.yul\":2150:2159   */\n      dup4\n        /* \"#utility.yul\":2146:2163   */\n      add\n        /* \"#utility.yul\":2137:2143   */\n      dup5\n        /* \"#utility.yul\":2093:2164   */\n      tag_119\n      jump\t// in\n    tag_156:\n        /* \"#utility.yul\":1949:2171   */\n      swap3\n      swap2\n      pop\n      pop\n      jump\t// out\n        /* \"#utility.yul\":2177:2263   */\n    tag_120:\n        /* \"#utility.yul\":2212:2219   */\n      0x00\n        /* \"#utility.yul\":2252:2256   */\n      0xff\n        /* \"#utility.yul\":2245:2250   */\n      dup3\n        /* \"#utility.yul\":2241:2257   */\n      and\n        /* \"#utility.yul\":2230:2257   */\n      swap1\n      pop\n        /* \"#utility.yul\":2177:2263   */\n      swap2\n      swap1\n      pop\n      jump\t// out\n        /* \"#utility.yul\":2269:2381   */\n    tag_121:\n        /* \"#utility.yul\":2352:2374   */\n      tag_159\n        /* \"#utility.yul\":2368:2373   */\n      dup2\n        /* \"#utility.yul\":2352:2374   */\n      tag_120\n      jump\t// in\n    tag_159:\n        /* \"#utility.yul\":2347:2350   */\n      dup3\n        /* \"#utility.yul\":2340:2375   */\n      mstore\n        /* \"#utility.yul\":2269:2381   */\n      pop\n      pop\n      jump\t// out\n        /* \"#utility.yul\":2387:2601   */\n    tag_27:\n        /* \"#utility.yul\":2476:2480   */\n      0x00\n        /* \"#utility.yul\":2514:2516   */\n      0x20\n        /* \"#utility.yul\":2503:2512   */\n      dup3\n        /* \"#utility.yul\":2499:2517   */\n      add\n        /* \"#utility.yul\":2491:2517   */\n      swap1\n      pop\n        /* \"#utility.yul\":2527:2594   */\n      tag_161\n        /* \"#utility.yul\":2591:2592   */\n      0x00\n        /* \"#utility.yul\":2580:2589   */\n      dup4\n        /* \"#utility.yul\":2576:2593   */\n      add\n        /* \"#utility.yul\":2567:2573   */\n      dup5\n        /* \"#utility.yul\":2527:2594   */\n      tag_121\n      jump\t// in\n    tag_161:\n        /* \"#utility.yul\":2387:2601   */\n      swap3\n      swap2\n      pop\n      pop\n      jump\t// out\n        /* \"#utility.yul\":2607:2733   */\n    tag_122:\n        /* \"#utility.yul\":2644:2651   */\n      0x00\n        /* \"#utility.yul\":2684:2726   */\n      0xffffffffffffffffffffffffffffffffffffffff\n        /* \"#utility.yul\":2677:2682   */\n      dup3\n        /* \"#utility.yul\":2673:2727   */\n      and\n        /* \"#utility.yul\":2662:2727   */\n      swap1\n      pop\n        /* \"#utility.yul\":2607:2733   */\n      swap2\n      swap1\n      pop\n      jump\t// out\n        /* \"#utility.yul\":2739:2835   */\n    tag_123:\n        /* \"#utility.yul\":2776:2783   */\n      0x00\n        /* \"#utility.yul\":2805:2829   */\n      tag_164\n        /* \"#utility.yul\":2823:2828   */\n      dup3\n        /* \"#utility.yul\":2805:2829   */\n      tag_122\n      jump\t// in\n    tag_164:\n        /* \"#utility.yul\":2794:2829   */\n      swap1\n      pop\n        /* \"#utility.yul\":2739:2835   */\n      swap2\n      swap1\n      pop\n      jump\t// out\n        /* \"#utility.yul\":2841:2959   */\n    tag_124:\n        /* \"#utility.yul\":2928:2952   */\n      tag_166\n        /* \"#utility.yul\":2946:2951   */\n      dup2\n        /* \"#utility.yul\":2928:2952   */\n      tag_123\n      jump\t// in\n    tag_166:\n        /* \"#utility.yul\":2923:2926   */\n      dup3\n        /* \"#utility.yul\":2916:2953   */\n      mstore\n        /* \"#utility.yul\":2841:2959   */\n      pop\n      pop\n      jump\t// out\n        /* \"#utility.yul\":2965:3187   */\n    tag_38:\n        /* \"#utility.yul\":3058:3062   */\n      0x00\n        /* \"#utility.yul\":3096:3098   */\n      0x20\n        /* \"#utility.yul\":3085:3094   */\n      dup3\n        /* \"#utility.yul\":3081:3099   */\n      add\n        /* \"#utility.yul\":3073:3099   */\n      swap1\n      pop\n        /* \"#utility.yul\":3109:3180   */\n      tag_168\n        /* \"#utility.yul\":3177:3178   */\n      0x00\n        /* \"#utility.yul\":3166:3175   */\n      dup4\n        /* \"#utility.yul\":3162:3179   */\n      add\n        /* \"#utility.yul\":3153:3159   */\n      dup5\n        /* \"#utility.yul\":3109:3180   */\n      tag_124\n      jump\t// in\n    tag_168:\n        /* \"#utility.yul\":2965:3187   */\n      swap3\n      swap2\n      pop\n      pop\n      jump\t// out\n        /* \"#utility.yul\":3193:3667   */\n    tag_41:\n        /* \"#utility.yul\":3261:3267   */\n      0x00\n        /* \"#utility.yul\":3269:3275   */\n      0x00\n        /* \"#utility.yul\":3318:3320   */\n      0x40\n        /* \"#utility.yul\":3306:3315   */\n      dup4\n        /* \"#utility.yul\":3297:3304   */\n      dup6\n        /* \"#utility.yul\":3293:3316   */\n      sub\n        /* \"#utility.yul\":3289:3321   */\n      slt\n        /* \"#utility.yul\":3286:3405   */\n      iszero\n      tag_170\n      jumpi\n        /* \"#utility.yul\":3324:3403   */\n      tag_171\n      tag_112\n      jump\t// in\n    tag_171:\n        /* \"#utility.yul\":3286:3405   */\n    tag_170:\n        /* \"#utility.yul\":3444:3445   */\n      0x00\n        /* \"#utility.yul\":3469:3522   */\n      tag_172\n        /* \"#utility.yul\":3514:3521   */\n      dup6\n        /* \"#utility.yul\":3505:3511   */\n      dup3\n        /* \"#utility.yul\":3494:3503   */\n      dup7\n        /* \"#utility.yul\":3490:3512   */\n      add\n        /* \"#utility.yul\":3469:3522   */\n      tag_118\n      jump\t// in\n    tag_172:\n        /* \"#utility.yul\":3459:3522   */\n      swap3\n      pop\n        /* \"#utility.yul\":3415:3532   */\n      pop\n        /* \"#utility.yul\":3571:3573   */\n      0x20\n        /* \"#utility.yul\":3597:3650   */\n      tag_173\n        /* \"#utility.yul\":3642:3649   */\n      dup6\n        /* \"#utility.yul\":3633:3639   */\n      dup3\n        /* \"#utility.yul\":3622:3631   */\n      dup7\n        /* \"#utility.yul\":3618:3640   */\n      add\n        /* \"#utility.yul\":3597:3650   */\n      tag_118\n      jump\t// in\n    tag_173:\n        /* \"#utility.yul\":3587:3650   */\n      swap2\n      pop\n        /* \"#utility.yul\":3542:3660   */\n      pop\n        /* \"#utility.yul\":3193:3667   */\n      swap3\n      pop\n      swap3\n      swap1\n      pop\n      jump\t// out\n        /* \"#utility.yul\":3673:4005   */\n    tag_46:\n        /* \"#utility.yul\":3794:3798   */\n      0x00\n        /* \"#utility.yul\":3832:3834   */\n      0x40\n        /* \"#utility.yul\":3821:3830   */\n      dup3\n        /* \"#utility.yul\":3817:3835   */\n      add\n        /* \"#utility.yul\":3809:3835   */\n      swap1\n      pop\n        /* \"#utility.yul\":3845:3916   */\n      tag_175\n        /* \"#utility.yul\":3913:3914   */\n      0x00\n        /* \"#utility.yul\":3902:3911   */\n      dup4\n        /* \"#utility.yul\":3898:3915   */\n      add\n        /* \"#utility.yul\":3889:3895   */\n      dup6\n        /* \"#utility.yul\":3845:3916   */\n      tag_119\n      jump\t// in\n    tag_175:\n        /* \"#utility.yul\":3926:3998   */\n      tag_176\n        /* \"#utility.yul\":3994:3996   */\n      0x20\n        /* \"#utility.yul\":3983:3992   */\n      dup4\n        /* \"#utility.yul\":3979:3997   */\n      add\n        /* \"#utility.yul\":3970:3976   */\n      dup5\n        /* \"#utility.yul\":3926:3998   */\n      tag_119\n      jump\t// in\n    tag_176:\n        /* \"#utility.yul\":3673:4005   */\n      swap4\n      swap3\n      pop\n      pop\n      pop\n      jump\t// out\n        /* \"#utility.yul\":4011:4129   */\n    tag_125:\n        /* \"#utility.yul\":4082:4104   */\n      tag_178\n        /* \"#utility.yul\":4098:4103   */\n      dup2\n        /* \"#utility.yul\":4082:4104   */\n      tag_120\n      jump\t// in\n    tag_178:\n        /* \"#utility.yul\":4075:4080   */\n      dup2\n        /* \"#utility.yul\":4072:4105   */\n      eq\n        /* \"#utility.yul\":4062:4123   */\n      tag_179\n      jumpi\n        /* \"#utility.yul\":4119:4120   */\n      0x00\n        /* \"#utility.yul\":4116:4117   */\n      0x00\n        /* \"#utility.yul\":4109:4121   */\n      revert\n        /* \"#utility.yul\":4062:4123   */\n    tag_179:\n        /* \"#utility.yul\":4011:4129   */\n      pop\n      jump\t// out\n        /* \"#utility.yul\":4135:4270   */\n    tag_126:\n        /* \"#utility.yul\":4179:4184   */\n      0x00\n        /* \"#utility.yul\":4217:4223   */\n      dup2\n        /* \"#utility.yul\":4204:4224   */\n      calldataload\n        /* \"#utility.yul\":4195:4224   */\n      swap1\n      pop\n        /* \"#utility.yul\":4233:4264   */\n      tag_181\n        /* \"#utility.yul\":4258:4263   */\n      dup2\n        /* \"#utility.yul\":4233:4264   */\n      tag_125\n      jump\t// in\n    tag_181:\n        /* \"#utility.yul\":4135:4270   */\n      swap3\n      swap2\n      pop\n      pop\n      jump\t// out\n        /* \"#utility.yul\":4276:4601   */\n    tag_49:\n        /* \"#utility.yul\":4333:4339   */\n      0x00\n        /* \"#utility.yul\":4382:4384   */\n      0x20\n        /* \"#utility.yul\":4370:4379   */\n      dup3\n        /* \"#utility.yul\":4361:4368   */\n      dup5\n        /* \"#utility.yul\":4357:4380   */\n      sub\n        /* \"#utility.yul\":4353:4385   */\n      slt\n        /* \"#utility.yul\":4350:4469   */\n      iszero\n      tag_183\n      jumpi\n        /* \"#utility.yul\":4388:4467   */\n      tag_184\n      tag_112\n      jump\t// in\n    tag_184:\n        /* \"#utility.yul\":4350:4469   */\n    tag_183:\n        /* \"#utility.yul\":4508:4509   */\n      0x00\n        /* \"#utility.yul\":4533:4584   */\n      tag_185\n        /* \"#utility.yul\":4576:4583   */\n      dup5\n        /* \"#utility.yul\":4567:4573   */\n      dup3\n        /* \"#utility.yul\":4556:4565   */\n      dup6\n        /* \"#utility.yul\":4552:4574   */\n      add\n        /* \"#utility.yul\":4533:4584   */\n      tag_126\n      jump\t// in\n    tag_185:\n        /* \"#utility.yul\":4523:4584   */\n      swap2\n      pop\n        /* \"#utility.yul\":4479:4594   */\n      pop\n        /* \"#utility.yul\":4276:4601   */\n      swap3\n      swap2\n      pop\n      pop\n      jump\t// out\n        /* \"#utility.yul\":4607:4729   */\n    tag_127:\n        /* \"#utility.yul\":4680:4704   */\n      tag_187\n        /* \"#utility.yul\":4698:4703   */\n      dup2\n        /* \"#utility.yul\":4680:4704   */\n      tag_123\n      jump\t// in\n    tag_187:\n        /* \"#utility.yul\":4673:4678   */\n      dup2\n        /* \"#utility.yul\":4670:4705   */\n      eq\n        /* \"#utility.yul\":4660:4723   */\n      tag_188\n      jumpi\n        /* \"#utility.yul\":4719:4720   */\n      0x00\n        /* \"#utility.yul\":4716:4717   */\n      0x00\n        /* \"#utility.yul\":4709:4721   */\n      revert\n        /* \"#utility.yul\":4660:4723   */\n    tag_188:\n        /* \"#utility.yul\":4607:4729   */\n      pop\n      jump\t// out\n        /* \"#utility.yul\":4735:4874   */\n    tag_128:\n        /* \"#utility.yul\":4781:4786   */\n      0x00\n        /* \"#utility.yul\":4819:4825   */\n      dup2\n        /* \"#utility.yul\":4806:4826   */\n      calldataload\n        /* \"#utility.yul\":4797:4826   */\n      swap1\n      pop\n        /* \"#utility.yul\":4835:4868   */\n      tag_190\n        /* \"#utility.yul\":4862:4867   */\n      dup2\n        /* \"#utility.yul\":4835:4868   */\n      tag_127\n      jump\t// in\n    tag_190:\n        /* \"#utility.yul\":4735:4874   */\n      swap3\n      swap2\n      pop\n      pop\n      jump\t// out\n        /* \"#utility.yul\":4880:5209   */\n    tag_54:\n        /* \"#utility.yul\":4939:4945   */\n      0x00\n        /* \"#utility.yul\":4988:4990   */\n      0x20\n        /* \"#utility.yul\":4976:4985   */\n      dup3\n        /* \"#utility.yul\":4967:4974   */\n      dup5\n        /* \"#utility.yul\":4963:4986   */\n      sub\n        /* \"#utility.yul\":4959:4991   */\n      slt\n        /* \"#utility.yul\":4956:5075   */\n      iszero\n      tag_192\n      jumpi\n        /* \"#utility.yul\":4994:5073   */\n      tag_193\n      tag_112\n      jump\t// in\n    tag_193:\n        /* \"#utility.yul\":4956:5075   */\n    tag_192:\n        /* \"#utility.yul\":5114:5115   */\n      0x00\n        /* \"#utility.yul\":5139:5192   */\n      tag_194\n        /* \"#utility.yul\":5184:5191   */\n      dup5\n        /* \"#utility.yul\":5175:5181   */\n      dup3\n        /* \"#utility.yul\":5164:5173   */\n      dup6\n        /* \"#utility.yul\":5160:5182   */\n      add\n        /* \"#utility.yul\":5139:5192   */\n      tag_128\n      jump\t// in\n    tag_194:\n        /* \"#utility.yul\":5129:5192   */\n      swap2\n      pop\n        /* \"#utility.yul\":5085:5202   */\n      pop\n        /* \"#utility.yul\":4880:5209   */\n      swap3\n      swap2\n      pop\n      pop\n      jump\t// out\n        /* \"#utility.yul\":5215:5395   */\n    tag_62:\n        /* \"#utility.yul\":5263:5340   */\n      0x4e487b7100000000000000000000000000000000000000000000000000000000\n        /* \"#utility.yul\":5260:5261   */\n      0x00\n        /* \"#utility.yul\":5253:5341   */\n      mstore\n        /* \"#utility.yul\":5360:5364   */\n      0x21\n        /* \"#utility.yul\":5357:5358   */\n      0x04\n        /* \"#utility.yul\":5350:5365   */\n      mstore\n        /* \"#utility.yul\":5384:5388   */\n      0x24\n        /* \"#utility.yul\":5381:5382   */\n      0x00\n        /* \"#utility.yul\":5374:5389   */\n      revert\n        /* \"#utility.yul\":5401:5843   */\n    tag_66:\n        /* \"#utility.yul\":5550:5554   */\n      0x00\n        /* \"#utility.yul\":5588:5590   */\n      0x60\n        /* \"#utility.yul\":5577:5586   */\n      dup3\n        /* \"#utility.yul\":5573:5591   */\n      add\n        /* \"#utility.yul\":5565:5591   */\n      swap1\n      pop\n        /* \"#utility.yul\":5601:5672   */\n      tag_197\n        /* \"#utility.yul\":5669:5670   */\n      0x00\n        /* \"#utility.yul\":5658:5667   */\n      dup4\n        /* \"#utility.yul\":5654:5671   */\n      add\n        /* \"#utility.yul\":5645:5651   */\n      dup7\n        /* \"#utility.yul\":5601:5672   */\n      tag_119\n      jump\t// in\n    tag_197:\n        /* \"#utility.yul\":5682:5754   */\n      tag_198\n        /* \"#utility.yul\":5750:5752   */\n      0x20\n        /* \"#utility.yul\":5739:5748   */\n      dup4\n        /* \"#utility.yul\":5735:5753   */\n      add\n        /* \"#utility.yul\":5726:5732   */\n      dup6\n        /* \"#utility.yul\":5682:5754   */\n      tag_119\n      jump\t// in\n    tag_198:\n        /* \"#utility.yul\":5764:5836   */\n      tag_199\n        /* \"#utility.yul\":5832:5834   */\n      0x40\n        /* \"#utility.yul\":5821:5830   */\n      dup4\n        /* \"#utility.yul\":5817:5835   */\n      add\n        /* \"#utility.yul\":5808:5814   */\n      dup5\n        /* \"#utility.yul\":5764:5836   */\n      tag_119\n      jump\t// in\n    tag_199:\n        /* \"#utility.yul\":5401:5843   */\n      swap5\n      swap4\n      pop\n      pop\n      pop\n      pop\n      jump\t// out\n        /* \"#utility.yul\":5849:6029   */\n    tag_129:\n        /* \"#utility.yul\":5897:5974   */\n      0x4e487b7100000000000000000000000000000000000000000000000000000000\n        /* \"#utility.yul\":5894:5895   */\n      0x00\n        /* \"#utility.yul\":5887:5975   */\n      mstore\n        /* \"#utility.yul\":5994:5998   */\n      0x11\n        /* \"#utility.yul\":5991:5992   */\n      0x04\n        /* \"#utility.yul\":5984:5999   */\n      mstore\n        /* \"#utility.yul\":6018:6022   */\n      0x24\n        /* \"#utility.yul\":6015:6016   */\n      0x00\n        /* \"#utility.yul\":6008:6023   */\n      revert\n        /* \"#utility.yul\":6035:6229   */\n    tag_76:\n        /* \"#utility.yul\":6075:6079   */\n      0x00\n        /* \"#utility.yul\":6095:6115   */\n      tag_202\n        /* \"#utility.yul\":6113:6114   */\n      dup3\n        /* \"#utility.yul\":6095:6115   */\n      tag_116\n      jump\t// in\n    tag_202:\n        /* \"#utility.yul\":6090:6115   */\n      swap2\n      pop\n        /* \"#utility.yul\":6129:6149   */\n      tag_203\n        /* \"#utility.yul\":6147:6148   */\n      dup4\n        /* \"#utility.yul\":6129:6149   */\n      tag_116\n      jump\t// in\n    tag_203:\n        /* \"#utility.yul\":6124:6149   */\n      swap3\n      pop\n        /* \"#utility.yul\":6173:6174   */\n      dup3\n        /* \"#utility.yul\":6170:6171   */\n      dup3\n        /* \"#utility.yul\":6166:6175   */\n      sub\n        /* \"#utility.yul\":6158:6175   */\n      swap1\n      pop\n        /* \"#utility.yul\":6197:6198   */\n      dup2\n        /* \"#utility.yul\":6191:6195   */\n      dup2\n        /* \"#utility.yul\":6188:6199   */\n      gt\n        /* \"#utility.yul\":6185:6222   */\n      iszero\n      tag_204\n      jumpi\n        /* \"#utility.yul\":6202:6220   */\n      tag_205\n      tag_129\n      jump\t// in\n    tag_205:\n        /* \"#utility.yul\":6185:6222   */\n    tag_204:\n        /* \"#utility.yul\":6035:6229   */\n      swap3\n      swap2\n      pop\n      pop\n      jump\t// out\n\n    auxdata: 0xa2646970667358221220c55f20b899c9a813a85e4ac3f3bfafc974d194faa32029e43f72068c2dd2a0d964736f6c634300081f0033\n}\n",
				"bytecode": {
					"linkReferences": {},
					"object": "608060405234801561000f575f5ffd5b50604051610fec380380610fec83398181016040528101906100319190610244565b5f82148061003e57505f81145b15610074576040517ebfc92100000000000000000000000000000000000000000000000000000000815260040160405180910390fd5b3360025f6101000a81548173ffffffffffffffffffffffffffffffffffffffff021916908373ffffffffffffffffffffffffffffffffffffffff160217905550815f5f5f60018111156100ca576100c9610282565b5b60ff1660ff1681526020019081526020015f2081905550805f5f6001808111156100f7576100f6610282565b5b60ff1660ff1681526020019081526020015f20819055504260015f5f600181111561012557610124610282565b5b60ff1660ff1681526020019081526020015f20819055504260015f60018081111561015357610152610282565b5b60ff1660ff1681526020019081526020015f20819055505f600181111561017d5761017c610282565b5b7f705ab289d78e384114da84e104229e63ef52843c7e62d569e275d63cc3e338ec5f84426040516101b093929190610300565b60405180910390a26001808111156101cb576101ca610282565b5b7f705ab289d78e384114da84e104229e63ef52843c7e62d569e275d63cc3e338ec5f83426040516101fe93929190610300565b60405180910390a25050610335565b5f5ffd5b5f819050919050565b61022381610211565b811461022d575f5ffd5b50565b5f8151905061023e8161021a565b92915050565b5f5f6040838503121561025a5761025961020d565b5b5f61026785828601610230565b925050602061027885828601610230565b9150509250929050565b7f4e487b71000000000000000000000000000000000000000000000000000000005f52602160045260245ffd5b5f819050919050565b5f819050919050565b5f6102db6102d66102d1846102af565b6102b8565b610211565b9050919050565b6102eb816102c1565b82525050565b6102fa81610211565b82525050565b5f6060820190506103135f8301866102e2565b61032060208301856102f1565b61032d60408301846102f1565b949350505050565b610caa806103425f395ff3fe608060405234801561000f575f5ffd5b506004361061009b575f3560e01c80638da5cb5b116100645780638da5cb5b14610157578063a62b3d3e14610175578063b601068b14610191578063e4c4e9be146101b0578063f2fde38b146101e05761009b565b80627fa4f01461009f5780630c20a01f146100bb5780632e0f2625146100eb578063313ce5671461010957806342e1851414610127575b5f5ffd5b6100b960048036038101906100b49190610986565b6101fc565b005b6100d560048036038101906100d091906109c4565b610375565b6040516100e291906109fe565b60405180910390f35b6100f36103a6565b6040516101009190610a32565b60405180910390f35b6101116103ab565b60405161011e9190610a32565b60405180910390f35b610141600480360381019061013c9190610986565b6103b3565b60405161014e91906109fe565b60405180910390f35b61015f610475565b60405161016c9190610a8a565b60405180910390f35b61018f600480360381019061018a9190610aa3565b61049a565b005b610199610713565b6040516101a7929190610ae1565b60405180910390f35b6101ca60048036038101906101c59190610b32565b61076f565b6040516101d791906109fe565b60405180910390f35b6101fa60048036038101906101f59190610b87565b610784565b005b60025f9054906101000a900473ffffffffffffffffffffffffffffffffffffffff1673ffffffffffffffffffffffffffffffffffffffff163373ffffffffffffffffffffffffffffffffffffffff1614610282576040517f82b4290000000000000000000000000000000000000000000000000000000000815260040160405180910390fd5b5f81036102ba576040517ebfc92100000000000000000000000000000000000000000000000000000000815260040160405180910390fd5b5f8260018111156102ce576102cd610bb2565b5b90505f5f5f8360ff1660ff1681526020019081526020015f20549050825f5f8460ff1660ff1681526020019081526020015f20819055504260015f8460ff1660ff1681526020019081526020015f208190555083600181111561033457610333610bb2565b5b7f705ab289d78e384114da84e104229e63ef52843c7e62d569e275d63cc3e338ec82854260405161036793929190610bdf565b60405180910390a250505050565b5f5f5f83600181111561038b5761038a610bb2565b5b60ff1660ff1681526020019081526020015f20549050919050565b600881565b5f6008905090565b5f5f8360018111156103c8576103c7610bb2565b5b90505f831180156103fa57508260015f8360ff1660ff1681526020019081526020015f2054426103f89190610c41565b115b156104555760015f8260ff1660ff1681526020019081526020015f2054836040517f2730eb4800000000000000000000000000000000000000000000000000000000815260040161044c929190610ae1565b60405180910390fd5b5f5f8260ff1660ff1681526020019081526020015f205491505092915050565b60025f9054906101000a900473ffffffffffffffffffffffffffffffffffffffff1681565b60025f9054906101000a900473ffffffffffffffffffffffffffffffffffffffff1673ffffffffffffffffffffffffffffffffffffffff163373ffffffffffffffffffffffffffffffffffffffff1614610520576040517f82b4290000000000000000000000000000000000000000000000000000000000815260040160405180910390fd5b5f82148061052d57505f81145b15610563576040517ebfc92100000000000000000000000000000000000000000000000000000000815260040160405180910390fd5b5f5f5f5f600181111561057957610578610bb2565b5b60ff1660ff1681526020019081526020015f205490505f5f5f6001808111156105a5576105a4610bb2565b5b60ff1660ff1681526020019081526020015f20549050835f5f5f60018111156105d1576105d0610bb2565b5b60ff1660ff1681526020019081526020015f2081905550825f5f6001808111156105fe576105fd610bb2565b5b60ff1660ff1681526020019081526020015f20819055504260015f5f600181111561062c5761062b610bb2565b5b60ff1660ff1681526020019081526020015f20819055504260015f60018081111561065a57610659610bb2565b5b60ff1660ff1681526020019081526020015f20819055505f600181111561068457610683610bb2565b5b7f705ab289d78e384114da84e104229e63ef52843c7e62d569e275d63cc3e338ec8386426040516106b793929190610bdf565b60405180910390a26001808111156106d2576106d1610bb2565b5b7f705ab289d78e384114da84e104229e63ef52843c7e62d569e275d63cc3e338ec82854260405161070593929190610bdf565b60405180910390a250505050565b5f5f5f5f5f600181111561072a57610729610bb2565b5b60ff1660ff1681526020019081526020015f205491505f5f60018081111561075557610754610bb2565b5b60ff1660ff1681526020019081526020015f205490509091565b6001602052805f5260405f205f915090505481565b60025f9054906101000a900473ffffffffffffffffffffffffffffffffffffffff1673ffffffffffffffffffffffffffffffffffffffff163373ffffffffffffffffffffffffffffffffffffffff161461080a576040517f82b4290000000000000000000000000000000000000000000000000000000000815260040160405180910390fd5b5f73ffffffffffffffffffffffffffffffffffffffff168173ffffffffffffffffffffffffffffffffffffffff160361086e576040517ebfc92100000000000000000000000000000000000000000000000000000000815260040160405180910390fd5b8073ffffffffffffffffffffffffffffffffffffffff1660025f9054906101000a900473ffffffffffffffffffffffffffffffffffffffff1673ffffffffffffffffffffffffffffffffffffffff167f8be0079c531659141344cd1fd0a4f28419497f9722a3daafe3b4186f6b6457e060405160405180910390a38060025f6101000a81548173ffffffffffffffffffffffffffffffffffffffff021916908373ffffffffffffffffffffffffffffffffffffffff16021790555050565b5f5ffd5b6002811061093c575f5ffd5b50565b5f8135905061094d81610930565b92915050565b5f819050919050565b61096581610953565b811461096f575f5ffd5b50565b5f813590506109808161095c565b92915050565b5f5f6040838503121561099c5761099b61092c565b5b5f6109a98582860161093f565b92505060206109ba85828601610972565b9150509250929050565b5f602082840312156109d9576109d861092c565b5b5f6109e68482850161093f565b91505092915050565b6109f881610953565b82525050565b5f602082019050610a115f8301846109ef565b92915050565b5f60ff82169050919050565b610a2c81610a17565b82525050565b5f602082019050610a455f830184610a23565b92915050565b5f73ffffffffffffffffffffffffffffffffffffffff82169050919050565b5f610a7482610a4b565b9050919050565b610a8481610a6a565b82525050565b5f602082019050610a9d5f830184610a7b565b92915050565b5f5f60408385031215610ab957610ab861092c565b5b5f610ac685828601610972565b9250506020610ad785828601610972565b9150509250929050565b5f604082019050610af45f8301856109ef565b610b0160208301846109ef565b9392505050565b610b1181610a17565b8114610b1b575f5ffd5b50565b5f81359050610b2c81610b08565b92915050565b5f60208284031215610b4757610b4661092c565b5b5f610b5484828501610b1e565b91505092915050565b610b6681610a6a565b8114610b70575f5ffd5b50565b5f81359050610b8181610b5d565b92915050565b5f60208284031215610b9c57610b9b61092c565b5b5f610ba984828501610b73565b91505092915050565b7f4e487b71000000000000000000000000000000000000000000000000000000005f52602160045260245ffd5b5f606082019050610bf25f8301866109ef565b610bff60208301856109ef565b610c0c60408301846109ef565b949350505050565b7f4e487b71000000000000000000000000000000000000000000000000000000005f52601160045260245ffd5b5f610c4b82610953565b9150610c5683610953565b9250828203905081811115610c6e57610c6d610c14565b5b9291505056fea2646970667358221220c55f20b899c9a813a85e4ac3f3bfafc974d194faa32029e43f72068c2dd2a0d964736f6c634300081f0033",
					"opcodes": "PUSH1 0x80 PUSH1 0x40 MSTORE CALLVALUE DUP1 ISZERO PUSH2 0xF JUMPI PUSH0 PUSH0 REVERT JUMPDEST POP PUSH1 0x40 MLOAD PUSH2 0xFEC CODESIZE SUB DUP1 PUSH2 0xFEC DUP4 CODECOPY DUP2 DUP2 ADD PUSH1 0x40 MSTORE DUP2 ADD SWAP1 PUSH2 0x31 SWAP2 SWAP1 PUSH2 0x244 JUMP JUMPDEST PUSH0 DUP3 EQ DUP1 PUSH2 0x3E JUMPI POP PUSH0 DUP2 EQ JUMPDEST ISZERO PUSH2 0x74 JUMPI PUSH1 0x40 MLOAD PUSH31 0xBFC92100000000000000000000000000000000000000000000000000000000 DUP2 MSTORE PUSH1 0x4 ADD PUSH1 0x40 MLOAD DUP1 SWAP2 SUB SWAP1 REVERT JUMPDEST CALLER PUSH1 0x2 PUSH0 PUSH2 0x100 EXP DUP2 SLOAD DUP2 PUSH20 0xFFFFFFFFFFFFFFFFFFFFFFFFFFFFFFFFFFFFFFFF MUL NOT AND SWAP1 DUP4 PUSH20 0xFFFFFFFFFFFFFFFFFFFFFFFFFFFFFFFFFFFFFFFF AND MUL OR SWAP1 SSTORE POP DUP2 PUSH0 PUSH0 PUSH0 PUSH1 0x1 DUP2 GT ISZERO PUSH2 0xCA JUMPI PUSH2 0xC9 PUSH2 0x282 JUMP JUMPDEST JUMPDEST PUSH1 0xFF AND PUSH1 0xFF AND DUP2 MSTORE PUSH1 0x20 ADD SWAP1 DUP2 MSTORE PUSH1 0x20 ADD PUSH0 KECCAK256 DUP2 SWAP1 SSTORE POP DUP1 PUSH0 PUSH0 PUSH1 0x1 DUP1 DUP2 GT ISZERO PUSH2 0xF7 JUMPI PUSH2 0xF6 PUSH2 0x282 JUMP JUMPDEST JUMPDEST PUSH1 0xFF AND PUSH1 0xFF AND DUP2 MSTORE PUSH1 0x20 ADD SWAP1 DUP2 MSTORE PUSH1 0x20 ADD PUSH0 KECCAK256 DUP2 SWAP1 SSTORE POP TIMESTAMP PUSH1 0x1 PUSH0 PUSH0 PUSH1 0x1 DUP2 GT ISZERO PUSH2 0x125 JUMPI PUSH2 0x124 PUSH2 0x282 JUMP JUMPDEST JUMPDEST PUSH1 0xFF AND PUSH1 0xFF AND DUP2 MSTORE PUSH1 0x20 ADD SWAP1 DUP2 MSTORE PUSH1 0x20 ADD PUSH0 KECCAK256 DUP2 SWAP1 SSTORE POP TIMESTAMP PUSH1 0x1 PUSH0 PUSH1 0x1 DUP1 DUP2 GT ISZERO PUSH2 0x153 JUMPI PUSH2 0x152 PUSH2 0x282 JUMP JUMPDEST JUMPDEST PUSH1 0xFF AND PUSH1 0xFF AND DUP2 MSTORE PUSH1 0x20 ADD SWAP1 DUP2 MSTORE PUSH1 0x20 ADD PUSH0 KECCAK256 DUP2 SWAP1 SSTORE POP PUSH0 PUSH1 0x1 DUP2 GT ISZERO PUSH2 0x17D JUMPI PUSH2 0x17C PUSH2 0x282 JUMP JUMPDEST JUMPDEST PUSH32 0x705AB289D78E384114DA84E104229E63EF52843C7E62D569E275D63CC3E338EC PUSH0 DUP5 TIMESTAMP PUSH1 0x40 MLOAD PUSH2 0x1B0 SWAP4 SWAP3 SWAP2 SWAP1 PUSH2 0x300 JUMP JUMPDEST PUSH1 0x40 MLOAD DUP1 SWAP2 SUB SWAP1 LOG2 PUSH1 0x1 DUP1 DUP2 GT ISZERO PUSH2 0x1CB JUMPI PUSH2 0x1CA PUSH2 0x282 JUMP JUMPDEST JUMPDEST PUSH32 0x705AB289D78E384114DA84E104229E63EF52843C7E62D569E275D63CC3E338EC PUSH0 DUP4 TIMESTAMP PUSH1 0x40 MLOAD PUSH2 0x1FE SWAP4 SWAP3 SWAP2 SWAP1 PUSH2 0x300 JUMP JUMPDEST PUSH1 0x40 MLOAD DUP1 SWAP2 SUB SWAP1 LOG2 POP POP PUSH2 0x335 JUMP JUMPDEST PUSH0 PUSH0 REVERT JUMPDEST PUSH0 DUP2 SWAP1 POP SWAP2 SWAP1 POP JUMP JUMPDEST PUSH2 0x223 DUP2 PUSH2 0x211 JUMP JUMPDEST DUP2 EQ PUSH2 0x22D JUMPI PUSH0 PUSH0 REVERT JUMPDEST POP JUMP JUMPDEST PUSH0 DUP2 MLOAD SWAP1 POP PUSH2 0x23E DUP2 PUSH2 0x21A JUMP JUMPDEST SWAP3 SWAP2 POP POP JUMP JUMPDEST PUSH0 PUSH0 PUSH1 0x40 DUP4 DUP6 SUB SLT ISZERO PUSH2 0x25A JUMPI PUSH2 0x259 PUSH2 0x20D JUMP JUMPDEST JUMPDEST PUSH0 PUSH2 0x267 DUP6 DUP3 DUP7 ADD PUSH2 0x230 JUMP JUMPDEST SWAP3 POP POP PUSH1 0x20 PUSH2 0x278 DUP6 DUP3 DUP7 ADD PUSH2 0x230 JUMP JUMPDEST SWAP2 POP POP SWAP3 POP SWAP3 SWAP1 POP JUMP JUMPDEST PUSH32 0x4E487B7100000000000000000000000000000000000000000000000000000000 PUSH0 MSTORE PUSH1 0x21 PUSH1 0x4 MSTORE PUSH1 0x24 PUSH0 REVERT JUMPDEST PUSH0 DUP2 SWAP1 POP SWAP2 SWAP1 POP JUMP JUMPDEST PUSH0 DUP2 SWAP1 POP SWAP2 SWAP1 POP JUMP JUMPDEST PUSH0 PUSH2 0x2DB PUSH2 0x2D6 PUSH2 0x2D1 DUP5 PUSH2 0x2AF JUMP JUMPDEST PUSH2 0x2B8 JUMP JUMPDEST PUSH2 0x211 JUMP JUMPDEST SWAP1 POP SWAP2 SWAP1 POP JUMP JUMPDEST PUSH2 0x2EB DUP2 PUSH2 0x2C1 JUMP JUMPDEST DUP3 MSTORE POP POP JUMP JUMPDEST PUSH2 0x2FA DUP2 PUSH2 0x211 JUMP JUMPDEST DUP3 MSTORE POP POP JUMP JUMPDEST PUSH0 PUSH1 0x60 DUP3 ADD SWAP1 POP PUSH2 0x313 PUSH0 DUP4 ADD DUP7 PUSH2 0x2E2 JUMP JUMPDEST PUSH2 0x320 PUSH1 0x20 DUP4 ADD DUP6 PUSH2 0x2F1 JUMP JUMPDEST PUSH2 0x32D PUSH1 0x40 DUP4 ADD DUP5 PUSH2 0x2F1 JUMP JUMPDEST SWAP5 SWAP4 POP POP POP POP JUMP JUMPDEST PUSH2 0xCAA DUP1 PUSH2 0x342 PUSH0 CODECOPY PUSH0 RETURN INVALID PUSH1 0x80 PUSH1 0x40 MSTORE CALLVALUE DUP1 ISZERO PUSH2 0xF JUMPI PUSH0 PUSH0 REVERT JUMPDEST POP PUSH1 0x4 CALLDATASIZE LT PUSH2 0x9B JUMPI PUSH0 CALLDATALOAD PUSH1 0xE0 SHR DUP1 PUSH4 0x8DA5CB5B GT PUSH2 0x64 JUMPI DUP1 PUSH4 0x8DA5CB5B EQ PUSH2 0x157 JUMPI DUP1 PUSH4 0xA62B3D3E EQ PUSH2 0x175 JUMPI DUP1 PUSH4 0xB601068B EQ PUSH2 0x191 JUMPI DUP1 PUSH4 0xE4C4E9BE EQ PUSH2 0x1B0 JUMPI DUP1 PUSH4 0xF2FDE38B EQ PUSH2 0x1E0 JUMPI PUSH2 0x9B JUMP JUMPDEST DUP1 PUSH3 0x7FA4F0 EQ PUSH2 0x9F JUMPI DUP1 PUSH4 0xC20A01F EQ PUSH2 0xBB JUMPI DUP1 PUSH4 0x2E0F2625 EQ PUSH2 0xEB JUMPI DUP1 PUSH4 0x313CE567 EQ PUSH2 0x109 JUMPI DUP1 PUSH4 0x42E18514 EQ PUSH2 0x127 JUMPI JUMPDEST PUSH0 PUSH0 REVERT JUMPDEST PUSH2 0xB9 PUSH1 0x4 DUP1 CALLDATASIZE SUB DUP2 ADD SWAP1 PUSH2 0xB4 SWAP2 SWAP1 PUSH2 0x986 JUMP JUMPDEST PUSH2 0x1FC JUMP JUMPDEST STOP JUMPDEST PUSH2 0xD5 PUSH1 0x4 DUP1 CALLDATASIZE SUB DUP2 ADD SWAP1 PUSH2 0xD0 SWAP2 SWAP1 PUSH2 0x9C4 JUMP JUMPDEST PUSH2 0x375 JUMP JUMPDEST PUSH1 0x40 MLOAD PUSH2 0xE2 SWAP2 SWAP1 PUSH2 0x9FE JUMP JUMPDEST PUSH1 0x40 MLOAD DUP1 SWAP2 SUB SWAP1 RETURN JUMPDEST PUSH2 0xF3 PUSH2 0x3A6 JUMP JUMPDEST PUSH1 0x40 MLOAD PUSH2 0x100 SWAP2 SWAP1 PUSH2 0xA32 JUMP JUMPDEST PUSH1 0x40 MLOAD DUP1 SWAP2 SUB SWAP1 RETURN JUMPDEST PUSH2 0x111 PUSH2 0x3AB JUMP JUMPDEST PUSH1 0x40 MLOAD PUSH2 0x11E SWAP2 SWAP1 PUSH2 0xA32 JUMP JUMPDEST PUSH1 0x40 MLOAD DUP1 SWAP2 SUB SWAP1 RETURN JUMPDEST PUSH2 0x141 PUSH1 0x4 DUP1 CALLDATASIZE SUB DUP2 ADD SWAP1 PUSH2 0x13C SWAP2 SWAP1 PUSH2 0x986 JUMP JUMPDEST PUSH2 0x3B3 JUMP JUMPDEST PUSH1 0x40 MLOAD PUSH2 0x14E SWAP2 SWAP1 PUSH2 0x9FE JUMP JUMPDEST PUSH1 0x40 MLOAD DUP1 SWAP2 SUB SWAP1 RETURN JUMPDEST PUSH2 0x15F PUSH2 0x475 JUMP JUMPDEST PUSH1 0x40 MLOAD PUSH2 0x16C SWAP2 SWAP1 PUSH2 0xA8A JUMP JUMPDEST PUSH1 0x40 MLOAD DUP1 SWAP2 SUB SWAP1 RETURN JUMPDEST PUSH2 0x18F PUSH1 0x4 DUP1 CALLDATASIZE SUB DUP2 ADD SWAP1 PUSH2 0x18A SWAP2 SWAP1 PUSH2 0xAA3 JUMP JUMPDEST PUSH2 0x49A JUMP JUMPDEST STOP JUMPDEST PUSH2 0x199 PUSH2 0x713 JUMP JUMPDEST PUSH1 0x40 MLOAD PUSH2 0x1A7 SWAP3 SWAP2 SWAP1 PUSH2 0xAE1 JUMP JUMPDEST PUSH1 0x40 MLOAD DUP1 SWAP2 SUB SWAP1 RETURN JUMPDEST PUSH2 0x1CA PUSH1 0x4 DUP1 CALLDATASIZE SUB DUP2 ADD SWAP1 PUSH2 0x1C5 SWAP2 SWAP1 PUSH2 0xB32 JUMP JUMPDEST PUSH2 0x76F JUMP JUMPDEST PUSH1 0x40 MLOAD PUSH2 0x1D7 SWAP2 SWAP1 PUSH2 0x9FE JUMP JUMPDEST PUSH1 0x40 MLOAD DUP1 SWAP2 SUB SWAP1 RETURN JUMPDEST PUSH2 0x1FA PUSH1 0x4 DUP1 CALLDATASIZE SUB DUP2 ADD SWAP1 PUSH2 0x1F5 SWAP2 SWAP1 PUSH2 0xB87 JUMP JUMPDEST PUSH2 0x784 JUMP JUMPDEST STOP JUMPDEST PUSH1 0x2 PUSH0 SWAP1 SLOAD SWAP1 PUSH2 0x100 EXP SWAP1 DIV PUSH20 0xFFFFFFFFFFFFFFFFFFFFFFFFFFFFFFFFFFFFFFFF AND PUSH20 0xFFFFFFFFFFFFFFFFFFFFFFFFFFFFFFFFFFFFFFFF AND CALLER PUSH20 0xFFFFFFFFFFFFFFFFFFFFFFFFFFFFFFFFFFFFFFFF AND EQ PUSH2 0x282 JUMPI PUSH1 0x40 MLOAD PUSH32 0x82B4290000000000000000000000000000000000000000000000000000000000 DUP2 MSTORE PUSH1 0x4 ADD PUSH1 0x40 MLOAD DUP1 SWAP2 SUB SWAP1 REVERT JUMPDEST PUSH0 DUP2 SUB PUSH2 0x2BA JUMPI PUSH1 0x40 MLOAD PUSH31 0xBFC92100000000000000000000000000000000000000000000000000000000 DUP2 MSTORE PUSH1 0x4 ADD PUSH1 0x40 MLOAD DUP1 SWAP2 SUB SWAP1 REVERT JUMPDEST PUSH0 DUP3 PUSH1 0x1 DUP2 GT ISZERO PUSH2 0x2CE JUMPI PUSH2 0x2CD PUSH2 0xBB2 JUMP JUMPDEST JUMPDEST SWAP1 POP PUSH0 PUSH0 PUSH0 DUP4 PUSH1 0xFF AND PUSH1 0xFF AND DUP2 MSTORE PUSH1 0x20 ADD SWAP1 DUP2 MSTORE PUSH1 0x20 ADD PUSH0 KECCAK256 SLOAD SWAP1 POP DUP3 PUSH0 PUSH0 DUP5 PUSH1 0xFF AND PUSH1 0xFF AND DUP2 MSTORE PUSH1 0x20 ADD SWAP1 DUP2 MSTORE PUSH1 0x20 ADD PUSH0 KECCAK256 DUP2 SWAP1 SSTORE POP TIMESTAMP PUSH1 0x1 PUSH0 DUP5 PUSH1 0xFF AND PUSH1 0xFF AND DUP2 MSTORE PUSH1 0x20 ADD SWAP1 DUP2 MSTORE PUSH1 0x20 ADD PUSH0 KECCAK256 DUP2 SWAP1 SSTORE POP DUP4 PUSH1 0x1 DUP2 GT ISZERO PUSH2 0x334 JUMPI PUSH2 0x333 PUSH2 0xBB2 JUMP JUMPDEST JUMPDEST PUSH32 0x705AB289D78E384114DA84E104229E63EF52843C7E62D569E275D63CC3E338EC DUP3 DUP6 TIMESTAMP PUSH1 0x40 MLOAD PUSH2 0x367 SWAP4 SWAP3 SWAP2 SWAP1 PUSH2 0xBDF JUMP JUMPDEST PUSH1 0x40 MLOAD DUP1 SWAP2 SUB SWAP1 LOG2 POP POP POP POP JUMP JUMPDEST PUSH0 PUSH0 PUSH0 DUP4 PUSH1 0x1 DUP2 GT ISZERO PUSH2 0x38B JUMPI PUSH2 0x38A PUSH2 0xBB2 JUMP JUMPDEST JUMPDEST PUSH1 0xFF AND PUSH1 0xFF AND DUP2 MSTORE PUSH1 0x20 ADD SWAP1 DUP2 MSTORE PUSH1 0x20 ADD PUSH0 KECCAK256 SLOAD SWAP1 POP SWAP2 SWAP1 POP JUMP JUMPDEST PUSH1 0x8 DUP2 JUMP JUMPDEST PUSH0 PUSH1 0x8 SWAP1 POP SWAP1 JUMP JUMPDEST PUSH0 PUSH0 DUP4 PUSH1 0x1 DUP2 GT ISZERO PUSH2 0x3C8 JUMPI PUSH2 0x3C7 PUSH2 0xBB2 JUMP JUMPDEST JUMPDEST SWAP1 POP PUSH0 DUP4 GT DUP1 ISZERO PUSH2 0x3FA JUMPI POP DUP3 PUSH1 0x1 PUSH0 DUP4 PUSH1 0xFF AND PUSH1 0xFF AND DUP2 MSTORE PUSH1 0x20 ADD SWAP1 DUP2 MSTORE PUSH1 0x20 ADD PUSH0 KECCAK256 SLOAD TIMESTAMP PUSH2 0x3F8 SWAP2 SWAP1 PUSH2 0xC41 JUMP JUMPDEST GT JUMPDEST ISZERO PUSH2 0x455 JUMPI PUSH1 0x1 PUSH0 DUP3 PUSH1 0xFF AND PUSH1 0xFF AND DUP2 MSTORE PUSH1 0x20 ADD SWAP1 DUP2 MSTORE PUSH1 0x20 ADD PUSH0 KECCAK256 SLOAD DUP4 PUSH1 0x40 MLOAD PUSH32 0x2730EB4800000000000000000000000000000000000000000000000000000000 DUP2 MSTORE PUSH1 0x4 ADD PUSH2 0x44C SWAP3 SWAP2 SWAP1 PUSH2 0xAE1 JUMP JUMPDEST PUSH1 0x40 MLOAD DUP1 SWAP2 SUB SWAP1 REVERT JUMPDEST PUSH0 PUSH0 DUP3 PUSH1 0xFF AND PUSH1 0xFF AND DUP2 MSTORE PUSH1 0x20 ADD SWAP1 DUP2 MSTORE PUSH1 0x20 ADD PUSH0 KECCAK256 SLOAD SWAP2 POP POP SWAP3 SWAP2 POP POP JUMP JUMPDEST PUSH1 0x2 PUSH0 SWAP1 SLOAD SWAP1 PUSH2 0x100 EXP SWAP1 DIV PUSH20 0xFFFFFFFFFFFFFFFFFFFFFFFFFFFFFFFFFFFFFFFF AND DUP2 JUMP JUMPDEST PUSH1 0x2 PUSH0 SWAP1 SLOAD SWAP1 PUSH2 0x100 EXP SWAP1 DIV PUSH20 0xFFFFFFFFFFFFFFFFFFFFFFFFFFFFFFFFFFFFFFFF AND PUSH20 0xFFFFFFFFFFFFFFFFFFFFFFFFFFFFFFFFFFFFFFFF AND CALLER PUSH20 0xFFFFFFFFFFFFFFFFFFFFFFFFFFFFFFFFFFFFFFFF AND EQ PUSH2 0x520 JUMPI PUSH1 0x40 MLOAD PUSH32 0x82B4290000000000000000000000000000000000000000000000000000000000 DUP2 MSTORE PUSH1 0x4 ADD PUSH1 0x40 MLOAD DUP1 SWAP2 SUB SWAP1 REVERT JUMPDEST PUSH0 DUP3 EQ DUP1 PUSH2 0x52D JUMPI POP PUSH0 DUP2 EQ JUMPDEST ISZERO PUSH2 0x563 JUMPI PUSH1 0x40 MLOAD PUSH31 0xBFC92100000000000000000000000000000000000000000000000000000000 DUP2 MSTORE PUSH1 0x4 ADD PUSH1 0x40 MLOAD DUP1 SWAP2 SUB SWAP1 REVERT JUMPDEST PUSH0 PUSH0 PUSH0 PUSH0 PUSH1 0x1 DUP2 GT ISZERO PUSH2 0x579 JUMPI PUSH2 0x578 PUSH2 0xBB2 JUMP JUMPDEST JUMPDEST PUSH1 0xFF AND PUSH1 0xFF AND DUP2 MSTORE PUSH1 0x20 ADD SWAP1 DUP2 MSTORE PUSH1 0x20 ADD PUSH0 KECCAK256 SLOAD SWAP1 POP PUSH0 PUSH0 PUSH0 PUSH1 0x1 DUP1 DUP2 GT ISZERO PUSH2 0x5A5 JUMPI PUSH2 0x5A4 PUSH2 0xBB2 JUMP JUMPDEST JUMPDEST PUSH1 0xFF AND PUSH1 0xFF AND DUP2 MSTORE PUSH1 0x20 ADD SWAP1 DUP2 MSTORE PUSH1 0x20 ADD PUSH0 KECCAK256 SLOAD SWAP1 POP DUP4 PUSH0 PUSH0 PUSH0 PUSH1 0x1 DUP2 GT ISZERO PUSH2 0x5D1 JUMPI PUSH2 0x5D0 PUSH2 0xBB2 JUMP JUMPDEST JUMPDEST PUSH1 0xFF AND PUSH1 0xFF AND DUP2 MSTORE PUSH1 0x20 ADD SWAP1 DUP2 MSTORE PUSH1 0x20 ADD PUSH0 KECCAK256 DUP2 SWAP1 SSTORE POP DUP3 PUSH0 PUSH0 PUSH1 0x1 DUP1 DUP2 GT ISZERO PUSH2 0x5FE JUMPI PUSH2 0x5FD PUSH2 0xBB2 JUMP JUMPDEST JUMPDEST PUSH1 0xFF AND PUSH1 0xFF AND DUP2 MSTORE PUSH1 0x20 ADD SWAP1 DUP2 MSTORE PUSH1 0x20 ADD PUSH0 KECCAK256 DUP2 SWAP1 SSTORE POP TIMESTAMP PUSH1 0x1 PUSH0 PUSH0 PUSH1 0x1 DUP2 GT ISZERO PUSH2 0x62C JUMPI PUSH2 0x62B PUSH2 0xBB2 JUMP JUMPDEST JUMPDEST PUSH1 0xFF AND PUSH1 0xFF AND DUP2 MSTORE PUSH1 0x20 ADD SWAP1 DUP2 MSTORE PUSH1 0x20 ADD PUSH0 KECCAK256 DUP2 SWAP1 SSTORE POP TIMESTAMP PUSH1 0x1 PUSH0 PUSH1 0x1 DUP1 DUP2 GT ISZERO PUSH2 0x65A JUMPI PUSH2 0x659 PUSH2 0xBB2 JUMP JUMPDEST JUMPDEST PUSH1 0xFF AND PUSH1 0xFF AND DUP2 MSTORE PUSH1 0x20 ADD SWAP1 DUP2 MSTORE PUSH1 0x20 ADD PUSH0 KECCAK256 DUP2 SWAP1 SSTORE POP PUSH0 PUSH1 0x1 DUP2 GT ISZERO PUSH2 0x684 JUMPI PUSH2 0x683 PUSH2 0xBB2 JUMP JUMPDEST JUMPDEST PUSH32 0x705AB289D78E384114DA84E104229E63EF52843C7E62D569E275D63CC3E338EC DUP4 DUP7 TIMESTAMP PUSH1 0x40 MLOAD PUSH2 0x6B7 SWAP4 SWAP3 SWAP2 SWAP1 PUSH2 0xBDF JUMP JUMPDEST PUSH1 0x40 MLOAD DUP1 SWAP2 SUB SWAP1 LOG2 PUSH1 0x1 DUP1 DUP2 GT ISZERO PUSH2 0x6D2 JUMPI PUSH2 0x6D1 PUSH2 0xBB2 JUMP JUMPDEST JUMPDEST PUSH32 0x705AB289D78E384114DA84E104229E63EF52843C7E62D569E275D63CC3E338EC DUP3 DUP6 TIMESTAMP PUSH1 0x40 MLOAD PUSH2 0x705 SWAP4 SWAP3 SWAP2 SWAP1 PUSH2 0xBDF JUMP JUMPDEST PUSH1 0x40 MLOAD DUP1 SWAP2 SUB SWAP1 LOG2 POP POP POP POP JUMP JUMPDEST PUSH0 PUSH0 PUSH0 PUSH0 PUSH0 PUSH1 0x1 DUP2 GT ISZERO PUSH2 0x72A JUMPI PUSH2 0x729 PUSH2 0xBB2 JUMP JUMPDEST JUMPDEST PUSH1 0xFF AND PUSH1 0xFF AND DUP2 MSTORE PUSH1 0x20 ADD SWAP1 DUP2 MSTORE PUSH1 0x20 ADD PUSH0 KECCAK256 SLOAD SWAP2 POP PUSH0 PUSH0 PUSH1 0x1 DUP1 DUP2 GT ISZERO PUSH2 0x755 JUMPI PUSH2 0x754 PUSH2 0xBB2 JUMP JUMPDEST JUMPDEST PUSH1 0xFF AND PUSH1 0xFF AND DUP2 MSTORE PUSH1 0x20 ADD SWAP1 DUP2 MSTORE PUSH1 0x20 ADD PUSH0 KECCAK256 SLOAD SWAP1 POP SWAP1 SWAP2 JUMP JUMPDEST PUSH1 0x1 PUSH1 0x20 MSTORE DUP1 PUSH0 MSTORE PUSH1 0x40 PUSH0 KECCAK256 PUSH0 SWAP2 POP SWAP1 POP SLOAD DUP2 JUMP JUMPDEST PUSH1 0x2 PUSH0 SWAP1 SLOAD SWAP1 PUSH2 0x100 EXP SWAP1 DIV PUSH20 0xFFFFFFFFFFFFFFFFFFFFFFFFFFFFFFFFFFFFFFFF AND PUSH20 0xFFFFFFFFFFFFFFFFFFFFFFFFFFFFFFFFFFFFFFFF AND CALLER PUSH20 0xFFFFFFFFFFFFFFFFFFFFFFFFFFFFFFFFFFFFFFFF AND EQ PUSH2 0x80A JUMPI PUSH1 0x40 MLOAD PUSH32 0x82B4290000000000000000000000000000000000000000000000000000000000 DUP2 MSTORE PUSH1 0x4 ADD PUSH1 0x40 MLOAD DUP1 SWAP2 SUB SWAP1 REVERT JUMPDEST PUSH0 PUSH20 0xFFFFFFFFFFFFFFFFFFFFFFFFFFFFFFFFFFFFFFFF AND DUP2 PUSH20 0xFFFFFFFFFFFFFFFFFFFFFFFFFFFFFFFFFFFFFFFF AND SUB PUSH2 0x86E JUMPI PUSH1 0x40 MLOAD PUSH31 0xBFC92100000000000000000000000000000000000000000000000000000000 DUP2 MSTORE PUSH1 0x4 ADD PUSH1 0x40 MLOAD DUP1 SWAP2 SUB SWAP1 REVERT JUMPDEST DUP1 PUSH20 0xFFFFFFFFFFFFFFFFFFFFFFFFFFFFFFFFFFFFFFFF AND PUSH1 0x2 PUSH0 SWAP1 SLOAD SWAP1 PUSH2 0x100 EXP SWAP1 DIV PUSH20 0xFFFFFFFFFFFFFFFFFFFFFFFFFFFFFFFFFFFFFFFF AND PUSH20 0xFFFFFFFFFFFFFFFFFFFFFFFFFFFFFFFFFFFFFFFF AND PUSH32 0x8BE0079C531659141344CD1FD0A4F28419497F9722A3DAAFE3B4186F6B6457E0 PUSH1 0x40 MLOAD PUSH1 0x40 MLOAD DUP1 SWAP2 SUB SWAP1 LOG3 DUP1 PUSH1 0x2 PUSH0 PUSH2 0x100 EXP DUP2 SLOAD DUP2 PUSH20 0xFFFFFFFFFFFFFFFFFFFFFFFFFFFFFFFFFFFFFFFF MUL NOT AND SWAP1 DUP4 PUSH20 0xFFFFFFFFFFFFFFFFFFFFFFFFFFFFFFFFFFFFFFFF AND MUL OR SWAP1 SSTORE POP POP JUMP JUMPDEST PUSH0 PUSH0 REVERT JUMPDEST PUSH1 0x2 DUP2 LT PUSH2 0x93C JUMPI PUSH0 PUSH0 REVERT JUMPDEST POP JUMP JUMPDEST PUSH0 DUP2 CALLDATALOAD SWAP1 POP PUSH2 0x94D DUP2 PUSH2 0x930 JUMP JUMPDEST SWAP3 SWAP2 POP POP JUMP JUMPDEST PUSH0 DUP2 SWAP1 POP SWAP2 SWAP1 POP JUMP JUMPDEST PUSH2 0x965 DUP2 PUSH2 0x953 JUMP JUMPDEST DUP2 EQ PUSH2 0x96F JUMPI PUSH0 PUSH0 REVERT JUMPDEST POP JUMP JUMPDEST PUSH0 DUP2 CALLDATALOAD SWAP1 POP PUSH2 0x980 DUP2 PUSH2 0x95C JUMP JUMPDEST SWAP3 SWAP2 POP POP JUMP JUMPDEST PUSH0 PUSH0 PUSH1 0x40 DUP4 DUP6 SUB SLT ISZERO PUSH2 0x99C JUMPI PUSH2 0x99B PUSH2 0x92C JUMP JUMPDEST JUMPDEST PUSH0 PUSH2 0x9A9 DUP6 DUP3 DUP7 ADD PUSH2 0x93F JUMP JUMPDEST SWAP3 POP POP PUSH1 0x20 PUSH2 0x9BA DUP6 DUP3 DUP7 ADD PUSH2 0x972 JUMP JUMPDEST SWAP2 POP POP SWAP3 POP SWAP3 SWAP1 POP JUMP JUMPDEST PUSH0 PUSH1 0x20 DUP3 DUP5 SUB SLT ISZERO PUSH2 0x9D9 JUMPI PUSH2 0x9D8 PUSH2 0x92C JUMP JUMPDEST JUMPDEST PUSH0 PUSH2 0x9E6 DUP5 DUP3 DUP6 ADD PUSH2 0x93F JUMP JUMPDEST SWAP2 POP POP SWAP3 SWAP2 POP POP JUMP JUMPDEST PUSH2 0x9F8 DUP2 PUSH2 0x953 JUMP JUMPDEST DUP3 MSTORE POP POP JUMP JUMPDEST PUSH0 PUSH1 0x20 DUP3 ADD SWAP1 POP PUSH2 0xA11 PUSH0 DUP4 ADD DUP5 PUSH2 0x9EF JUMP JUMPDEST SWAP3 SWAP2 POP POP JUMP JUMPDEST PUSH0 PUSH1 0xFF DUP3 AND SWAP1 POP SWAP2 SWAP1 POP JUMP JUMPDEST PUSH2 0xA2C DUP2 PUSH2 0xA17 JUMP JUMPDEST DUP3 MSTORE POP POP JUMP JUMPDEST PUSH0 PUSH1 0x20 DUP3 ADD SWAP1 POP PUSH2 0xA45 PUSH0 DUP4 ADD DUP5 PUSH2 0xA23 JUMP JUMPDEST SWAP3 SWAP2 POP POP JUMP JUMPDEST PUSH0 PUSH20 0xFFFFFFFFFFFFFFFFFFFFFFFFFFFFFFFFFFFFFFFF DUP3 AND SWAP1 POP SWAP2 SWAP1 POP JUMP JUMPDEST PUSH0 PUSH2 0xA74 DUP3 PUSH2 0xA4B JUMP JUMPDEST SWAP1 POP SWAP2 SWAP1 POP JUMP JUMPDEST PUSH2 0xA84 DUP2 PUSH2 0xA6A JUMP JUMPDEST DUP3 MSTORE POP POP JUMP JUMPDEST PUSH0 PUSH1 0x20 DUP3 ADD SWAP1 POP PUSH2 0xA9D PUSH0 DUP4 ADD DUP5 PUSH2 0xA7B JUMP JUMPDEST SWAP3 SWAP2 POP POP JUMP JUMPDEST PUSH0 PUSH0 PUSH1 0x40 DUP4 DUP6 SUB SLT ISZERO PUSH2 0xAB9 JUMPI PUSH2 0xAB8 PUSH2 0x92C JUMP JUMPDEST JUMPDEST PUSH0 PUSH2 0xAC6 DUP6 DUP3 DUP7 ADD PUSH2 0x972 JUMP JUMPDEST SWAP3 POP POP PUSH1 0x20 PUSH2 0xAD7 DUP6 DUP3 DUP7 ADD PUSH2 0x972 JUMP JUMPDEST SWAP2 POP POP SWAP3 POP SWAP3 SWAP1 POP JUMP JUMPDEST PUSH0 PUSH1 0x40 DUP3 ADD SWAP1 POP PUSH2 0xAF4 PUSH0 DUP4 ADD DUP6 PUSH2 0x9EF JUMP JUMPDEST PUSH2 0xB01 PUSH1 0x20 DUP4 ADD DUP5 PUSH2 0x9EF JUMP JUMPDEST SWAP4 SWAP3 POP POP POP JUMP JUMPDEST PUSH2 0xB11 DUP2 PUSH2 0xA17 JUMP JUMPDEST DUP2 EQ PUSH2 0xB1B JUMPI PUSH0 PUSH0 REVERT JUMPDEST POP JUMP JUMPDEST PUSH0 DUP2 CALLDATALOAD SWAP1 POP PUSH2 0xB2C DUP2 PUSH2 0xB08 JUMP JUMPDEST SWAP3 SWAP2 POP POP JUMP JUMPDEST PUSH0 PUSH1 0x20 DUP3 DUP5 SUB SLT ISZERO PUSH2 0xB47 JUMPI PUSH2 0xB46 PUSH2 0x92C JUMP JUMPDEST JUMPDEST PUSH0 PUSH2 0xB54 DUP5 DUP3 DUP6 ADD PUSH2 0xB1E JUMP JUMPDEST SWAP2 POP POP SWAP3 SWAP2 POP POP JUMP JUMPDEST PUSH2 0xB66 DUP2 PUSH2 0xA6A JUMP JUMPDEST DUP2 EQ PUSH2 0xB70 JUMPI PUSH0 PUSH0 REVERT JUMPDEST POP JUMP JUMPDEST PUSH0 DUP2 CALLDATALOAD SWAP1 POP PUSH2 0xB81 DUP2 PUSH2 0xB5D JUMP JUMPDEST SWAP3 SWAP2 POP POP JUMP JUMPDEST PUSH0 PUSH1 0x20 DUP3 DUP5 SUB SLT ISZERO PUSH2 0xB9C JUMPI PUSH2 0xB9B PUSH2 0x92C JUMP JUMPDEST JUMPDEST PUSH0 PUSH2 0xBA9 DUP5 DUP3 DUP6 ADD PUSH2 0xB73 JUMP JUMPDEST SWAP2 POP POP SWAP3 SWAP2 POP POP JUMP JUMPDEST PUSH32 0x4E487B7100000000000000000000000000000000000000000000000000000000 PUSH0 MSTORE PUSH1 0x21 PUSH1 0x4 MSTORE PUSH1 0x24 PUSH0 REVERT JUMPDEST PUSH0 PUSH1 0x60 DUP3 ADD SWAP1 POP PUSH2 0xBF2 PUSH0 DUP4 ADD DUP7 PUSH2 0x9EF JUMP JUMPDEST PUSH2 0xBFF PUSH1 0x20 DUP4 ADD DUP6 PUSH2 0x9EF JUMP JUMPDEST PUSH2 0xC0C PUSH1 0x40 DUP4 ADD DUP5 PUSH2 0x9EF JUMP JUMPDEST SWAP5 SWAP4 POP POP POP POP JUMP JUMPDEST PUSH32 0x4E487B7100000000000000000000000000000000000000000000000000000000 PUSH0 MSTORE PUSH1 0x11 PUSH1 0x4 MSTORE PUSH1 0x24 PUSH0 REVERT JUMPDEST PUSH0 PUSH2 0xC4B DUP3 PUSH2 0x953 JUMP JUMPDEST SWAP2 POP PUSH2 0xC56 DUP4 PUSH2 0x953 JUMP JUMPDEST SWAP3 POP DUP3 DUP3 SUB SWAP1 POP DUP2 DUP2 GT ISZERO PUSH2 0xC6E JUMPI PUSH2 0xC6D PUSH2 0xC14 JUMP JUMPDEST JUMPDEST SWAP3 SWAP2 POP POP JUMP INVALID LOG2 PUSH5 0x6970667358 0x22 SLT KECCAK256 0xC5 PUSH0 KECCAK256 0xB8 SWAP10 0xC9 0xA8 SGT 0xA8 MCOPY BLOBBASEFEE 0xC3 RETURN 0xBF 0xAF 0xC9 PUSH21 0xD194FAA32029E43F72068C2DD2A0D964736F6C6343 STOP ADDMOD 0x1F STOP CALLER "
				},
				"gasEstimates": {
					"creation": {
						"codeDepositCost": "648400",
						"executionCost": "infinite",
						"totalCost": "infinite"
					},
					"external": {
						"DECIMALS()": "376",
						"decimals()": "405",
						"getBothPrices()": "infinite",
						"getLatestPrice(uint8)": "2787",
						"getLatestPrice(uint8,uint256)": "infinite",
						"lastUpdatedAt(uint8)": "2826",
						"owner()": "2508",
						"transferOwnership(address)": "30686",
						"updateBothPrices(uint256,uint256)": "infinite",
						"updatePrice(uint8,uint256)": "infinite"
					}
				},
				"methodIdentifiers": {
					"DECIMALS()": "2e0f2625",
					"decimals()": "313ce567",
					"getBothPrices()": "b601068b",
					"getLatestPrice(uint8)": "0c20a01f",
					"getLatestPrice(uint8,uint256)": "42e18514",
					"lastUpdatedAt(uint8)": "e4c4e9be",
					"owner()": "8da5cb5b",
					"transferOwnership(address)": "f2fde38b",
					"updateBothPrices(uint256,uint256)": "a62b3d3e",
					"updatePrice(uint8,uint256)": "007fa4f0"
				}
			},
			"storageLayout": {
				"storage": [
					{
						"astId": 14,
						"contract": "contracts/src/PriceConsumer.sol:PriceConsumer",
						"label": "_prices",
						"offset": 0,
						"slot": "0",
						"type": "t_mapping(t_uint8,t_uint256)"
					},
					{
						"astId": 19,
						"contract": "contracts/src/PriceConsumer.sol:PriceConsumer",
						"label": "lastUpdatedAt",
						"offset": 0,
						"slot": "1",
						"type": "t_mapping(t_uint8,t_uint256)"
					},
					{
						"astId": 21,
						"contract": "contracts/src/PriceConsumer.sol:PriceConsumer",
						"label": "owner",
						"offset": 0,
						"slot": "2",
						"type": "t_address"
					}
				],
				"types": {
					"t_address": {
						"encoding": "inplace",
						"label": "address",
						"numberOfBytes": "20"
					},
					"t_mapping(t_uint8,t_uint256)": {
						"encoding": "mapping",
						"key": "t_uint8",
						"label": "mapping(uint8 => uint256)",
						"numberOfBytes": "32",
						"value": "t_uint256"
					},
					"t_uint256": {
						"encoding": "inplace",
						"label": "uint256",
						"numberOfBytes": "32"
					},
					"t_uint8": {
						"encoding": "inplace",
						"label": "uint8",
						"numberOfBytes": "1"
					}
				}
			},
			"userdoc": {
				"kind": "user",
				"methods": {
					"getBothPrices()": {
						"notice": "Returns both prices in one call — saves gas for the monitoring bot."
					},
					"getLatestPrice(uint8)": {
						"notice": "Convenience overload — no staleness check."
					},
					"getLatestPrice(uint8,uint256)": {
						"notice": "Get BNB price for a specific currency with optional staleness check."
					},
					"lastUpdatedAt(uint8)": {
						"notice": "Last update timestamp per currency (0=USD, 1=INR)."
					},
					"updateBothPrices(uint256,uint256)": {
						"notice": "Update both prices atomically — preferred so the bot refreshes         USD and INR in the same block to avoid cross-currency arbitrage."
					},
					"updatePrice(uint8,uint256)": {
						"notice": "Update a single currency price."
					}
				},
				"notice": "Dual-currency BNB/USD and BNB/INR price oracle for Ping-Masters.         Deployed on BNB Smart Chain Testnet.  PRICE DECIMAL CONVENTION  (8 decimals, same as Chainlink)   USD  $300.00     ->  30_000_000_000      (3e10)   INR  Rs25000.00  ->  2_500_000_000_000   (2.5e12)  The FastAPI bot calls updateBothPrices() every ~3 seconds so both feeds  stay in sync with BSC block times.  The Currency enum is defined here so LendingEngine can reference  PriceConsumer.Currency without a separate types file.",
				"version": 1
			}
		}
	}
}