{
	"data": {
		"bytecode": {
			"linkReferences": {},
			"object": "6080604052348015600e575f5ffd5b503360065f6101000a81548173ffffffffffffffffffffffffffffffffffffffff021916908373ffffffffffffffffffffffffffffffffffffffff160217905550611b358061005c5f395ff3fe608060405234801561000f575f5ffd5b5060043610610114575f3560e01c8063956cb698116100a0578063c6a2ae8f1161006f578063c6a2ae8f146102ef578063d497747b1461031f578063da35e1d11461034f578063f2fde38b1461036d578063ff6321d91461038957610114565b8063956cb6981461025d578063a66c84f41461027b578063ba5a6a06146102b3578063c28c4c44146102d157610114565b80637c94b1ba116100e75780637c94b1ba146101b757806386b8da04146101d55780638831f724146102055780638bf2265b146102235780638da5cb5b1461023f57610114565b80630a993b33146101185780630aeacb5e146101485780631143ef22146101665780636b4169c314610196575b5f5ffd5b610132600480360381019061012d91906112da565b6103a7565b60405161013f91906114f7565b60405180910390f35b610150610609565b60405161015d9190611526565b60405180910390f35b610180600480360381019061017b9190611569565b610614565b60405161018d919061163c565b60405180910390f35b61019e61077a565b6040516101ae949392919061165c565b60405180910390f35b6101bf610798565b6040516101cc9190611526565b60405180910390f35b6101ef60048036038101906101ea9190611569565b61079e565b6040516101fc9190611526565b60405180910390f35b61020d6107b3565b60405161021a9190611526565b60405180910390f35b61023d60048036038101906102389190611569565b6107b9565b005b61024761092a565b60405161025491906116ae565b60405180910390f35b61026561094f565b60405161027291906116ae565b60405180910390f35b610295600480360381019061029091906116c7565b610974565b6040516102aa99989796959493929190611710565b60405180910390f35b6102bb610a16565b6040516102c89190611526565b60405180910390f35b6102d9610a1c565b6040516102e69190611526565b60405180910390f35b610309600480360381019061030491906116c7565b610a22565b6040516103169190611850565b60405180910390f35b610339600480360381019061033491906118be565b610b9a565b6040516103469190611526565b60405180910390f35b61035761107f565b604051610364919061196f565b60405180910390f35b61038760048036038101906103829190611569565b611084565b005b61039161122d565b60405161039e919061196f565b60405180910390f35b60605f5f805490509050808410610414575f67ffffffffffffffff8111156103d2576103d1611988565b5b60405190808252806020026020018201604052801561040b57816020015b6103f8611231565b8152602001906001900390816103f05790505b50915050610603565b5f838561042191906119e2565b90508181111561042f578190505b848161043b9190611a15565b67ffffffffffffffff81111561045457610453611988565b5b60405190808252806020026020018201604052801561048d57816020015b61047a611231565b8152602001906001900390816104725790505b5092505f8590505b818110156105ff575f81815481106104b0576104af611a48565b5b905f5260205f209060090201604051806101200160405290815f82015f9054906101000a900473ffffffffffffffffffffffffffffffffffffffff1673ffffffffffffffffffffffffffffffffffffffff1673ffffffffffffffffffffffffffffffffffffffff168152602001600182015f9054906101000a900473ffffffffffffffffffffffffffffffffffffffff1673ffffffffffffffffffffffffffffffffffffffff1673ffffffffffffffffffffffffffffffffffffffff168152602001600282015481526020016003820154815260200160048201548152602001600582015f9054906101000a900460ff1660ff1660ff16815260200160068201548152602001600782015481526020016008820154815250508487836105d69190611a15565b815181106105e7576105e6611a48565b5b60200260200101819052508080600101915050610495565b5050505b92915050565b5f5f80549050905090565b60605f60055f8473ffffffffffffffffffffffffffffffffffffffff1673ffffffffffffffffffffffffffffffffffffffff1681526020019081526020015f205490508067ffffffffffffffff81111561067157610670611988565b5b60405190808252806020026020018201604052801561069f5781602001602082028036833780820191505090505b5091505f5f5f90505b5f80549050811080156106ba57508282105b15610772578473ffffffffffffffffffffffffffffffffffffffff165f82815481106106e9576106e8611a48565b5b905f5260205f2090600902015f015f9054906101000a900473ffffffffffffffffffffffffffffffffffffffff1673ffffffffffffffffffffffffffffffffffffffff160361075f578084838061073f90611a75565b94508151811061075257610751611a48565b5b6020026020010181815250505b808061076a90611a75565b9150506106a8565b505050919050565b5f5f5f5f600454935060015492506002549150600354905090919293565b60025481565b6005602052805f5260405f205f915090505481565b60045481565b60065f9054906101000a900473ffffffffffffffffffffffffffffffffffffffff1673ffffffffffffffffffffffffffffffffffffffff163373ffffffffffffffffffffffffffffffffffffffff161461083f576040517f82b4290000000000000000000000000000000000000000000000000000000000815260040160405180910390fd5b5f73ffffffffffffffffffffffffffffffffffffffff168173ffffffffffffffffffffffffffffffffffffffff16036108a4576040517fd92e233d00000000000000000000000000000000000000000000000000000000815260040160405180910390fd5b8060075f6101000a81548173ffffffffffffffffffffffffffffffffffffffff021916908373ffffffffffffffffffffffffffffffffffffffff1602179055508073ffffffffffffffffffffffffffffffffffffffff167f436150dbaf3e670b87bfcfc57d3d2bbd688416031b6a9e527fa2bac1657a1a5d60405160405180910390a250565b60065f9054906101000a900473ffffffffffffffffffffffffffffffffffffffff1681565b60075f9054906101000a900473ffffffffffffffffffffffffffffffffffffffff1681565b5f8181548110610982575f80fd5b905f5260205f2090600902015f91509050805f015f9054906101000a900473ffffffffffffffffffffffffffffffffffffffff1690806001015f9054906101000a900473ffffffffffffffffffffffffffffffffffffffff1690806002015490806003015490806004015490806005015f9054906101000a900460ff16908060060154908060070154908060080154905089565b60015481565b60035481565b610a2a611231565b5f805490508210610a67576040517f3e07f1a100000000000000000000000000000000000000000000000000000000815260040160405180910390fd5b5f8281548110610a7a57610a79611a48565b5b905f5260205f209060090201604051806101200160405290815f82015f9054906101000a900473ffffffffffffffffffffffffffffffffffffffff1673ffffffffffffffffffffffffffffffffffffffff1673ffffffffffffffffffffffffffffffffffffffff168152602001600182015f9054906101000a900473ffffffffffffffffffffffffffffffffffffffff1673ffffffffffffffffffffffffffffffffffffffff1673ffffffffffffffffffffffffffffffffffffffff168152602001600282015481526020016003820154815260200160048201548152602001600582015f9054906101000a900460ff1660ff1660ff16815260200160068201548152602001600782015481526020016008820154815250509050919050565b5f60065f9054906101000a900473ffffffffffffffffffffffffffffffffffffffff1673ffffffffffffffffffffffffffffffffffffffff163373ffffffffffffffffffffffffffffffffffffffff1614158015610c45575060075f9054906101000a900473ffffffffffffffffffffffffffffffffffffffff1673ffffffffffffffffffffffffffffffffffffffff163373ffffffffffffffffffffffffffffffffffffffff1614155b15610c7c576040517f82b4290000000000000000000000000000000000000000000000000000000000815260040160405180910390fd5b5f73ffffffffffffffffffffffffffffffffffffffff168973ffffffffffffffffffffffffffffffffffffffff1603610ce1576040517ff2a3e8db00000000000000000000000000000000000000000000000000000000815260040160405180910390fd5b5f73ffffffffffffffffffffffffffffffffffffffff168873ffffffffffffffffffffffffffffffffffffffff1603610d46576040517ff2a3e8db00000000000000000000000000000000000000000000000000000000815260040160405180910390fd5b5f8703610d7f576040517ff2a3e8db00000000000000000000000000000000000000000000000000000000815260040160405180910390fd5b60018460ff161115610dbd576040517ff599342800000000000000000000000000000000000000000000000000000000815260040160405180910390fd5b5f8054905090505f6040518061012001604052808b73ffffffffffffffffffffffffffffffffffffffff1681526020018a73ffffffffffffffffffffffffffffffffffffffff1681526020018981526020018881526020018781526020018660ff16815260200142815260200185815260200184815250908060018154018082558091505060019003905f5260205f2090600902015f909190919091505f820151815f015f6101000a81548173ffffffffffffffffffffffffffffffffffffffff021916908373ffffffffffffffffffffffffffffffffffffffff1602179055506020820151816001015f6101000a81548173ffffffffffffffffffffffffffffffffffffffff021916908373ffffffffffffffffffffffffffffffffffffffff16021790555060408201518160020155606082015181600301556080820151816004015560a0820151816005015f6101000a81548160ff021916908360ff16021790555060c0820151816006015560e08201518160070155610100820151816008015550508560035f828254610f5491906119e2565b9250508190555060045f815480929190610f6d90611a75565b919050555060055f8a73ffffffffffffffffffffffffffffffffffffffff1673ffffffffffffffffffffffffffffffffffffffff1681526020019081526020015f205f815480929190610fbf90611a75565b91905055505f60ff168460ff1603610fee578660015f828254610fe291906119e2565b92505081905550611007565b8660025f828254610fff91906119e2565b925050819055505b8773ffffffffffffffffffffffffffffffffffffffff168973ffffffffffffffffffffffffffffffffffffffff16827f4ff3917f274a7035e685b2352d2ca9bbaf4b85746e49d1613c2a3988551d9b5b8a8a898860405161106b9493929190611abc565b60405180910390a498975050505050505050565b600181565b60065f9054906101000a900473ffffffffffffffffffffffffffffffffffffffff1673ffffffffffffffffffffffffffffffffffffffff163373ffffffffffffffffffffffffffffffffffffffff161461110a576040517f82b4290000000000000000000000000000000000000000000000000000000000815260040160405180910390fd5b5f73ffffffffffffffffffffffffffffffffffffffff168173ffffffffffffffffffffffffffffffffffffffff160361116f576040517fd92e233d00000000000000000000000000000000000000000000000000000000815260040160405180910390fd5b8073ffffffffffffffffffffffffffffffffffffffff1660065f9054906101000a900473ffffffffffffffffffffffffffffffffffffffff1673ffffffffffffffffffffffffffffffffffffffff167f8be0079c531659141344cd1fd0a4f28419497f9722a3daafe3b4186f6b6457e060405160405180910390a38060065f6101000a81548173ffffffffffffffffffffffffffffffffffffffff021916908373ffffffffffffffffffffffffffffffffffffffff16021790555050565b5f81565b6040518061012001604052805f73ffffffffffffffffffffffffffffffffffffffff1681526020015f73ffffffffffffffffffffffffffffffffffffffff1681526020015f81526020015f81526020015f81526020015f60ff1681526020015f81526020015f81526020015f81525090565b5f5ffd5b5f819050919050565b6112b9816112a7565b81146112c3575f5ffd5b50565b5f813590506112d4816112b0565b92915050565b5f5f604083850312156112f0576112ef6112a3565b5b5f6112fd858286016112c6565b925050602061130e858286016112c6565b9150509250929050565b5f81519050919050565b5f82825260208201905092915050565b5f819050602082019050919050565b5f73ffffffffffffffffffffffffffffffffffffffff82169050919050565b5f61136a82611341565b9050919050565b61137a81611360565b82525050565b611389816112a7565b82525050565b5f60ff82169050919050565b6113a48161138f565b82525050565b5f819050919050565b6113bc816113aa565b82525050565b61012082015f8201516113d75f850182611371565b5060208201516113ea6020850182611371565b5060408201516113fd6040850182611380565b5060608201516114106060850182611380565b5060808201516114236080850182611380565b5060a082015161143660a085018261139b565b5060c082015161144960c0850182611380565b5060e082015161145c60e0850182611380565b506101008201516114716101008501826113b3565b50505050565b5f61148283836113c2565b6101208301905092915050565b5f602082019050919050565b5f6114a582611318565b6114af8185611322565b93506114ba83611332565b805f5b838110156114ea5781516114d18882611477565b97506114dc8361148f565b9250506001810190506114bd565b5085935050505092915050565b5f6020820190508181035f83015261150f818461149b565b905092915050565b611520816112a7565b82525050565b5f6020820190506115395f830184611517565b92915050565b61154881611360565b8114611552575f5ffd5b50565b5f813590506115638161153f565b92915050565b5f6020828403121561157e5761157d6112a3565b5b5f61158b84828501611555565b91505092915050565b5f81519050919050565b5f82825260208201905092915050565b5f819050602082019050919050565b5f6115c88383611380565b60208301905092915050565b5f602082019050919050565b5f6115ea82611594565b6115f4818561159e565b93506115ff836115ae565b805f5b8381101561162f57815161161688826115bd565b9750611621836115d4565b925050600181019050611602565b5085935050505092915050565b5f6020820190508181035f83015261165481846115e0565b905092915050565b5f60808201905061166f5f830187611517565b61167c6020830186611517565b6116896040830185611517565b6116966060830184611517565b95945050505050565b6116a881611360565b82525050565b5f6020820190506116c15f83018461169f565b92915050565b5f602082840312156116dc576116db6112a3565b5b5f6116e9848285016112c6565b91505092915050565b6116fb8161138f565b82525050565b61170a816113aa565b82525050565b5f610120820190506117245f83018c61169f565b611731602083018b61169f565b61173e604083018a611517565b61174b6060830189611517565b6117586080830188611517565b61176560a08301876116f2565b61177260c0830186611517565b61177f60e0830185611517565b61178d610100830184611701565b9a9950505050505050505050565b61012082015f8201516117b05f850182611371565b5060208201516117c36020850182611371565b5060408201516117d66040850182611380565b5060608201516117e96060850182611380565b5060808201516117fc6080850182611380565b5060a082015161180f60a085018261139b565b5060c082015161182260c0850182611380565b5060e082015161183560e0850182611380565b5061010082015161184a6101008501826113b3565b50505050565b5f610120820190506118645f83018461179b565b92915050565b6118738161138f565b811461187d575f5ffd5b50565b5f8135905061188e8161186a565b92915050565b61189d816113aa565b81146118a7575f5ffd5b50565b5f813590506118b881611894565b92915050565b5f5f5f5f5f5f5f5f610100898b0312156118db576118da6112a3565b5b5f6118e88b828c01611555565b98505060206118f98b828c01611555565b975050604061190a8b828c016112c6565b965050606061191b8b828c016112c6565b955050608061192c8b828c016112c6565b94505060a061193d8b828c01611880565b93505060c061194e8b828c016112c6565b92505060e061195f8b828c016118aa565b9150509295985092959890939650565b5f6020820190506119825f8301846116f2565b92915050565b7f4e487b71000000000000000000000000000000000000000000000000000000005f52604160045260245ffd5b7f4e487b71000000000000000000000000000000000000000000000000000000005f52601160045260245ffd5b5f6119ec826112a7565b91506119f7836112a7565b9250828201905080821115611a0f57611a0e6119b5565b5b92915050565b5f611a1f826112a7565b9150611a2a836112a7565b9250828203905081811115611a4257611a416119b5565b5b92915050565b7f4e487b71000000000000000000000000000000000000000000000000000000005f52603260045260245ffd5b5f611a7f826112a7565b91507fffffffffffffffffffffffffffffffffffffffffffffffffffffffffffffffff8203611ab157611ab06119b5565b5b600182019050919050565b5f608082019050611acf5f830187611517565b611adc6020830186611517565b611ae960408301856116f2565b611af66060830184611701565b9594505050505056fea2646970667358221220d2140ab05a91c1964e8df8aa3dcad6eb40fbba436d83037cd5557f3b6b869e3764736f6c634300081f0033",
			"opcodes": "PUSH1 0x80 PUSH1 0x40 MSTORE CALLVALUE DUP1 ISZERO PUSH1 0xE JUMPI PUSH0 PUSH0 REVERT JUMPDEST POP CALLER PUSH1 0x6 PUSH0 PUSH2 0x100 EXP DUP2 SLOAD DUP2 PUSH20 0xFFFFFFFFFFFFFFFFFFFFFFFFFFFFFFFFFFFFFFFF MUL NOT AND SWAP1 DUP4 PUSH20 0xFFFFFFFFFFFFFFFFFFFFFFFFFFFFFFFFFFFFFFFF AND MUL OR SWAP1 SSTORE POP PUSH2 0x1B35 DUP1 PUSH2 0x5C PUSH0 CODECOPY PUSH0 RETURN INVALID PUSH1 0x80 PUSH1 0x40 MSTORE CALLVALUE DUP1 ISZERO PUSH2 0xF JUMPI PUSH0 PUSH0 REVERT JUMPDEST POP PUSH1 0x4 CALLDATASIZE LT PUSH2 0x114 JUMPI PUSH0 CALLDATALOAD PUSH1 0xE0 SHR DUP1 PUSH4 0x956CB698 GT PUSH2 0xA0 JUMPI DUP1 PUSH4 0xC6A2AE8F GT PUSH2 0x6F JUMPI DUP1 PUSH4 0xC6A2AE8F EQ PUSH2 0x2EF JUMPI DUP1 PUSH4 0xD497747B EQ PUSH2 0x31F JUMPI DUP1 PUSH4 0xDA35E1D1 EQ PUSH2 0x34F JUMPI DUP1 PUSH4 0xF2FDE38B EQ PUSH2 0x36D JUMPI DUP1 PUSH4 0xFF6321D9 EQ PUSH2 0x389 JUMPI PUSH2 0x114 JUMP JUMPDEST DUP1 PUSH4 0x956CB698 EQ PUSH2 0x25D JUMPI DUP1 PUSH4 0xA66C84F4 EQ PUSH2 0x27B JUMPI DUP1 PUSH4 0xBA5A6A06 EQ PUSH2 0x2B3 JUMPI DUP1 PUSH4 0xC28C4C44 EQ PUSH2 0x2D1 JUMPI PUSH2 0x114 JUMP JUMPDEST DUP1 PUSH4 0x7C94B1BA GT PUSH2 0xE7 JUMPI DUP1 PUSH4 0x7C94B1BA EQ PUSH2 0x1B7 JUMPI DUP1 PUSH4 0x86B8DA04 EQ PUSH2 0x1D5 JUMPI DUP1 PUSH4 0x8831F724 EQ PUSH2 0x205 JUMPI DUP1 PUSH4 0x8BF2265B EQ PUSH2 0x223 JUMPI DUP1 PUSH4 0x8DA5CB5B EQ PUSH2 0x23F JUMPI PUSH2 0x114 JUMP JUMPDEST DUP1 PUSH4 0xA993B33 EQ PUSH2 0x118 JUMPI DUP1 PUSH4 0xAEACB5E EQ PUSH2 0x148 JUMPI DUP1 PUSH4 0x1143EF22 EQ PUSH2 0x166 JUMPI DUP1 PUSH4 0x6B4169C3 EQ PUSH2 0x196 JUMPI JUMPDEST PUSH0 PUSH0 REVERT JUMPDEST PUSH2 0x132 PUSH1 0x4 DUP1 CALLDATASIZE SUB DUP2 ADD SWAP1 PUSH2 0x12D SWAP2 SWAP1 PUSH2 0x12DA JUMP JUMPDEST PUSH2 0x3A7 JUMP JUMPDEST PUSH1 0x40 MLOAD PUSH2 0x13F SWAP2 SWAP1 PUSH2 0x14F7 JUMP JUMPDEST PUSH1 0x40 MLOAD DUP1 SWAP2 SUB SWAP1 RETURN JUMPDEST PUSH2 0x150 PUSH2 0x609 JUMP JUMPDEST PUSH1 0x40 MLOAD PUSH2 0x15D SWAP2 SWAP1 PUSH2 0x1526 JUMP JUMPDEST PUSH1 0x40 MLOAD DUP1 SWAP2 SUB SWAP1 RETURN JUMPDEST PUSH2 0x180 PUSH1 0x4 DUP1 CALLDATASIZE SUB DUP2 ADD SWAP1 PUSH2 0x17B SWAP2 SWAP1 PUSH2 0x1569 JUMP JUMPDEST PUSH2 0x614 JUMP JUMPDEST PUSH1 0x40 MLOAD PUSH2 0x18D SWAP2 SWAP1 PUSH2 0x163C JUMP JUMPDEST PUSH1 0x40 MLOAD DUP1 SWAP2 SUB SWAP1 RETURN JUMPDEST PUSH2 0x19E PUSH2 0x77A JUMP JUMPDEST PUSH1 0x40 MLOAD PUSH2 0x1AE SWAP5 SWAP4 SWAP3 SWAP2 SWAP1 PUSH2 0x165C JUMP JUMPDEST PUSH1 0x40 MLOAD DUP1 SWAP2 SUB SWAP1 RETURN JUMPDEST PUSH2 0x1BF PUSH2 0x798 JUMP JUMPDEST PUSH1 0x40 MLOAD PUSH2 0x1CC SWAP2 SWAP1 PUSH2 0x1526 JUMP JUMPDEST PUSH1 0x40 MLOAD DUP1 SWAP2 SUB SWAP1 RETURN JUMPDEST PUSH2 0x1EF PUSH1 0x4 DUP1 CALLDATASIZE SUB DUP2 ADD SWAP1 PUSH2 0x1EA SWAP2 SWAP1 PUSH2 0x1569 JUMP JUMPDEST PUSH2 0x79E JUMP JUMPDEST PUSH1 0x40 MLOAD PUSH2 0x1FC SWAP2 SWAP1 PUSH2 0x1526 JUMP JUMPDEST PUSH1 0x40 MLOAD DUP1 SWAP2 SUB SWAP1 RETURN JUMPDEST PUSH2 0x20D PUSH2 0x7B3 JUMP JUMPDEST PUSH1 0x40 MLOAD PUSH2 0x21A SWAP2 SWAP1 PUSH2 0x1526 JUMP JUMPDEST PUSH1 0x40 MLOAD DUP1 SWAP2 SUB SWAP1 RETURN JUMPDEST PUSH2 0x23D PUSH1 0x4 DUP1 CALLDATASIZE SUB DUP2 ADD SWAP1 PUSH2 0x238 SWAP2 SWAP1 PUSH2 0x1569 JUMP JUMPDEST PUSH2 0x7B9 JUMP JUMPDEST STOP JUMPDEST PUSH2 0x247 PUSH2 0x92A JUMP JUMPDEST PUSH1 0x40 MLOAD PUSH2 0x254 SWAP2 SWAP1 PUSH2 0x16AE JUMP JUMPDEST PUSH1 0x40 MLOAD DUP1 SWAP2 SUB SWAP1 RETURN JUMPDEST PUSH2 0x265 PUSH2 0x94F JUMP JUMPDEST PUSH1 0x40 MLOAD PUSH2 0x272 SWAP2 SWAP1 PUSH2 0x16AE JUMP JUMPDEST PUSH1 0x40 MLOAD DUP1 SWAP2 SUB SWAP1 RETURN JUMPDEST PUSH2 0x295 PUSH1 0x4 DUP1 CALLDATASIZE SUB DUP2 ADD SWAP1 PUSH2 0x290 SWAP2 SWAP1 PUSH2 0x16C7 JUMP JUMPDEST PUSH2 0x974 JUMP JUMPDEST PUSH1 0x40 MLOAD PUSH2 0x2AA SWAP10 SWAP9 SWAP8 SWAP7 SWAP6 SWAP5 SWAP4 SWAP3 SWAP2 SWAP1 PUSH2 0x1710 JUMP JUMPDEST PUSH1 0x40 MLOAD DUP1 SWAP2 SUB SWAP1 RETURN JUMPDEST PUSH2 0x2BB PUSH2 0xA16 JUMP JUMPDEST PUSH1 0x40 MLOAD PUSH2 0x2C8 SWAP2 SWAP1 PUSH2 0x1526 JUMP JUMPDEST PUSH1 0x40 MLOAD DUP1 SWAP2 SUB SWAP1 RETURN JUMPDEST PUSH2 0x2D9 PUSH2 0xA1C JUMP JUMPDEST PUSH1 0x40 MLOAD PUSH2 0x2E6 SWAP2 SWAP1 PUSH2 0x1526 JUMP JUMPDEST PUSH1 0x40 MLOAD DUP1 SWAP2 SUB SWAP1 RETURN JUMPDEST PUSH2 0x309 PUSH1 0x4 DUP1 CALLDATASIZE SUB DUP2 ADD SWAP1 PUSH2 0x304 SWAP2 SWAP1 PUSH2 0x16C7 JUMP JUMPDEST PUSH2 0xA22 JUMP JUMPDEST PUSH1 0x40 MLOAD PUSH2 0x316 SWAP2 SWAP1 PUSH2 0x1850 JUMP JUMPDEST PUSH1 0x40 MLOAD DUP1 SWAP2 SUB SWAP1 RETURN JUMPDEST PUSH2 0x339 PUSH1 0x4 DUP1 CALLDATASIZE SUB DUP2 ADD SWAP1 PUSH2 0x334 SWAP2 SWAP1 PUSH2 0x18BE JUMP JUMPDEST PUSH2 0xB9A JUMP JUMPDEST PUSH1 0x40 MLOAD PUSH2 0x346 SWAP2 SWAP1 PUSH2 0x1526 JUMP JUMPDEST PUSH1 0x40 MLOAD DUP1 SWAP2 SUB SWAP1 RETURN JUMPDEST PUSH2 0x357 PUSH2 0x107F JUMP JUMPDEST PUSH1 0x40 MLOAD PUSH2 0x364 SWAP2 SWAP1 PUSH2 0x196F JUMP JUMPDEST PUSH1 0x40 MLOAD DUP1 SWAP2 SUB SWAP1 RETURN JUMPDEST PUSH2 0x387 PUSH1 0x4 DUP1 CALLDATASIZE SUB DUP2 ADD SWAP1 PUSH2 0x382 SWAP2 SWAP1 PUSH2 0x1569 JUMP JUMPDEST PUSH2 0x1084 JUMP JUMPDEST STOP JUMPDEST PUSH2 0x391 PUSH2 0x122D JUMP JUMPDEST PUSH1 0x40 MLOAD PUSH2 0x39E SWAP2 SWAP1 PUSH2 0x196F JUMP JUMPDEST PUSH1 0x40 MLOAD DUP1 SWAP2 SUB SWAP1 RETURN JUMPDEST PUSH1 0x60 PUSH0 PUSH0 DUP1 SLOAD SWAP1 POP SWAP1 POP DUP1 DUP5 LT PUSH2 0x414 JUMPI PUSH0 PUSH8 0xFFFFFFFFFFFFFFFF DUP2 GT ISZERO PUSH2 0x3D2 JUMPI PUSH2 0x3D1 PUSH2 0x1988 JUMP JUMPDEST JUMPDEST PUSH1 0x40 MLOAD SWAP1 DUP1 DUP3 MSTORE DUP1 PUSH1 0x20 MUL PUSH1 0x20 ADD DUP3 ADD PUSH1 0x40 MSTORE DUP1 ISZERO PUSH2 0x40B JUMPI DUP2 PUSH1 0x20 ADD JUMPDEST PUSH2 0x3F8 PUSH2 0x1231 JUMP JUMPDEST DUP2 MSTORE PUSH1 0x20 ADD SWAP1 PUSH1 0x1 SWAP1 SUB SWAP1 DUP2 PUSH2 0x3F0 JUMPI SWAP1 POP JUMPDEST POP SWAP2 POP POP PUSH2 0x603 JUMP JUMPDEST PUSH0 DUP4 DUP6 PUSH2 0x421 SWAP2 SWAP1 PUSH2 0x19E2 JUMP JUMPDEST SWAP1 POP DUP2 DUP2 GT ISZERO PUSH2 0x42F JUMPI DUP2 SWAP1 POP JUMPDEST DUP5 DUP2 PUSH2 0x43B SWAP2 SWAP1 PUSH2 0x1A15 JUMP JUMPDEST PUSH8 0xFFFFFFFFFFFFFFFF DUP2 GT ISZERO PUSH2 0x454 JUMPI PUSH2 0x453 PUSH2 0x1988 JUMP JUMPDEST JUMPDEST PUSH1 0x40 MLOAD SWAP1 DUP1 DUP3 MSTORE DUP1 PUSH1 0x20 MUL PUSH1 0x20 ADD DUP3 ADD PUSH1 0x40 MSTORE DUP1 ISZERO PUSH2 0x48D JUMPI DUP2 PUSH1 0x20 ADD JUMPDEST PUSH2 0x47A PUSH2 0x1231 JUMP JUMPDEST DUP2 MSTORE PUSH1 0x20 ADD SWAP1 PUSH1 0x1 SWAP1 SUB SWAP1 DUP2 PUSH2 0x472 JUMPI SWAP1 POP JUMPDEST POP SWAP3 POP PUSH0 DUP6 SWAP1 POP JUMPDEST DUP2 DUP2 LT ISZERO PUSH2 0x5FF JUMPI PUSH0 DUP2 DUP2 SLOAD DUP2 LT PUSH2 0x4B0 JUMPI PUSH2 0x4AF PUSH2 0x1A48 JUMP JUMPDEST JUMPDEST SWAP1 PUSH0 MSTORE PUSH1 0x20 PUSH0 KECCAK256 SWAP1 PUSH1 0x9 MUL ADD PUSH1 0x40 MLOAD DUP1 PUSH2 0x120 ADD PUSH1 0x40 MSTORE SWAP1 DUP2 PUSH0 DUP3 ADD PUSH0 SWAP1 SLOAD SWAP1 PUSH2 0x100 EXP SWAP1 DIV PUSH20 0xFFFFFFFFFFFFFFFFFFFFFFFFFFFFFFFFFFFFFFFF AND PUSH20 0xFFFFFFFFFFFFFFFFFFFFFFFFFFFFFFFFFFFFFFFF AND PUSH20 0xFFFFFFFFFFFFFFFFFFFFFFFFFFFFFFFFFFFFFFFF AND DUP2 MSTORE PUSH1 0x20 ADD PUSH1 0x1 DUP3 ADD PUSH0 SWAP1 SLOAD SWAP1 PUSH2 0x100 EXP SWAP1 DIV PUSH20 0xFFFFFFFFFFFFFFFFFFFFFFFFFFFFFFFFFFFFFFFF AND PUSH20 0xFFFFFFFFFFFFFFFFFFFFFFFFFFFFFFFFFFFFFFFF AND PUSH20 0xFFFFFFFFFFFFFFFFFFFFFFFFFFFFFFFFFFFFFFFF AND DUP2 MSTORE PUSH1 0x20 ADD PUSH1 0x2 DUP3 ADD SLOAD DUP2 MSTORE PUSH1 0x20 ADD PUSH1 0x3 DUP3 ADD SLOAD DUP2 MSTORE PUSH1 0x20 ADD PUSH1 0x4 DUP3 ADD SLOAD DUP2 MSTORE PUSH1 0x20 ADD PUSH1 0x5 DUP3 ADD PUSH0 SWAP1 SLOAD SWAP1 PUSH2 0x100 EXP SWAP1 DIV PUSH1 0xFF AND PUSH1 0xFF AND PUSH1 0xFF AND DUP2 MSTORE PUSH1 0x20 ADD PUSH1 0x6 DUP3 ADD SLOAD DUP2 MSTORE PUSH1 0x20 ADD PUSH1 0x7 DUP3 ADD SLOAD DUP2 MSTORE PUSH1 0x20 ADD PUSH1 0x8 DUP3 ADD SLOAD DUP2 MSTORE POP POP DUP5 DUP8 DUP4 PUSH2 0x5D6 SWAP2 SWAP1 PUSH2 0x1A15 JUMP JUMPDEST DUP2 MLOAD DUP2 LT PUSH2 0x5E7 JUMPI PUSH2 0x5E6 PUSH2 0x1A48 JUMP JUMPDEST JUMPDEST PUSH1 0x20 MUL PUSH1 0x20 ADD ADD DUP2 SWAP1 MSTORE POP DUP1 DUP1 PUSH1 0x1 ADD SWAP2 POP POP PUSH2 0x495 JUMP JUMPDEST POP POP POP JUMPDEST SWAP3 SWAP2 POP POP JUMP JUMPDEST PUSH0 PUSH0 DUP1 SLOAD SWAP1 POP SWAP1 POP SWAP1 JUMP JUMPDEST PUSH1 0x60 PUSH0 PUSH1 0x5 PUSH0 DUP5 PUSH20 0xFFFFFFFFFFFFFFFFFFFFFFFFFFFFFFFFFFFFFFFF AND PUSH20 0xFFFFFFFFFFFFFFFFFFFFFFFFFFFFFFFFFFFFFFFF AND DUP2 MSTORE PUSH1 0x20 ADD SWAP1 DUP2 MSTORE PUSH1 0x20 ADD PUSH0 KECCAK256 SLOAD SWAP1 POP DUP1 PUSH8 0xFFFFFFFFFFFFFFFF DUP2 GT ISZERO PUSH2 0x671 JUMPI PUSH2 0x670 PUSH2 0x1988 JUMP JUMPDEST JUMPDEST PUSH1 0x40 MLOAD SWAP1 DUP1 DUP3 MSTORE DUP1 PUSH1 0x20 MUL PUSH1 0x20 ADD DUP3 ADD PUSH1 0x40 MSTORE DUP1 ISZERO PUSH2 0x69F JUMPI DUP2 PUSH1 0x20 ADD PUSH1 0x20 DUP3 MUL DUP1 CALLDATASIZE DUP4 CALLDATACOPY DUP1 DUP3 ADD SWAP2 POP POP SWAP1 POP JUMPDEST POP SWAP2 POP PUSH0 PUSH0 PUSH0 SWAP1 POP JUMPDEST PUSH0 DUP1 SLOAD SWAP1 POP DUP2 LT DUP1 ISZERO PUSH2 0x6BA JUMPI POP DUP3 DUP3 LT JUMPDEST ISZERO PUSH2 0x772 JUMPI DUP5 PUSH20 0xFFFFFFFFFFFFFFFFFFFFFFFFFFFFFFFFFFFFFFFF AND PUSH0 DUP3 DUP2 SLOAD DUP2 LT PUSH2 0x6E9 JUMPI PUSH2 0x6E8 PUSH2 0x1A48 JUMP JUMPDEST JUMPDEST SWAP1 PUSH0 MSTORE PUSH1 0x20 PUSH0 KECCAK256 SWAP1 PUSH1 0x9 MUL ADD PUSH0 ADD PUSH0 SWAP1 SLOAD SWAP1 PUSH2 0x100 EXP SWAP1 DIV PUSH20 0xFFFFFFFFFFFFFFFFFFFFFFFFFFFFFFFFFFFFFFFF AND PUSH20 0xFFFFFFFFFFFFFFFFFFFFFFFFFFFFFFFFFFFFFFFF AND SUB PUSH2 0x75F JUMPI DUP1 DUP5 DUP4 DUP1 PUSH2 0x73F SWAP1 PUSH2 0x1A75 JUMP JUMPDEST SWAP5 POP DUP2 MLOAD DUP2 LT PUSH2 0x752 JUMPI PUSH2 0x751 PUSH2 0x1A48 JUMP JUMPDEST JUMPDEST PUSH1 0x20 MUL PUSH1 0x20 ADD ADD DUP2 DUP2 MSTORE POP POP JUMPDEST DUP1 DUP1 PUSH2 0x76A SWAP1 PUSH2 0x1A75 JUMP JUMPDEST SWAP2 POP POP PUSH2 0x6A8 JUMP JUMPDEST POP POP POP SWAP2 SWAP1 POP JUMP JUMPDEST PUSH0 PUSH0 PUSH0 PUSH0 PUSH1 0x4 SLOAD SWAP4 POP PUSH1 0x1 SLOAD SWAP3 POP PUSH1 0x2 SLOAD SWAP2 POP PUSH1 0x3 SLOAD SWAP1 POP SWAP1 SWAP2 SWAP3 SWAP4 JUMP JUMPDEST PUSH1 0x2 SLOAD DUP2 JUMP JUMPDEST PUSH1 0x5 PUSH1 0x20 MSTORE DUP1 PUSH0 MSTORE PUSH1 0x40 PUSH0 KECCAK256 PUSH0 SWAP2 POP SWAP1 POP SLOAD DUP2 JUMP JUMPDEST PUSH1 0x4 SLOAD DUP2 JUMP JUMPDEST PUSH1 0x6 PUSH0 SWAP1 SLOAD SWAP1 PUSH2 0x100 EXP SWAP1 DIV PUSH20 0xFFFFFFFFFFFFFFFFFFFFFFFFFFFFFFFFFFFFFFFF AND PUSH20 0xFFFFFFFFFFFFFFFFFFFFFFFFFFFFFFFFFFFFFFFF AND CALLER PUSH20 0xFFFFFFFFFFFFFFFFFFFFFFFFFFFFFFFFFFFFFFFF AND EQ PUSH2 0x83F JUMPI PUSH1 0x40 MLOAD PUSH32 0x82B4290000000000000000000000000000000000000000000000000000000000 DUP2 MSTORE PUSH1 0x4 ADD PUSH1 0x40 MLOAD DUP1 SWAP2 SUB SWAP1 REVERT JUMPDEST PUSH0 PUSH20 0xFFFFFFFFFFFFFFFFFFFFFFFFFFFFFFFFFFFFFFFF AND DUP2 PUSH20 0xFFFFFFFFFFFFFFFFFFFFFFFFFFFFFFFFFFFFFFFF AND SUB PUSH2 0x8A4 JUMPI PUSH1 0x40 MLOAD PUSH32 0xD92E233D00000000000000000000000000000000000000000000000000000000 DUP2 MSTORE PUSH1 0x4 ADD PUSH1 0x40 MLOAD DUP1 SWAP2 SUB SWAP1 REVERT JUMPDEST DUP1 PUSH1 0x7 PUSH0 PUSH2 0x100 EXP DUP2 SLOAD DUP2 PUSH20 0xFFFFFFFFFFFFFFFFFFFFFFFFFFFFFFFFFFFFFFFF MUL NOT AND SWAP1 DUP4 PUSH20 0xFFFFFFFFFFFFFFFFFFFFFFFFFFFFFFFFFFFFFFFF AND MUL OR SWAP1 SSTORE POP DUP1 PUSH20 0xFFFFFFFFFFFFFFFFFFFFFFFFFFFFFFFFFFFFFFFF AND PUSH32 0x436150DBAF3E670B87BFCFC57D3D2BBD688416031B6A9E527FA2BAC1657A1A5D PUSH1 0x40 MLOAD PUSH1 0x40 MLOAD DUP1 SWAP2 SUB SWAP1 LOG2 POP JUMP JUMPDEST PUSH1 0x6 PUSH0 SWAP1 SLOAD SWAP1 PUSH2 0x100 EXP SWAP1 DIV PUSH20 0xFFFFFFFFFFFFFFFFFFFFFFFFFFFFFFFFFFFFFFFF AND DUP2 JUMP JUMPDEST PUSH1 0x7 PUSH0 SWAP1 SLOAD SWAP1 PUSH2 0x100 EXP SWAP1 DIV PUSH20 0xFFFFFFFFFFFFFFFFFFFFFFFFFFFFFFFFFFFFFFFF AND DUP2 JUMP JUMPDEST PUSH0 DUP2 DUP2 SLOAD DUP2 LT PUSH2 0x982 JUMPI PUSH0 DUP1 REVERT JUMPDEST SWAP1 PUSH0 MSTORE PUSH1 0x20 PUSH0 KECCAK256 SWAP1 PUSH1 0x9 MUL ADD PUSH0 SWAP2 POP SWAP1 POP DUP1 PUSH0 ADD PUSH0 SWAP1 SLOAD SWAP1 PUSH2 0x100 EXP SWAP1 DIV PUSH20 0xFFFFFFFFFFFFFFFFFFFFFFFFFFFFFFFFFFFFFFFF AND SWAP1 DUP1 PUSH1 0x1 ADD PUSH0 SWAP1 SLOAD SWAP1 PUSH2 0x100 EXP SWAP1 DIV PUSH20 0xFFFFFFFFFFFFFFFFFFFFFFFFFFFFFFFFFFFFFFFF AND SWAP1 DUP1 PUSH1 0x2 ADD SLOAD SWAP1 DUP1 PUSH1 0x3 ADD SLOAD SWAP1 DUP1 PUSH1 0x4 ADD SLOAD SWAP1 DUP1 PUSH1 0x5 ADD PUSH0 SWAP1 SLOAD SWAP1 PUSH2 0x100 EXP SWAP1 DIV PUSH1 0xFF AND SWAP1 DUP1 PUSH1 0x6 ADD SLOAD SWAP1 DUP1 PUSH1 0x7 ADD SLOAD SWAP1 DUP1 PUSH1 0x8 ADD SLOAD SWAP1 POP DUP10 JUMP JUMPDEST PUSH1 0x1 SLOAD DUP2 JUMP JUMPDEST PUSH1 0x3 SLOAD DUP2 JUMP JUMPDEST PUSH2 0xA2A PUSH2 0x1231 JUMP JUMPDEST PUSH0 DUP1 SLOAD SWAP1 POP DUP3 LT PUSH2 0xA67 JUMPI PUSH1 0x40 MLOAD PUSH32 0x3E07F1A100000000000000000000000000000000000000000000000000000000 DUP2 MSTORE PUSH1 0x4 ADD PUSH1 0x40 MLOAD DUP1 SWAP2 SUB SWAP1 REVERT JUMPDEST PUSH0 DUP3 DUP2 SLOAD DUP2 LT PUSH2 0xA7A JUMPI PUSH2 0xA79 PUSH2 0x1A48 JUMP JUMPDEST JUMPDEST SWAP1 PUSH0 MSTORE PUSH1 0x20 PUSH0 KECCAK256 SWAP1 PUSH1 0x9 MUL ADD PUSH1 0x40 MLOAD DUP1 PUSH2 0x120 ADD PUSH1 0x40 MSTORE SWAP1 DUP2 PUSH0 DUP3 ADD PUSH0 SWAP1 SLOAD SWAP1 PUSH2 0x100 EXP SWAP1 DIV PUSH20 0xFFFFFFFFFFFFFFFFFFFFFFFFFFFFFFFFFFFFFFFF AND PUSH20 0xFFFFFFFFFFFFFFFFFFFFFFFFFFFFFFFFFFFFFFFF AND PUSH20 0xFFFFFFFFFFFFFFFFFFFFFFFFFFFFFFFFFFFFFFFF AND DUP2 MSTORE PUSH1 0x20 ADD PUSH1 0x1 DUP3 ADD PUSH0 SWAP1 SLOAD SWAP1 PUSH2 0x100 EXP SWAP1 DIV PUSH20 0xFFFFFFFFFFFFFFFFFFFFFFFFFFFFFFFFFFFFFFFF AND PUSH20 0xFFFFFFFFFFFFFFFFFFFFFFFFFFFFFFFFFFFFFFFF AND PUSH20 0xFFFFFFFFFFFFFFFFFFFFFFFFFFFFFFFFFFFFFFFF AND DUP2 MSTORE PUSH1 0x20 ADD PUSH1 0x2 DUP3 ADD SLOAD DUP2 MSTORE PUSH1 0x20 ADD PUSH1 0x3 DUP3 ADD SLOAD DUP2 MSTORE PUSH1 0x20 ADD PUSH1 0x4 DUP3 ADD SLOAD DUP2 MSTORE PUSH1 0x20 ADD PUSH1 0x5 DUP3 ADD PUSH0 SWAP1 SLOAD SWAP1 PUSH2 0x100 EXP SWAP1 DIV PUSH1 0xFF AND PUSH1 0xFF AND PUSH1 0xFF AND DUP2 MSTORE PUSH1 0x20 ADD PUSH1 0x6 DUP3 ADD SLOAD DUP2 MSTORE PUSH1 0x20 ADD PUSH1 0x7 DUP3 ADD SLOAD DUP2 MSTORE PUSH1 0x20 ADD PUSH1 0x8 DUP3 ADD SLOAD DUP2 MSTORE POP POP SWAP1 POP SWAP2 SWAP1 POP JUMP JUMPDEST PUSH0 PUSH1 0x6 PUSH0 SWAP1 SLOAD SWAP1 PUSH2 0x100 EXP SWAP1 DIV PUSH20 0xFFFFFFFFFFFFFFFFFFFFFFFFFFFFFFFFFFFFFFFF AND PUSH20 0xFFFFFFFFFFFFFFFFFFFFFFFFFFFFFFFFFFFFFFFF AND CALLER PUSH20 0xFFFFFFFFFFFFFFFFFFFFFFFFFFFFFFFFFFFFFFFF AND EQ ISZERO DUP1 ISZERO PUSH2 0xC45 JUMPI POP PUSH1 0x7 PUSH0 SWAP1 SLOAD SWAP1 PUSH2 0x100 EXP SWAP1 DIV PUSH20 0xFFFFFFFFFFFFFFFFFFFFFFFFFFFFFFFFFFFFFFFF AND PUSH20 0xFFFFFFFFFFFFFFFFFFFFFFFFFFFFFFFFFFFFFFFF AND CALLER PUSH20 0xFFFFFFFFFFFFFFFFFFFFFFFFFFFFFFFFFFFFFFFF AND EQ ISZERO JUMPDEST ISZERO PUSH2 0xC7C JUMPI PUSH1 0x40 MLOAD PUSH32 0x82B4290000000000000000000000000000000000000000000000000000000000 DUP2 MSTORE PUSH1 0x4 ADD PUSH1 0x40 MLOAD DUP1 SWAP2 SUB SWAP1 REVERT JUMPDEST PUSH0 PUSH20 0xFFFFFFFFFFFFFFFFFFFFFFFFFFFFFFFFFFFFFFFF AND DUP10 PUSH20 0xFFFFFFFFFFFFFFFFFFFFFFFFFFFFFFFFFFFFFFFF AND SUB PUSH2 0xCE1 JUMPI PUSH1 0x40 MLOAD PUSH32 0xF2A3E8DB00000000000000000000000000000000000000000000000000000000 DUP2 MSTORE PUSH1 0x4 ADD PUSH1 0x40 MLOAD DUP1 SWAP2 SUB SWAP1 REVERT JUMPDEST PUSH0 PUSH20 0xFFFFFFFFFFFFFFFFFFFFFFFFFFFFFFFFFFFFFFFF AND DUP9 PUSH20 0xFFFFFFFFFFFFFFFFFFFFFFFFFFFFFFFFFFFFFFFF AND SUB PUSH2 0xD46 JUMPI PUSH1 0x40 MLOAD PUSH32 0xF2A3E8DB00000000000000000000000000000000000000000000000000000000 DUP2 MSTORE PUSH1 0x4 ADD PUSH1 0x40 MLOAD DUP1 SWAP2 SUB SWAP1 REVERT JUMPDEST PUSH0 DUP8 SUB PUSH2 0xD7F JUMPI PUSH1 0x40 MLOAD PUSH32 0xF2A3E8DB00000000000000000000000000000000000000000000000000000000 DUP2 MSTORE PUSH1 0x4 ADD PUSH1 0x40 MLOAD DUP1 SWAP2 SUB SWAP1 REVERT JUMPDEST PUSH1 0x1 DUP5 PUSH1 0xFF AND GT ISZERO PUSH2 0xDBD JUMPI PUSH1 0x40 MLOAD PUSH32 0xF599342800000000000000000000000000000000000000000000000000000000 DUP2 MSTORE PUSH1 0x4 ADD PUSH1 0x40 MLOAD DUP1 SWAP2 SUB SWAP1 REVERT JUMPDEST PUSH0 DUP1 SLOAD SWAP1 POP SWAP1 POP PUSH0 PUSH1 0x40 MLOAD DUP1 PUSH2 0x120 ADD PUSH1 0x40 MSTORE DUP1 DUP12 PUSH20 0xFFFFFFFFFFFFFFFFFFFFFFFFFFFFFFFFFFFFFFFF AND DUP2 MSTORE PUSH1 0x20 ADD DUP11 PUSH20 0xFFFFFFFFFFFFFFFFFFFFFFFFFFFFFFFFFFFFFFFF AND DUP2 MSTORE PUSH1 0x20 ADD DUP10 DUP2 MSTORE PUSH1 0x20 ADD DUP9 DUP2 MSTORE PUSH1 0x20 ADD DUP8 DUP2 MSTORE PUSH1 0x20 ADD DUP7 PUSH1 0xFF AND DUP2 MSTORE PUSH1 0x20 ADD TIMESTAMP DUP2 MSTORE PUSH1 0x20 ADD DUP6 DUP2 MSTORE PUSH1 0x20 ADD DUP5 DUP2 MSTORE POP SWAP1 DUP1 PUSH1 0x1 DUP2 SLOAD ADD DUP1 DUP3 SSTORE DUP1 SWAP2 POP POP PUSH1 0x1 SWAP1 SUB SWAP1 PUSH0 MSTORE PUSH1 0x20 PUSH0 KECCAK256 SWAP1 PUSH1 0x9 MUL ADD PUSH0 SWAP1 SWAP2 SWAP1 SWAP2 SWAP1 SWAP2 POP PUSH0 DUP3 ADD MLOAD DUP2 PUSH0 ADD PUSH0 PUSH2 0x100 EXP DUP2 SLOAD DUP2 PUSH20 0xFFFFFFFFFFFFFFFFFFFFFFFFFFFFFFFFFFFFFFFF MUL NOT AND SWAP1 DUP4 PUSH20 0xFFFFFFFFFFFFFFFFFFFFFFFFFFFFFFFFFFFFFFFF AND MUL OR SWAP1 SSTORE POP PUSH1 0x20 DUP3 ADD MLOAD DUP2 PUSH1 0x1 ADD PUSH0 PUSH2 0x100 EXP DUP2 SLOAD DUP2 PUSH20 0xFFFFFFFFFFFFFFFFFFFFFFFFFFFFFFFFFFFFFFFF MUL NOT AND SWAP1 DUP4 PUSH20 0xFFFFFFFFFFFFFFFFFFFFFFFFFFFFFFFFFFFFFFFF AND MUL OR SWAP1 SSTORE POP PUSH1 0x40 DUP3 ADD MLOAD DUP2 PUSH1 0x2 ADD SSTORE PUSH1 0x60 DUP3 ADD MLOAD DUP2 PUSH1 0x3 ADD SSTORE PUSH1 0x80 DUP3 ADD MLOAD DUP2 PUSH1 0x4 ADD SSTORE PUSH1 0xA0 DUP3 ADD MLOAD DUP2 PUSH1 0x5 ADD PUSH0 PUSH2 0x100 EXP DUP2 SLOAD DUP2 PUSH1 0xFF MUL NOT AND SWAP1 DUP4 PUSH1 0xFF AND MUL OR SWAP1 SSTORE POP PUSH1 0xC0 DUP3 ADD MLOAD DUP2 PUSH1 0x6 ADD SSTORE PUSH1 0xE0 DUP3 ADD MLOAD DUP2 PUSH1 0x7 ADD SSTORE PUSH2 0x100 DUP3 ADD MLOAD DUP2 PUSH1 0x8 ADD SSTORE POP POP DUP6 PUSH1 0x3 PUSH0 DUP3 DUP3 SLOAD PUSH2 0xF54 SWAP2 SWAP1 PUSH2 0x19E2 JUMP JUMPDEST SWAP3 POP POP DUP2 SWAP1 SSTORE POP PUSH1 0x4 PUSH0 DUP2 SLOAD DUP1 SWAP3 SWAP2 SWAP1 PUSH2 0xF6D SWAP1 PUSH2 0x1A75 JUMP JUMPDEST SWAP2 SWAP1 POP SSTORE POP PUSH1 0x5 PUSH0 DUP11 PUSH20 0xFFFFFFFFFFFFFFFFFFFFFFFFFFFFFFFFFFFFFFFF AND PUSH20 0xFFFFFFFFFFFFFFFFFFFFFFFFFFFFFFFFFFFFFFFF AND DUP2 MSTORE PUSH1 0x20 ADD SWAP1 DUP2 MSTORE PUSH1 0x20 ADD PUSH0 KECCAK256 PUSH0 DUP2 SLOAD DUP1 SWAP3 SWAP2 SWAP1 PUSH2 0xFBF SWAP1 PUSH2 0x1A75 JUMP JUMPDEST SWAP2 SWAP1 POP SSTORE POP PUSH0 PUSH1 0xFF AND DUP5 PUSH1 0xFF AND SUB PUSH2 0xFEE JUMPI DUP7 PUSH1 0x1 PUSH0 DUP3 DUP3 SLOAD PUSH2 0xFE2 SWAP2 SWAP1 PUSH2 0x19E2 JUMP JUMPDEST SWAP3 POP POP DUP2 SWAP1 SSTORE POP PUSH2 0x1007 JUMP JUMPDEST DUP7 PUSH1 0x2 PUSH0 DUP3 DUP3 SLOAD PUSH2 0xFFF SWAP2 SWAP1 PUSH2 0x19E2 JUMP JUMPDEST SWAP3 POP POP DUP2 SWAP1 SSTORE POP JUMPDEST DUP8 PUSH20 0xFFFFFFFFFFFFFFFFFFFFFFFFFFFFFFFFFFFFFFFF AND DUP10 PUSH20 0xFFFFFFFFFFFFFFFFFFFFFFFFFFFFFFFFFFFFFFFF AND DUP3 PUSH32 0x4FF3917F274A7035E685B2352D2CA9BBAF4B85746E49D1613C2A3988551D9B5B DUP11 DUP11 DUP10 DUP9 PUSH1 0x40 MLOAD PUSH2 0x106B SWAP5 SWAP4 SWAP3 SWAP2 SWAP1 PUSH2 0x1ABC JUMP JUMPDEST PUSH1 0x40 MLOAD DUP1 SWAP2 SUB SWAP1 LOG4 SWAP9 SWAP8 POP POP POP POP POP POP POP POP JUMP JUMPDEST PUSH1 0x1 DUP2 JUMP JUMPDEST PUSH1 0x6 PUSH0 SWAP1 SLOAD SWAP1 PUSH2 0x100 EXP SWAP1 DIV PUSH20 0xFFFFFFFFFFFFFFFFFFFFFFFFFFFFFFFFFFFFFFFF AND PUSH20 0xFFFFFFFFFFFFFFFFFFFFFFFFFFFFFFFFFFFFFFFF AND CALLER PUSH20 0xFFFFFFFFFFFFFFFFFFFFFFFFFFFFFFFFFFFFFFFF AND EQ PUSH2 0x110A JUMPI PUSH1 0x40 MLOAD PUSH32 0x82B4290000000000000000000000000000000000000000000000000000000000 DUP2 MSTORE PUSH1 0x4 ADD PUSH1 0x40 MLOAD DUP1 SWAP2 SUB SWAP1 REVERT JUMPDEST PUSH0 PUSH20 0xFFFFFFFFFFFFFFFFFFFFFFFFFFFFFFFFFFFFFFFF AND DUP2 PUSH20 0xFFFFFFFFFFFFFFFFFFFFFFFFFFFFFFFFFFFFFFFF AND SUB PUSH2 0x116F JUMPI PUSH1 0x40 MLOAD PUSH32 0xD92E233D00000000000000000000000000000000000000000000000000000000 DUP2 MSTORE PUSH1 0x4 ADD PUSH1 0x40 MLOAD DUP1 SWAP2 SUB SWAP1 REVERT JUMPDEST DUP1 PUSH20 0xFFFFFFFFFFFFFFFFFFFFFFFFFFFFFFFFFFFFFFFF AND PUSH1 0x6 PUSH0 SWAP1 SLOAD SWAP1 PUSH2 0x100 EXP SWAP1 DIV PUSH20 0xFFFFFFFFFFFFFFFFFFFFFFFFFFFFFFFFFFFFFFFF AND PUSH20 0xFFFFFFFFFFFFFFFFFFFFFFFFFFFFFFFFFFFFFFFF AND PUSH32 0x8BE0079C531659141344CD1FD0A4F28419497F9722A3DAAFE3B4186F6B6457E0 PUSH1 0x40 MLOAD PUSH1 0x40 MLOAD DUP1 SWAP2 SUB SWAP1 LOG3 DUP1 PUSH1 0x6 PUSH0 PUSH2 0x100 EXP DUP2 SLOAD DUP2 PUSH20 0xFFFFFFFFFFFFFFFFFFFFFFFFFFFFFFFFFFFFFFFF MUL NOT AND SWAP1 DUP4 PUSH20 0xFFFFFFFFFFFFFFFFFFFFFFFFFFFFFFFFFFFFFFFF AND MUL OR SWAP1 SSTORE POP POP JUMP JUMPDEST PUSH0 DUP2 JUMP JUMPDEST PUSH1 0x40 MLOAD DUP1 PUSH2 0x120 ADD PUSH1 0x40 MSTORE DUP1 PUSH0 PUSH20 0xFFFFFFFFFFFFFFFFFFFFFFFFFFFFFFFFFFFFFFFF AND DUP2 MSTORE PUSH1 0x20 ADD PUSH0 PUSH20 0xFFFFFFFFFFFFFFFFFFFFFFFFFFFFFFFFFFFFFFFF AND DUP2 MSTORE PUSH1 0x20 ADD PUSH0 DUP2 MSTORE PUSH1 0x20 ADD PUSH0 DUP2 MSTORE PUSH1 0x20 ADD PUSH0 DUP2 MSTORE PUSH1 0x20 ADD PUSH0 PUSH1 0xFF AND DUP2 MSTORE PUSH1 0x20 ADD PUSH0 DUP2 MSTORE PUSH1 0x20 ADD PUSH0 DUP2 MSTORE PUSH1 0x20 ADD PUSH0 DUP2 MSTORE POP SWAP1 JUMP JUMPDEST PUSH0 PUSH0 REVERT JUMPDEST PUSH0 DUP2 SWAP1 POP SWAP2 SWAP1 POP JUMP JUMPDEST PUSH2 0x12B9 DUP2 PUSH2 0x12A7 JUMP JUMPDEST DUP2 EQ PUSH2 0x12C3 JUMPI PUSH0 PUSH0 REVERT JUMPDEST POP JUMP JUMPDEST PUSH0 DUP2 CALLDATALOAD SWAP1 POP PUSH2 0x12D4 DUP2 PUSH2 0x12B0 JUMP JUMPDEST SWAP3 SWAP2 POP POP JUMP JUMPDEST PUSH0 PUSH0 PUSH1 0x40 DUP4 DUP6 SUB SLT ISZERO PUSH2 0x12F0 JUMPI PUSH2 0x12EF PUSH2 0x12A3 JUMP JUMPDEST JUMPDEST PUSH0 PUSH2 0x12FD DUP6 DUP3 DUP7 ADD PUSH2 0x12C6 JUMP JUMPDEST SWAP3 POP POP PUSH1 0x20 PUSH2 0x130E DUP6 DUP3 DUP7 ADD PUSH2 0x12C6 JUMP JUMPDEST SWAP2 POP POP SWAP3 POP SWAP3 SWAP1 POP JUMP JUMPDEST PUSH0 DUP2 MLOAD SWAP1 POP SWAP2 SWAP1 POP JUMP JUMPDEST PUSH0 DUP3 DUP3 MSTORE PUSH1 0x20 DUP3 ADD SWAP1 POP SWAP3 SWAP2 POP POP JUMP JUMPDEST PUSH0 DUP2 SWAP1 POP PUSH1 0x20 DUP3 ADD SWAP1 POP SWAP2 SWAP1 POP JUMP JUMPDEST PUSH0 PUSH20 0xFFFFFFFFFFFFFFFFFFFFFFFFFFFFFFFFFFFFFFFF DUP3 AND SWAP1 POP SWAP2 SWAP1 POP JUMP JUMPDEST PUSH0 PUSH2 0x136A DUP3 PUSH2 0x1341 JUMP JUMPDEST SWAP1 POP SWAP2 SWAP1 POP JUMP JUMPDEST PUSH2 0x137A DUP2 PUSH2 0x1360 JUMP JUMPDEST DUP3 MSTORE POP POP JUMP JUMPDEST PUSH2 0x1389 DUP2 PUSH2 0x12A7 JUMP JUMPDEST DUP3 MSTORE POP POP JUMP JUMPDEST PUSH0 PUSH1 0xFF DUP3 AND SWAP1 POP SWAP2 SWAP1 POP JUMP JUMPDEST PUSH2 0x13A4 DUP2 PUSH2 0x138F JUMP JUMPDEST DUP3 MSTORE POP POP JUMP JUMPDEST PUSH0 DUP2 SWAP1 POP SWAP2 SWAP1 POP JUMP JUMPDEST PUSH2 0x13BC DUP2 PUSH2 0x13AA JUMP JUMPDEST DUP3 MSTORE POP POP JUMP JUMPDEST PUSH2 0x120 DUP3 ADD PUSH0 DUP3 ADD MLOAD PUSH2 0x13D7 PUSH0 DUP6 ADD DUP3 PUSH2 0x1371 JUMP JUMPDEST POP PUSH1 0x20 DUP3 ADD MLOAD PUSH2 0x13EA PUSH1 0x20 DUP6 ADD DUP3 PUSH2 0x1371 JUMP JUMPDEST POP PUSH1 0x40 DUP3 ADD MLOAD PUSH2 0x13FD PUSH1 0x40 DUP6 ADD DUP3 PUSH2 0x1380 JUMP JUMPDEST POP PUSH1 0x60 DUP3 ADD MLOAD PUSH2 0x1410 PUSH1 0x60 DUP6 ADD DUP3 PUSH2 0x1380 JUMP JUMPDEST POP PUSH1 0x80 DUP3 ADD MLOAD PUSH2 0x1423 PUSH1 0x80 DUP6 ADD DUP3 PUSH2 0x1380 JUMP JUMPDEST POP PUSH1 0xA0 DUP3 ADD MLOAD PUSH2 0x1436 PUSH1 0xA0 DUP6 ADD DUP3 PUSH2 0x139B JUMP JUMPDEST POP PUSH1 0xC0 DUP3 ADD MLOAD PUSH2 0x1449 PUSH1 0xC0 DUP6 ADD DUP3 PUSH2 0x1380 JUMP JUMPDEST POP PUSH1 0xE0 DUP3 ADD MLOAD PUSH2 0x145C PUSH1 0xE0 DUP6 ADD DUP3 PUSH2 0x1380 JUMP JUMPDEST POP PUSH2 0x100 DUP3 ADD MLOAD PUSH2 0x1471 PUSH2 0x100 DUP6 ADD DUP3 PUSH2 0x13B3 JUMP JUMPDEST POP POP POP POP JUMP JUMPDEST PUSH0 PUSH2 0x1482 DUP4 DUP4 PUSH2 0x13C2 JUMP JUMPDEST PUSH2 0x120 DUP4 ADD SWAP1 POP SWAP3 SWAP2 POP POP JUMP JUMPDEST PUSH0 PUSH1 0x20 DUP3 ADD SWAP1 POP SWAP2 SWAP1 POP JUMP JUMPDEST PUSH0 PUSH2 0x14A5 DUP3 PUSH2 0x1318 JUMP JUMPDEST PUSH2 0x14AF DUP2 DUP6 PUSH2 0x1322 JUMP JUMPDEST SWAP4 POP PUSH2 0x14BA DUP4 PUSH2 0x1332 JUMP JUMPDEST DUP1 PUSH0 JUMPDEST DUP4 DUP2 LT ISZERO PUSH2 0x14EA JUMPI DUP2 MLOAD PUSH2 0x14D1 DUP9 DUP3 PUSH2 0x1477 JUMP JUMPDEST SWAP8 POP PUSH2 0x14DC DUP4 PUSH2 0x148F JUMP JUMPDEST SWAP3 POP POP PUSH1 0x1 DUP2 ADD SWAP1 POP PUSH2 0x14BD JUMP JUMPDEST POP DUP6 SWAP4 POP POP POP POP SWAP3 SWAP2 POP POP JUMP JUMPDEST PUSH0 PUSH1 0x20 DUP3 ADD SWAP1 POP DUP2 DUP2 SUB PUSH0 DUP4 ADD MSTORE PUSH2 0x150F DUP2 DUP5 PUSH2 0x149B JUMP JUMPDEST SWAP1 POP SWAP3 SWAP2 POP POP JUMP JUMPDEST PUSH2 0x1520 DUP2 PUSH2 0x12A7 JUMP JUMPDEST DUP3 MSTORE POP POP JUMP JUMPDEST PUSH0 PUSH1 0x20 DUP3 ADD SWAP1 POP PUSH2 0x1539 PUSH0 DUP4 ADD DUP5 PUSH2 0x1517 JUMP JUMPDEST SWAP3 SWAP2 POP POP JUMP JUMPDEST PUSH2 0x1548 DUP2 PUSH2 0x1360 JUMP JUMPDEST DUP2 EQ PUSH2 0x1552 JUMPI PUSH0 PUSH0 REVERT JUMPDEST POP JUMP JUMPDEST PUSH0 DUP2 CALLDATALOAD SWAP1 POP PUSH2 0x1563 DUP2 PUSH2 0x153F JUMP JUMPDEST SWAP3 SWAP2 POP POP JUMP JUMPDEST PUSH0 PUSH1 0x20 DUP3 DUP5 SUB SLT ISZERO PUSH2 0x157E JUMPI PUSH2 0x157D PUSH2 0x12A3 JUMP JUMPDEST JUMPDEST PUSH0 PUSH2 0x158B DUP5 DUP3 DUP6 ADD PUSH2 0x1555 JUMP JUMPDEST SWAP2 POP POP SWAP3 SWAP2 POP POP JUMP JUMPDEST PUSH0 DUP2 MLOAD SWAP1 POP SWAP2 SWAP1 POP JUMP JUMPDEST PUSH0 DUP3 DUP3 MSTORE PUSH1 0x20 DUP3 ADD SWAP1 POP SWAP3 SWAP2 POP POP JUMP JUMPDEST PUSH0 DUP2 SWAP1 POP PUSH1 0x20 DUP3 ADD SWAP1 POP SWAP2 SWAP1 POP JUMP JUMPDEST PUSH0 PUSH2 0x15C8 DUP4 DUP4 PUSH2 0x1380 JUMP JUMPDEST PUSH1 0x20 DUP4 ADD SWAP1 POP SWAP3 SWAP2 POP POP JUMP JUMPDEST PUSH0 PUSH1 0x20 DUP3 ADD SWAP1 POP SWAP2 SWAP1 POP JUMP JUMPDEST PUSH0 PUSH2 0x15EA DUP3 PUSH2 0x1594 JUMP JUMPDEST PUSH2 0x15F4 DUP2 DUP6 PUSH2 0x159E JUMP JUMPDEST SWAP4 POP PUSH2 0x15FF DUP4 PUSH2 0x15AE JUMP JUMPDEST DUP1 PUSH0 JUMPDEST DUP4 DUP2 LT ISZERO PUSH2 0x162F JUMPI DUP2 MLOAD PUSH2 0x1616 DUP9 DUP3 PUSH2 0x15BD JUMP JUMPDEST SWAP8 POP PUSH2 0x1621 DUP4 PUSH2 0x15D4 JUMP JUMPDEST SWAP3 POP POP PUSH1 0x1 DUP2 ADD SWAP1 POP PUSH2 0x1602 JUMP JUMPDEST POP DUP6 SWAP4 POP POP POP POP SWAP3 SWAP2 POP POP JUMP JUMPDEST PUSH0 PUSH1 0x20 DUP3 ADD SWAP1 POP DUP2 DUP2 SUB PUSH0 DUP4 ADD MSTORE PUSH2 0x1654 DUP2 DUP5 PUSH2 0x15E0 JUMP JUMPDEST SWAP1 POP SWAP3 SWAP2 POP POP JUMP JUMPDEST PUSH0 PUSH1 0x80 DUP3 ADD SWAP1 POP PUSH2 0x166F PUSH0 DUP4 ADD DUP8 PUSH2 0x1517 JUMP JUMPDEST PUSH2 0x167C PUSH1 0x20 DUP4 ADD DUP7 PUSH2 0x1517 JUMP JUMPDEST PUSH2 0x1689 PUSH1 0x40 DUP4 ADD DUP6 PUSH2 0x1517 JUMP JUMPDEST PUSH2 0x1696 PUSH1 0x60 DUP4 ADD DUP5 PUSH2 0x1517 JUMP JUMPDEST SWAP6 SWAP5 POP POP POP POP POP JUMP JUMPDEST PUSH2 0x16A8 DUP2 PUSH2 0x1360 JUMP JUMPDEST DUP3 MSTORE POP POP JUMP JUMPDEST PUSH0 PUSH1 0x20 DUP3 ADD SWAP1 POP PUSH2 0x16C1 PUSH0 DUP4 ADD DUP5 PUSH2 0x169F JUMP JUMPDEST SWAP3 SWAP2 POP POP JUMP JUMPDEST PUSH0 PUSH1 0x20 DUP3 DUP5 SUB SLT ISZERO PUSH2 0x16DC JUMPI PUSH2 0x16DB PUSH2 0x12A3 JUMP JUMPDEST JUMPDEST PUSH0 PUSH2 0x16E9 DUP5 DUP3 DUP6 ADD PUSH2 0x12C6 JUMP JUMPDEST SWAP2 POP POP SWAP3 SWAP2 POP POP JUMP JUMPDEST PUSH2 0x16FB DUP2 PUSH2 0x138F JUMP JUMPDEST DUP3 MSTORE POP POP JUMP JUMPDEST PUSH2 0x170A DUP2 PUSH2 0x13AA JUMP JUMPDEST DUP3 MSTORE POP POP JUMP JUMPDEST PUSH0 PUSH2 0x120 DUP3 ADD SWAP1 POP PUSH2 0x1724 PUSH0 DUP4 ADD DUP13 PUSH2 0x169F JUMP JUMPDEST PUSH2 0x1731 PUSH1 0x20 DUP4 ADD DUP12 PUSH2 0x169F JUMP JUMPDEST PUSH2 0x173E PUSH1 0x40 DUP4 ADD DUP11 PUSH2 0x1517 JUMP JUMPDEST PUSH2 0x174B PUSH1 0x60 DUP4 ADD DUP10 PUSH2 0x1517 JUMP JUMPDEST PUSH2 0x1758 PUSH1 0x80 DUP4 ADD DUP9 PUSH2 0x1517 JUMP JUMPDEST PUSH2 0x1765 PUSH1 0xA0 DUP4 ADD DUP8 PUSH2 0x16F2 JUMP JUMPDEST PUSH2 0x1772 PUSH1 0xC0 DUP4 ADD DUP7 PUSH2 0x1517 JUMP JUMPDEST PUSH2 0x177F PUSH1 0xE0 DUP4 ADD DUP6 PUSH2 0x1517 JUMP JUMPDEST PUSH2 0x178D PUSH2 0x100 DUP4 ADD DUP5 PUSH2 0x1701 JUMP JUMPDEST SWAP11 SWAP10 POP POP POP POP POP POP POP POP POP POP JUMP JUMPDEST PUSH2 0x120 DUP3 ADD PUSH0 DUP3 ADD MLOAD PUSH2 0x17B0 PUSH0 DUP6 ADD DUP3 PUSH2 0x1371 JUMP JUMPDEST POP PUSH1 0x20 DUP3 ADD MLOAD PUSH2 0x17C3 PUSH1 0x20 DUP6 ADD DUP3 PUSH2 0x1371 JUMP JUMPDEST POP PUSH1 0x40 DUP3 ADD MLOAD PUSH2 0x17D6 PUSH1 0x40 DUP6 ADD DUP3 PUSH2 0x1380 JUMP JUMPDEST POP PUSH1 0x60 DUP3 ADD MLOAD PUSH2 0x17E9 PUSH1 0x60 DUP6 ADD DUP3 PUSH2 0x1380 JUMP JUMPDEST POP PUSH1 0x80 DUP3 ADD MLOAD PUSH2 0x17FC PUSH1 0x80 DUP6 ADD DUP3 PUSH2 0x1380 JUMP JUMPDEST POP PUSH1 0xA0 DUP3 ADD MLOAD PUSH2 0x180F PUSH1 0xA0 DUP6 ADD DUP3 PUSH2 0x139B JUMP JUMPDEST POP PUSH1 0xC0 DUP3 ADD MLOAD PUSH2 0x1822 PUSH1 0xC0 DUP6 ADD DUP3 PUSH2 0x1380 JUMP JUMPDEST POP PUSH1 0xE0 DUP3 ADD MLOAD PUSH2 0x1835 PUSH1 0xE0 DUP6 ADD DUP3 PUSH2 0x1380 JUMP JUMPDEST POP PUSH2 0x100 DUP3 ADD MLOAD PUSH2 0x184A PUSH2 0x100 DUP6 ADD DUP3 PUSH2 0x13B3 JUMP JUMPDEST POP POP POP POP JUMP JUMPDEST PUSH0 PUSH2 0x120 DUP3 ADD SWAP1 POP PUSH2 0x1864 PUSH0 DUP4 ADD DUP5 PUSH2 0x179B JUMP JUMPDEST SWAP3 SWAP2 POP POP JUMP JUMPDEST PUSH2 0x1873 DUP2 PUSH2 0x138F JUMP JUMPDEST DUP2 EQ PUSH2 0x187D JUMPI PUSH0 PUSH0 REVERT JUMPDEST POP JUMP JUMPDEST PUSH0 DUP2 CALLDATALOAD SWAP1 POP PUSH2 0x188E DUP2 PUSH2 0x186A JUMP JUMPDEST SWAP3 SWAP2 POP POP JUMP JUMPDEST PUSH2 0x189D DUP2 PUSH2 0x13AA JUMP JUMPDEST DUP2 EQ PUSH2 0x18A7 JUMPI PUSH0 PUSH0 REVERT JUMPDEST POP JUMP JUMPDEST PUSH0 DUP2 CALLDATALOAD SWAP1 POP PUSH2 0x18B8 DUP2 PUSH2 0x1894 JUMP JUMPDEST SWAP3 SWAP2 POP POP JUMP JUMPDEST PUSH0 PUSH0 PUSH0 PUSH0 PUSH0 PUSH0 PUSH0 PUSH0 PUSH2 0x100 DUP10 DUP12 SUB SLT ISZERO PUSH2 0x18DB JUMPI PUSH2 0x18DA PUSH2 0x12A3 JUMP JUMPDEST JUMPDEST PUSH0 PUSH2 0x18E8 DUP12 DUP3 DUP13 ADD PUSH2 0x1555 JUMP JUMPDEST SWAP9 POP POP PUSH1 0x20 PUSH2 0x18F9 DUP12 DUP3 DUP13 ADD PUSH2 0x1555 JUMP JUMPDEST SWAP8 POP POP PUSH1 0x40 PUSH2 0x190A DUP12 DUP3 DUP13 ADD PUSH2 0x12C6 JUMP JUMPDEST SWAP7 POP POP PUSH1 0x60 PUSH2 0x191B DUP12 DUP3 DUP13 ADD PUSH2 0x12C6 JUMP JUMPDEST SWAP6 POP POP PUSH1 0x80 PUSH2 0x192C DUP12 DUP3 DUP13 ADD PUSH2 0x12C6 JUMP JUMPDEST SWAP5 POP POP PUSH1 0xA0 PUSH2 0x193D DUP12 DUP3 DUP13 ADD PUSH2 0x1880 JUMP JUMPDEST SWAP4 POP POP PUSH1 0xC0 PUSH2 0x194E DUP12 DUP3 DUP13 ADD PUSH2 0x12C6 JUMP JUMPDEST SWAP3 POP POP PUSH1 0xE0 PUSH2 0x195F DUP12 DUP3 DUP13 ADD PUSH2 0x18AA JUMP JUMPDEST SWAP2 POP POP SWAP3 SWAP6 SWAP9 POP SWAP3 SWAP6 SWAP9 SWAP1 SWAP4 SWAP7 POP JUMP JUMPDEST PUSH0 PUSH1 0x20 DUP3 ADD SWAP1 POP PUSH2 0x1982 PUSH0 DUP4 ADD DUP5 PUSH2 0x16F2 JUMP JUMPDEST SWAP3 SWAP2 POP POP JUMP JUMPDEST PUSH32 0x4E487B7100000000000000000000000000000000000000000000000000000000 PUSH0 MSTORE PUSH1 0x41 PUSH1 0x4 MSTORE PUSH1 0x24 PUSH0 REVERT JUMPDEST PUSH32 0x4E487B7100000000000000000000000000000000000000000000000000000000 PUSH0 MSTORE PUSH1 0x11 PUSH1 0x4 MSTORE PUSH1 0x24 PUSH0 REVERT JUMPDEST PUSH0 PUSH2 0x19EC DUP3 PUSH2 0x12A7 JUMP JUMPDEST SWAP2 POP PUSH2 0x19F7 DUP4 PUSH2 0x12A7 JUMP JUMPDEST SWAP3 POP DUP3 DUP3 ADD SWAP1 POP DUP1 DUP3 GT ISZERO PUSH2 0x1A0F JUMPI PUSH2 0x1A0E PUSH2 0x19B5 JUMP JUMPDEST JUMPDEST SWAP3 SWAP2 POP POP JUMP JUMPDEST PUSH0 PUSH2 0x1A1F DUP3 PUSH2 0x12A7 JUMP JUMPDEST SWAP2 POP PUSH2 0x1A2A DUP4 PUSH2 0x12A7 JUMP JUMPDEST SWAP3 POP DUP3 DUP3 SUB SWAP1 POP DUP2 DUP2 GT ISZERO PUSH2 0x1A42 JUMPI PUSH2 0x1A41 PUSH2 0x19B5 JUMP JUMPDEST JUMPDEST SWAP3 SWAP2 POP POP JUMP JUMPDEST PUSH32 0x4E487B7100000000000000000000000000000000000000000000000000000000 PUSH0 MSTORE PUSH1 0x32 PUSH1 0x4 MSTORE PUSH1 0x24 PUSH0 REVERT JUMPDEST PUSH0 PUSH2 0x1A7F DUP3 PUSH2 0x12A7 JUMP JUMPDEST SWAP2 POP PUSH32 0xFFFFFFFFFFFFFFFFFFFFFFFFFFFFFFFFFFFFFFFFFFFFFFFFFFFFFFFFFFFFFFFF DUP3 SUB PUSH2 0x1AB1 JUMPI PUSH2 0x1AB0 PUSH2 0x19B5 JUMP JUMPDEST JUMPDEST PUSH1 0x1 DUP3 ADD SWAP1 POP SWAP2 SWAP1 POP JUMP JUMPDEST PUSH0 PUSH1 0x80 DUP3 ADD SWAP1 POP PUSH2 0x1ACF PUSH0 DUP4 ADD DUP8 PUSH2 0x1517 JUMP JUMPDEST PUSH2 0x1ADC PUSH1 0x20 DUP4 ADD DUP7 PUSH2 0x1517 JUMP JUMPDEST PUSH2 0x1AE9 PUSH1 0x40 DUP4 ADD DUP6 PUSH2 0x16F2 JUMP JUMPDEST PUSH2 0x1AF6 PUSH1 0x60 DUP4 ADD DUP5 PUSH2 0x1701 JUMP JUMPDEST SWAP6 SWAP5 POP POP POP POP POP JUMP INVALID LOG2 PUSH5 0x6970667358 0x22 SLT KECCAK256 0xD2 EQ EXP 0xB0 GAS SWAP2 0xC1 SWAP7 0x4E DUP14 EXTCALL 0xAA RETURNDATASIZE 0xCA 0xD6 0xEB BLOCKHASH EXTSTATICCALL 0xBA NUMBER PUSH14 0x83037CD5557F3B6B869E3764736F PUSH13 0x634300081F0033000000000000 "
		},
		"gasEstimates": {
			"creation": {
				"codeDepositCost": "1393000",
				"executionCost": "25714",
				"totalCost": "1418714"
			},
			"external": {
				"CURRENCY_INR()": "397",
				"CURRENCY_USD()": "440",
				"getGlobalStats()": "infinite",
				"getLiquidation(uint256)": "infinite",
				"getLiquidationsByBorrower(address)": "infinite",
				"getLiquidationsPaginated(uint256,uint256)": "infinite",
				"getTotalRecords()": "2485",
				"liquidationCount(address)": "2847",
				"liquidations(uint256)": "infinite",
				"logLiquidation(address,address,uint256,uint256,uint256,uint8,uint256,bytes32)": "infinite",
				"loggerBot()": "2531",
				"owner()": "2619",
				"setLoggerBot(address)": "28168",
				"totalCollateralSeized()": "2514",
				"totalDebtRepaidINR()": "2448",
				"totalDebtRepaidUSD()": "2492",
				"totalLiquidationEvents()": "2492",
				"transferOwnership(address)": "30686"
			}
		},
		"methodIdentifiers": {
			"CURRENCY_INR()": "da35e1d1",
			"CURRENCY_USD()": "ff6321d9",
			"getGlobalStats()": "6b4169c3",
			"getLiquidation(uint256)": "c6a2ae8f",
			"getLiquidationsByBorrower(address)": "1143ef22",
			"getLiquidationsPaginated(uint256,uint256)": "0a993b33",
			"getTotalRecords()": "0aeacb5e",
			"liquidationCount(address)": "86b8da04",
			"liquidations(uint256)": "a66c84f4",
			"logLiquidation(address,address,uint256,uint256,uint256,uint8,uint256,bytes32)": "d497747b",
			"loggerBot()": "956cb698",
			"owner()": "8da5cb5b",
			"setLoggerBot(address)": "8bf2265b",
			"totalCollateralSeized()": "c28c4c44",
			"totalDebtRepaidINR()": "7c94b1ba",
			"totalDebtRepaidUSD()": "ba5a6a06",
			"totalLiquidationEvents()": "8831f724",
			"transferOwnership(address)": "f2fde38b"
		}
	},
	"abi": [
		{
			"inputs": [],
			"stateMutability": "nonpayable",
			"type": "constructor"
		},
		{
			"inputs": [],
			"name": "InvalidCurrency",
			"type": "error"
		},
		{
			"inputs": [],
			"name": "InvalidRecord",
			"type": "error"
		},
		{
			"inputs": [],
			"name": "RecordNotFound",
			"type": "error"
		},
		{
			"inputs": [],
			"name": "Unauthorized",
			"type": "error"
		},
		{
			"inputs": [],
			"name": "ZeroAddress",
			"type": "error"
		},
		{
			"anonymous": false,
			"inputs": [
				{
					"indexed": true,
					"internalType": "uint256",
					"name": "recordId",
					"type": "uint256"
				},
				{
					"indexed": true,
					"internalType": "address",
					"name": "borrower",
					"type": "address"
				},
				{
					"indexed": true,
					"internalType": "address",
					"name": "liquidator",
					"type": "address"
				},
				{
					"indexed": false,
					"internalType": "uint256",
					"name": "debtRepaid",
					"type": "uint256"
				},
				{
					"indexed": false,
					"internalType": "uint256",
					"name": "collateralSeized",
					"type": "uint256"
				},
				{
					"indexed": false,
					"internalType": "uint8",
					"name": "currency",
					"type": "uint8"
				},
				{
					"indexed": false,
					"internalType": "bytes32",
					"name": "bscTxHash",
					"type": "bytes32"
				}
			],
			"name": "LiquidationLogged",
			"type": "event"
		},
		{
			"anonymous": false,
			"inputs": [
				{
					"indexed": true,
					"internalType": "address",
					"name": "bot",
					"type": "address"
				}
			],
			"name": "LoggerBotUpdated",
			"type": "event"
		},
		{
			"anonymous": false,
			"inputs": [
				{
					"indexed": true,
					"internalType": "address",
					"name": "previous",
					"type": "address"
				},
				{
					"indexed": true,
					"internalType": "address",
					"name": "next_",
					"type": "address"
				}
			],
			"name": "OwnershipTransferred",
			"type": "event"
		},
		{
			"inputs": [],
			"name": "CURRENCY_INR",
			"outputs": [
				{
					"internalType": "uint8",
					"name": "",
					"type": "uint8"
				}
			],
			"stateMutability": "view",
			"type": "function"
		},
		{
			"inputs": [],
			"name": "CURRENCY_USD",
			"outputs": [
				{
					"internalType": "uint8",
					"name": "",
					"type": "uint8"
				}
			],
			"stateMutability": "view",
			"type": "function"
		},
		{
			"inputs": [],
			"name": "getGlobalStats",
			"outputs": [
				{
					"internalType": "uint256",
					"name": "totalEvents",
					"type": "uint256"
				},
				{
					"internalType": "uint256",
					"name": "totalUSD",
					"type": "uint256"
				},
				{
					"internalType": "uint256",
					"name": "totalINR",
					"type": "uint256"
				},
				{
					"internalType": "uint256",
					"name": "totalBNBSeized",
					"type": "uint256"
				}
			],
			"stateMutability": "view",
			"type": "function"
		},
		{
			"inputs": [
				{
					"internalType": "uint256",
					"name": "recordId",
					"type": "uint256"
				}
			],
			"name": "getLiquidation",
			"outputs": [
				{
					"components": [
						{
							"internalType": "address",
							"name": "borrower",
							"type": "address"
						},
						{
							"internalType": "address",
							"name": "liquidator",
							"type": "address"
						},
						{
							"internalType": "uint256",
							"name": "debtRepaid",
							"type": "uint256"
						},
						{
							"internalType": "uint256",
							"name": "collateralSeized",
							"type": "uint256"
						},
						{
							"internalType": "uint256",
							"name": "bonusSeized",
							"type": "uint256"
						},
						{
							"internalType": "uint8",
							"name": "currency",
							"type": "uint8"
						},
						{
							"internalType": "uint256",
							"name": "timestamp",
							"type": "uint256"
						},
						{
							"internalType": "uint256",
							"name": "bscBlockNumber",
							"type": "uint256"
						},
						{
							"internalType": "bytes32",
							"name": "bscTxHash",
							"type": "bytes32"
						}
					],
					"internalType": "struct LiquidationArchive.LiquidationRecord",
					"name": "",
					"type": "tuple"
				}
			],
			"stateMutability": "view",
			"type": "function"
		},
		{
			"inputs": [
				{
					"internalType": "address",
					"name": "borrower",
					"type": "address"
				}
			],
			"name": "getLiquidationsByBorrower",
			"outputs": [
				{
					"internalType": "uint256[]",
					"name": "ids",
					"type": "uint256[]"
				}
			],
			"stateMutability": "view",
			"type": "function"
		},
		{
			"inputs": [
				{
					"internalType": "uint256",
					"name": "offset",
					"type": "uint256"
				},
				{
					"internalType": "uint256",
					"name": "pageSize",
					"type": "uint256"
				}
			],
			"name": "getLiquidationsPaginated",
			"outputs": [
				{
					"components": [
						{
							"internalType": "address",
							"name": "borrower",
							"type": "address"
						},
						{
							"internalType": "address",
							"name": "liquidator",
							"type": "address"
						},
						{
							"internalType": "uint256",
							"name": "debtRepaid",
							"type": "uint256"
						},
						{
							"internalType": "uint256",
							"name": "collateralSeized",
							"type": "uint256"
						},
						{
							"internalType": "uint256",
							"name": "bonusSeized",
							"type": "uint256"
						},
						{
							"internalType": "uint8",
							"name": "currency",
							"type": "uint8"
						},
						{
							"internalType": "uint256",
							"name": "timestamp",
							"type": "uint256"
						},
						{
							"internalType": "uint256",
							"name": "bscBlockNumber",
							"type": "uint256"
						},
						{
							"internalType": "bytes32",
							"name": "bscTxHash",
							"type": "bytes32"
						}
					],
					"internalType": "struct LiquidationArchive.LiquidationRecord[]",
					"name": "page",
					"type": "tuple[]"
				}
			],
			"stateMutability": "view",
			"type": "function"
		},
		{
			"inputs": [],
			"name": "getTotalRecords",
			"outputs": [
				{
					"internalType": "uint256",
					"name": "",
					"type": "uint256"
				}
			],
			"stateMutability": "view",
			"type": "function"
		},
		{
			"inputs": [
				{
					"internalType": "address",
					"name": "",
					"type": "address"
				}
			],
			"name": "liquidationCount",
			"outputs": [
				{
					"internalType": "uint256",
					"name": "",
					"type": "uint256"
				}
			],
			"stateMutability": "view",
			"type": "function"
		},
		{
			"inputs": [
				{
					"internalType": "uint256",
					"name": "",
					"type": "uint256"
				}
			],
			"name": "liquidations",
			"outputs": [
				{
					"internalType": "address",
					"name": "borrower",
					"type": "address"
				},
				{
					"internalType": "address",
					"name": "liquidator",
					"type": "address"
				},
				{
					"internalType": "uint256",
					"name": "debtRepaid",
					"type": "uint256"
				},
				{
					"internalType": "uint256",
					"name": "collateralSeized",
					"type": "uint256"
				},
				{
					"internalType": "uint256",
					"name": "bonusSeized",
					"type": "uint256"
				},
				{
					"internalType": "uint8",
					"name": "currency",
					"type": "uint8"
				},
				{
					"internalType": "uint256",
					"name": "timestamp",
					"type": "uint256"
				},
				{
					"internalType": "uint256",
					"name": "bscBlockNumber",
					"type": "uint256"
				},
				{
					"internalType": "bytes32",
					"name": "bscTxHash",
					"type": "bytes32"
				}
			],
			"stateMutability": "view",
			"type": "function"
		},
		{
			"inputs": [
				{
					"internalType": "address",
					"name": "borrower",
					"type": "address"
				},
				{
					"internalType": "address",
					"name": "liquidator",
					"type": "address"
				},
				{
					"internalType": "uint256",
					"name": "debtRepaid",
					"type": "uint256"
				},
				{
					"internalType": "uint256",
					"name": "collateralSeized",
					"type": "uint256"
				},
				{
					"internalType": "uint256",
					"name": "bonusSeized",
					"type": "uint256"
				},
				{
					"internalType": "uint8",
					"name": "currency",
					"type": "uint8"
				},
				{
					"internalType": "uint256",
					"name": "bscBlockNumber",
					"type": "uint256"
				},
				{
					"internalType": "bytes32",
					"name": "bscTxHash",
					"type": "bytes32"
				}
			],
			"name": "logLiquidation",
			"outputs": [
				{
					"internalType": "uint256",
					"name": "recordId",
					"type": "uint256"
				}
			],
			"stateMutability": "nonpayable",
			"type": "function"
		},
		{
			"inputs": [],
			"name": "loggerBot",
			"outputs": [
				{
					"internalType": "address",
					"name": "",
					"type": "address"
				}
			],
			"stateMutability": "view",
			"type": "function"
		},
		{
			"inputs": [],
			"name": "owner",
			"outputs": [
				{
					"internalType": "address",
					"name": "",
					"type": "address"
				}
			],
			"stateMutability": "view",
			"type": "function"
		},
		{
			"inputs": [
				{
					"internalType": "address",
					"name": "bot",
					"type": "address"
				}
			],
			"name": "setLoggerBot",
			"outputs": [],
			"stateMutability": "nonpayable",
			"type": "function"
		},
		{
			"inputs": [],
			"name": "totalCollateralSeized",
			"outputs": [
				{
					"internalType": "uint256",
					"name": "",
					"type": "uint256"
				}
			],
			"stateMutability": "view",
			"type": "function"
		},
		{
			"inputs": [],
			"name": "totalDebtRepaidINR",
			"outputs": [
				{
					"internalType": "uint256",
					"name": "",
					"type": "uint256"
				}
			],
			"stateMutability": "view",
			"type": "function"
		},
		{
			"inputs": [],
			"name": "totalDebtRepaidUSD",
			"outputs": [
				{
					"internalType": "uint256",
					"name": "",
					"type": "uint256"
				}
			],
			"stateMutability": "view",
			"type": "function"
		},
		{
			"inputs": [],
			"name": "totalLiquidationEvents",
			"outputs": [
				{
					"internalType": "uint256",
					"name": "",
					"type": "uint256"
				}
			],
			"stateMutability": "view",
			"type": "function"
		},
		{
			"inputs": [
				{
					"internalType": "address",
					"name": "newOwner",
					"type": "address"
				}
			],
			"name": "transferOwnership",
			"outputs": [],
			"stateMutability": "nonpayable",
			"type": "function"
		}
	]
}