{
	"data": {
		"bytecode": {
			"linkReferences": {},
			"object": "608060405234801561000f575f5ffd5b50604051610fec380380610fec83398181016040528101906100319190610244565b5f82148061003e57505f81145b15610074576040517ebfc92100000000000000000000000000000000000000000000000000000000815260040160405180910390fd5b3360025f6101000a81548173ffffffffffffffffffffffffffffffffffffffff021916908373ffffffffffffffffffffffffffffffffffffffff160217905550815f5f5f60018111156100ca576100c9610282565b5b60ff1660ff1681526020019081526020015f2081905550805f5f6001808111156100f7576100f6610282565b5b60ff1660ff1681526020019081526020015f20819055504260015f5f600181111561012557610124610282565b5b60ff1660ff1681526020019081526020015f20819055504260015f60018081111561015357610152610282565b5b60ff1660ff1681526020019081526020015f20819055505f600181111561017d5761017c610282565b5b7f705ab289d78e384114da84e104229e63ef52843c7e62d569e275d63cc3e338ec5f84426040516101b093929190610300565b60405180910390a26001808111156101cb576101ca610282565b5b7f705ab289d78e384114da84e104229e63ef52843c7e62d569e275d63cc3e338ec5f83426040516101fe93929190610300565b60405180910390a25050610335565b5f5ffd5b5f819050919050565b61022381610211565b811461022d575f5ffd5b50565b5f8151905061023e8161021a565b92915050565b5f5f6040838503121561025a5761025961020d565b5b5f61026785828601610230565b925050602061027885828601610230565b9150509250929050565b7f4e487b71000000000000000000000000000000000000000000000000000000005f52602160045260245ffd5b5f819050919050565b5f819050919050565b5f6102db6102d66102d1846102af565b6102b8565b610211565b9050919050565b6102eb816102c1565b82525050565b6102fa81610211565b82525050565b5f6060820190506103135f8301866102e2565b61032060208301856102f1565b61032d60408301846102f1565b949350505050565b610caa806103425f395ff3fe608060405234801561000f575f5ffd5b506004361061009b575f3560e01c80638da5cb5b116100645780638da5cb5b14610157578063a62b3d3e14610175578063b601068b14610191578063e4c4e9be146101b0578063f2fde38b146101e05761009b565b80627fa4f01461009f5780630c20a01f146100bb5780632e0f2625146100eb578063313ce5671461010957806342e1851414610127575b5f5ffd5b6100b960048036038101906100b49190610986565b6101fc565b005b6100d560048036038101906100d091906109c4565b610375565b6040516100e291906109fe565b60405180910390f35b6100f36103a6565b6040516101009190610a32565b60405180910390f35b6101116103ab565b60405161011e9190610a32565b60405180910390f35b610141600480360381019061013c9190610986565b6103b3565b60405161014e91906109fe565b60405180910390f35b61015f610475565b60405161016c9190610a8a565b60405180910390f35b61018f600480360381019061018a9190610aa3565b61049a565b005b610199610713565b6040516101a7929190610ae1565b60405180910390f35b6101ca60048036038101906101c59190610b32565b61076f565b6040516101d791906109fe565b60405180910390f35b6101fa60048036038101906101f59190610b87565b610784565b005b60025f9054906101000a900473ffffffffffffffffffffffffffffffffffffffff1673ffffffffffffffffffffffffffffffffffffffff163373ffffffffffffffffffffffffffffffffffffffff1614610282576040517f82b4290000000000000000000000000000000000000000000000000000000000815260040160405180910390fd5b5f81036102ba576040517ebfc92100000000000000000000000000000000000000000000000000000000815260040160405180910390fd5b5f8260018111156102ce576102cd610bb2565b5b90505f5f5f8360ff1660ff1681526020019081526020015f20549050825f5f8460ff1660ff1681526020019081526020015f20819055504260015f8460ff1660ff1681526020019081526020015f208190555083600181111561033457610333610bb2565b5b7f705ab289d78e384114da84e104229e63ef52843c7e62d569e275d63cc3e338ec82854260405161036793929190610bdf565b60405180910390a250505050565b5f5f5f83600181111561038b5761038a610bb2565b5b60ff1660ff1681526020019081526020015f20549050919050565b600881565b5f6008905090565b5f5f8360018111156103c8576103c7610bb2565b5b90505f831180156103fa57508260015f8360ff1660ff1681526020019081526020015f2054426103f89190610c41565b115b156104555760015f8260ff1660ff1681526020019081526020015f2054836040517f2730eb4800000000000000000000000000000000000000000000000000000000815260040161044c929190610ae1565b60405180910390fd5b5f5f8260ff1660ff1681526020019081526020015f205491505092915050565b60025f9054906101000a900473ffffffffffffffffffffffffffffffffffffffff1681565b60025f9054906101000a900473ffffffffffffffffffffffffffffffffffffffff1673ffffffffffffffffffffffffffffffffffffffff163373ffffffffffffffffffffffffffffffffffffffff1614610520576040517f82b4290000000000000000000000000000000000000000000000000000000000815260040160405180910390fd5b5f82148061052d57505f81145b15610563576040517ebfc92100000000000000000000000000000000000000000000000000000000815260040160405180910390fd5b5f5f5f5f600181111561057957610578610bb2565b5b60ff1660ff1681526020019081526020015f205490505f5f5f6001808111156105a5576105a4610bb2565b5b60ff1660ff1681526020019081526020015f20549050835f5f5f60018111156105d1576105d0610bb2565b5b60ff1660ff1681526020019081526020015f2081905550825f5f6001808111156105fe576105fd610bb2565b5b60ff1660ff1681526020019081526020015f20819055504260015f5f600181111561062c5761062b610bb2565b5b60ff1660ff1681526020019081526020015f20819055504260015f60018081111561065a57610659610bb2565b5b60ff1660ff1681526020019081526020015f20819055505f600181111561068457610683610bb2565b5b7f705ab289d78e384114da84e104229e63ef52843c7e62d569e275d63cc3e338ec8386426040516106b793929190610bdf565b60405180910390a26001808111156106d2576106d1610bb2565b5b7f705ab289d78e384114da84e104229e63ef52843c7e62d569e275d63cc3e338ec82854260405161070593929190610bdf565b60405180910390a250505050565b5f5f5f5f5f600181111561072a57610729610bb2565b5b60ff1660ff1681526020019081526020015f205491505f5f60018081111561075557610754610bb2565b5b60ff1660ff1681526020019081526020015f205490509091565b6001602052805f5260405f205f915090505481565b60025f9054906101000a900473ffffffffffffffffffffffffffffffffffffffff1673ffffffffffffffffffffffffffffffffffffffff163373ffffffffffffffffffffffffffffffffffffffff161461080a576040517f82b4290000000000000000000000000000000000000000000000000000000000815260040160405180910390fd5b5f73ffffffffffffffffffffffffffffffffffffffff168173ffffffffffffffffffffffffffffffffffffffff160361086e576040517ebfc92100000000000000000000000000000000000000000000000000000000815260040160405180910390fd5b8073ffffffffffffffffffffffffffffffffffffffff1660025f9054906101000a900473ffffffffffffffffffffffffffffffffffffffff1673ffffffffffffffffffffffffffffffffffffffff167f8be0079c531659141344cd1fd0a4f28419497f9722a3daafe3b4186f6b6457e060405160405180910390a38060025f6101000a81548173ffffffffffffffffffffffffffffffffffffffff021916908373ffffffffffffffffffffffffffffffffffffffff16021790555050565b5f5ffd5b6002811061093c575f5ffd5b50565b5f8135905061094d81610930565b92915050565b5f819050919050565b61096581610953565b811461096f575f5ffd5b50565b5f813590506109808161095c565b92915050565b5f5f6040838503121561099c5761099b61092c565b5b5f6109a98582860161093f565b92505060206109ba85828601610972565b9150509250929050565b5f602082840312156109d9576109d861092c565b5b5f6109e68482850161093f565b91505092915050565b6109f881610953565b82525050565b5f602082019050610a115f8301846109ef565b92915050565b5f60ff82169050919050565b610a2c81610a17565b82525050565b5f602082019050610a455f830184610a23565b92915050565b5f73ffffffffffffffffffffffffffffffffffffffff82169050919050565b5f610a7482610a4b565b9050919050565b610a8481610a6a565b82525050565b5f602082019050610a9d5f830184610a7b565b92915050565b5f5f60408385031215610ab957610ab861092c565b5b5f610ac685828601610972565b9250506020610ad785828601610972565b9150509250929050565b5f604082019050610af45f8301856109ef565b610b0160208301846109ef565b9392505050565b610b1181610a17565b8114610b1b575f5ffd5b50565b5f81359050610b2c81610b08565b92915050565b5f60208284031215610b4757610b4661092c565b5b5f610b5484828501610b1e565b91505092915050565b610b6681610a6a565b8114610b70575f5ffd5b50565b5f81359050610b8181610b5d565b92915050565b5f60208284031215610b9c57610b9b61092c565b5b5f610ba984828501610b73565b91505092915050565b7f4e487b71000000000000000000000000000000000000000000000000000000005f52602160045260245ffd5b5f606082019050610bf25f8301866109ef565b610bff60208301856109ef565b610c0c60408301846109ef565b949350505050565b7f4e487b71000000000000000000000000000000000000000000000000000000005f52601160045260245ffd5b5f610c4b82610953565b9150610c5683610953565b9250828203905081811115610c6e57610c6d610c14565b5b9291505056fea2646970667358221220c55f20b899c9a813a85e4ac3f3bfafc974d194faa32029e43f72068c2dd2a0d964736f6c634300081f0033",
			"opcodes": "PUSH1 0x80 PUSH1 0x40 MSTORE CALLVALUE DUP1 ISZERO PUSH2 0xF JUMPI PUSH0 PUSH0 REVERT JUMPDEST POP PUSH1 0x40 MLOAD PUSH2 0xFEC CODESIZE SUB DUP1 PUSH2 0xFEC DUP4 CODECOPY DUP2 DUP2 ADD PUSH1 0x40 MSTORE DUP2 ADD SWAP1 PUSH2 0x31 SWAP2 SWAP1 PUSH2 0x244 JUMP JUMPDEST PUSH0 DUP3 EQ DUP1 PUSH2 0x3E JUMPI POP PUSH0 DUP2 EQ JUMPDEST ISZERO PUSH2 0x74 JUMPI PUSH1 0x40 MLOAD PUSH31 0xBFC92100000000000000000000000000000000000000000000000000000000 DUP2 MSTORE PUSH1 0x4 ADD PUSH1 0x40 MLOAD DUP1 SWAP2 SUB SWAP1 REVERT JUMPDEST CALLER PUSH1 0x2 PUSH0 PUSH2 0x100 EXP DUP2 SLOAD DUP2 PUSH20 0xFFFFFFFFFFFFFFFFFFFFFFFFFFFFFFFFFFFFFFFF MUL NOT AND SWAP1 DUP4 PUSH20 0xFFFFFFFFFFFFFFFFFFFFFFFFFFFFFFFFFFFFFFFF AND MUL OR SWAP1 SSTORE POP DUP2 PUSH0 PUSH0 PUSH0 PUSH1 0x1 DUP2 GT ISZERO PUSH2 0xCA JUMPI PUSH2 0xC9 PUSH2 0x282 JUMP JUMPDEST JUMPDEST PUSH1 0xFF AND PUSH1 0xFF AND DUP2 MSTORE PUSH1 0x20 ADD SWAP1 DUP2 MSTORE PUSH1 0x20 ADD PUSH0 KECCAK256 DUP2 SWAP1 SSTORE POP DUP1 PUSH0 PUSH0 PUSH1 0x1 DUP1 DUP2 GT ISZERO PUSH2 0xF7 JUMPI PUSH2 0xF6 PUSH2 0x282 JUMP JUMPDEST JUMPDEST PUSH1 0xFF AND PUSH1 0xFF AND DUP2 MSTORE PUSH1 0x20 ADD SWAP1 DUP2 MSTORE PUSH1 0x20 ADD PUSH0 KECCAK256 DUP2 SWAP1 SSTORE POP TIMESTAMP PUSH1 0x1 PUSH0 PUSH0 PUSH1 0x1 DUP2 GT ISZERO PUSH2 0x125 JUMPI PUSH2 0x124 PUSH2 0x282 JUMP JUMPDEST JUMPDEST PUSH1 0xFF AND PUSH1 0xFF AND DUP2 MSTORE PUSH1 0x20 ADD SWAP1 DUP2 MSTORE PUSH1 0x20 ADD PUSH0 KECCAK256 DUP2 SWAP1 SSTORE POP TIMESTAMP PUSH1 0x1 PUSH0 PUSH1 0x1 DUP1 DUP2 GT ISZERO PUSH2 0x153 JUMPI PUSH2 0x152 PUSH2 0x282 JUMP JUMPDEST JUMPDEST PUSH1 0xFF AND PUSH1 0xFF AND DUP2 MSTORE PUSH1 0x20 ADD SWAP1 DUP2 MSTORE PUSH1 0x20 ADD PUSH0 KECCAK256 DUP2 SWAP1 SSTORE POP PUSH0 PUSH1 0x1 DUP2 GT ISZERO PUSH2 0x17D JUMPI PUSH2 0x17C PUSH2 0x282 JUMP JUMPDEST JUMPDEST PUSH32 0x705AB289D78E384114DA84E104229E63EF52843C7E62D569E275D63CC3E338EC PUSH0 DUP5 TIMESTAMP PUSH1 0x40 MLOAD PUSH2 0x1B0 SWAP4 SWAP3 SWAP2 SWAP1 PUSH2 0x300 JUMP JUMPDEST PUSH1 0x40 MLOAD DUP1 SWAP2 SUB SWAP1 LOG2 PUSH1 0x1 DUP1 DUP2 GT ISZERO PUSH2 0x1CB JUMPI PUSH2 0x1CA PUSH2 0x282 JUMP JUMPDEST JUMPDEST PUSH32 0x705AB289D78E384114DA84E104229E63EF52843C7E62D569E275D63CC3E338EC PUSH0 DUP4 TIMESTAMP PUSH1 0x40 MLOAD PUSH2 0x1FE SWAP4 SWAP3 SWAP2 SWAP1 PUSH2 0x300 JUMP JUMPDEST PUSH1 0x40 MLOAD DUP1 SWAP2 SUB SWAP1 LOG2 POP POP PUSH2 0x335 JUMP JUMPDEST PUSH0 PUSH0 REVERT JUMPDEST PUSH0 DUP2 SWAP1 POP SWAP2 SWAP1 POP JUMP JUMPDEST PUSH2 0x223 DUP2 PUSH2 0x211 JUMP JUMPDEST DUP2 EQ PUSH2 0x22D JUMPI PUSH0 PUSH0 REVERT JUMPDEST POP JUMP JUMPDEST PUSH0 DUP2 MLOAD SWAP1 POP PUSH2 0x23E DUP2 PUSH2 0x21A JUMP JUMPDEST SWAP3 SWAP2 POP POP JUMP JUMPDEST PUSH0 PUSH0 PUSH1 0x40 DUP4 DUP6 SUB SLT ISZERO PUSH2 0x25A JUMPI PUSH2 0x259 PUSH2 0x20D JUMP JUMPDEST JUMPDEST PUSH0 PUSH2 0x267 DUP6 DUP3 DUP7 ADD PUSH2 0x230 JUMP JUMPDEST SWAP3 POP POP PUSH1 0x20 PUSH2 0x278 DUP6 DUP3 DUP7 ADD PUSH2 0x230 JUMP JUMPDEST SWAP2 POP POP SWAP3 POP SWAP3 SWAP1 POP JUMP JUMPDEST PUSH32 0x4E487B7100000000000000000000000000000000000000000000000000000000 PUSH0 MSTORE PUSH1 0x21 PUSH1 0x4 MSTORE PUSH1 0x24 PUSH0 REVERT JUMPDEST PUSH0 DUP2 SWAP1 POP SWAP2 SWAP1 POP JUMP JUMPDEST PUSH0 DUP2 SWAP1 POP SWAP2 SWAP1 POP JUMP JUMPDEST PUSH0 PUSH2 0x2DB PUSH2 0x2D6 PUSH2 0x2D1 DUP5 PUSH2 0x2AF JUMP JUMPDEST PUSH2 0x2B8 JUMP JUMPDEST PUSH2 0x211 JUMP JUMPDEST SWAP1 POP SWAP2 SWAP1 POP JUMP JUMPDEST PUSH2 0x2EB DUP2 PUSH2 0x2C1 JUMP JUMPDEST DUP3 MSTORE POP POP JUMP JUMPDEST PUSH2 0x2FA DUP2 PUSH2 0x211 JUMP JUMPDEST DUP3 MSTORE POP POP JUMP JUMPDEST PUSH0 PUSH1 0x60 DUP3 ADD SWAP1 POP PUSH2 0x313 PUSH0 DUP4 ADD DUP7 PUSH2 0x2E2 JUMP JUMPDEST PUSH2 0x320 PUSH1 0x20 DUP4 ADD DUP6 PUSH2 0x2F1 JUMP JUMPDEST PUSH2 0x32D PUSH1 0x40 DUP4 ADD DUP5 PUSH2 0x2F1 JUMP JUMPDEST SWAP5 SWAP4 POP POP POP POP JUMP JUMPDEST PUSH2 0xCAA DUP1 PUSH2 0x342 PUSH0 CODECOPY PUSH0 RETURN INVALID PUSH1 0x80 PUSH1 0x40 MSTORE CALLVALUE DUP1 ISZERO PUSH2 0xF JUMPI PUSH0 PUSH0 REVERT JUMPDEST POP PUSH1 0x4 CALLDATASIZE LT PUSH2 0x9B JUMPI PUSH0 CALLDATALOAD PUSH1 0xE0 SHR DUP1 PUSH4 0x8DA5CB5B GT PUSH2 0x64 JUMPI DUP1 PUSH4 0x8DA5CB5B EQ PUSH2 0x157 JUMPI DUP1 PUSH4 0xA62B3D3E EQ PUSH2 0x175 JUMPI DUP1 PUSH4 0xB601068B EQ PUSH2 0x191 JUMPI DUP1 PUSH4 0xE4C4E9BE EQ PUSH2 0x1B0 JUMPI DUP1 PUSH4 0xF2FDE38B EQ PUSH2 0x1E0 JUMPI PUSH2 0x9B JUMP JUMPDEST DUP1 PUSH3 0x7FA4F0 EQ PUSH2 0x9F JUMPI DUP1 PUSH4 0xC20A01F EQ PUSH2 0xBB JUMPI DUP1 PUSH4 0x2E0F2625 EQ PUSH2 0xEB JUMPI DUP1 PUSH4 0x313CE567 EQ PUSH2 0x109 JUMPI DUP1 PUSH4 0x42E18514 EQ PUSH2 0x127 JUMPI JUMPDEST PUSH0 PUSH0 REVERT JUMPDEST PUSH2 0xB9 PUSH1 0x4 DUP1 CALLDATASIZE SUB DUP2 ADD SWAP1 PUSH2 0xB4 SWAP2 SWAP1 PUSH2 0x986 JUMP JUMPDEST PUSH2 0x1FC JUMP JUMPDEST STOP JUMPDEST PUSH2 0xD5 PUSH1 0x4 DUP1 CALLDATASIZE SUB DUP2 ADD SWAP1 PUSH2 0xD0 SWAP2 SWAP1 PUSH2 0x9C4 JUMP JUMPDEST PUSH2 0x375 JUMP JUMPDEST PUSH1 0x40 MLOAD PUSH2 0xE2 SWAP2 SWAP1 PUSH2 0x9FE JUMP JUMPDEST PUSH1 0x40 MLOAD DUP1 SWAP2 SUB SWAP1 RETURN JUMPDEST PUSH2 0xF3 PUSH2 0x3A6 JUMP JUMPDEST PUSH1 0x40 MLOAD PUSH2 0x100 SWAP2 SWAP1 PUSH2 0xA32 JUMP JUMPDEST PUSH1 0x40 MLOAD DUP1 SWAP2 SUB SWAP1 RETURN JUMPDEST PUSH2 0x111 PUSH2 0x3AB JUMP JUMPDEST PUSH1 0x40 MLOAD PUSH2 0x11E SWAP2 SWAP1 PUSH2 0xA32 JUMP JUMPDEST PUSH1 0x40 MLOAD DUP1 SWAP2 SUB SWAP1 RETURN JUMPDEST PUSH2 0x141 PUSH1 0x4 DUP1 CALLDATASIZE SUB DUP2 ADD SWAP1 PUSH2 0x13C SWAP2 SWAP1 PUSH2 0x986 JUMP JUMPDEST PUSH2 0x3B3 JUMP JUMPDEST PUSH1 0x40 MLOAD PUSH2 0x14E SWAP2 SWAP1 PUSH2 0x9FE JUMP JUMPDEST PUSH1 0x40 MLOAD DUP1 SWAP2 SUB SWAP1 RETURN JUMPDEST PUSH2 0x15F PUSH2 0x475 JUMP JUMPDEST PUSH1 0x40 MLOAD PUSH2 0x16C SWAP2 SWAP1 PUSH2 0xA8A JUMP JUMPDEST PUSH1 0x40 MLOAD DUP1 SWAP2 SUB SWAP1 RETURN JUMPDEST PUSH2 0x18F PUSH1 0x4 DUP1 CALLDATASIZE SUB DUP2 ADD SWAP1 PUSH2 0x18A SWAP2 SWAP1 PUSH2 0xAA3 JUMP JUMPDEST PUSH2 0x49A JUMP JUMPDEST STOP JUMPDEST PUSH2 0x199 PUSH2 0x713 JUMP JUMPDEST PUSH1 0x40 MLOAD PUSH2 0x1A7 SWAP3 SWAP2 SWAP1 PUSH2 0xAE1 JUMP JUMPDEST PUSH1 0x40 MLOAD DUP1 SWAP2 SUB SWAP1 RETURN JUMPDEST PUSH2 0x1CA PUSH1 0x4 DUP1 CALLDATASIZE SUB DUP2 ADD SWAP1 PUSH2 0x1C5 SWAP2 SWAP1 PUSH2 0xB32 JUMP JUMPDEST PUSH2 0x76F JUMP JUMPDEST PUSH1 0x40 MLOAD PUSH2 0x1D7 SWAP2 SWAP1 PUSH2 0x9FE JUMP JUMPDEST PUSH1 0x40 MLOAD DUP1 SWAP2 SUB SWAP1 RETURN JUMPDEST PUSH2 0x1FA PUSH1 0x4 DUP1 CALLDATASIZE SUB DUP2 ADD SWAP1 PUSH2 0x1F5 SWAP2 SWAP1 PUSH2 0xB87 JUMP JUMPDEST PUSH2 0x784 JUMP JUMPDEST STOP JUMPDEST PUSH1 0x2 PUSH0 SWAP1 SLOAD SWAP1 PUSH2 0x100 EXP SWAP1 DIV PUSH20 0xFFFFFFFFFFFFFFFFFFFFFFFFFFFFFFFFFFFFFFFF AND PUSH20 0xFFFFFFFFFFFFFFFFFFFFFFFFFFFFFFFFFFFFFFFF AND CALLER PUSH20 0xFFFFFFFFFFFFFFFFFFFFFFFFFFFFFFFFFFFFFFFF AND EQ PUSH2 0x282 JUMPI PUSH1 0x40 MLOAD PUSH32 0x82B4290000000000000000000000000000000000000000000000000000000000 DUP2 MSTORE PUSH1 0x4 ADD PUSH1 0x40 MLOAD DUP1 SWAP2 SUB SWAP1 REVERT JUMPDEST PUSH0 DUP2 SUB PUSH2 0x2BA JUMPI PUSH1 0x40 MLOAD PUSH31 0xBFC92100000000000000000000000000000000000000000000000000000000 DUP2 MSTORE PUSH1 0x4 ADD PUSH1 0x40 MLOAD DUP1 SWAP2 SUB SWAP1 REVERT JUMPDEST PUSH0 DUP3 PUSH1 0x1 DUP2 GT ISZERO PUSH2 0x2CE JUMPI PUSH2 0x2CD PUSH2 0xBB2 JUMP JUMPDEST JUMPDEST SWAP1 POP PUSH0 PUSH0 PUSH0 DUP4 PUSH1 0xFF AND PUSH1 0xFF AND DUP2 MSTORE PUSH1 0x20 ADD SWAP1 DUP2 MSTORE PUSH1 0x20 ADD PUSH0 KECCAK256 SLOAD SWAP1 POP DUP3 PUSH0 PUSH0 DUP5 PUSH1 0xFF AND PUSH1 0xFF AND DUP2 MSTORE PUSH1 0x20 ADD SWAP1 DUP2 MSTORE PUSH1 0x20 ADD PUSH0 KECCAK256 DUP2 SWAP1 SSTORE POP TIMESTAMP PUSH1 0x1 PUSH0 DUP5 PUSH1 0xFF AND PUSH1 0xFF AND DUP2 MSTORE PUSH1 0x20 ADD SWAP1 DUP2 MSTORE PUSH1 0x20 ADD PUSH0 KECCAK256 DUP2 SWAP1 SSTORE POP DUP4 PUSH1 0x1 DUP2 GT ISZERO PUSH2 0x334 JUMPI PUSH2 0x333 PUSH2 0xBB2 JUMP JUMPDEST JUMPDEST PUSH32 0x705AB289D78E384114DA84E104229E63EF52843C7E62D569E275D63CC3E338EC DUP3 DUP6 TIMESTAMP PUSH1 0x40 MLOAD PUSH2 0x367 SWAP4 SWAP3 SWAP2 SWAP1 PUSH2 0xBDF JUMP JUMPDEST PUSH1 0x40 MLOAD DUP1 SWAP2 SUB SWAP1 LOG2 POP POP POP POP JUMP JUMPDEST PUSH0 PUSH0 PUSH0 DUP4 PUSH1 0x1 DUP2 GT ISZERO PUSH2 0x38B JUMPI PUSH2 0x38A PUSH2 0xBB2 JUMP JUMPDEST JUMPDEST PUSH1 0xFF AND PUSH1 0xFF AND DUP2 MSTORE PUSH1 0x20 ADD SWAP1 DUP2 MSTORE PUSH1 0x20 ADD PUSH0 KECCAK256 SLOAD SWAP1 POP SWAP2 SWAP1 POP JUMP JUMPDEST PUSH1 0x8 DUP2 JUMP JUMPDEST PUSH0 PUSH1 0x8 SWAP1 POP SWAP1 JUMP JUMPDEST PUSH0 PUSH0 DUP4 PUSH1 0x1 DUP2 GT ISZERO PUSH2 0x3C8 JUMPI PUSH2 0x3C7 PUSH2 0xBB2 JUMP JUMPDEST JUMPDEST SWAP1 POP PUSH0 DUP4 GT DUP1 ISZERO PUSH2 0x3FA JUMPI POP DUP3 PUSH1 0x1 PUSH0 DUP4 PUSH1 0xFF AND PUSH1 0xFF AND DUP2 MSTORE PUSH1 0x20 ADD SWAP1 DUP2 MSTORE PUSH1 0x20 ADD PUSH0 KECCAK256 SLOAD TIMESTAMP PUSH2 0x3F8 SWAP2 SWAP1 PUSH2 0xC41 JUMP JUMPDEST GT JUMPDEST ISZERO PUSH2 0x455 JUMPI PUSH1 0x1 PUSH0 DUP3 PUSH1 0xFF AND PUSH1 0xFF AND DUP2 MSTORE PUSH1 0x20 ADD SWAP1 DUP2 MSTORE PUSH1 0x20 ADD PUSH0 KECCAK256 SLOAD DUP4 PUSH1 0x40 MLOAD PUSH32 0x2730EB4800000000000000000000000000000000000000000000000000000000 DUP2 MSTORE PUSH1 0x4 ADD PUSH2 0x44C SWAP3 SWAP2 SWAP1 PUSH2 0xAE1 JUMP JUMPDEST PUSH1 0x40 MLOAD DUP1 SWAP2 SUB SWAP1 REVERT JUMPDEST PUSH0 PUSH0 DUP3 PUSH1 0xFF AND PUSH1 0xFF AND DUP2 MSTORE PUSH1 0x20 ADD SWAP1 DUP2 MSTORE PUSH1 0x20 ADD PUSH0 KECCAK256 SLOAD SWAP2 POP POP SWAP3 SWAP2 POP POP JUMP JUMPDEST PUSH1 0x2 PUSH0 SWAP1 SLOAD SWAP1 PUSH2 0x100 EXP SWAP1 DIV PUSH20 0xFFFFFFFFFFFFFFFFFFFFFFFFFFFFFFFFFFFFFFFF AND DUP2 JUMP JUMPDEST PUSH1 0x2 PUSH0 SWAP1 SLOAD SWAP1 PUSH2 0x100 EXP SWAP1 DIV PUSH20 0xFFFFFFFFFFFFFFFFFFFFFFFFFFFFFFFFFFFFFFFF AND PUSH20 0xFFFFFFFFFFFFFFFFFFFFFFFFFFFFFFFFFFFFFFFF AND CALLER PUSH20 0xFFFFFFFFFFFFFFFFFFFFFFFFFFFFFFFFFFFFFFFF AND EQ PUSH2 0x520 JUMPI PUSH1 0x40 MLOAD PUSH32 0x82B4290000000000000000000000000000000000000000000000000000000000 DUP2 MSTORE PUSH1 0x4 ADD PUSH1 0x40 MLOAD DUP1 SWAP2 SUB SWAP1 REVERT JUMPDEST PUSH0 DUP3 EQ DUP1 PUSH2 0x52D JUMPI POP PUSH0 DUP2 EQ JUMPDEST ISZERO PUSH2 0x563 JUMPI PUSH1 0x40 MLOAD PUSH31 0xBFC92100000000000000000000000000000000000000000000000000000000 DUP2 MSTORE PUSH1 0x4 ADD PUSH1 0x40 MLOAD DUP1 SWAP2 SUB SWAP1 REVERT JUMPDEST PUSH0 PUSH0 PUSH0 PUSH0 PUSH1 0x1 DUP2 GT ISZERO PUSH2 0x579 JUMPI PUSH2 0x578 PUSH2 0xBB2 JUMP JUMPDEST JUMPDEST PUSH1 0xFF AND PUSH1 0xFF AND DUP2 MSTORE PUSH1 0x20 ADD SWAP1 DUP2 MSTORE PUSH1 0x20 ADD PUSH0 KECCAK256 SLOAD SWAP1 POP PUSH0 PUSH0 PUSH0 PUSH1 0x1 DUP1 DUP2 GT ISZERO PUSH2 0x5A5 JUMPI PUSH2 0x5A4 PUSH2 0xBB2 JUMP JUMPDEST JUMPDEST PUSH1 0xFF AND PUSH1 0xFF AND DUP2 MSTORE PUSH1 0x20 ADD SWAP1 DUP2 MSTORE PUSH1 0x20 ADD PUSH0 KECCAK256 SLOAD SWAP1 POP DUP4 PUSH0 PUSH0 PUSH0 PUSH1 0x1 DUP2 GT ISZERO PUSH2 0x5D1 JUMPI PUSH2 0x5D0 PUSH2 0xBB2 JUMP JUMPDEST JUMPDEST PUSH1 0xFF AND PUSH1 0xFF AND DUP2 MSTORE PUSH1 0x20 ADD SWAP1 DUP2 MSTORE PUSH1 0x20 ADD PUSH0 KECCAK256 DUP2 SWAP1 SSTORE POP DUP3 PUSH0 PUSH0 PUSH1 0x1 DUP1 DUP2 GT ISZERO PUSH2 0x5FE JUMPI PUSH2 0x5FD PUSH2 0xBB2 JUMP JUMPDEST JUMPDEST PUSH1 0xFF AND PUSH1 0xFF AND DUP2 MSTORE PUSH1 0x20 ADD SWAP1 DUP2 MSTORE PUSH1 0x20 ADD PUSH0 KECCAK256 DUP2 SWAP1 SSTORE POP TIMESTAMP PUSH1 0x1 PUSH0 PUSH0 PUSH1 0x1 DUP2 GT ISZERO PUSH2 0x62C JUMPI PUSH2 0x62B PUSH2 0xBB2 JUMP JUMPDEST JUMPDEST PUSH1 0xFF AND PUSH1 0xFF AND DUP2 MSTORE PUSH1 0x20 ADD SWAP1 DUP2 MSTORE PUSH1 0x20 ADD PUSH0 KECCAK256 DUP2 SWAP1 SSTORE POP TIMESTAMP PUSH1 0x1 PUSH0 PUSH1 0x1 DUP1 DUP2 GT ISZERO PUSH2 0x65A JUMPI PUSH2 0x659 PUSH2 0xBB2 JUMP JUMPDEST JUMPDEST PUSH1 0xFF AND PUSH1 0xFF AND DUP2 MSTORE PUSH1 0x20 ADD SWAP1 DUP2 MSTORE PUSH1 0x20 ADD PUSH0 KECCAK256 DUP2 SWAP1 SSTORE POP PUSH0 PUSH1 0x1 DUP2 GT ISZERO PUSH2 0x684 JUMPI PUSH2 0x683 PUSH2 0xBB2 JUMP JUMPDEST JUMPDEST PUSH32 0x705AB289D78E384114DA84E104229E63EF52843C7E62D569E275D63CC3E338EC DUP4 DUP7 TIMESTAMP PUSH1 0x40 MLOAD PUSH2 0x6B7 SWAP4 SWAP3 SWAP2 SWAP1 PUSH2 0xBDF JUMP JUMPDEST PUSH1 0x40 MLOAD DUP1 SWAP2 SUB SWAP1 LOG2 PUSH1 0x1 DUP1 DUP2 GT ISZERO PUSH2 0x6D2 JUMPI PUSH2 0x6D1 PUSH2 0xBB2 JUMP JUMPDEST JUMPDEST PUSH32 0x705AB289D78E384114DA84E104229E63EF52843C7E62D569E275D63CC3E338EC DUP3 DUP6 TIMESTAMP PUSH1 0x40 MLOAD PUSH2 0x705 SWAP4 SWAP3 SWAP2 SWAP1 PUSH2 0xBDF JUMP JUMPDEST PUSH1 0x40 MLOAD DUP1 SWAP2 SUB SWAP1 LOG2 POP POP POP POP JUMP JUMPDEST PUSH0 PUSH0 PUSH0 PUSH0 PUSH0 PUSH1 0x1 DUP2 GT ISZERO PUSH2 0x72A JUMPI PUSH2 0x729 PUSH2 0xBB2 JUMP JUMPDEST JUMPDEST PUSH1 0xFF AND PUSH1 0xFF AND DUP2 MSTORE PUSH1 0x20 ADD SWAP1 DUP2 MSTORE PUSH1 0x20 ADD PUSH0 KECCAK256 SLOAD SWAP2 POP PUSH0 PUSH0 PUSH1 0x1 DUP1 DUP2 GT ISZERO PUSH2 0x755 JUMPI PUSH2 0x754 PUSH2 0xBB2 JUMP JUMPDEST JUMPDEST PUSH1 0xFF AND PUSH1 0xFF AND DUP2 MSTORE PUSH1 0x20 ADD SWAP1 DUP2 MSTORE PUSH1 0x20 ADD PUSH0 KECCAK256 SLOAD SWAP1 POP SWAP1 SWAP2 JUMP JUMPDEST PUSH1 0x1 PUSH1 0x20 MSTORE DUP1 PUSH0 MSTORE PUSH1 0x40 PUSH0 KECCAK256 PUSH0 SWAP2 POP SWAP1 POP SLOAD DUP2 JUMP JUMPDEST PUSH1 0x2 PUSH0 SWAP1 SLOAD SWAP1 PUSH2 0x100 EXP SWAP1 DIV PUSH20 0xFFFFFFFFFFFFFFFFFFFFFFFFFFFFFFFFFFFFFFFF AND PUSH20 0xFFFFFFFFFFFFFFFFFFFFFFFFFFFFFFFFFFFFFFFF AND CALLER PUSH20 0xFFFFFFFFFFFFFFFFFFFFFFFFFFFFFFFFFFFFFFFF AND EQ PUSH2 0x80A JUMPI PUSH1 0x40 MLOAD PUSH32 0x82B4290000000000000000000000000000000000000000000000000000000000 DUP2 MSTORE PUSH1 0x4 ADD PUSH1 0x40 MLOAD DUP1 SWAP2 SUB SWAP1 REVERT JUMPDEST PUSH0 PUSH20 0xFFFFFFFFFFFFFFFFFFFFFFFFFFFFFFFFFFFFFFFF AND DUP2 PUSH20 0xFFFFFFFFFFFFFFFFFFFFFFFFFFFFFFFFFFFFFFFF AND SUB PUSH2 0x86E JUMPI PUSH1 0x40 MLOAD PUSH31 0xBFC92100000000000000000000000000000000000000000000000000000000 DUP2 MSTORE PUSH1 0x4 ADD PUSH1 0x40 MLOAD DUP1 SWAP2 SUB SWAP1 REVERT JUMPDEST DUP1 PUSH20 0xFFFFFFFFFFFFFFFFFFFFFFFFFFFFFFFFFFFFFFFF AND PUSH1 0x2 PUSH0 SWAP1 SLOAD SWAP1 PUSH2 0x100 EXP SWAP1 DIV PUSH20 0xFFFFFFFFFFFFFFFFFFFFFFFFFFFFFFFFFFFFFFFF AND PUSH20 0xFFFFFFFFFFFFFFFFFFFFFFFFFFFFFFFFFFFFFFFF AND PUSH32 0x8BE0079C531659141344CD1FD0A4F28419497F9722A3DAAFE3B4186F6B6457E0 PUSH1 0x40 MLOAD PUSH1 0x40 MLOAD DUP1 SWAP2 SUB SWAP1 LOG3 DUP1 PUSH1 0x2 PUSH0 PUSH2 0x100 EXP DUP2 SLOAD DUP2 PUSH20 0xFFFFFFFFFFFFFFFFFFFFFFFFFFFFFFFFFFFFFFFF MUL NOT AND SWAP1 DUP4 PUSH20 0xFFFFFFFFFFFFFFFFFFFFFFFFFFFFFFFFFFFFFFFF AND MUL OR SWAP1 SSTORE POP POP JUMP JUMPDEST PUSH0 PUSH0 REVERT JUMPDEST PUSH1 0x2 DUP2 LT PUSH2 0x93C JUMPI PUSH0 PUSH0 REVERT JUMPDEST POP JUMP JUMPDEST PUSH0 DUP2 CALLDATALOAD SWAP1 POP PUSH2 0x94D DUP2 PUSH2 0x930 JUMP JUMPDEST SWAP3 SWAP2 POP POP JUMP JUMPDEST PUSH0 DUP2 SWAP1 POP SWAP2 SWAP1 POP JUMP JUMPDEST PUSH2 0x965 DUP2 PUSH2 0x953 JUMP JUMPDEST DUP2 EQ PUSH2 0x96F JUMPI PUSH0 PUSH0 REVERT JUMPDEST POP JUMP JUMPDEST PUSH0 DUP2 CALLDATALOAD SWAP1 POP PUSH2 0x980 DUP2 PUSH2 0x95C JUMP JUMPDEST SWAP3 SWAP2 POP POP JUMP JUMPDEST PUSH0 PUSH0 PUSH1 0x40 DUP4 DUP6 SUB SLT ISZERO PUSH2 0x99C JUMPI PUSH2 0x99B PUSH2 0x92C JUMP JUMPDEST JUMPDEST PUSH0 PUSH2 0x9A9 DUP6 DUP3 DUP7 ADD PUSH2 0x93F JUMP JUMPDEST SWAP3 POP POP PUSH1 0x20 PUSH2 0x9BA DUP6 DUP3 DUP7 ADD PUSH2 0x972 JUMP JUMPDEST SWAP2 POP POP SWAP3 POP SWAP3 SWAP1 POP JUMP JUMPDEST PUSH0 PUSH1 0x20 DUP3 DUP5 SUB SLT ISZERO PUSH2 0x9D9 JUMPI PUSH2 0x9D8 PUSH2 0x92C JUMP JUMPDEST JUMPDEST PUSH0 PUSH2 0x9E6 DUP5 DUP3 DUP6 ADD PUSH2 0x93F JUMP JUMPDEST SWAP2 POP POP SWAP3 SWAP2 POP POP JUMP JUMPDEST PUSH2 0x9F8 DUP2 PUSH2 0x953 JUMP JUMPDEST DUP3 MSTORE POP POP JUMP JUMPDEST PUSH0 PUSH1 0x20 DUP3 ADD SWAP1 POP PUSH2 0xA11 PUSH0 DUP4 ADD DUP5 PUSH2 0x9EF JUMP JUMPDEST SWAP3 SWAP2 POP POP JUMP JUMPDEST PUSH0 PUSH1 0xFF DUP3 AND SWAP1 POP SWAP2 SWAP1 POP JUMP JUMPDEST PUSH2 0xA2C DUP2 PUSH2 0xA17 JUMP JUMPDEST DUP3 MSTORE POP POP JUMP JUMPDEST PUSH0 PUSH1 0x20 DUP3 ADD SWAP1 POP PUSH2 0xA45 PUSH0 DUP4 ADD DUP5 PUSH2 0xA23 JUMP JUMPDEST SWAP3 SWAP2 POP POP JUMP JUMPDEST PUSH0 PUSH20 0xFFFFFFFFFFFFFFFFFFFFFFFFFFFFFFFFFFFFFFFF DUP3 AND SWAP1 POP SWAP2 SWAP1 POP JUMP JUMPDEST PUSH0 PUSH2 0xA74 DUP3 PUSH2 0xA4B JUMP JUMPDEST SWAP1 POP SWAP2 SWAP1 POP JUMP JUMPDEST PUSH2 0xA84 DUP2 PUSH2 0xA6A JUMP JUMPDEST DUP3 MSTORE POP POP JUMP JUMPDEST PUSH0 PUSH1 0x20 DUP3 ADD SWAP1 POP PUSH2 0xA9D PUSH0 DUP4 ADD DUP5 PUSH2 0xA7B JUMP JUMPDEST SWAP3 SWAP2 POP POP JUMP JUMPDEST PUSH0 PUSH0 PUSH1 0x40 DUP4 DUP6 SUB SLT ISZERO PUSH2 0xAB9 JUMPI PUSH2 0xAB8 PUSH2 0x92C JUMP JUMPDEST JUMPDEST PUSH0 PUSH2 0xAC6 DUP6 DUP3 DUP7 ADD PUSH2 0x972 JUMP JUMPDEST SWAP3 POP POP PUSH1 0x20 PUSH2 0xAD7 DUP6 DUP3 DUP7 ADD PUSH2 0x972 JUMP JUMPDEST SWAP2 POP POP SWAP3 POP SWAP3 SWAP1 POP JUMP JUMPDEST PUSH0 PUSH1 0x40 DUP3 ADD SWAP1 POP PUSH2 0xAF4 PUSH0 DUP4 ADD DUP6 PUSH2 0x9EF JUMP JUMPDEST PUSH2 0xB01 PUSH1 0x20 DUP4 ADD DUP5 PUSH2 0x9EF JUMP JUMPDEST SWAP4 SWAP3 POP POP POP JUMP JUMPDEST PUSH2 0xB11 DUP2 PUSH2 0xA17 JUMP JUMPDEST DUP2 EQ PUSH2 0xB1B JUMPI PUSH0 PUSH0 REVERT JUMPDEST POP JUMP JUMPDEST PUSH0 DUP2 CALLDATALOAD SWAP1 POP PUSH2 0xB2C DUP2 PUSH2 0xB08 JUMP JUMPDEST SWAP3 SWAP2 POP POP JUMP JUMPDEST PUSH0 PUSH1 0x20 DUP3 DUP5 SUB SLT ISZERO PUSH2 0xB47 JUMPI PUSH2 0xB46 PUSH2 0x92C JUMP JUMPDEST JUMPDEST PUSH0 PUSH2 0xB54 DUP5 DUP3 DUP6 ADD PUSH2 0xB1E JUMP JUMPDEST SWAP2 POP POP SWAP3 SWAP2 POP POP JUMP JUMPDEST PUSH2 0xB66 DUP2 PUSH2 0xA6A JUMP JUMPDEST DUP2 EQ PUSH2 0xB70 JUMPI PUSH0 PUSH0 REVERT JUMPDEST POP JUMP JUMPDEST PUSH0 DUP2 CALLDATALOAD SWAP1 POP PUSH2 0xB81 DUP2 PUSH2 0xB5D JUMP JUMPDEST SWAP3 SWAP2 POP POP JUMP JUMPDEST PUSH0 PUSH1 0x20 DUP3 DUP5 SUB SLT ISZERO PUSH2 0xB9C JUMPI PUSH2 0xB9B PUSH2 0x92C JUMP JUMPDEST JUMPDEST PUSH0 PUSH2 0xBA9 DUP5 DUP3 DUP6 ADD PUSH2 0xB73 JUMP JUMPDEST SWAP2 POP POP SWAP3 SWAP2 POP POP JUMP JUMPDEST PUSH32 0x4E487B7100000000000000000000000000000000000000000000000000000000 PUSH0 MSTORE PUSH1 0x21 PUSH1 0x4 MSTORE PUSH1 0x24 PUSH0 REVERT JUMPDEST PUSH0 PUSH1 0x60 DUP3 ADD SWAP1 POP PUSH2 0xBF2 PUSH0 DUP4 ADD DUP7 PUSH2 0x9EF JUMP JUMPDEST PUSH2 0xBFF PUSH1 0x20 DUP4 ADD DUP6 PUSH2 0x9EF JUMP JUMPDEST PUSH2 0xC0C PUSH1 0x40 DUP4 ADD DUP5 PUSH2 0x9EF JUMP JUMPDEST SWAP5 SWAP4 POP POP POP POP JUMP JUMPDEST PUSH32 0x4E487B7100000000000000000000000000000000000000000000000000000000 PUSH0 MSTORE PUSH1 0x11 PUSH1 0x4 MSTORE PUSH1 0x24 PUSH0 REVERT JUMPDEST PUSH0 PUSH2 0xC4B DUP3 PUSH2 0x953 JUMP JUMPDEST SWAP2 POP PUSH2 0xC56 DUP4 PUSH2 0x953 JUMP JUMPDEST SWAP3 POP DUP3 DUP3 SUB SWAP1 POP DUP2 DUP2 GT ISZERO PUSH2 0xC6E JUMPI PUSH2 0xC6D PUSH2 0xC14 JUMP JUMPDEST JUMPDEST SWAP3 SWAP2 POP POP JUMP INVALID LOG2 PUSH5 0x6970667358 0x22 SLT KECCAK256 0xC5 PUSH0 KECCAK256 0xB8 SWAP10 0xC9 0xA8 SGT 0xA8 MCOPY BLOBBASEFEE 0xC3 RETURN 0xBF 0xAF 0xC9 PUSH21 0xD194FAA32029E43F72068C2DD2A0D964736F6C6343 STOP ADDMOD 0x1F STOP CALLER "
		},
		"gasEstimates": {
			"creation": {
				"codeDepositCost": "648400",
				"executionCost": "infinite",
				"totalCost": "infinite"
			},
			"external": {
				"DECIMALS()": "376",
				"decimals()": "405",
				"getBothPrices()": "infinite",
				"getLatestPrice(uint8)": "2787",
				"getLatestPrice(uint8,uint256)": "infinite",
				"lastUpdatedAt(uint8)": "2826",
				"owner()": "2508",
				"transferOwnership(address)": "30686",
				"updateBothPrices(uint256,uint256)": "infinite",
				"updatePrice(uint8,uint256)": "infinite"
			}
		},
		"methodIdentifiers": {
			"DECIMALS()": "2e0f2625",
			"decimals()": "313ce567",
			"getBothPrices()": "b601068b",
			"getLatestPrice(uint8)": "0c20a01f",
			"getLatestPrice(uint8,uint256)": "42e18514",
			"lastUpdatedAt(uint8)": "e4c4e9be",
			"owner()": "8da5cb5b",
			"transferOwnership(address)": "f2fde38b",
			"updateBothPrices(uint256,uint256)": "a62b3d3e",
			"updatePrice(uint8,uint256)": "007fa4f0"
		}
	},
	"abi": [
		{
			"inputs": [
				{
					"internalType": "uint256",
					"name": "initialUSDPrice",
					"type": "uint256"
				},
				{
					"internalType": "uint256",
					"name": "initialINRPrice",
					"type": "uint256"
				}
			],
			"stateMutability": "nonpayable",
			"type": "constructor"
		},
		{
			"inputs": [],
			"name": "InvalidPrice",
			"type": "error"
		},
		{
			"inputs": [
				{
					"internalType": "uint256",
					"name": "lastUpdated",
					"type": "uint256"
				},
				{
					"internalType": "uint256",
					"name": "maxAge",
					"type": "uint256"
				}
			],
			"name": "StalePrice",
			"type": "error"
		},
		{
			"inputs": [],
			"name": "Unauthorized",
			"type": "error"
		},
		{
			"anonymous": false,
			"inputs": [
				{
					"indexed": true,
					"internalType": "address",
					"name": "previousOwner",
					"type": "address"
				},
				{
					"indexed": true,
					"internalType": "address",
					"name": "newOwner",
					"type": "address"
				}
			],
			"name": "OwnershipTransferred",
			"type": "event"
		},
		{
			"anonymous": false,
			"inputs": [
				{
					"indexed": true,
					"internalType": "enum PriceConsumer.Currency",
					"name": "currency",
					"type": "uint8"
				},
				{
					"indexed": false,
					"internalType": "uint256",
					"name": "oldPrice",
					"type": "uint256"
				},
				{
					"indexed": false,
					"internalType": "uint256",
					"name": "newPrice",
					"type": "uint256"
				},
				{
					"indexed": false,
					"internalType": "uint256",
					"name": "timestamp",
					"type": "uint256"
				}
			],
			"name": "PriceUpdated",
			"type": "event"
		},
		{
			"inputs": [],
			"name": "DECIMALS",
			"outputs": [
				{
					"internalType": "uint8",
					"name": "",
					"type": "uint8"
				}
			],
			"stateMutability": "view",
			"type": "function"
		},
		{
			"inputs": [],
			"name": "decimals",
			"outputs": [
				{
					"internalType": "uint8",
					"name": "",
					"type": "uint8"
				}
			],
			"stateMutability": "pure",
			"type": "function"
		},
		{
			"inputs": [],
			"name": "getBothPrices",
			"outputs": [
				{
					"internalType": "uint256",
					"name": "usdPrice",
					"type": "uint256"
				},
				{
					"internalType": "uint256",
					"name": "inrPrice",
					"type": "uint256"
				}
			],
			"stateMutability": "view",
			"type": "function"
		},
		{
			"inputs": [
				{
					"internalType": "enum PriceConsumer.Currency",
					"name": "currency",
					"type": "uint8"
				}
			],
			"name": "getLatestPrice",
			"outputs": [
				{
					"internalType": "uint256",
					"name": "",
					"type": "uint256"
				}
			],
			"stateMutability": "view",
			"type": "function"
		},
		{
			"inputs": [
				{
					"internalType": "enum PriceConsumer.Currency",
					"name": "currency",
					"type": "uint8"
				},
				{
					"internalType": "uint256",
					"name": "maxAge",
					"type": "uint256"
				}
			],
			"name": "getLatestPrice",
			"outputs": [
				{
					"internalType": "uint256",
					"name": "",
					"type": "uint256"
				}
			],
			"stateMutability": "view",
			"type": "function"
		},
		{
			"inputs": [
				{
					"internalType": "uint8",
					"name": "",
					"type": "uint8"
				}
			],
			"name": "lastUpdatedAt",
			"outputs": [
				{
					"internalType": "uint256",
					"name": "",
					"type": "uint256"
				}
			],
			"stateMutability": "view",
			"type": "function"
		},
		{
			"inputs": [],
			"name": "owner",
			"outputs": [
				{
					"internalType": "address",
					"name": "",
					"type": "address"
				}
			],
			"stateMutability": "view",
			"type": "function"
		},
		{
			"inputs": [
				{
					"internalType": "address",
					"name": "newOwner",
					"type": "address"
				}
			],
			"name": "transferOwnership",
			"outputs": [],
			"stateMutability": "nonpayable",
			"type": "function"
		},
		{
			"inputs": [
				{
					"internalType": "uint256",
					"name": "newUSDPrice",
					"type": "uint256"
				},
				{
					"internalType": "uint256",
					"name": "newINRPrice",
					"type": "uint256"
				}
			],
			"name": "updateBothPrices",
			"outputs": [],
			"stateMutability": "nonpayable",
			"type": "function"
		},
		{
			"inputs": [
				{
					"internalType": "enum PriceConsumer.Currency",
					"name": "currency",
					"type": "uint8"
				},
				{
					"internalType": "uint256",
					"name": "newPrice",
					"type": "uint256"
				}
			],
			"name": "updatePrice",
			"outputs": [],
			"stateMutability": "nonpayable",
			"type": "function"
		}
	]
}